:020000040800F2
:1000000000500020251500082315000821150008C0
:100010002115000821150008211500080000000026
:100020000000000000000000000000002315000890
:1000300023150008000000002315000859010008DE
:1000400021150008211500082115000821150008B8
:1000500021150008211500082115000821150008A8
:100060002115000821150008211500082115000898
:100070002115000821150008211500082115000888
:100080002115000821150008211500082115000878
:100090002115000821150008211500082115000868
:1000A0002115000821150008211500082115000858
:1000B0002115000821150008211500082115000848
:1000C0002115000821150008211500082115000838
:1000D0002115000821150008211500082115000828
:1000E0002115000821150008211500082115000818
:1000F0002115000821150008211500082115000808
:1001000021150008211500082115000821150008F7
:1001100021150008211500082115000821150008E7
:1001200021150008211500082115000821150008D7
:1001300021150008211500082115000821150008C7
:1001400021150008211500082115000821150008B7
:1001500008B501F04BFA00BF02484FF4006100F00F
:10016000B0BB00BF000C014008B52848082100F0D2
:10017000ACFB27484FF4805100F0A0FB08B100F021
:10018000D1F9002000F0BEF900F054FB002001F08E
:1001900011FA204801F006FA1C48042100F095FBF2
:1001A0001D484FF4805100F090FB00210A461B4887
:1001B0004FF4807300F052FA01F008FA01F00EFAE1
:1001C0001348022100224FF4406300F047FA012255
:1001D00004230F48002100F041FA1148002100F0EB
:1001E00005F90E484FF4807100F066FB00224FF4D1
:1001F00080730A48022100F031FA08484FF48071F8
:1002000000F05AFB00F052F9002008BD181002401F
:10021000000C0140A0BB0D0014100240000801407A
:10022000A4180008F8B5234C06462378042B06D002
:10023000072B03D1BDE8F840FFF78ABFF8BD1E4D7C
:1002400000F052FBB5F808384BBBEF782A793F0431
:1002500069781A4B07EB0267AA780F441B6807EB13
:1002600002279F4212D3D5F80C389F420ED22B782A
:10027000212B04D0412B04D1384600F01FF9C5F8DA
:10028000047800F043FB05232370F8BD00F03EFB2B
:10029000304600210122BDE8F84000F0BEBBD5F891
:1002A0000408023B294600EBC320B5F8002800F003
:1002B00015F9E6E7040000203400002000000020CB
:1002C000F0B5087883B000F07F002128144602D0F2
:1002D000002003B0F0BD4A78013A052AF8D801A001
:1002E00050F822F05F030008D10200081B03000849
:1002F0000D030008FD0200086F030008384A21685A
:1003000010780122087010461A80E2E7344B1A7800
:100310000A2A2DD0012003B0F0BD314D266829787E
:10032000032928D0062956D100224FF0070C85F862
:1003300000C017461546002131702068294E4770CD
:1003400020680627857025680120EA70226882F8F7
:1003500004C022685171089A1F801660B9E70BB17A
:100360001A882ABB1E4B06221A700120B1E71C4BCB
:1003700002221A70CEE71C4A0427D178107992F82D
:1003800001E0090401EB00619078714401EB002168
:100390001078B2F808282F70019300F0B1F895F8A2
:1003A00000C0C7B2C0F30725C0F30742019BC2E7F4
:1003B0008A78C9780C4842EA0122A0F808281A88ED
:1003C0002168A0F800281A8801F018F9044B0322CC
:1003D0001A7001207DE700228C4615461746AAE7D1
:1003E000040000202502000834000020F0B5244B52
:1003F000244C254D254A24681B682E68244F12681A
:1004000026449B02164485B08E46C7F80C3807F682
:100410001804002226FA02F5043205F00F053035E3
:10042000202A04F8015DF5D11A4A02F1080512F8F4
:10043000014B392C84BF073402F8014CAA42F6D193
:10044000154B1649164A4FF400640294A3F11006A6
:10045000042500240192BEF1000F08BF334601F1CC
:100460001402009587F8184800F084FA0D4C0E4BE2
:1004700021217F22206005B0BDE8F04000F073BB71
:10048000E0F7FF1FE8F7FF1FECF7FF1FF0F7FF1F74
:1004900034000020440800201800002048170008FD
:1004A0003C09002038090020C102000810B5024CA8
:1004B000206800F081FAFBE73809002038B5064DC6
:1004C00020F47F742B6824F003049C4203D0204660
:1004D00000F088F82C6038BD28000020002A70B594
:1004E0000DDD013A22F00102861C044616440D1A65
:1004F0002046295B023400F045F8B442F8D170BDC3
:1005000064207047012808B500D008BD00F0ECF960
:10051000034B00221A60BDE8084000F011BA00BF8A
:10052000102002400A4A08B511680A4B08680340C7
:10053000B3F1005F00D008BD074BC1F3140119608F
:1005400013681A6882F308885B68984708BD00BF83
:10055000000000200000FE2F08ED00E0064B1868A8
:10056000064B1B68B3F5007F82BF054B1B68184321
:1005700000F03500704700BF0C200240E0F7FF1F7D
:100580004C20024038B504460D4600F0C7F9114B27
:100590001B68B3F5007F04D90F4B9C4201D90F4B68
:1005A00000E00F4B1A6842F001021A60258000F04B
:1005B000B5F9084B1B68B3F5007F04D9064B9C4284
:1005C00001D9064B00E0064B1A6822F001021A60BE
:1005D00038BD00BFE0F7FF1FFFFF070850200240B3
:1005E0001020024010B5044600F098F9154B1B6826
:1005F000B3F5007F09D9144B9C4206D9134B1A68F6
:1006000042F002021A60124A05E0124B1A6842F0E8
:1006100002021A60104A14601A6842F040021A601E
:1006200000F07CF9074B1B68B3F5007F04D9064B3B
:100630009C4201D9054B00E0064B1A6822F00202E9
:100640001A6010BDE0F7FF1FFFFF070850200240AF
:100650005420024010200240142002402DE9F047AF
:10066000066845684FF6E07C002443FA04F7FF076C
:1006700021D51FFA84F8B8F1070F04D84FEA88078C
:10068000BFB2B14601E06746A9464FF00F0A0AFA29
:1006900007FA29EA0A0907F1020A02FA0AFA01FA34
:1006A00007F74AEA070747EA0907B8F1070F98BFB3
:1006B0003E4688BF3D4601340CF1040C102C1FFA55
:1006C0008CFCD2D106604560BDE8F087024B1A6809
:1006D00042F080721A60704700100240062827D846
:1006E000DFE800F004090E13181D2200114B1B68EF
:1006F0009901FBD570470F4B1B681A01FBD570475A
:100700000C4B1B689B00FBD570470A4B1B6898037A
:10071000FBD57047074B1B689907FBD57047064B05
:100720001B689A07FBD57047044B1B689B07FBD5DA
:10073000704700BF00100240201002402410024009
:1007400006281FD8DFE800F004060B101517190063
:10075000FFF7BCBF0C4B1A6842F0806211E00A4BF5
:100760001A6842F080520CE0074B1A6842F480325B
:1007700007E0054B02E0054B00E0054B1A6842F02C
:1007800001021A60704700BF0010024020100240B2
:1007900024100240034B1A6822F003021043186031
:1007A000704700BF04100240034B1A6822F4701215
:1007B00042EA80401860704704100240034B1A68F8
:1007C00022F4803242EA0040186070470410024070
:1007D000034B1A6822F4003242EA40401860704726
:1007E00004100240034B1A6822F4404242EA80306F
:1007F0001860704704100240034B1A6822F46052DC
:1008000042EAC0201860704704100240034B1A6887
:1008100022F4E06242EA00201860704704100240AF
:10082000034B1A6822F0F00242EA00101860704789
:100830000410024008B50420FFF782FF0420FFF7F0
:100840004DFF0020FFF7A6FF0320FFF779FF0320ED
:10085000FFF744FF0120FFF79DFF0020FFF7E0FFB7
:100860000320FFF7BFFF0420FFF7D0FF0020FFF7B2
:10087000C3FF022000F02EF80720FFF795FF0120AC
:10088000FFF79CFF0020FFF7A3FFFFF71FFF0020EB
:10089000FFF724FF0220FFF77DFF034A034B1A6096
:1008A000034A044B1A6008BD005125022C000020A9
:1008B00000A24A04300000200161704780680840AF
:1008C0007047C3685940C1607047036819430160AD
:1008D00070470000034B1A6822F0070210431860AB
:1008E000704700BF00200240064B1A6842F08002A9
:1008F0001A60054A43F80C2C02F1883243F80C2C9C
:10090000704700BF1020024023016745024B1A6860
:1009100042F080021A6070471020024008B5FFF7CD
:100920001DFEC307FBD408BD034B044A1A6002F145
:1009300088321A60704700BF0820024023016745D3
:1009400010B50B4CFFF7EAFF23689B0501D4FFF7B6
:10095000EBFF236843F020032360236843F0400348
:100960002360FFF7DBFF236823F02003236010BD23
:10097000102002402DE9F0410546006898460E46D9
:1009800017468047069BC0F8C850C360079B80E8A5
:10099000C0010361BDF820308382044BC366044B61
:1009A0008366044B4366BDE8F08100BF8D0B0008F1
:1009B000E70B00086D0C000808B5D0F8C8305B6A7A
:1009C000984708BD37B5069CD0F8C8500094AC686D
:1009D000A04703B030BD37B5002405468475C47503
:1009E0002146224640230094FFF7ECFFD5F8C8309B
:1009F00028465B6821469847EB6903B1984703B0E6
:100A000030BD10B5D0F8C840E469A04710BD10B59E
:100A1000D0F8C840246AA04710BD08B5D0F8C83047
:100A20001B69984708BD08B5D0F8C8309B6998473E
:100A300008BD10B5002101220446FFF7EEFF002398
:100A400084F82C3010BD38B50268838FC58ED279FA
:100A5000ED1A9542A8BF1546826BADB21A4400212B
:100A60002B460446FFF7D3FFA84205D02046FFF7E8
:100A7000E0FF4FF0FF3038BDA38F0344A38738BD9C
:100A800038B503680446DD79838F00219D42826B6F
:100A90000FD22B46FFF7B5FF022384F82C302368D2
:100AA000A26BD9790A44A263DB79A28FD31AA387F8
:100AB00038BDFFF7A6FF032384F82C300023A3875B
:100AC000A36338BD2DE9F34104460E4600F1440806
:100AD000002558F8057057B92046314604F1380210
:100AE00004F13C0302B0BDE8F04100F0C7BA08EBE6
:100AF0000503587931781A7900EA01039A4203D044
:100B00000835202DE5D1E7E704F1400300932046A6
:100B1000314604F1380204F13C03B8470128EFD80C
:100B200002B0BDE8F08110B50269044682638A799B
:100B3000CB7942EA03238387FFF7C4FF70B1A18F0B
:100B4000204619B1BDE81040FFF79ABF0B460A4690
:100B5000FFF757FF042384F82C3010BD2046BDE872
:100B60001040FFF766BF70B5002500EBC504666C4A
:100B70002EB10135042DF8D14FF0FF3070BD84F84F
:100B8000481084F849206364304670BD70B500F1A8
:100B90003006002505642946324608230446FFF73F
:100BA00036FF082804D02046BDE87040FFF741BF5B
:100BB000E38E1BB194F93020002A05DA2046314635
:100BC000BDE87040FFF7AFBFA28A9A42EBD322691B
:100BD000A587A2632268D2799A4234BF05230623EF
:100BE00084F82C3070BD90F82C3010B5062B0446DC
:100BF00010D0072B24D0052B33D1FFF724FF00287A
:100C000033DBA38FE28ED21A2368DB799A422CDC85
:100C1000062310E0FFF717FF002826DB204604F12B
:100C20003001FFF74FFF48B100210B4620460A462E
:100C3000FFF7E7FE042384F82C3010BD204610E0B7
:100C400000210B460A46FFF7E2FE002384F82C3011
:100C5000236C1BB1204604F1300198470023236424
:100C600010BDBDE81040FFF7E4BE10BD90F82C3079
:100C700010B5032B044607D0042B07D0022B1CD140
:100C8000BDE81040FFF7FCBE072313E0036C13B16F
:100C900000F13001984794F8303053B994F831306E
:100CA000052B06D1D4F8C830618E5B682046C9B2E6
:100CB0009847002384F82C3010BDBDE81040FFF7A2
:100CC000B8BE38B54B88C27D04469A420D460FD057
:100CD000C375D0F8C830DB689847D4F8C4203AB15F
:100CE00000236364E3646365E36520466988904795
:100CF000012038BD1988012984BF0121198013689A
:100D0000C27D01201A7070474A8812B91A800120EA
:100D100070470020704701201880136800221A7065
:100D2000704719880120022984BF022119801168A7
:100D300000230B7012685370704719880120022934
:100D400084BF02211980116800230B701268537050
:100D5000704738B514461A882568022A84BF0222D3
:100D60001A808988C9B2FFF75EFE003018BF0120E3
:100D70002870236800225A70012038BD08B5898880
:100D80000122C9B2FFF749FE012008BD08B58988D4
:100D90000022C9B2FFF741FE012008BD10B50A7854
:100DA00072B94C887F2C0BD8D0F8C830847593F872
:100DB00030201AB149885B68C9B29847012010BD3C
:100DC000002010BD2DE9F04F044648881D46C3B2EF
:100DD000000A022887B017460FD0032800F0D380FE
:100DE000012840F00B812368136023682A881B7850
:100DF0009A4238BF13462B8001E120690D275F43DB
:100E00001060D4F804802E8818F8074008EB070318
:100E1000A64238BF3446194622460293019000F09C
:100E2000EDFB019B361B18F807702344B6B24FF058
:100E30000008CDF810800298DDF8108001791FFAC3
:100E400088F2914240F29B800C214A43029803921F
:100E5000DDF80C80D0F809204244D2F80480B8F1C3
:100E6000000F14D098F8009018464E4538BFB14690
:100E70004A46414600F0C2FB98F800200346C9EB01
:100E800006064C4417444B44B6B2A4B2BFB24FF06E
:100E9000000C029A0398D2F80910DDF80C8008447F
:100EA00051F808101FFA8CF28A4263DA4FF0150AE3
:100EB0000AFB02FAD0F808B018461BF80A900BEBB0
:100EC0000A084E4538BFB1464A464146CDF800C0F3
:100ED00000F094FB03464B44C9EB0606A144D8F846
:100EE0001140B6B2A642B8BF3446A4B22246184654
:100EF000D8F80D101BF80AA000F080FBD8F81120DC
:100F00001FFA89F992440346361B574423444C4444
:100F1000B6B2A4B2BFB24FF0000A98F804200AF1AA
:100F200001001FFA8AFA5245DDF800C005901ED96B
:100F3000D8F809B0CAEBCA0A1BF80A9018464E4501
:100F400038BFB1460BEB0A014A46CDF800C000F0AD
:100F500055FB1BF80A200346C9EB06064C44174410
:100F60004B44B6B2A4B2BFB2DDF814A0D5E70CF181
:100F7000010C8EE7DDF8108008F1010859E7019BAC
:100F80005F802C8038E0266953B90923B3700423AD
:100F9000F37033702B88042B28BF04232B8028E0A8
:100FA000A068013B58B3E268934227DA898840F28F
:100FB0000942914222D150F823004FEA830800F001
:100FC00093FB01304300DBB233702A88934228BF81
:100FD00013462B8000232A885208013A934208DAEC
:100FE000A26852F80820D15C06EB4302518001331D
:100FF000F1E7032373703E60012000E0002007B09A
:10100000BDE8F08F38B54C78092C05D8044D55F85B
:1010100024401CB1A04738BD002038BD204638BD53
:101020004C18000838B54C780B2C05D8044D55F8F1
:1010300024401CB1A04738BD002038BD204638BD33
:101040007418000810B54C78012C03D009D3032C78
:1010500003D004E04C8834B101E04C882CB100206E
:1010600010BD034C02E0034C00E0034CA04710BD50
:10107000530D00088D0D00087D0D000810B50C788B
:1010800014F0600F12D104F01F04012C0AD005D314
:10109000022C0BD1BDE81040FFF7D4BFBDE81040D3
:1010A000FFF7B0BFBDE81040FFF7BCBF002010BD88
:1010B0001D4B02221A6053F8082C42F0800243F8BC
:1010C000082C5A6A42F410225A62184B1A68002AF5
:1010D000FBDA1A6842F001021A601A6812F0010184
:1010E000FBD1134A1348136843F0804343F4705311
:1010F0001360114B1A6842F003021A600F4AC3F8DA
:10110000001680231360A0F8CC300D4B1A6842F013
:1011100001021A600B4A1A610F22C3F81428012237
:10112000C3F80828704700BF14000050100000509A
:101130000C0000505008002000080050240000500F
:101140000800005018280480D0F8C830DB6AD3F8B3
:10115000002822F4FE6242EA0111C3F80018704729
:101160002DE9F04711F07F05089ED0F8C84003F044
:101170007F073AD13F2BE26A02D9C2F8005909E051
:101180001F2B01D9012103E00F2B8CBF022103216A
:10119000C2F80019E16ABAB2C1F81029E16A42F056
:1011A0000052D1F8005942F4002245F00845C1F838
:1011B0000059E16AC0F8D420C1F8102BE26A9B08FC
:1011C000D2F8001B41F00841C2F8001B618EE26AB0
:1011D00041EA03419162B0F8CC2013449BB2A0F8DD
:1011E000CC30A0F8CE30BDE8F08711F0800F4FEA88
:1011F00082422AD0B0F8CCC0E16A4FEA93084CEAA8
:10120000084A05F1400941F829A0E16AC444A0F860
:10121000CCC04FEA451801F511611FFA87FC41F86F
:1012200008C0E16A42F0184208F5106742F4004233
:101230007C58134343EA855323437B5026B30C2346
:1012400003FB05004666BDE8F08747F4002100EB8C
:101250008507C7F8D410E76A4FEA451807F5316CDF
:101260004CF80810E16A08F5306742F014427C58E7
:1012700042F40042134323437B502EB10C2303FB63
:1012800005008666BDE8F087BDE8F087B0F8CE308F
:10129000A0F8CC30704710B5D0F8C83051B9D86A32
:1012A000D0F8004912B144F4001401E024F4001411
:1012B000C0F80049080646BF01F07F0148315831A7
:1012C000490122B1DB6ACA5842F4001208E0DA6A26
:1012D000885820F400108850DB6ACA5842F08052C7
:1012E000CA5010BD11F0800FD0F8C8301ABF01F0FD
:1012F0007F0148315831DB6A4901C858C0F340507A
:1013000070470B0610D4431883F8D020D0F8C830AB
:1013100058314901DB6A1AB1CA5842F0006202E052
:10132000CA5842F08062CA50704770B5D0F8C850B1
:1013300001F07F01E86A4C0100F51160065936039F
:1013400019D443F400260651E86A04F510642658BF
:1013500046F004462650EC6A481C04EB0030014677
:10136000C418641A002C04DD141A645841F8044BA4
:10137000F6E7184670BD002070BDF7B50D46114662
:10138000B0F8E4206F1C934234BF1E461646D0F8D6
:10139000C830921BDB6AA0F8E420044603EB073751
:1013A000324608467B1A032A034404DD1B68043ACC
:1013B00040F8043BF6E72AB11B6802A941F8043D56
:1013C00000F01CF9D4F8C83004EB8500D96AD0F8D5
:1013D000D4006A0101F5316188502C4494F8D000A2
:1013E000DB6A02F53062D15800280CBF4FF0044090
:1013F0004FF0084001433046D15003B0F0BDD0F863
:10140000C820F8B5D36A04465E69B50409D54FF41F
:1014100000515961538EA0F8CC30BDE8F840FFF779
:10142000DABAF00631D51B6A03F4B012B2F5802F98
:1014300067D103F4F01203F00F05B2F5402FC3F3A8
:101440000A13A4F8E43014BF012202224FF47A7385
:1014500000BF013BFCD105EB4503134404EB8303C0
:101460005B6E13B12046294698470135B4F8E41065
:101470002D0300238B4205DAD4F8C8200433D26A46
:10148000AA58F7E70023A4F8E4300025D4F8C830C0
:101490006F01DB6A03F60813DB59D9070ED50C235D
:1014A00003FB05435B6E13B12046E9B29847D4F8BD
:1014B000C8300122DB6A03F60813DA510135042D26
:1014C000E4D1320508D5236A03B19847D4F8C8306F
:1014D0004FF40062DB6A5A61002E08DA636A03B1D6
:1014E0009847D4F8C8304FF00042DB6A5A6133079E
:1014F00007D5A36A03B19847D4F8C8300822DB6A3D
:101500005A61F8BDD0F8C830DB6AD3F8042811B1AD
:1015100042F0020201E022F00202C3F80428704700
:10152000FEE770470022154915485318834204D23C
:10153000144BD35853500432F5E7134A934203D265
:1015400000221A600433F8E7104C114B9C4203D27E
:1015500054F8043B9847F8E70E4C0F4B9C4203D2DB
:1015600054F8043B9847F8E7FEF7FEFD0B4C0C4B94
:101570009C4203D254F8043B9847F8E7000000204F
:1015800034000020D81800083C110020D8180008AA
:10159000D8180008D8180008D8180008D81800086B
:1015A000D8180008024B20F07F401860704700BF39
:1015B00014E000E0044B00F004001A6822F004027A
:1015C00002431A60704700BF10E000E0024B1A6847
:1015D00042F002021A60704710E000E0024B1A6805
:1015E00042F001021A60704710E000E0014A024B2D
:1015F0001A60FEE70400FA050CED00E0844641EABB
:10160000000313F0030349D1403A23D30B6803606E
:101610004B6843608B688360CB68C3600B69036170
:101620004B6943618B698361CB69C3610B6A036258
:101630004B6A43628B6A8362CB6AC3620B6B036340
:101640004B6B43638B6B8363CB6BC3634030403125
:10165000403ADBD230320BD30B6803604B684360F7
:101660008B688360CB68C36010301031103AF3D2BE
:101670000C3205D351F8043B40F8043B043AF9D24C
:10168000043208D0D2071CBF11F8013B00F8013B1F
:1016900001D30B8803806046704700BF082A13D32C
:1016A0008B07B1D010F00303AED0C3F10403D21AFC
:1016B000DB071CBF11F8013B00F8013BA4D331F854
:1016C000023B20F8023B9FE7043AD9D3013A11F8D4
:1016D000013B00F8013BF9D20B7803704B78437063
:1016E0008B7883706046704720F0030110F0030090
:1016F000C0F1000051F8043B00F1040C4FEACC0C9F
:101700006FF000021CBF22FA0CF213434FF0010CE1
:101710004CEA0C2C4CEA0C4CA3EB0C0222EA030220
:1017200012EACC1204BF51F8043B0430F4D013F099
:10173000FF0F1FBF013013F47F4F013013F47F0FF1
:1017400018BF0130704700BF1201000200000040C6
:10175000501D176000010102030100000902000092
:10176000010100C0326C17000800000001000000F9
:1017700000000000781700080904000000FE0102C4
:10178000040000000090170008090000000000009D
:10179000092109FF0000081A01000000426C616382
:1017A0006B2053706865726520546563686E6F6C5A
:1017B0006F67696573000000426C61636B204D6167
:1017C0006769632050726F62652028444655205532
:1017D000706772616465290040496E7465726E615C
:1017E0006C20466C6173682020202F3078303830B0
:1017F00030303030302F382A3030324B6700000024
:10180000426C61636B204D616769632050726F6247
:1018100065202855706772616465290040496E74BF
:1018200065726E616C20466C6173682020202F30D9
:101830007830383030303030302F382A3030324B3A
:10184000612C3132302A3030324B6700230D0008D2
:101850000000000000000000000000000000000088
:101860009D0D0008C50D000800000000F50C0008E3
:10187000C30C00083B0D0008000000000000000041
:101880000000000000000000000000000000000058
:10189000000000000000000000000000170D00081C
:1018A000090D0008B1100008491100086111000875
:1018B0008D1200089712000803130008E5120008B3
:1018C0002B1300087B130008FF1300080515000800
:0818D00000000050010080003F
:1018D80000200008020000009C17000800180008FB
:1018E800440800201C1800089C170008B8170008B6
:1018F80044080020D8170008FFFFFFFF00127A00F5
:0419080000127A004F
:0400000508001525B5
:00000001FF
