:020000040800F2
:102000000050002065990008639900086199000854
:1020100061990008619900086199000800000000BA
:1020200000000000000000000000000063990008AC
:10203000639900080000000063990008FD63000830
:102040006199000861990008619900086199000888
:102050006199000861990008619900086199000878
:102060006199000861990008619900086199000868
:102070006199000861990008619900086199000858
:102080006199000861990008619900086199000848
:102090006199000861990008619900086199000838
:1020A0006199000861990008619900086199000828
:1020B0006199000825820008ED85000861990008F3
:1020C0006199000861990008619900086199000808
:1020D000619900089D8500086199000861990008D0
:1020E0008D650008619900086199000861990008F0
:1020F00061990008619900086199000861990008D8
:1021000061990008619900086199000861990008C7
:1021100061990008619900086199000861990008B7
:1021200061990008619900086199000861990008A7
:102130006199000861990008619900086199000897
:1021400061990008619900086199000825810008DB
:1021500008B5D0F8843058684369984708BD00BF77
:10216000036810B5013B044603606BB9406803681F
:10217000013B03604BB1E06908B1236A98472046F0
:10218000BDE8104007F0F2BC10BD07F0EFFCE069BD
:102190000028F2D1F3E700BF036801330360704702
:1021A00003680133036070470368013B036003B1B8
:1021B000704707F0DBBC00BF10B582B000920B4641
:1021C000846901210022A04702B010BD70B50B4602
:1021D00082B00025012186690A4600950446B04771
:1021E000009529462046A56901220C23A84702B084
:1021F00070BD00BFF0B50446277A40680D4601F077
:10220000F00183B01646C36841EA07620821984787
:10221000606800962B46846901210022A04703B024
:10222000F0BD00BF2DE9F043D0F884600C46B169E1
:1022300083B09146304641F0100200219846FFF7E6
:10224000D9FF706800948569012100220423274684
:10225000A044C4EB0909A84704F0030344454FEA2E
:10226000C30321D019F80420706802FA03F3009325
:1022700085690134012100220C23A84784EA07055F
:1022800025F47F7525F00305002DE5D070680094D6
:102290000423856901210022A84704F00303444573
:1022A00027464FEAC303DDD1002003B0BDE8F08329
:1022B0002DE9F04FD0F884508946A96983B01646BD
:1022C000284641F0100200219B46FFF793FF686803
:1022D00000968469012100220423A0470024686835
:1022E0000121009487690BF1FF3B0A460C23A046AD
:1022F000B8470BEB060A37463446012154450A46D7
:102300004FF00C03686825D0CDF80080D0F818C0D5
:10231000E04704F00303DB00D840C6EB0902105588
:10232000013484EA070323F47F7323F00303002BB3
:10233000E3D0686800948769012100220423B8472C
:1023400068680121CDF8008087690A460C23B847E8
:102350002746D2E70025009586692946B04704F054
:102360000304E40020FA04F4284609F80B4003B003
:10237000BDE8F08F2DE9F043D0F884700C46B969C0
:1023800083B09146384641F0120200211E46FFF705
:1023900031FF78680094A04601218469002204235B
:1023A000A047B610C8EB0909444600E0013E0121F0
:1023B00000220C23BEB159F8045078680095856955
:1023C0000434A84784EA080525F47F7525F0030541
:1023D000002DEBD078680094856901210022042348
:1023E000A847A046E2E7304603B0BDE8F08300BF4F
:1023F0002DE9F04FD0F884608A46B16983B0174662
:10240000304641F0120200214FEAA30BFFF7F2FE23
:10241000706800978469012100220423A0470024EA
:1024200070680121009485690A460C23A146A847DB
:10243000B8465D463C460121013D0A464FF00C037B
:10244000706823D0CDF80090D0F818C0E047C7EBF3
:102450000A031851043484EA080323F47F7323F039
:102460000303002BE7D070680094D0F818C0012156
:1024700000220423E04770680121CDF80090D0F8D5
:1024800018C00A460C23E047A046D4E700958469AB
:102490002946A0470BF1FF3B4AF82B00284603B022
:1024A000BDE8F08F70B5836904460E4615460021DD
:1024B00043F01202FFF79EFE204632460421FFF74A
:1024C00099FE20462A460C21BDE87040FFF792BED7
:1024D00070B58B07154648BF1504826904460E4641
:1024E00042F011020021FFF785FE2046324604210A
:1024F000FFF780FE20462A460C21BDE87040FFF71A
:1025000079BE00BF38B504460D464068217A05F013
:10251000F002C36842EA01620821984760682946D0
:10252000BDE83840FFF752BE2DE9F04F026803695D
:102530000132026004218BB080469847D8F80C30F5
:1025400040F0A042042140469847D8F81030404659
:102550000421984700F02040B0F1204FF5D1DFF87A
:10256000E8B0DFF8E8A04FF000093BE007F0F6FA2A
:1025700001AD044606460FCD0FC40FCD0FC4D8F8E9
:1025800000302A680133C8F80030F4212260304658
:10259000FFF7B8FFF82130613046FFF7B3FF394647
:1025A00070613046FFF7AEFF20F037038C20B36137
:1025B00005F022FC32681F49013232601E4F1F4A6B
:1025C0001F4D204CC0F88460C0F888B0C0F874A0DB
:1025D000C260076145618461C16101F03BFBB9F5EF
:1025E000807F17D0002701A8FC210397CDF8088031
:1025F0008DF80C9001970497059706970797089711
:102600000997FFF77FFF034609F10109242004938E
:10261000002BABD1D8F80030013BC8F8003013B123
:102620000BB0BDE8F08F40460BB0BDE8F04F07F0AF
:102630009DBA00BF25220008F1230008512100089F
:1026400075230008B122000861210008FCEC000895
:1026500038B5826904460D4642F012020021FFF7A8
:10266000C9FD20462A460421FFF7C4FD20460C215F
:10267000BDE83840FFF746BF826938B542F0110225
:1026800004460D460021FFF7B5FD20462A460421E9
:10269000FFF7B0FD20460C21FFF734FFAB074CBF1E
:1026A000000C80B238BD00BF2DE9F04184B00A9E15
:1026B0005B0803F0060300324FEA56754FEAC60482
:1026C000DEB218BF01220027002944EA060444EACA
:1026D00002040CBF0A210B2180463D43C069CDE9AD
:1026E000004502F0FDFB02A96A462323D8F81C002E
:1026F00002F032FCDDE9022340F2E73402F0070188
:102700000CE002A96A462323D8F81C0002F024FC3E
:10271000DDE90223013C02F0070109D00129F0D0D4
:1027200002290FD1D00840EA437004B0BDE8F0811F
:1027300098F808000028F3D00129F1D1204604B010
:10274000BDE8F0810B4C23787BB10B48032102F0EC
:1027500041F90023237005F05DFB0848012103F0D7
:10276000B3FE0748012107F081FD0648032102F06E
:1027700031F9EEE77012002010ED000818ED0008A6
:102780001412002014ED000830B5002483B0214657
:102790000094012204230546FFF786FF054B2146DE
:1027A0000093284622460423FFF77EFF00F0320004
:1027B00003B030BD320000F030B5002483B00B46CA
:1027C0000546214600940122FFF76EFF009428463B
:1027D000214601220C23FFF767FF03B030BD00BF85
:1027E00000B50B4683B0002100920A46FFF75CFF5C
:1027F00003B05DF804FB00BFF8B5202104460120BA
:1028000007F060F9074FA268074E084D0849C461F8
:10281000C7600661456142608161BDE8F840FFF72D
:1028200083BE00BFE1270008B927000889270008F8
:10283000A9260008F0B5064683B01746002934D013
:10284000027F002A3AD1A325002F3AD103F00C03CE
:10285000042B45EA43053CD0082B3AD028460821F2
:1028600005F066FA032005F003FA40F2E734C0B23F
:1028700009E02846082105F05BFA032005F0F8F985
:10288000013CC0B215D00228F3D004283DD0012865
:1028900028D10FBB0898202105F07AFA00200821E2
:1028A00005F046FA019803B0F0BD8125002FCDD088
:1028B00007E0327A002AE8D00228E6D1002003B0EF
:1028C000F0BD03F00C0385F02405042B45EA430515
:1028D000C2D185F02005C1E701A8202105F0ECF95F
:1028E0000028DBD00D4C23789BB10D48032102F06A
:1028F00071F80023237005F08DFA0A48012103F0D6
:10290000E3FD0948012107F0B1FC012333770020E2
:10291000D5E70648032102F05DF8EAE770120020CF
:1029200010ED000818ED00081412002014ED000846
:1029300000B50B4683B0002100910122FFF77AFF1A
:1029400003B05DF804FB00BF00B50B4683B0002167
:1029500000920A46FFF76EFF03B05DF804FB00BF6C
:1029600030B5002183B00091042301220446FFF713
:1029700061FF10F0020F14BF10220022C30648BFEF
:1029800042F00202810648BF42F00402030648BF3B
:1029900042F00802002100F0B20500920B460A4600
:1029A0002046FFF747FF00232846237703B030BDBA
:1029B000F8B505F02FFA2021012007F083F804462E
:1029C00005F0D6F9204B1B785BBBA520082105F04C
:1029D000AFF9032005F04CF9C7B2012F25D1201D16
:1029E000202105F069F90546F8B9184BDFF870E0C9
:1029F0001749184AA361C4F80CE0216162612046BE
:102A0000154EFFF7ADFF2046FFF78EFD3368B3B1DB
:102A10002846294603F058FD3068003018BF0120D1
:102A2000F8BD012002F05EFBCFE701210B4803F067
:102A30004BFD204607F09AF84FF0FF30F8BD3946BD
:102A4000064803F041FDE7E7921200203528000810
:102A50003129000861290008780F002028ED0008BE
:102A600049290008704700BF08B503461A6A90302C
:102A700007F020FB002008BD08B50346026A08469F
:102A800003F1900107F016FB002008BD38B5C36BB9
:102A900004460025984703E00220013D03F0A6FC10
:102AA000236C204698470028F6D0281C18BF012028
:102AB00038BD00BF30B583B002AD044605F8011D36
:102AC0000068022102F00CFA2A4620680423002143
:102AD00002F042FA20680C2102F002FA03B030BD85
:102AE0002DE9F043814683B00C468C3001211E460F
:102AF00017460DF10808FFF7DDFF0025D9F88C0017
:102B00006A460021212368E9024502F025FA7EB1D8
:102B10003C682123D9F88C00002569466A46CDE936
:102B2000004502F019FA009B013E47F8043BEFD143
:102B300003B0BDE8F08300BF70B582B0002401256A
:102B400002AE66E90245022104468C30FFF7B2FF6F
:102B50006A46D4F88C000021262302F0FDF96A466B
:102B6000D4F88C002623694602F0F6F9DDE900234B
:102B700012F0010007D0204604F19002034910230F
:102B8000FFF7AEFF012002B070BD00BFFFFF80E87D
:102B9000F0B583B0064600F1900210231B4902AF46
:102BA00000242025FFF79CFF67E9024506F18C040D
:102BB00020460221FFF77EFF6A46D6F88C000021EE
:102BC000262302F0C9F90022134630461049FFF7C8
:102BD00087FF204601210E4CFFF76CFF01256A4656
:102BE000D6F88C0000212123CDE9004502F0B4F98C
:102BF0000022304613460749FFF772FFD6F88C00D3
:102C0000042102F06DF903B0F0BD00BFFFFF90E8B2
:102C10000000A0E1F8FFFFEA70B582B00224202591
:102C200002AE66E90245022104468C30FFF742FFFE
:102C30006A46D4F88C000021262302F08DF902B0F8
:102C400070BD00BF2DE9F8430446D02005F0D4F84C
:102C5000DFF85C900346104ADFF858800F4F104EA3
:102C6000104D114811494FF0400CC3F88C40C3F887
:102C70007490C3F80480C3F820C09F62DE62DD63F5
:102C8000186459649A60DA601A615A619A61DA616B
:102C90005A639A63BDE8F883652A0008792A000818
:102CA000692A0008192C0008392B0008912B00080C
:102CB00034ED00088D2A000808B505F039FA0448FB
:102CC00004490522852301F015FF012008BD00BF3E
:102CD000ACED00089813002008B5044B196811B139
:102CE000034801F007FF012008BD00BF0C120020BF
:102CF00028EF000870B5114C06462568C5B110488C
:102D000001F0D6FE0F4801F0D3FE246801256CB116
:102D10002946B44214BF20222A22636F0A4801F0D8
:102D2000E9FED4F880400135002CF1D1012070BDBE
:102D3000064801F0BDFE284670BD00BF780F002098
:102D4000D8ED0008ECED0008FCED0008BCED000833
:102D500038B50546114801F0ABFE114C1149A26887
:102D6000114801F0C7FE54F80C1F0029F7D19DB19E
:102D7000AD6F8DB129680D4801F0BCFE6C6821680B
:102D800039B1A268084801F0B5FE54F80C1F0029BB
:102D9000F7D1AD68002DEDD1012038BD14EE00084B
:102DA00040ED00080CEE000828EE000834EE0008A4
:102DB00008B5054801F07CFE044801F079FE04489E
:102DC00001F076FE012008BD4CEE000894EE0008EC
:102DD000C8EE000808B503F089FB0146084801F079
:102DE00089FEFFF7E5FD002804DB0020FFF782FFE6
:102DF000012008BD034801F05BFE002008BD00BFB4
:102E000018EF00082CEF00082DE9F04383B002AF63
:102E10008946154603F06AFB01462C4801F06AFE1C
:102E2000B9F1010F42DD09F10E0323F00703ADEB09
:102E3000030D0DF10808A9F1020608F1FF3446441C
:102E400055F8040F06F036FE04F8010FB442F7D12E
:102E5000C144002309F8013C404601F0B3FE041EC2
:102E60002FDB26D01A4E1B4801F044FE3368002B9E
:102E700011DD194C0025D4F80A10D4F80630227858
:102E800016480091294601F035FE33680135AB4202
:102E900004F11404EFDC124801F00AFE0020FFF7F1
:102EA00029FF01200437BD46BDE8F0834FF000083C
:102EB000D2E70C4801F0FCFD20460437BD46BDE8D2
:102EC000F083094801F0F4FD0020EBE718EF00085B
:102ED000901100207CEF000896110020A8EF000858
:102EE00058EF00085CEF000840EF0008012908B522
:102EF0000BD050680B4907F059FA0B4BD0F1010089
:102F000038BF00201870012008BD074B074A197808
:102F1000074B084800290CBF1146194601F0EAFD8D
:102F2000012008BDF0EF000892120020C4EF000855
:102F3000BCEF0008D0EF00082DE9F84F0B7800AF88
:102F400006467BB10A46002404E0092B04D012F89F
:102F5000013F33B1202BF8D112F8013F0134002B8F
:102F6000F8D1A3000E3323F00703ADEB030D0846A1
:102F7000294907F0F5FBE8460090002849D06C4647
:102F800000250020244907F0EBFB013544F8040F2D
:102F90000028F6D1D8F80040204607F025FBDFF8DE
:102FA00080A081461D4902E05AF80C1F89B12046D5
:102FB0004A4607F049FB0028F6D1DAF804303046DB
:102FC00029464246984780F00100C0B2BD46BDE8A0
:102FD000F88FDEB1D6F878A0BAF1000F16D0DAF883
:102FE0000430196869B19B4602E05BF80C1F41B1DF
:102FF00020464A4607F028FB0028F6D1DBF80430CB
:10300000DDE7DAF808A0BAF1000FE8D14FF0FF30A1
:10301000DCE704460546BFE7F8EF00080CEE0008C1
:1030200040ED0008D0F884000022436802491A727B
:10303000024AFFF737BA00BFF0ED00E003005FA0DF
:1030400010B5D0F884400A4620460549FFF72AFA11
:1030500020460449044AFFF725FA002010BD00BFAE
:10306000F8ED00E0F4ED00E00F000100F8B5D0F855
:103070008460F7693B6C63B1114D002429463046EA
:103080000022FFF70FFA3B6C0134A34205F104055F
:10309000F4D87B6A63B10B4D0024294630460022E8
:1030A000FFF700FA7B6A0134A34205F11005F4D85A
:1030B00030460549054ABDE8F840FFF7F3B900BFBF
:1030C000082000E0281000E0F0ED00E000005FA024
:1030D000D0F88400022B2DE9F041C6693AD0042BC8
:1030E00031D0012B03D04FF0FF30BDE8F0814FF01D
:1030F000000803292BD0042933D00229F3D14FF043
:10310000060C776A4FB300210B4602E00133BB4245
:1031100023D07418656808319542F7D1257A654542
:10312000F4D1647A4445F1D1BB4216D00E49002453
:1031300006EBC3061B01347219442246FFF7B2F9AD
:103140002046BDE8F08103294FF00308D3D14FF0AA
:10315000050CD6E74FF00108CBE76FF00100BDE8A2
:10316000F0814FF0070CCCE7281000E0D0F8840085
:10317000F8B5C7693E6C8EB1BB6A23F001038B4280
:103180001DD03A46002406E0D56A043225F0010538
:103190008D4206D01C46631CB342F5D14FF0FF3080
:1031A000F8BD04F1605404F60304A10000250A33BD
:1031B00047F823502A46FFF775F92846F8BD01491C
:1031C0000023F3E7082000E0D0F8840021F06042FB
:1031D000D0F81CC0F8B511F0020F22F00302DCF8A1
:1031E000407042F001020CBF4FF080434FF00043AB
:1031F0001A437FB1DCF8283013F001031CD0644679
:10320000002504E0E66A0434F60706D51D466B1C6B
:10321000BB42F7D14FF0FF30F8BD05F1605505F620
:103220000305AD000A3341F001044CF82340294660
:10323000FFF738F90020F8BD004DF3E7082000E063
:103240002DE9F04FD0F8840091B0364E05AC8B4696
:10325000019015460FCE0FC40FCE0FC496E807009D
:10326000019BBBF1020FDF6984E8070005DD6B6895
:103270001B780393643B012B23D92B4801F018FCE6
:103280000DF11009294801F013FC0024012502E08A
:1032900001340B2C0ED059F8041F0029F8D005FA80
:1032A00004F27B6C1A42F3D02148013401F022FC75
:1032B0000B2CF0D11F4801F0FBFB012011B0BDE841
:1032C000F08F00244FEA8B0BCDF808B026460DF1A5
:1032D00010094FF00108CB464FF0000A5BF8042FAD
:1032E000104632B1295907F061F810B908FA0AF20C
:1032F00016430AF1010ABAF10B0FEFD1029A043416
:103300009442E8D1039B652B08D07A6C22EA06022E
:103310007A6401980849FFF7C5F8B3E77A6C32433D
:103320007A64F6E744F1000850FD0008A4FD0008A7
:10333000B8FD000858EF0008FCED00E02DE9F04171
:10334000D0F884708846FE69736A3BB3154D00243B
:1033500005E00134A34205F110051A4611D906EB28
:10336000C402127A002AF4D038462946FFF770F9D1
:10337000C30110D4736A0134A34205F110051A4643
:10338000EDD8A2420AD006EBC40463680120C8F855
:103390000030BDE8F081726AA242F4D10020BDE89D
:1033A000F08100BF281000E02DE9F84FD0F88460CC
:1033B000022B07469046D6F81CB05BD0042B60D099
:1033C000012B03D04FF0FF30BDE8F88F4FF000091C
:1033D000032953D0042957D00229F3D14FF0060A0C
:1033E000DBF82430002B55D02C4D002405E00134AF
:1033F000A34205F110051A4612D90BEBC402127A4A
:10340000002AF4D130462946FFF722F903073ED0BF
:10341000DBF824300134A34205F110051A46ECD83C
:10342000944237D004F1606505F581750BEBC40457
:103430002D0142462946304684F808A0C4F804808D
:1034400084F80990FFF72EF830464A46291DFFF709
:1034500029F8FB6D304613F0010F0CBF4FF40062EA
:10346000002205F1080142EA0A02FFF71BF80020DA
:10347000BDE8F88F03294FF00109ABD14FF0050AE1
:10348000AEE74FF00309A3E74FF0070AA8E7DBF820
:103490002420C5E76FF00100BDE8F88F281000E098
:1034A0002DE9F843056AD0F88430AD000A3525F0DF
:1034B0000705DE6900AFADEB050D836A88466946F6
:1034C000914604469847B36C6D465A1F012A07D9A6
:1034D000012B0BD1B8F1FF3F08D008F1010306E042
:1034E000B8F1000F02DD336DC8EB030843462B60D3
:1034F0002946E36A20469847C6F84C90BD46BDE889
:10350000F88300BF2DE9F04F95B0D0F8846002AF8A
:103510000446AC493046D6F81C80FFF799F810F401
:10352000003003D14C37BD46BDE8F08F73680022F0
:103530001A723046A449FFF78BF805462A463046F2
:10354000A149FEF7AFFF2E070FD4C5F3400388F85B
:103550000130002B40F0928015F0060F00F08480BF
:1035600005204C37BD46BDE8F08FD4F884A09749BC
:103570005046FFF76DF8964906465046FFF768F843
:103580003246814691495046FEF78CFF50464A46E6
:103590008F49FEF787FF700002D4B9F1000FD4D035
:1035A000236AC7F80CD0002BB8BF033323F0030302
:1035B0000A3323F00703ADEB030D0DF1080949466B
:1035C000A36A20469847D9F838C0CCF3800BBBF1EA
:1035D000000F40F09980D9F84420C7F804C007F1E3
:1035E0002801202320462669B047E36820469847F3
:1035F000D7F804C0002840F038818CF01003C3F3E2
:103600000013002B07F13C0007C80CBF20256825DC
:10361000C9F83C109105C9F8380048BF0435BBF122
:10362000000F00F02581D9F84C10D9F8482041F05E
:1036300080611544C9F84C10C9F84850C9F8345095
:103640002BB1D9F84C3043F00073C9F84C305046D8
:103650006049614AFEF726FF4946E36A20469847DB
:10366000FE680B20B5465DE7EB077FF579AF98F86C
:103670000030002B0CBF0220052053E7D4F88460F3
:103680000F2230465549FEF70DFF30465449FEF7EC
:10369000DFFF02230246A669204607F11201B04768
:1036A0007A8A4BF6AB639A427FF456AF236AE946B7
:1036B0009B000A3323F00703ADEB030D0DF1080A5D
:1036C000D4F884205146A36A2046D2F81CB098470B
:1036D000DAF804201023204607F118012669B047C4
:1036E000DAF80020531ECBF84820122B00F2BB80E2
:1036F000DFE803F08E8862B9584EB9B94840B93C4A
:10370000B93428B9B91D0D00D9F8482065E7DBF8B0
:103710004C305146CAF800302046E36A98472046AC
:10372000CD4698F80010636C98470020FAE6B96916
:10373000FA69013901322B4801F0A2F94FF0FF304C
:10374000CD46EFE6786A07F1180101300EC9009006
:1037500001390132244801F093F9EFE7B969FA69B8
:1037600001390132214801F08BF9E7E70023CBF85A
:103770004C30D4E7B9691E480139FA69002301F0D9
:103780007FF9DBE7B9691B48013901F079F9D5E721
:103790003B6AB969CBF8503001391748FA6901F032
:1037A0006FF9CBE73B6AB969CBF850300139134860
:1037B000FA6901F065F9C1E7DAF80410104801F080
:1037C0005FF9BBE7F0ED00E030ED00E02CED00E04C
:1037D00028ED00E00CED00E00200FA05F4ED00E059
:1037E000F8ED00E074FE00084CFE000864FE0008DE
:1037F00034FE000824FE0008E4FD0008FCFD00087B
:1038000014FE0008B9692748013901F039F995E734
:10381000254E07F128050FCE0FC596E80300FB697A
:1038200085E803005B0807F1480202EB830607F115
:103830001401A5692046BA69042356F8206CA847EC
:1038400007F11400194906F0B1FD00BBC6B9CAF86A
:103850000060DAF8003051460133CAF800302046E3
:10386000E36A98475BE7CD4676E6FE68B5466CE6C8
:10387000D9F844201544C9F84450C9F83450DFE65B
:1038800072054CBF01230223CAF80030E1E73A6A0F
:103890004FF4D273009301323346B969044801F002
:1038A000EFF84BE7D8FD000870F10008BCFD0008F8
:1038B000C0FD000810B5D0F88440012001F012FCD2
:1038C000002001F00FFC0B492046FEF7C1FE204608
:1038D00009490A4AFEF7E6FD20460649FEF7B8FE0A
:1038E0008301F9D4204606491F22BDE81040FEF7A7
:1038F000D9BD00BFF0ED00E00CED00E00400FA05DA
:1039000030ED00E02DE9F043D0F8844083B0A269A7
:10391000884642F01202002181462046FEF76AFCEA
:103920002A4B606800938569042301210022A8477F
:103930002046D8F800201821FEF75CFC60684FF4A0
:10394000803300938569012100221423204EA8476B
:1039500008F14C07454655F8043F60680093D0F8DD
:1039600018C0012100221823E04756F8043F606880
:1039700043F480330093D0F818C0012100221423AF
:10398000E047BD42E7D1D9F85C3008F150059B070C
:1039900018D5104E08F1D40855F8043B6068009320
:1039A0008769012100221823B84756F8043F606850
:1039B00043F4803300938769012100221423B84720
:1039C0004545E9D1002003B0BDE8F083F0ED00E00B
:1039D00088F10008D4F100082DE9F047D0F88440C0
:1039E00082B0A269884642F0120200218246204637
:1039F000FEF700FC224B60680093856904230121D7
:103A00000022A847204614210022FEF7F3FB60683D
:103A10001821FEF7DBFB1B4DC8F80000464605F1F8
:103A20004C0955F8043F60680093012100221423DB
:103A30008769B84760681821FEF7C8FB4D4546F80E
:103A4000040FEED1DAF85C3008F150059B0713D56E
:103A50000D4E08F1D40856F8043F60680093012128
:103A6000002214238769B84760681821FEF7AEFB6F
:103A700045F8040B4545EED1002002B0BDE8F087C3
:103A8000F0ED00E088F10008D4F100082DE9F84FCE
:103A9000D0F884800546C3683F4FD8F81C6098472B
:103AA000EB6B284698473B787BB90A2404E0022058
:103AB00002F09CFC3B7843B92B6C2846984720B910
:103AC000013CF4D12046BDE8F88F40463349726C82
:103AD000FEF7E8FC404632491F22FEF7E3FC0623CE
:103AE000336440462F49FEF7B3FD336CC0F3031037
:103AF00098424FD30423736240462B49FEF7A8FD3A
:103B0000736A000F9842336C88BF7062B3B1DFF8FC
:103B1000B0A04FF00009C6EB0A0ACB4634460AEBC8
:103B2000040140460022FEF7BDFCC4F828B0336C07
:103B300009F101094B4504F10404F0D8736A93B10B
:103B40000024DFF88090A246494640460022FEF756
:103B5000A9FC06EBC40383F808A0736A0134A342EE
:103B600009F11009F0D840460E490322FEF79AFCED
:103B70000E4E0F4C0F481049104A3B78AE64EC646F
:103B800028656965AA6513B1002001F0ABFA012030
:103B9000BDE8F88F3064ADE792120020FCED00E044
:103BA00030ED00E0002000E0001000E0C931000826
:103BB0006D310008A9330008D13000083D330008FA
:103BC000082000E0281000E02DE9F041D0F8844002
:103BD0001B4FE5691B4A2B78002908BF17468B420B
:103BE00080460E4606D02046174947F00202FEF7EF
:103BF00059FC2E706B784BB93A4620461249FEF7B5
:103C000051FC636801221A72BDE8F081D8F8845033
:103C10000F2228460D49FEF745FC28460C49FEF7C1
:103C200017FD054629462046FEF726FD00F47F4095
:103C3000B0F53E4FE0D14046A91CFFF701FADBE7A3
:103C40000D005FA001005FA0F0ED00E0F4ED00E0EA
:103C5000F8ED00E02DE9F84FDFF860B1DFF860C162
:103C6000DFF860E14C4B4D4A4D4F4E4D4E494F4EA3
:103C7000DFF854A1DFF85491DFF85481C0F804B0A4
:103C80004FF0500BC0F834C0C0F838E0036742670B
:103C90000446C76305644164C0F808A0C0F82890D2
:103CA000C0F82C80C0F820B0466206F5747104F0AC
:103CB000D9F8D4F884503E492846FEF7C9FC40F4B0
:103CC00070073A4628463A49FEF7ECFB2846384941
:103CD000FEF7BEFCB84254D05421012005F0F2FE9C
:103CE0003449354A0346E861296220465A6403F0A4
:103CF0008FFB10B10120BDE8F88FE368204698479C
:103D0000204603F005FE0028F4D1E36820469847DA
:103D1000204603F045FF0028ECD1E3682046984791
:103D2000204601F0ABFC0028E4D1E3682046984728
:103D3000204602F003F80028DCD1E36820469847CB
:103D4000204602F0B3FD0028D4D1E368204698470E
:103D5000204602F017FA0028CCD1E36820469847A5
:103D6000204603F0ABF80028C4D1E368204698470A
:103D7000204601F005FB0028BCD1E36820469847A7
:103D8000B8E7E26D236A06F57A7642F002028433E0
:103D90006662E26523629FE7A1340008000000200C
:103DA0002530000805350008C93B00085CF2000812
:103DB00088ED00E06D9B0008010400018D3A0008C9
:103DC00041300008B53800086D300008D9390008C6
:103DD000053900082DE9F041214B14461A68032CDF
:103DE00042F0010282B006460D461A6017DDDFF888
:103DF000748005E0019B032C1BBAC8F800300EDD6F
:103E00002A46304601A904233769B847043C0435E3
:103E10000028EFD04FF0FF3002B0BDE8F08104EB96
:103E20000508104B45451C6816D02A460123B76982
:103E3000304601A91D44B8470028EBD1019A082358
:103E400084EA0264002CBBBF6200074C640054404B
:103E5000013BF7D14545E8D1204602B0BDE8F081ED
:103E60000830024000300240B71DC104F8B5174CBD
:103E70000D4623685A1C23442260187111B9402A48
:103E800000D0F8BD04F0E8F8012802D00023236038
:103E9000F8BD04F0E7F80028F8D00D4F0B4E386855
:103EA000321D0121238804F0AEFF0028F6D0002D3A
:103EB000ECD03368402BE9D101210B463868054A24
:103EC00004F0A1FF0028F7D0E0E700BF640900205C
:103ED00094120020DCFE000838B501210B4C0A4684
:103EE000054604F0A8FF04F14402284601214023BE
:103EF00004F08FFF0246C4F8840000B138BD2846A4
:103F00000121BDE8384004F096BF00BF64090020DD
:103F1000F8B51C4D2F46D5F8CC30D5F8C820194936
:103F2000934225D304F09EF848B304F095F8012895
:103F30000446FAD1D5F88460002EECD012483246FF
:103F4000A0F1440106F0B6F8104A0023214610689B
:103F50001A46C7F88430C7F8CC30C7F8C86004F0F8
:103F60006AFFD5F8CC30D5F8C82006499342D9D29B
:103F70005A1C0B44C1F8CC2093F88800F8BD0420EB
:103F8000F8BD00BF64090020EC0900209412002055
:103F90002DE9F843274B284D83FB0021D5F8CC2091
:103FA000D5F8C830C017254FC0EB61109A42386071
:103FB00003D2BDE8F843FFF7ABBFDFF88890A8460F
:103FC00004F050F898B104F047F801280446FAD1FB
:103FD000D5F8846076B93B68D5F8CC2013B3D5F812
:103FE000C8309A42E5D304F03DF80028EBD1042014
:103FF000BDE8F88312483246A0F1440106F05AF8B1
:1040000000231A462146D9F80000C8F88430C8F8C1
:10401000CC30C8F8C86004F00EFF3B68D5F8CC205F
:10402000002BDCD1D5F8C8309A42C2D3FF20BDE8BE
:10403000F88300BF1F85EB51640900201012002097
:10404000EC09002094120020064B1A68824204BF3B
:1040500000221A605B68034A834204BF0023536056
:10406000704700BF340A0020F0B583B000AF0446AB
:104070003A4608463B1D1D4906F026F9022806D19E
:10408000204606F0B1FA3968884207D827D0184888
:10409000032100F09FFC0C37BD46F0BD7D686E46E5
:1040A00005F1090323F00703ADEB030D68460C444B
:1040B0006D22214600F8012B2A4606F01FFB204600
:1040C00006F092FA85428ABF01462946786001319E
:1040D000684600F07FFC0C37B546BD46F0BD05488C
:1040E000012100F077FC0C37BD46F0BD1C00010833
:1040F000E0FE0008E4FE00082DE9F043514C83B0D7
:10410000064600AF504904F10800062206F09CFA6A
:104110000546002830D004F108004C490A2206F078
:1041200093FA002850D004F108004949172206F0FC
:104130008BFA60B92068002879D0406E002862D0E0
:104140004449FFF791FF0C37BD46BDE8F08304F109
:10415000080041491F2206F077FA00283DD1206867
:10416000002848D0406A00284DD03C49FFF77CFF2A
:104170000C37BD46BDE8F083063E06EBD6767610DA
:1041800006F10F0323F00703ADEB030D6B464FEA77
:10419000D3094FEAC908324604F10E01404600F047
:1041A000DFFC06F8395041462068FEF7C5FE0028BE
:1041B0001CDB07BF2A4802212A48012100F00AFC23
:1041C0000C37BD46BDE8F08327484FF4806100F00E
:1041D00057FC0C37BD46BDE8F08304F108002349C5
:1041E0003A463B1D06F070F8022814D02048002102
:1041F00000F0F0FBE4E7606828B11E4903F04CFED4
:1042000020600028AED11C48032100F0E3FB0C37EE
:10421000BD46BDE8F08320680028F4D097E806008A
:10422000FFF7D8FD0146154800F02AFCC8E7606892
:104230000028E8D00F4903F02FFE206000287FF40B
:104240007CAFE0E7340A0020E8FE0008F8FE000832
:1042500040FF0008530A002058FF00085B0A0020B6
:10426000F0FE0008F4FE000804FF000878FF0008D4
:1042700078EF000849400008E0FE00088CFF0008C5
:104280002DE9F04F924C8BB0002602AFDFF860A210
:10429000FE604FF48069A346BE604FF480618D4894
:1042A000CAF80010451C00F03FFB8B4A94F808E068
:1042B0000646A2F8009005F10108AEF10403762B42
:1042C00000F24082DFE813F042013E023E023E026D
:1042D0003E023E023E023E023E023E023E023E02DE
:1042E0003E023E023E023E023E023E023E023E02CE
:1042F0003E023E023E023E023E023E023E023E02BE
:104300003E02C9003E023E023E023E023E023E0224
:104310003E023E023E023E023E023E023E023E029D
:104320003E023E023E023E023E023E023E023E028D
:104330003E023E023E023E023E023E023E02850038
:104340003E023E023E023E0242013E0219020002CD
:104350003E023E023E023E023E0276013E023E0226
:104360003E023E026F013E023E023E023E023E021D
:10437000D9013E02A9013E023E023E023E023E0239
:104380003E023E023E0279003E023E023E025201E1
:104390003E023E023E0216013E02D2003E023E02B4
:1043A0003E02CE006F0177003E023E0226013E0231
:1043B0003E023E02A9010126BE602068002800F0EE
:1043C000EF81B968436C98474449012300260B707C
:1043D000BE602068002800F044829BF80860FE6000
:1043E00007E0FFF7D5FD0338C0B20128206840F28E
:1043F000AE81036C9847051EF3D038494FF0000397
:104400000B70FFF64AAF2068836D2BB107F11C01DA
:104410009847002840F0AB812946314800F030FB36
:104420003BE72C482F4907F1140207F1180305F068
:104430004BFF022840F04482DBF80000002800F027
:10444000AA819BF80834002B00F05482836E7969AE
:10445000BA699847002840F09E812348022100F065
:10446000B9FA1AE73046FFF747FE16E723686E46AB
:10447000002B00F077811D4907F1180207F11C039A
:10448000144805F021FFFB69BA69D91D21F0070125
:10449000ADEB010DDBF8000042EA0301890702AD34
:1044A0000CBFD0F810C0D0F818C02946E0472068EB
:1044B000C3689847002840F0508129460548FA69AA
:1044C00000F02EFBF969490000F084FAB546E4E6F5
:1044D000340A00203C0A0020140C01407012002015
:1044E000CCFF000810000108F0FE000894FF00084F
:1044F000100C0140206800283FF4CFAE836B984732
:10450000DBF8000083689847DBF8003000228BE876
:104510000C00C2E6A648A74907F1140205F0D4FE34
:10452000012800F08781A248A34905F03FFF002839
:104530007FF477AFDBF80000002800F0A581836BE3
:1045400098479E48032100F045FAA6E62068002817
:1045500000F02B8183689847DBF8002000239848FF
:1045600002216260236000F035FA96E620686E460C
:10457000002800F0F780026A836A073222F00702FF
:10458000ADEB020D02AD29469847DBF80030294615
:104590001A6A874800F0C4FADBF80030196A49004B
:1045A00000F018FA92E72068002800F02181836B60
:1045B000984772E623686E46002B00F0D38007F11F
:1045C0001C0200927F4907F1140207F11803784892
:1045D00005F07AFEBA69F969D31D23F00703ADEB44
:1045E000030D734B02AD1944284600F0B9FA7969FE
:1045F000BB69880702D19A0700F0388120682A46F3
:10460000C569A8472068C3689847002840F0A5807E
:104610006B48022100F0DEF958E72368002B00F018
:10462000BA809BF80950BEF15A0EDEF100066648CA
:10463000A5F13005654907F11C0207F1180356EB97
:104640000E0605F041FE012D00F0DF807ADB042D1F
:1046500078DCDBF80000D0F850C0BCF1000F71D05E
:10466000E9B2002E00F01D81FA693B7EE04730BBC5
:104670005348022100F0AEF90FE62368002B00F04A
:104680008A8007F11C06524907F118030096484832
:1046900007F1140205F018FE7969BB69880702D199
:1046A0009A0700F0E9802068FA69414EC5693244F2
:1046B000A8472068C368984700283FF4CEAE454815
:1046C000032100F087F9E8E523686E46002B49D006
:1046D0001A6A4149D31D23F00703ADEB030D02AD68
:1046E000284600F03DFADBF800002946C36A9847E7
:1046F0003348022100F06EF9E8E6607A07F114020F
:1047000036492D2814BF28464046009207F11C0365
:1047100007F1180205F0D8FD637AB9692D2B84469C
:10472000206804BF4942B961036FFA69C7F804C041
:104730009847D7F804C0BCF1030F73D0FB6823720D
:104740009E46BAE52648002100F044F9A5E5C36B72
:104750007326FE60984720684BE61E48032100F050
:1047600039F9B3E61F48032100F034F9AEE62946D3
:104770001D48FA6900F084F98FE5FA69DBF800005A
:10478000B31ABB6138B10A4EC56E32447969A84785
:1047900000283FF462AE1348032100F01BF97CE5CA
:1047A0001248032100F016F977E50246D6E600BF6D
:1047B0003C0A0020F4FF000808000108040001087A
:1047C000F0FE0008A4FF00083E0A00204C0001088B
:1047D000E4FF0008E0FE00083D0A0020D4FF0008C6
:1047E00078EF000814ED0008B8FF000810ED00088D
:1047F000DBF8040000283FF450AD424903F04CFBC5
:10480000826BCBF80000904747E5DBF80000836C33
:10481000002B97D006B9C36CF969984700287FF43C
:104820004EAF25E73B7D432B88D16146364800F0EB
:10483000D1F832E535490B6853B17A69012A02D1C2
:1048400037E0904235D0D3F880300130002BF8D1DA
:104850002368002B3FF433AF2D48032100F0BAF852
:104860001BE52C48032100F0B5F816E5DBF8000045
:104870002A464569A847C5E6DBF80000FA69264ED6
:1048800045693244A84714E7DBF8040000283FF4E8
:1048900016AF1C4903F000FB826BCBF80000904779
:1048A000DAE7456DFA693B7EA84700287FF407AF39
:1048B000DEE61846134903F0EFFA20600346C8E726
:1048C0001548164907F1140207F11C0305F0FCFC1A
:1048D00001283FF452AF1048114905F067FD054625
:1048E00000287FF42FAF0F48022100F073F88BF8F7
:1048F0000854D2E4836B984701238BF80834DBF823
:104900000000A3E549400008E0FF0008780F002000
:1049100004000108B4FF00083C0A00202800010838
:1049200040000108F0FE00082DE9F043054683B081
:104930000F464FF0000801E004283FD0FFF7E8FAE7
:1049400024282870F8D100242646FFF7E1FA23280E
:104950000ED0BC420CD0242822D07D2823D028554C
:104960000644FFF7D5FA232804F10104F6B2F0D18A
:10497000FFF7CEFA8DF80400FFF7CAFA4FF00009EE
:104980008DF80500494601A810228DF8068005F033
:10499000ABFF864216D02D200121FFF767FACDE745
:1049A00000263446D1E7FFF7B3FA7D36064480F09F
:1049B0002000285506F0FF060134C6E7012003B0A9
:1049C000BDE8F0832B200121FFF750FA05F8049091
:1049D0002046F4E72DE9F047824682B089464FF041
:1049E000040824200021FFF741FAB9F1000F43DD4C
:1049F00055460AEB0907002607E020460021FFF78D
:104A000035FA2644BD42F6B217D015F8014B7D2089
:104A1000A4F12303012B01D98442EED184F02004B8
:104A20000021FFF723FA7D3620460021FFF71EFA0A
:104A30003444BD4204F0FF06E7D123200021FFF7F4
:104A400015FA32460D4901A805F018FC9DF804003E
:104A50000021FFF70BFA9DF805000121FFF706FA88
:104A60004FF4FA60FFF794FA2B2802D0B8F101084E
:104A7000B7D102B0BDE8F0870026DEE75800010894
:104A80000FB400B583B004AB53F8041B01A81A4659
:104A9000009307F0BBFB01460198FFF79BFF0198CD
:104AA00005F064F803B05DF804EB04B0704700BF94
:104AB0002DE9F04100AF054605F096FD410001F1FA
:104AC000100323F00703ADEB030D6C464F2328467C
:104AD00004F8013B01F1010805F086FD2946024674
:104AE000204600F01DF868464146FFF773FFBD46BB
:104AF000BDE8F0810FB400B583B004AB53F8041BDC
:104B000001A81A46009307F081FB0198FFF7D0FF38
:104B1000019805F02BF803B05DF804EB04B0704782
:104B200070B4C2B15200961C0C4C0644831C0D7824
:104B300002332D09655D03F8045C11F8015B05F093
:104B40000F05655D03F8035CB342F0D10244002316
:104B5000137070BC70470246F9E700BF600001089F
:104B600070B462B30231024411F8024CA4F1300374
:104B7000DBB2092BA4F1370505D9EBB2102B84BFAA
:104B8000A4F15703DBB21B01DDB200F8015B11F8A1
:104B9000014C0231A4F13003DBB2092BA4F137063A
:104BA00005D9F3B2102B84BFA4F15703DBB22B431A
:104BB000904200F8013CD7D1104670BC70470246C5
:104BC000FAE700BF2DE9F04782B00446BB4E03F080
:104BD00021F9002319467822B948336005F0E0FA3C
:104BE00000F0EAF9B74B1B78002B40F0058100F08C
:104BF00039FA03200421002C00F0088100F09EFA0D
:104C00003368052B3ADCDFF8B88203EB830308EB4B
:104C100083039B78102B31D823787BB30134002594
:104C200047461BE0336814F8010C03EB830208EBE2
:104C30008201CD70887008F8223014F8012C0133FD
:104C400003EB8301052B07EB81011544336015DC71
:104C50008B78102B12D814F8013B7BB101A80021EE
:104C6000994A00F091FA019BDB07DBD44FF0FF304B
:104C700002B0BDE8F087052B00F30C81012001464E
:104C800000F03CFA0120022100F058FA0120032133
:104C900000F054FA8D4D002407E09C4200F3FA80A6
:104CA000013B1B1B05F8143C01340020012100F0DE
:104CB00025FA143533680028EFD09C427F4D40F030
:104CC000E9800120014600F019FA0120022100F0DC
:104CD00035FA2C68002C00F0E380631E13D078486E
:104CE00003EB830300EB830304EB84041A7900EBEA
:104CF0008403143013F8121C143B0A44D2B203F894
:104D0000102C8342F6D100F0ADF90120032100F010
:104D100015FA3368002B20DD694F4FF000084FF083
:104D200001090020012100F0E9F978B1C7F80890E5
:104D30001F2402250020012100F0E0F910B1BB681A
:104D40002B43BB60013C4FEA4505F3D1336808F1C2
:104D50000108434507F11407E3DC0120014600F098
:104D6000CDF90120022100F0E9F93368002B20DDA4
:104D7000DFF84C81DFF864A1534D4FF00009D8F8FB
:104D8000087027F0F02353451FD0514B002103E05A
:104D900064693C40A24219D01A691C4601311033A3
:104DA000002AF5D1336809F101094B4508F11408CF
:104DB000E5DC484B1B68002B7AD00020014601F04F
:104DC00083FB306802B0BDE8F087002105EB0111DC
:104DD0004A698B694FF0FF31C8F80C20C8F81010F1
:104DE000002BDFD040469847336809F101094B4555
:104DF00008F11408C3DCDCE7012000F073F900F0CF
:104E000031F903200421002C7FF4F8AE00F096F96C
:104E10002046012100F072F900283BD03368DFF80A
:104E2000A0800124052B88F8024033DC03EB8303C8
:104E300008EB83039B78102B2CD8204F454619E0B4
:104E400090785A1888423FF416AF02EB820005EBC7
:104E500080039970DC703A60134605F8202003EB5C
:104E60008302052B08EB820204F1010412DC937823
:104E7000102B0FD80121002000F040F933680121E8
:104E800003EB830208EB82020028D9D1917801312B
:104E90009170E4E74FF0FF30306002B0BDE8F0877A
:104EA0000D48012101F010FB204602B0BDE8F0875B
:104EB0000948012101F008FB83E700BF90110020A1
:104EC0009411002092120020740001089511002016
:104ED00080000108780F002028ED00087704A00B5F
:104EE00030B5036983B08B4204460D4601912AD048
:104EF000164B186800280ADD154B00EB800003EB09
:104F000080004FF0FF321A6114338342FBD103203B
:104F10000421256100F012F900200E49E27800F02A
:104F200075F9207901A9D0F1010038BF0020A278DD
:104F300000F06CF901200749227900F067F901209F
:104F4000022100F0FBF803B030BD00BF901100203B
:104F50009411002074000108F8B504460D460120A4
:104F6000032116461F4600F0E9F822780020114977
:104F700000F04CF9A5B161782846D1F10101324623
:104F80003B4638BF002100F0FFF862780120094954
:104F900000F03CF9BDE8F8400120022100F0CEB855
:104FA00060783146D0F101003A4638BF002000F069
:104FB0002DF9EAE7740001082DE9F04125480321A5
:104FC0000022102303F0F2FB234E2448244933230C
:104FD00010254FF0080420220560013B0C80026080
:104FE00037680A80F8D1102320241D481B491A4F26
:104FF0009C4626464EF23C72082512F0010F14BF63
:10500000C1F800C0A0F800C00D60013B0C60D7F8EB
:1050100000804FEA52020680EFD1202410490F4A47
:105020000D4F264606201F234FF0100C082513F0C5
:10503000010F14BFC2F800C0A1F800C0156001380C
:105040001460D7F800804FEA53030E80EFD1BDE81B
:10505000F08100BF0008014008080140100801402D
:10506000140801402DE9F04182B001F0D1F890B967
:10507000174B02221A800190019B42F20F72934259
:1050800006DC00BF019B01330193019B9342F8DDD5
:10509000104B02221A6020240F481049104F264658
:1050A00006221F234FF0100C082513F0010F14BF28
:1050B000C1F800C0A0F800C00D60013A0C60D7F83C
:1050C00000804FEA53030680EFD102B0BDE8F081C3
:1050D000140C0140100C014014080140100801405C
:1050E0000808014010B5044601F05CF924B142F211
:1050F000107300BF013BFCD110BD00BF78B10C4B59
:1051000010221A6081B90B4B08221A80084920230B
:10511000094A0B6010689381C0F380107047054BFB
:1051200010221A800029EED0014B08221A60EDE708
:105130001008014014080140080801402DE9F00161
:105140004B1EC1B120240D490D4ADFF838C0274657
:105150001026082510F0010F03F1FF3314BF16606D
:105160000E801560B3F1FF3F1460DCF800804FEA59
:1051700050000F80EED1BDE8F001704714080140E7
:1051800010080140080801402DE9F007DFF878C059
:105190001B4F1C4E884601244FF0100A4FF008099F
:1051A000202513F1FF331FD31178214013B3A7F843
:1051B00000A0E1B1C6F800903560DCF800103D8039
:1051C00011F0400F017814BF2143A143640014F093
:1051D000FF040170E5D113F1FF3302F1010200F188
:1051E00001004FF00104DFD2BDE8F0077047A7F8D7
:1051F0000090E1E7B8F1000FD9D0C6F800A0D8E7D9
:1052000014080140100801400808014012F1FF3263
:105210002DE9F0034FF00103154E4FF01009154D25
:105220004FF008084FF02004DFF84CC014D30F787B
:105230001F40BAB1A6F800908FB1C5F800805B009E
:1052400013F0FF032C6004BF0131012312F1FF3280
:10525000DCF800703480EAD2BDE8F0037047A6F8AD
:105260000080ECE70028E5D0C5F80090E4E700BF37
:105270001408014010080140080801402DE9F041E0
:1052800098469B109C00123424F0070400AFADEB4D
:10529000040D00910446114602A84246019304F011
:1052A00009FF4FF000510F4A302366692046B0478E
:1052B0006A4608F108030C4965692046A847636BF4
:1052C0004FF0005120469847636C204600219847D4
:1052D000236C204698470028FAD00020BD46BDE840
:1052E000F08100BF10000020300000202DE9F043C5
:1052F000D0F8845083B021F47F7822F47F77284659
:1053000000211C4AFCF776FF1B4B6868009327F0CE
:105310000307846901210022042328F00308A04721
:1053200027B3DFF85890284610214246FCF762FF69
:105330006868CDF800908469012100220823A04705
:10534000002668680121009684690A460823A04760
:10535000686801210096082384690A46A0478307EC
:10536000F6D4B7F5806708F58068DCD1002003B07B
:10537000BDE8F083520000A200D00F40020042A41A
:1053800010B50C490446D0F88400FDF761F941F2EC
:105390004903B3EB104F0AD1074B0849084A03F100
:1053A000180060666367A166E266012010BD0020F8
:1053B00010BD00BF04E00F4088030108ED52000853
:1053C0007D520008F8B5036A1E4A23F003050A352A
:1053D00025F0070500AF4FF43E4EADEB050D00255F
:1053E0000446A2F800E00B4655804FF08051466914
:1053F000B0476946A36A20469847626F124B13482C
:105400009A420CBF124B134B13491193134A144B7E
:105410008DE803000F936946E36A0E922046984791
:10542000636C204600219847236C2046984700284B
:10543000FAD02569204603494FF080522823A84717
:10544000BD46F8BD400E002078040108040000109D
:10545000E0030010E0070010180000100100001029
:10546000F11FFF1FF8B5164C0025234643F8085BD3
:105470001D60144F436F3226BB42E56025616561B4
:10548000A561E56125626660656211D00A44090B79
:10549000013AA1604FF48053B2FBF3F22821E2609D
:1054A000FFF790FFA069003018BF01204042F8BD0F
:1054B0000A44890A013AA1604FF48063ECE700BF17
:1054C000400E0020780401082DE9F04F01EB03089D
:1054D00008F1FF384FEA112A4FEA182883B0C9B201
:1054E000C2451F468146164601913ED8DFF8F0B00E
:1054F0004FEA0A2554461DE0364942F6E0624FF075
:10550000330C4FF48073CBF80C1048464FF4947171
:10551000CBF81420CBF80850CBF804C0CBF81030EF
:10552000FFF750FFDBF81820D2B90134A04505F58C
:1055300080751AD3544528481BD0444519D03146AC
:105540004FF4807204F0B6FDA7F5807706F58076FB
:10555000484629464FF48072FFF784FF0028CBD0DD
:105560004FF0FF3003B0BDE8F08F002003B0BDE87E
:10557000F08FFF214FF4807204F012FE019B314640
:10558000C3F5807CBC45A8BFBC4603F12800624639
:105590005844CDF800C004F08DFDDDF800C02CB1FA
:1055A0000023CCEB070766440193D1E7019B002B56
:1055B000F6D1BCF11F0FD3DD084A214602F11C00D1
:1055C00052F8043F82421944FAD14942CBF84410C0
:1055D000E6E700BF28000010680E0020640E0020DF
:1055E000400E00202DE9F041436F224F0646BB429A
:1055F00014BF4FF480534FF48063B1FBF3F403FB0B
:1056000014130D4690464BBBFFF72CFF30BB736F56
:10561000194C3422BB42626024D005EB08022D0BEA
:10562000013AA5604FF48053B2FBF3F2304642F6E4
:10563000E06328212361E260FFF7C4FEA3690E4CFA
:1056400063B93046352328216360FFF7BBFEA069AC
:10565000003018BF01204042BDE8F0814FF0FF301C
:10566000BDE8F08105EB0802AD0A013AA5604FF4F0
:105670008063D9E778040108400E002010B55A492C
:105680000446D0F88400FCF7E3FF584A904239D032
:1056900015D9574A90422FD053D9564A90422BD011
:1056A00067D9554A904227D040F29780534A90429A
:1056B00022D002F5821290421ED0002010BDA2F12D
:1056C0006B62A2F5B422904216D026D94C4A904281
:1056D00012D061D8A2F12862A2F5092290420BD023
:1056E00002F5280202F58052904205D0A2F546024A
:1056F000A2F580529042E0D1424B4349434A03F124
:10570000080004E0424B4049404A03F1F000606663
:105710006367A166E266012010BDA2F1A562A2F551
:10572000E0429042E8D043D8A2F5AE129042E3D0D6
:1057300002F5E0229042DFD0A2F570229042BCD167
:10574000DAE7A2F5DE129042D6D039D8A2F19762FC
:10575000A2F5DA229042CFD002F1976202F5D2226E
:105760009042C9D002F1754202F528129042A4D1AC
:10577000C2E7A2F18662A2F5D8329042BCD002F113
:10578000836202F57C329042B6D0A2F18362A2F528
:105790008E22904291D1AFE71E4A9042ACD002F5E2
:1057A00070229042A8D0A2F58012904285D1A3E742
:1057B000194A9042A0D002F580429042F3D19BE773
:1057C000164A904298D002F55422904294D0A2F505
:1057D000582290427FF471AF8EE7A2F5B02290423A
:1057E0007FF46BAF88E700BFF48304402B201218CE
:1057F0002B9032252B4072292B0080292B408829A1
:105800002B10211480040108E5550008C954000834
:10581000780401082B1031142B1044042BD02425BC
:1058200010B503494469034A0423A047012010BD71
:105830000CED00E0440601080A4A00F16643934279
:1058400003D900F16543934208D8B3F5803F31BFD7
:10585000580BA3F58030000C083070474FF0FF3034
:10586000704700BFFFFF07002DE9F04784B0036ACF
:1058700000AF23F00305002607F110030A3543F8B3
:105880000C6D25F00705ADEB050D88460569194639
:10589000914604232A4A0446A8477B686D46002B9C
:1058A0003AD107F10C0A51462669264A04232046BC
:1058B000B0474FF0000A4FF43E424B46A8F8002094
:1058C000666942462049A8F802A02046B047A36A6C
:1058D0002946204698471D4EFB681D481D491E4A13
:1058E00068606964EB632946E36A2E60AA63204618
:1058F00098475146636C20469847236C204698474A
:105900000028FAD04146256920460F4A3023A8478F
:105910001037BD46BDE8F087AA225523BA60FB6068
:10592000666907F1080220460C49042307F10C0AB6
:10593000B04752466669204608490423B047B2E79B
:10594000000008400001401000C0002004C00020FA
:105950001CC000200000012001C0002008000840F9
:1059600070B5ADF5815D84B03223054608460C461E
:1059700016460193FFF760FF02903019FFF75CFFB6
:105980000F4B04F166429A42039017D904F1654423
:105990009C428CBF4FF0FF33012328466946002507
:1059A000302204930795FFF75FFF0798401B18BF4D
:1059B000012040420DF5815D04B070BD0023ECE78D
:1059C000FFFF07002DE9F04F01EB030A0AF1FF3A50
:1059D000ADF5825D99464FEA1A3A0B0B81B05345FB
:1059E0000193054690464CD8C1F30B01C1F5805395
:1059F0000393019B02911E031C461CE06F69B8478C
:105A0000314B4FF0330E4FF4805742F6E06C28468E
:105A100004A941F2300206960793CDF82CB0CDF8D8
:105A200014E00897CDF824C0FFF71EFF0B9B3E44FF
:105A300003BBA24525D3019B41469C424FF48052B3
:105A400010A83DD0544522D004F034FBA9F580596C
:105A500008F5805831464FF480522846FFF780FF02
:105A600083460134184910AA4FF480532846BBF1ED
:105A7000000FC3D04FF0FF300DF5825D01B0BDE8DF
:105A8000F08F00200DF5825D01B0BDE8F08F4FF47E
:105A900080574FF0000BFF214FF4805210A804F004
:105AA0007FFB4F45A8BF4F4604AB0BF1300041468A
:105AB00018443A46C7EB090904F0FCFAB844C9E7B0
:105AC000DDF808B0039FE6E730C0002070B5ADF503
:105AD000815D86B0002301930469042301A9164A5D
:105AE0000546A047019B0BB1DB061AD502AC134B50
:105AF0006E6902932246284611490423B04728467E
:105B000000233125214630226560E361FFF7ACFEBA
:105B1000E069003018BF012040420DF5815D06B0FC
:105B200070BD02AC6FF07F43029322466E69284637
:105B300004490423B047DAE70000084000080001E8
:105B40006C0005400400084070B50546ADF5815D68
:105B50004868002184B00A4604F0C6FE01280446C5
:105B600007D91548FEF7C6FF00200DF5815D04B08A
:105B700070BD2846FFF7AAFF002642F6E0632846DC
:105B800069463C2541F23002039302940195079641
:105B9000FFF76AFE079B3BB90848FEF7ABFF012001
:105BA0000DF5815D04B070BD0548FEF7A3FF3046DA
:105BB0000DF5815D04B070BD340901087809010854
:105BC00060090108022908B504D00548FEF792FFD4
:105BD000002008BD1146BDE80840FFF7B5BF00BF73
:105BE0008C0901082DE9F043ADF5815D85B00646CD
:105BF000FFF76CFF002425464FF032090E27304690
:105C000069463022CDF804900295039704940795D5
:105C1000FFF72AFE079B4FF0340842F6E06C30464F
:105C200069463022BBB9029305940793CDF80480EE
:105C30000397CDF810C0FFF717FE079B013453B947
:105C4000022CDCD10748FEF755FF01200DF5815DE0
:105C500005B0BDE8F08300200DF5815D05B0BDE81D
:105C6000F08300BFAC0901082DE9F043C1F30C0635
:105C7000ADF5815D85B00C4617460546002E54D122
:105C8000FFF724FF002850D1284621463A46FFF767
:105C900067FE002849D1342320460193FFF7CCFD4D
:105CA0008046E019CDF80880FFF7C6FD224B04F1CD
:105CB000664742F6E0629F4281460390049224D8F0
:105CC000002328466946302207930596FFF7CCFD4E
:105CD000079B53BB184A35219742CDF80880CDF871
:105CE0000C90019119D8284600246946302204936B
:105CF0000794FFF7B9FD0798001B18BF0120404229
:105D00000DF5815D05B0BDE8F08304F165469E4266
:105D10008CBF4FF0FF360126D2E704F16544944270
:105D20008CBF4FF0FF330123DDE74FF0FF300DF55F
:105D3000815D05B0BDE8F083FFFF070038B5274956
:105D40000446D0F88400FCF783FC25490546D4F8C6
:105D50008400FCF77DFC234B9D421AD003F1805355
:105D60009D4216D003F160439D4201D0002038BD12
:105D700020F47F031C4A23F00F03934217D04032D4
:105D8000934210D1194B1A4A9842626717D00120EA
:105D900038BD20F47F00144B20F00F00984206D04D
:105DA0004033984207D0134B0120636738BD124B34
:105DB0000120636738BD0E4B0120636738BD0F4B70
:105DC0000F49104A6166A266204601F52F71E3660D
:105DD0000D4A02F047F8012038BD00BF00320440F0
:105DE00000ED00E02B00065900C2004141C20F4106
:105DF000B8090108E8090108D4090108C5590008D3
:105E000048060108695C0008CC09010808B500F0E3
:105E100001FA30B9064804F023FAFEF731FA0020FF
:105E200008BD04482C21044A044B03F025FE00BFA2
:105E300014120020600A0108580A0108680A0108C3
:105E400010B50748FEF734FE064C0749A26807481C
:105E5000FEF750FE54F80C1F0029F7D1012010BDA9
:105E6000380C0108800A01081CF0000828EE000820
:105E70002DE9F8435568804628468946174604F0C0
:105E8000B3FB0E4C06460E4902E054F80C1F81B1DC
:105E90002846324604F0D8FB0028F6D16368404615
:105EA00009F1FF313A1D984780F00100C0B2BDE80A
:105EB000F8834046BDE8F843FFF7C2BF800A0108F7
:105EC0001CF0000838B5D0F8845004461348FEF79B
:105ED000EFFD284612490222FCF7E4FA03E0E368EA
:105EE00020469847B8B928460E49FCF7B1FB002870
:105EF000F5D028460C490122FCF7D4FA03E0E36808
:105F00002046984738B928460649FCF7A1FB0028E7
:105F1000F5D0012038BD002038BD00BF480C010875
:105F200004E5014000E401400CE5014070B5D0F803
:105F300084400C492046FCF78BFB0B490646204663
:105F4000FCF786FB094905462046FCF781FBF30771
:105F500081B22A4654BF06480648FEF7CBFD012011
:105F600070BD00BFA0000010A4000010A800001029
:105F7000540C01087C0C010838B5D0F8844008495D
:105F80002046FCF765FB074905462046FCF760FB09
:105F90002A4601460448FEF7ADFD012038BD00BF8A
:105FA0006000001064000010A40C010808B5054949
:105FB000D0F88400FCF74CFB010C0348FEF79AFD77
:105FC000012008BD5C000010BC0C010808B50549A3
:105FD000D0F88400FCF73CFB81B20348FEF78AFD51
:105FE000012008BD5C000010D40C0108F8B5D0F801
:105FF000845004460E461746284624490222FCF7E0
:1060000051FA04E0E3682046984700283AD1284630
:106010001F49FCF71DFB0028F4D027F47F7727F0F9
:106020000307EFB126F47F7626F00306B6F1102FB2
:10603000284607BF1749012217493246FCF732FAB2
:1060400003E0E36820469847E0B928461049FCF78A
:10605000FFFA0028F5D0B7F5806706F58066E5D130
:1060600028460A490022FCF71DFA03E0E3682046AF
:10607000984738B928460649FCF7EAFA0028F5D0CF
:106080000020F8BD4FF0FF30F8BD00BF04E501402F
:1060900000E4014014E5014008E501402DE9F84322
:1060A00001F0030503F1030EAE444FEA9E0E99463C
:1060B0000EF102039B000E4603F10A0121F00701D5
:1060C00000AFADEB010D044602A8761B2844D4F8BE
:1060D0008450A3F1080C11464FF0FF330EF1010E6E
:1060E0004A468DE8401002934DF82E3003F0E2FF4F
:1060F000284620490122E846FCF7D4F904E0E1688B
:106100002046884700282FD128461B49FCF7A0FAD3
:106110000028F4D066694FF00051184A2823204621
:10612000B047424609F10803666915492046B04761
:10613000636B4FF0005120469847E368204698472C
:10614000064688B9636C204631469847236C204642
:1061500098470028FAD0284606490022FCF7A2F901
:106160003046BD46BDE8F8834FF0FF363046BD46A9
:10617000BDE8F88304E5014000E401404000002050
:106180002800002010B51C490446D0F88400FCF714
:106190005FFA80B2A0F11D032066302B1AD8DFE829
:1061A00003F01B19191B19191919191B1919191B96
:1061B000191919191B19191919191919191919194D
:1061C000191B1919191B1919191B19191B19191937
:1061D000191B1B00002010BD084B094809490A4A39
:1061E00060676166A266204601F5A671E366074A0C
:1061F00001F038FE012010BD5C0000109D60000819
:10620000EC0C0108C80A0108ED5F0008FC0C01084D
:106210000120704770B5574C574E02F0B3FB204633
:106220004FF4805102F005FD3046042102F001FDDB
:106230003046082102F0FDFC3046012102F0F9FC55
:106240002046402102F0F5FCA4F584344B4A143C6E
:106250004FF48073138020460021012202F0A6FA39
:10626000474D002238232046032102F09FFA2046A2
:106270004FF4014102F0DFFB28464FF4005102F0D9
:10628000DAFB204648F2801102F0D5FB284642F2A4
:10629000020102F0D0FB28460221002240F604430E
:1062A00002F084FA204602210022802302F07EFAC6
:1062B000344A0423204613600321012202F076FAB7
:1062C000314902231A460B602846002102F06EFA7B
:1062D000002003F08FFB2D4803F084FB2C4B04F5CA
:1062E000E0541A7802F00F021A701A7842F0E002B5
:1062F0001A7003F08BFB03F091FB30464FF40071F2
:1063000002F097FC00210A460123284602F04EFACB
:10631000204602F0F1F9204602F0F3F9204602F09F
:1063200000FA204602F0BAF9204602F0EFF92046C2
:10633000032102F0CCF9204602F0A0F9154B00BF72
:10634000013BFCD1144C204602F0ADF9204602F08E
:10635000B4F9124B4FF400521A6001F089FE02F0BA
:1063600035F80F4803F07CFF08B9FEF72BFC00203E
:1063700070BD00BF14100240181002401408014004
:10638000000C014010080140100C0140A0BB0D00A2
:1063900023ED00E000350C000024014008ED00E092
:1063A0001412002018B1044B04221A807047034BCA
:1063B00004221A60704700BF140801401008014011
:1063C000024B1868C0F34000704700BF080C014042
:1063D00018B1044B02221A807047034B02221A6044
:1063E000704700BF140C0140100C0140024A1060BD
:1063F0001368002BFCD170471012002010B52A4BF7
:106400001B78002B3ED1294B1A6812B11A68013A49
:106410001A60274B1A683AB3197931BB19680A78A0
:10642000013119604AB91A7A002A3AD0214A126811
:106430001A601A68511C12781960413AD2B2192AAE
:1064400026D81D4800EB8201897830F822200139D6
:1064500002F00100C9B2DA8070B118484FF400644C
:1064600004605208DA80197110BDDA88013902F02F
:106470000100C9B20028F0D111484FF40064DA8855
:106480000480EEE70F484FF4806102F0CCFABAE7DF
:1064900000220B48DA804FF40064DA88032104807C
:1064A000DFE71A6010BD00BF70120020101200203C
:1064B000680F00200C120020D80D0108100C0140BC
:1064C000140C0140000C014030B4054B054C064A49
:1064D0004FF40065197220601860158030BC704759
:1064E000680F00200C120020140C014010B5082386
:1064F00082B00DEB0302174802F8013D012102F0C2
:1065000015F9144802F0C2F8124802F004F9002804
:10651000FAD0104802F003F90F4A00EB400000EBFC
:106520004013A2FB0312991A02EB51020B49120B02
:10653000A1FB02410A48C908A0FB034301EB81010A
:106540000848A2EB41021B0C3033303203708270DA
:1065500002B010BD0024014041000800CDCCCCCCDD
:106560006733D3CC6800002008B500224FF4805375
:106570000448022102F01AF9034B4FF480521A80AA
:1065800008BD00BF000C0140140C014008B50F4BC2
:106590000F48196801F4005189B251B94FF4807362
:1065A000012202F003F9BDE808404FF4005002F068
:1065B0008DBB4FF480730121002202F0F7F8BDE893
:1065C00008404FF4005002F081BB00BF080C0140AE
:1065D0000008014038B5E021282003F03DFA2820CA
:1065E00003F02CFA0E4D0F4B0F4A4FF400544FF4AA
:1065F00080711C602846234611600222002102F0AF
:10660000D5F82046294602F067FB2046022102F019
:1066100035FB204602F050FBFFF7B8FF38BD00BF46
:10662000000C0140100C01401008014070B5D0F87A
:10663000845042EA03220E46044642F0B442284601
:106640000431FBF72FFF083602E0E368984770B982
:1066500028463146FBF7FCFF10F0010F2046F4D02E
:1066600028463146FBF7F4FF00F0060070BD4FF0FE
:10667000FF3070BD70B506460846184915461C46E1
:1066800003F094FE80B906F47060B0F5106F11D07D
:10669000B0F5206F1CD0B0F5E06F14D0B4B1A5F503
:1066A000002525600E4870BD84B1A5F580052560E4
:1066B0000B4870BD4FF420239D42EFD95CB1ED1A19
:1066C0002560084870BD4FF41023F5E7044870BDFD
:1066D0004FF44023F0E7034870BD00BF9410010859
:1066E000000A0E40000E0E4070B500220446616F95
:1066F0001346006ED4F88460FFF7BCFF05460D22F8
:10670000002329462046FFF791FF05F10C01304692
:10671000FBF79EFF01460248FEF7ECF9012070BD31
:10672000A0100108F8B50446164600220D46006E7A
:10673000616F1346FFF79EFF032D074604D00D48F7
:10674000FEF7B6F90020F8BD706803F0B7F905460A
:10675000B06803F0B3F90028ABB239460CBF0C2285
:106760000B222046FFF762FF2046FFF7BDFF012006
:10677000F8BD00BFB01001082DE9F0410646C2B0D7
:106780000F4601AB1546716F3A46006EFFF772FF78
:10679000019CFF214FF48072804602A803F000FDA7
:1067A000394602AA776930464FF48073240AB84705
:1067B0001DB910E0B5F580750DD0A3B23046414645
:1067C0000322FFF733FF01340028F3D04FF0FF30EE
:1067D00042B0BDE8F081002042B0BDE8F08100BFCA
:1067E0002DE9F04F0F46C5B004461E46154603ABD3
:1067F0003A46006E616FFFF73DFF039B824603F14F
:10680000FF38B0444FEA18284FEA1329DAB2C145DD
:106810000392C2EB070B29D84F46009601E0B8451A
:1068200024D34F4529464FF4807204A822D047450F
:1068300020D003F03FFC009E05F58075A6F580761C
:106840000096594604AA4FF4807320466669B04703
:106850000122BBB2204651461744FFF7E7FE00284D
:10686000DDD04FF0FF3045B0BDE8F08F002045B0DF
:10687000BDE8F08FFF214FF4807204A803F090FC74
:106880000398009EC0F580739E42B8BF334604AAA9
:10689000F61A294610441A460193009603F00AFCA2
:1068A000019B1D4400230393CBE700BF38B5D0F80C
:1068B0008450044621492846FBF7CAFE204B214953
:1068C00003408B42206629D01F4A934226D0A2F56E
:1068D0000012934222D028461C49FBF7B9FE184B00
:1068E0001B4A03409342206609D002F5801293426E
:1068F00005D0A2F50012934201D0002038BD154BFF
:1069000015481649164A60676166A2662046243912
:10691000E366144A01F0A6FA012038BD0D4B124877
:1069200012490F4A60676166A266204601F58C71C4
:10693000E3660F4A01F096FA012038BD40090E4087
:10694000E000F00F600050086000600840070E4053
:1069500060004009E1670008E01001087C0F0108B1
:1069600079670008EC10010894100108400E010836
:10697000D81001082DE9F041D0F8845004460F46A4
:1069800028461B49FBF764FE1A4980462846FBF758
:106990005FFE19490646194A2846FBF783FD28463B
:1069A00017494AF20552FBF77DFD02E0E36898477C
:1069B000D8B928461349FBF74BFE10F0010F2046CB
:1069C000F4D01FFA88F8324628460A4948EA0747B1
:1069D000FBF768FD28463A460549FBF763FD284664
:1069E00007494AF20652FBF75DFD0120BDE8F08140
:1069F00004408000004080001C4000410020400016
:106A000000400041144000414FF6FF71FFF7B2BF54
:106A10000021FFF7AFBF00BF70B5D0F88450044627
:106A20000A4928461022FBF73DFD02E0E36898473B
:106A300048B928460549FBF70BFE10F4807620463E
:106A4000F4D0012070BD304670BD00BF0021004170
:106A5000F8B532F0FF07044621F0FF06D0F8845065
:106A600029D0284672081649FBF71CFDD4F884008B
:106A700014494AF24152FBF715FD284611494AF2E2
:106A80000252FBF70FFD02E0E3689847A8B92846D9
:106A90000D49FBF7DDFD10F0010F2046F4D0D4F8CE
:106AA000840008494AF24052FBF7FCFCB7F58077B6
:106AB00006F58076D5D10020F8BD4FF0FF30F8BD47
:106AC0001C400041004000411440004138B5D0F85E
:106AD0008440134905462046FBF7BAFD114A20467B
:106AE0001149FBF7DFFC20461049FBF7B1FD820599
:106AF0000ED420460A49FBF7ABFD8301F9D42046AA
:106B00000B491F22FBF7CEFCEB682846984738BD9F
:106B1000204606494FF40072FBF7C4FCE9E700BFCA
:106B2000F0ED00E00400FA050CED00E0002100416A
:106B300030ED00E070B5D0F88450002204462649BC
:106B40002846FBF7AFFCD4F884002449FBF780FD0E
:106B5000234B00F00F00A3FB00239B0803EB8303F0
:106B6000C01AC0B24FF4802202411E492846FBF7EA
:106B700099FC28461C494FF40062FBF793FC284619
:106B800019490822FBF78EFC02E0E368984788B9B0
:106B900028461549FBF75CFD034613F4C85620460A
:106BA000F3D0DA0408D41B050BD41048FDF7A2FF7C
:106BB000012070BD304670BD0D48FDF79BFF0120E0
:106BC00070BD28460449FBF743FD01460948FDF71F
:106BD00091FF012070BD00BF042100411821004138
:106BE000CDCCCCCC08210041002100419C120108F1
:106BF0005C1201088412010838B5D0F884500E48A0
:106C0000FDF778FF032404F50013A20803F52053D1
:106C100002EB420203EB820189002846FBF718FDD4
:106C2000013401460548FDF765FF072CEBD1044808
:106C3000FDF760FF012038BDAC120108C012010849
:106C400058EF000838B5D0F8844008492046FBF7D3
:106C5000FFFC074905462046FBF7FAFC2946024699
:106C60000448FDF747FF012038BD00BF0440800005
:106C700000408000C81201082DE9F04F984601F04D
:106C8000030903334B4423F003030C4603F10A01C9
:106C900085B021F0070100AFADEB010D924606462D
:106CA0001A46FF216846C7F80CD0D6F8845003F086
:106CB00077FAF8684246A044514608F1FF38484444
:106CC00003F0F8F924F03F0B28F03F039B4528F030
:106CD0000308BB60C7F8048024F0030A98BF4FF094
:106CE000000C00F2A880D3450BF13C095ED3BB68D1
:106CF0009B4500F0A280FB68284653F82C205146A3
:106D0000C7F800C0FBF7CEFBD6F884004D494AF225
:106D10004152FBF7C7FBAA69284642F01202002144
:106D20000AF10404FBF766FA284622460421FBF721
:106D300061FA68682A7AC3681206082198470BF13D
:106D40004009D7F800C04C450CF1010814D2CAEB39
:106D50008C03D7F80CA09A445AF8042068680C21D8
:106D60000434FBF729FA4C4508F10108F4D303E099
:106D7000F3689847002855D128463349FBF768FC4B
:106D800010F0010F3046F3D0D6F884002D494AF2B6
:106D90004052FBF787FBBB680BF1400B5B454AD3C6
:106DA000A246D345C4460BF13C09A0D2AA692846A5
:106DB00042F012020021C7F800C0FBF71BFA284678
:106DC00004215246FBF716FA68682A7A7B68C46881
:106DD000994528BF994612060821A047CA45D7F809
:106DE00000C025D8F968CAEB8C030B445446E04632
:106DF0009A465AF8042068680C210434FBF7DCF941
:106E00004C4508F10108F4D9D6F884000D494AF23E
:106E10004152FBF747FB28460A494AF20452FBF766
:106E200041FBA9E74FF0FF301437BD46BDE8F08FB6
:106E30005446E046E8E70020F6E77B6899457FF690
:106E40005AAFB3E70040004114400041F8B5D0F814
:106E50008470002600240025F2B202F0030303F13F
:106E6000825303F6F87302F0FC02991A890038463F
:106E7000FBF7EEFBF300C0B200FA03F30136052E78
:106E800044EA0304E8D120462946F8BDF8B5D0F815
:106E90008470002600240025074938463144FBF75A
:106EA000D7FB7300C0B200FA03F30436102E44EA95
:106EB0000304F1D12046F8BDF03F0041F0B583B0A6
:106EC0000446D0F88460FFF7E1FF05462046FFF74F
:106ED000BDFF2D4902468D4202D0002003B0F0BD17
:106EE00022F07F42294B22F400229A42F5D130460B
:106EF0002749FBF7ADFB274B0340B3F1805FECD193
:106F0000254A00F00F03A2FB03129208032A18BFC0
:106F10002249234D18BF8A5C1F49C0F30320A1FBFF
:106F200003714FEA910101EB8101C1EB030300F111
:106F30004100C3F1120308BF75220090DBB219496A
:106F4000284603F09BF9184B18481949194AA063C1
:106F50006166A266E3666567D8312046164A00F08E
:106F600081FF164B1B780BB10120B7E7304614495F
:106F7000FBF76EFB8305F7D5304611494FF40072DD
:106F8000FBF790FAF0E700BF0D1005B1D0FC01004F
:106F9000182100410000BFFFCDCCCCCC2C11010842
:106FA00074120020E0120108796C0008CD6A000814
:106FB00030110108516A0008FC12010892120020E9
:106FC0000021004138B5064C05462146054AFBF72D
:106FD00069FA28462146044ABDE83840FBF762BA00
:106FE0000420024023016745AB89EFCD38B5D0F8C6
:106FF000845004460D4928464FF40872FBF752FAB4
:1070000028460A494FF41872FBF74CFA02E0E3688D
:10701000984748B928460649FBF71AFB10F0010FBC
:107020002046F4D1012038BD002038BD1020024098
:107030000C20024038B5D0F8845004462846FFF7AB
:10704000C1FF284610490422FBF72CFA28460E49B6
:107050004422FBF727FA02E0E368984790B92846F4
:107060000A49FBF7F5FA10F0010F2046F4D1284643
:107070000649FBF7EDFA00F03400B0F12003584266
:10708000584138BD002038BD102002400C2002407D
:107090002DE9F041013AD0F88460C3F10008D51819
:1070A00005EA0805044630461F4608EA0108FFF7CE
:1070B00089FF25B3ED1B304617490222FBF7F2F991
:1070C000304642461549FBF7EDF930461249422257
:1070D000FBF7E8F902E0E368984760B930461049E9
:1070E000FBF7B6FA10F0010F2046F4D1B844EB1BC1
:1070F0002DB11D46DFE74FF0FF30BDE8F08130468F
:107100000749FBF7A5FA00F03400203818BF6FF0EC
:107110000000BDE8F08100BF1020024014200240B2
:107120000C2002404FF40063FFF7B2BF4FF48063BE
:10713000FFF7AEBFF8B54FF6FF739A420446164606
:107140000F46D0F8845016D028460D494FF40472EB
:10715000FBF7A8F9284639463246FBF7B9F902E0B1
:10716000E368984748B928460649FBF771FA10F0DA
:10717000010F2046F4D10120F8BD0020F8BD00BF6A
:10718000102002400C2002402DE9F043036E85B030
:10719000A3F222431E2B04460F469046D0F884608B
:1071A00041D8012202FA03F3594945F6A5291940AD
:1071B00045F2AA53002918BF994656493046FBF7B5
:1071C00047FA00F002053046FFF7FCFE3046524910
:1071D000524AFBF767F930464F49514AFBF762F9CB
:1071E000022F23D05DBB032F33D04E48FDF760FC48
:1071F0004D48FDF75DFC4D4C4D4F21463046FBF7A9
:1072000027FA214682B205464A48FDF773FCA11CC5
:107210002A0C48480434FDF76DFCBC42EDD1012036
:1072200005B0BDE8F08345F6A529C6E7D8F8040007
:10723000414903F0BBF8002861D0002DD5D03F486C
:10724000FDF736FC3E48FDF733FC012005B0BDE8F4
:10725000F083D8F8040029462A4603F045FB294666
:1072600007462A46D8F8080003F03EFB07F16048BD
:1072700008F500684FEA5808B8F1070F8146D4F8BE
:107280008470B8D805F10051A1F500613846FBF7CC
:10729000DFF96B1004AA043502EB4301102D4FEA0D
:1072A000104221F8100C21F80E2CEBD14FEA4808BF
:1072B00004AB434433F8103C1FFA89F999459AD03E
:1072C0004FF6FF72934204D02046FFF78FFE00284E
:1072D00091D004AB9844154D28F8109CADF10207ED
:1072E0000DF10E082946204637F8022FFFF722FF3E
:1072F000023500283FF47FAF4745F3D17BE72046B6
:10730000FFF774FE20464A460849FFF713FF72E76D
:10731000010001401C200240082002402301674573
:10732000AB89EFCD681601088816010800F8FF1F29
:1073300010F8FF1FB0160108081601081016010802
:107340002C1601082DE9F04703F1030C01F00306A8
:10735000B4444FEA9C0CBCF5807F00AF0446D0F8E3
:1073600084804AD80CF102094FEA890909F10A0020
:1073700020F00700ADEB000D02A8C6EB010E0CF1EA
:10738000010C114630441A46A9F1080A4FF0FF33A8
:10739000CDF800E00293CDF804A04DF82C3002F0B7
:1073A00089FE4FF00051174A2C2366692046B047EA
:1073B0006A464B46144965692046A847636B2046D8
:1073C0004FF000519847E36820469847A8B9014616
:1073D000636C20469847236C204698470028FAD0D3
:1073E00040460A49FBF734F910F0140F0CBF002097
:1073F0006FF00000BD46BDE8F0874FF0FF30BD469E
:10740000BDE8F087700000202C0000200C20024016
:1074100010B543490446D0F88400FBF719F9C0F3CE
:107420000B00A0F582632066222B44D8DFE803F02E
:10743000334333432343434323434343434343437C
:10744000334312434343434323434343434343436D
:10745000434312003349344B344AA1F1E0006167E1
:107460006066A2662046A1F58E71E366304A00F0A0
:10747000F9FC012010BD2F492B4B2C4A01F11800BB
:1074800061676066A26620462439E3662A4A00F0F6
:10749000E9FC012010BD2949234B294A01F11800BC
:1074A00061676066A2662046F431E366254A00F013
:1074B000D9FC012010BDD4F884002349FBF7C8F89B
:1074C000C0F30B03A3F58862082A23661FD80121A5
:1074D00001FA02F240F211101040C8B140F24442E9
:1074E000934219D0B3F5896F13D0B3F5886F01D1EA
:1074F000164B63670C4B1649114A6166A26620461B
:10750000DC31E366134A00F0ADFC012010BD002021
:1075100010BD114B6367EDE7104B6367EAE700BFEF
:10752000002004E0D8150108457300082571000803
:10753000D8160108E0140108CC160108C813010888
:107540002D710008C016010800580140F01501080F
:10755000E0130108E0160108FC150108E415010814
:1075600070B5D0F8845004460E4628461D491E4A80
:10757000FAF798FF28461B491C4AFAF793FF02E0E6
:10758000E368984750BB28461949FBF761F810F4A7
:10759000803F2046F4D126F0704626F0130632468E
:1075A00028461449FAF77EFF284646F002021149A0
:1075B000FAF778FF02E0E368984788B928460C4953
:1075C000FBF746F810F4803F2046F4D1284646F0F9
:1075D00001020849FAF766FF012070BD012070BD65
:1075E000002070BD083C02403B2A19087F6E5D4CAC
:1075F0000C3C0240143C0240022970B50546164678
:10760000D0F8844020D0032904D15068194902F0F1
:10761000CDFE20B31848FDF74BFA1848FDF748FA9D
:1076200020461749FBF714F8154982B21548FDF7B3
:1076300061FA20461449FBF70BF8134982B211484E
:10764000FDF758FA012070BD5068104902F0AEFEF7
:107650000028DFD128460E49FFF782FFE0E7014608
:107660000A46B06803F0E4F901462846FFF778FFC0
:10767000D6E700BFA01A010868160108A81A010879
:1076800000C0FF1FB016010808C0FF1F0816010840
:10769000EDAAFF0F2DE9F04703F1030C01F00306FB
:1076A000B4444FEA9C0C0CF102084FEA88088E465D
:1076B00008F10A0121F0070100AFADEB010DC6EBA7
:1076C0000E0E11460DF108091A464FF0FF3AA8F1C7
:1076D00008030446CDF800E00CF1010C019309EB1E
:1076E0000600CDF808A0D4F884904DF82CA002F044
:1076F000E1FC4FF00051164A302320466669B0473E
:107700006A464346134965692046A847636B20468D
:107710004FF000519847E36820469847A8B90146C2
:10772000636C20469847236C204698470028FAD07F
:1077300048460949FAF78CFF10F0F20F0CBF002001
:107740006FF00000BD46BDE8F0875046FAE700BF85
:107750009C000020300000200C3C024010B509497C
:107760000446FAF775FF002800DB10BD20460649E5
:10777000064AFAF797FE20460349054ABDE810403D
:10778000FAF790BE103C0240043C024023016745DA
:10779000AB89EFCD70B5234B82B0D0F8846005463D
:1077A00093E80300009020488DF80410FDF780F95D
:1077B0003046FFF7D3FF30461C490422FAF772FE29
:1077C00030461A491A4AFAF76DFE002407E013F80A
:1077D000081CFDF78FF9EB6828469847D8B9304662
:1077E0001449FAF735FF04F0030302AA10F4803FAE
:1077F0001344114804F10104E9D11048FDF758F988
:1078000030460C49FAF724FF00F0F300431E5842BB
:10781000584102B070BD0948FDF74AF9002002B096
:1078200070BD00BF041B0108D01A0108103C0240C3
:10783000040001000C3C0240001B010858EF000846
:107840002DE9F843D0F884502B4E04469046284644
:107850000E40FFF783FFB8F1000F24D0B6F5803F4C
:107860002DD2F30A254F43F0407242F002021F432B
:107870004FF4804928462249FAF714FE28463A4632
:107880001F49FAF70FFE02E0E368984750BB28460D
:107890001C49FAF7DDFE10F4803F2046F4D1B8EB26
:1078A00009084E44DAD128461649FAF7D1FE10F0FD
:1078B000F20F0CBF00206FF00000BDE8F883B6F5B2
:1078C000003F13D3B6F5801F0CD2A6F500339B0BF7
:1078D00028330A4F43F0407242F002021F434FF434
:1078E0000039C7E74FF0FF30BDE8F883064F074A7D
:1078F0004FF48039BEE700BF00C0FF07020001035C
:10790000103C02400C3C0240220001032200000314
:1079100010B51A490446D0F88400FAF799FE6FF4BE
:107920008263C0F30B001844222813D8DFE800F06C
:107930001412141212121212141212121212121221
:107940001212141212121212121212121212121215
:1079500012121400002010BD09490A4B0A4A01F511
:107960005A7061666067A266204601F55D71E36644
:10797000064A00F077FA012010BD00BF002004E0A5
:107980000817010895760008417800080C1B0108CB
:107990002DE9F04F984611F0030383B004460D46DD
:1079A0009146D0F8846017D0C3F10407002202A8E2
:1079B000474528BF474640F8042D494618443A46F3
:1079C00002F078FB25F003013046019AFAF76AFDD0
:1079D000C7EB0808B9443D4415F07F0A23D0B8F13D
:1079E000030F10DCB8F1000F33D130463A49FAF7F3
:1079F0002FFE41F602730340981E18BF6FF000007F
:107A000003B0BDE8F08FCAF1800AC24588BF28F0F4
:107A1000030A29464A46676920465346B847CAEBD7
:107A200008085544D144B8F1800F20DCB8F1030FA9
:107A3000D8DD28F0030729464A463B46D4F814C04F
:107A4000204608F00308E0473D44B944B8F1000F70
:107A5000CBD0002302A84946424640F8043D02F03C
:107A600029FB30462946019AFAF71CFDBDE730464E
:107A70001A494FF48162FAF715FD02E0E36898476E
:107A800020BB30461449FAF7E3FD10F0010A204606
:107A9000F4D128F07F0B29464A465B466769B84710
:107AA000304652460D49FAF7FDFC02E0E36898477C
:107AB00060B930460849FAF7CBFD10F0010F2046B7
:107AC000F4D1D9445D4408F07F08AFE74FF0FF30B0
:107AD00003B0BDE8F08F00BF183C0240043C0240F8
