:020000040800F2
:1020000000500020D58C0008D38C0008D18C00082B
:10201000D18C0008D18C0008D18C00080000000091
:10202000000000000000000000000000D38C000849
:10203000D38C000800000000D38C0008E95D000884
:10204000D18C0008D18C0008D18C0008D18C0008FC
:10205000D18C0008D18C0008D18C0008D18C0008EC
:10206000D18C0008D18C0008D18C0008D18C0008DC
:10207000D18C0008D18C0008D18C0008D18C0008CC
:10208000D18C0008D18C0008D18C0008D18C0008BC
:10209000D18C0008D18C0008D18C0008D18C0008AC
:1020A000D18C0008D18C0008D18C0008D18C00089C
:1020B000D18C00089975000851790008D18C00086E
:1020C000D18C0008D18C0008D18C0008D18C00087C
:1020D000D18C000801790008D18C0008D18C00084F
:1020E000795F0008D18C0008D18C0008D18C0008E1
:1020F000D18C0008D18C0008D18C0008D18C00084C
:10210000D18C0008D18C0008D18C0008D18C00083B
:10211000D18C0008D18C0008D18C0008D18C00082B
:10212000D18C0008D18C0008D18C0008D18C00081B
:10213000D18C0008D18C0008D18C0008D18C00080B
:10214000D18C0008D18C0008D18C0008997400084B
:1021500008B5D0F8843058684369984708BD00BF77
:10216000036810B5013B044603606BB9406803681F
:10217000013B03604BB1E06908B1236A98472046F0
:10218000BDE8104006F0B4BE10BD06F0B1FEE06937
:102190000028F2D1F3E700BF036801330360704702
:1021A00003680133036070470368013B036003B1B8
:1021B000704706F09DBE00BF10B582B000920B467E
:1021C000846901210022A04702B010BD70B50B4602
:1021D00082B00025012186690A4600950446B04771
:1021E000009529462046A56901220C23A84702B084
:1021F00070BD00BFF0B50446277A40680D4601F077
:10220000F00183B01646C36841EA07620821984787
:10221000606800962B46846901210022A04703B024
:10222000F0BD00BF2DE9F043D0F884600C46B169E1
:1022300083B09146304641F0100200219846FFF7E6
:10224000D9FF706800948569012100220423274684
:10225000A044C4EB0909A84704F0030344454FEA2E
:10226000C30321D019F80420706802FA03F3009325
:1022700085690134012100220C23A84784EA07055F
:1022800025F47F7525F00305002DE5D070680094D6
:102290000423856901210022A84704F00303444573
:1022A00027464FEAC303DDD1002003B0BDE8F08329
:1022B0002DE9F04FD0F884508946A96983B01646BD
:1022C000284641F0100200219B46FFF793FF686803
:1022D00000968469012100220423A0470024686835
:1022E0000121009487690BF1FF3B0A460C23A046AD
:1022F000B8470BEB060A37463446012154450A46D7
:102300004FF00C03686825D0CDF80080D0F818C0D5
:10231000E04704F00303DB00D840C6EB0902105588
:10232000013484EA070323F47F7323F00303002BB3
:10233000E3D0686800948769012100220423B8472C
:1023400068680121CDF8008087690A460C23B847E8
:102350002746D2E70025009586692946B04704F054
:102360000304E40020FA04F4284609F80B4003B003
:10237000BDE8F08F2DE9F043D0F884700C46B969C0
:1023800083B09146384641F0120200211E46FFF705
:1023900031FF78680094A04601218469002204235B
:1023A000A047B610C8EB0909444600E0013E0121F0
:1023B00000220C23BEB159F8045078680095856955
:1023C0000434A84784EA080525F47F7525F0030541
:1023D000002DEBD078680094856901210022042348
:1023E000A847A046E2E7304603B0BDE8F08300BF4F
:1023F0002DE9F04FD0F884608A46B16983B0174662
:10240000304641F0120200214FEAA30BFFF7F2FE23
:10241000706800978469012100220423A0470024EA
:1024200070680121009485690A460C23A146A847DB
:10243000B8465D463C460121013D0A464FF00C037B
:10244000706823D0CDF80090D0F818C0E047C7EBF3
:102450000A031851043484EA080323F47F7323F039
:102460000303002BE7D070680094D0F818C0012156
:1024700000220423E04770680121CDF80090D0F8D5
:1024800018C00A460C23E047A046D4E700958469AB
:102490002946A0470BF1FF3B4AF82B00284603B022
:1024A000BDE8F08F70B5836904460E4615460021DD
:1024B00043F01202FFF79EFE204632460421FFF74A
:1024C00099FE20462A460C21BDE87040FFF792BED7
:1024D00070B58B07154648BF1504826904460E4641
:1024E00042F011020021FFF785FE2046324604210A
:1024F000FFF780FE20462A460C21BDE87040FFF71A
:1025000079BE00BF38B504460D464068217A05F013
:10251000F002C36842EA01620821984760682946D0
:10252000BDE83840FFF752BE2DE9F04F026803695D
:102530000132026004218BB080469847D8F80C30F5
:1025400040F0A042042140469847D8F81030404659
:102550000421984700F02040B0F1204FF5D1DFF87A
:10256000E8B0DFF8E8A04FF000093BE006F0B8FC67
:1025700001AD044606460FCD0FC40FCD0FC4D8F8E9
:1025800000302A680133C8F80030F4212260304658
:10259000FFF7B8FFF82130613046FFF7B3FF394647
:1025A00070613046FFF7AEFF20F037038C20B36137
:1025B00004F0DCFD32681F49013232601E4F1F4AB1
:1025C0001F4D204CC0F88460C0F888B0C0F874A0DB
:1025D000C260076145618461C16101F0F7FAB9F534
:1025E000807F17D0002701A8FC210397CDF8088031
:1025F0008DF80C9001970497059706970797089711
:102600000997FFF77FFF034609F10109242004938E
:10261000002BABD1D8F80030013BC8F8003013B123
:102620000BB0BDE8F08F40460BB0BDE8F04F06F0B0
:102630005FBC00BF25220008F123000851210008DB
:1026400075230008B12200086121000874E0000829
:1026500038B5826904460D4642F012020021FFF7A8
:10266000C9FD20462A460421FFF7C4FD20460C215F
:10267000BDE83840FFF746BF826938B542F0110225
:1026800004460D460021FFF7B5FD20462A460421E9
:10269000FFF7B0FD20460C21FFF734FFAB074CBF1E
:1026A000000C80B238BD00BF2DE9F04184B00A9E15
:1026B0005B0803F0060300324FEA56754FEAC60482
:1026C000DEB218BF01220027002944EA060444EACA
:1026D00002040CBF0A210B2180463D43C069CDE9AD
:1026E000004502F089FB02A96A462323D8F81C00A2
:1026F00002F0BEFBDDE9022340F2E73402F00701FD
:102700000CE002A96A462323D8F81C0002F0B0FBB3
:10271000DDE90223013C02F0070109D00129F0D0D4
:1027200002290FD1D00840EA437004B0BDE8F0811F
:1027300098F808000028F3D00129F1D1204604B010
:10274000BDE8F0810B4C23787BB10B48032102F0EC
:10275000DFF80023237004F017FD0848012103F07F
:10276000A9FB0748012106F043FF0648032102F0B8
:10277000CFF8EEE73C12002088E0000890E0000867
:10278000E01100208CE0000830B5002483B0214621
:102790000094012204230546FFF786FF054B2146DE
:1027A0000093284622460423FFF77EFF00F0320004
:1027B00003B030BD320000F030B5002483B00B46CA
:1027C0000546214600940122FFF76EFF009428463B
:1027D000214601220C23FFF767FF03B030BD00BF85
:1027E00000B50B4683B0002100920A46FFF75CFF5C
:1027F00003B05DF804FB00BFF8B5202104460120BA
:1028000006F022FB074FA268074E084D0849C46135
:10281000C7600661456142608161BDE8F840FFF72D
:1028200083BE00BFE1270008B927000889270008F8
:10283000A9260008F0B5064683B01746002934D013
:10284000027F002A3AD1A325002F3AD103F00C03CE
:10285000042B45EA43053CD0082B3AD028460821F2
:1028600004F020FC032004F0BDFB40F2E734C0B2CA
:1028700009E02846082104F015FC032004F0B2FB0F
:10288000013CC0B215D00228F3D004283DD0012865
:1028900028D10FBB0898202104F034FC0020082127
:1028A00004F000FC019803B0F0BD8125002FCDD0CD
:1028B00007E0327A002AE8D00228E6D1002003B0EF
:1028C000F0BD03F00C0385F02405042B45EA430515
:1028D000C2D185F02005C1E701A8202104F0A6FBA4
:1028E0000028DBD00D4C23789BB10D48032102F06A
:1028F0000FF80023237004F047FC0A48012103F07D
:10290000D9FA0948012106F073FE0123337700202C
:10291000D5E70648032101F0FBFFEAE73C1200205F
:1029200088E0000890E00008E01100208CE000083A
:1029300000B50B4683B0002100910122FFF77AFF1A
:1029400003B05DF804FB00BF00B50B4683B0002167
:1029500000920A46FFF76EFF03B05DF804FB00BF6C
:1029600030B5002183B00091042301220446FFF713
:1029700061FF10F0020F14BF10220022C30648BFEF
:1029800042F00202810648BF42F00402030648BF3B
:1029900042F00802002100F0B20500920B460A4600
:1029A0002046FFF747FF00232846237703B030BDBA
:1029B000F8B504F0E9FB2021012006F045FA0446B1
:1029C00004F090FB204B1B785BBBA520082104F092
:1029D00069FB032004F006FBC7B2012F25D1201D9F
:1029E000202104F023FB0546F8B9184BDFF870E00E
:1029F0001749184AA361C4F80CE0216162612046BE
:102A0000154EFFF7ADFF2046FFF78EFD3368B3B1DB
:102A10002846294603F04EFA3068003018BF0120DE
:102A2000F8BD012002F0EAFACFE701210B4803F0DC
:102A300041FA204606F05CFA4FF0FF30F8BD394607
:102A4000064803F037FAE7E73D1200203528000872
:102A50003129000861290008500F0020A0E000087B
:102A600049290008704700BF08B503461A6A90302C
:102A700006F0E2FC002008BD08B50346026A0846DD
:102A800003F1900106F0D8FC002008BD38B5C36BF7
:102A900004460025984703E00220013D03F09CF91D
:102AA000236C204698470028F6D0281C18BF012028
:102AB00038BD00BF30B583B002AD044605F8011D36
:102AC0000068022102F098F92A46206804230021B8
:102AD00002F0CEF920680C2102F08EF903B030BD6F
:102AE0002DE9F043814683B00C468C3001211E460F
:102AF00017460DF10808FFF7DDFF0025D9F88C0017
:102B00006A460021212368E9024502F0B1F97EB14D
:102B10003C682123D9F88C00002569466A46CDE936
:102B2000004502F0A5F9009B013E47F8043BEFD1B8
:102B300003B0BDE8F08300BF70B582B0002401256A
:102B400002AE66E90245022104468C30FFF7B2FF6F
:102B50006A46D4F88C000021262302F089F96A46DF
:102B6000D4F88C002623694602F082F9DDE90023BF
:102B700012F0010007D0204604F19002034910230F
:102B8000FFF7AEFF012002B070BD00BFFFFF80E87D
:102B9000F0B583B0064600F1900210231B4902AF46
:102BA00000242025FFF79CFF67E9024506F18C040D
:102BB00020460221FFF77EFF6A46D6F88C000021EE
:102BC000262302F055F90022134630461049FFF73C
:102BD00087FF204601210E4CFFF76CFF01256A4656
:102BE000D6F88C0000212123CDE9004502F040F900
:102BF0000022304613460749FFF772FFD6F88C00D3
:102C0000042102F0F9F803B0F0BD00BFFFFF90E827
:102C10000000A0E1F8FFFFEA70B582B00224202591
:102C200002AE66E90245022104468C30FFF742FFFE
:102C30006A46D4F88C000021262302F019F902B06C
:102C400070BD00BF2DE9F8430446D02004F08EFA91
:102C5000DFF85C900346104ADFF858800F4F104EA3
:102C6000104D114811494FF0400CC3F88C40C3F887
:102C70007490C3F80480C3F820C09F62DE62DD63F5
:102C8000186459649A60DA601A615A619A61DA616B
:102C90005A639A63BDE8F883652A0008792A000818
:102CA000692A0008192C0008392B0008912B00080C
:102CB000ACE000088D2A000808B504F0F3FB0448D6
:102CC00004490522852301F0B5FE012008BD00BF9F
:102CD00024E100084413002008B5044B196811B121
:102CE000034801F0A7FE012008BD00BFD811002055
:102CF000A0E2000870B5114C06462568C5B1104821
:102D000001F076FE0F4801F073FE246801256CB1D6
:102D10002946B44214BF20222A22636F0A4801F0D8
:102D200089FED4F880400135002CF1D1012070BD1E
:102D3000064801F05DFE284670BD00BF500F002020
:102D400050E1000864E1000874E1000834E1000883
:102D500038B50546114801F04BFE114C1149A268E7
:102D6000114801F067FE54F80C1F0029F7D19DB1FE
:102D7000AD6F8DB129680D4801F05CFE6C6821686B
:102D800039B1A268084801F055FE54F80C1F00291B
:102D9000F7D1AD68002DEDD1012038BD8CE10008E0
:102DA000B8E0000884E10008A0E10008ACE10008F8
:102DB00008B5054801F01CFE044801F019FE04485E
:102DC00001F016FE012008BDC4E100080CE2000875
:102DD00040E2000808B503F07FF80146084801F01A
:102DE00029FEFFF7E5FD002804DB0020FFF782FF46
:102DF000012008BD034801F0FBFD002008BD00BF15
:102E000090E20008A4E200082DE9F04383B002AF8D
:102E10008946154603F060F801462C4801F00AFE89
:102E2000B9F1010F42DD09F10E0323F00703ADEB09
:102E3000030D0DF10808A9F1020608F1FF3446441C
:102E400055F8040F05F0F8FF04F8010FB442F7D16C
:102E5000C144002309F8013C404601F053FE041E22
:102E60002FDB26D01A4E1B4801F0E4FD3368002BFF
:102E700011DD194C0025D4F80A10D4F80630227858
:102E800016480091294601F0D5FD33680135AB4263
:102E900004F11404EFDC124801F0AAFD0020FFF752
:102EA00029FF01200437BD46BDE8F0834FF000083C
:102EB000D2E70C4801F09CFD20460437BD46BDE832
:102EC000F083094801F094FD0020EBE790E2000850
:102ED0005C110020F4E200086211002020E30008E9
:102EE000D0E20008D4E20008B8E20008012908B5E1
:102EF0000BD050680B4906F01DFC0B4BD0F10100C4
:102F000038BF00201870012008BD074B074A197808
:102F1000074B084800290CBF1146194601F08AFDED
:102F2000012008BD68E300083D1200203CE30008D2
:102F300034E3000848E300082DE9F84F0B7800AFB0
:102F400006467BB10A46002404E0092B04D012F89F
:102F5000013F33B1202BF8D112F8013F0134002B8F
:102F6000F8D1A3000E3323F00703ADEB030D0846A1
:102F7000294906F0B9FDE8460090002849D06C4682
:102F800000250020244906F0AFFD013544F8040F68
:102F90000028F6D1D8F80040204606F0E9FCDFF81A
:102FA00080A081461D4902E05AF80C1F89B12046D5
:102FB0004A4606F00DFD0028F6D1DAF80430304616
:102FC00029464246984780F00100C0B2BD46BDE8A0
:102FD000F88FDEB1D6F878A0BAF1000F16D0DAF883
:102FE0000430196869B19B4602E05BF80C1F41B1DF
:102FF00020464A4606F0ECFC0028F6D1DBF8043007
:10300000DDE7DAF808A0BAF1000FE8D14FF0FF30A1
:10301000DCE704460546BFE770E3000884E10008EA
:10302000B8E00008D0F884000022436802491A7210
:10303000024AFFF737BA00BFF0ED00E003005FA0DF
:1030400010B5D0F884400A4620460549FFF72AFA11
:1030500020460449044AFFF725FA002010BD00BFAE
:10306000F8ED00E0F4ED00E00F000100F8B5D0F855
:103070008460F7693B6C63B1114D002429463046EA
:103080000022FFF70FFA3B6C0134A34205F104055F
:10309000F4D87B6A63B10B4D0024294630460022E8
:1030A000FFF700FA7B6A0134A34205F11005F4D85A
:1030B00030460549054ABDE8F840FFF7F3B900BFBF
:1030C000082000E0281000E0F0ED00E000005FA024
:1030D000D0F88400022B2DE9F041C6693AD0042BC8
:1030E00031D0012B03D04FF0FF30BDE8F0814FF01D
:1030F000000803292BD0042933D00229F3D14FF043
:10310000060C776A4FB300210B4602E00133BB4245
:1031100023D07418656808319542F7D1257A654542
:10312000F4D1647A4445F1D1BB4216D00E49002453
:1031300006EBC3061B01347219442246FFF7B2F9AD
:103140002046BDE8F08103294FF00308D3D14FF0AA
:10315000050CD6E74FF00108CBE76FF00100BDE8A2
:10316000F0814FF0070CCCE7281000E0D0F8840085
:1031700070B5C669356C85B1B36A23F001038B4223
:103180001CD03246002305E0D46A043224F0010446
:103190008C4205D00133AB42F6D14FF0FF3070BD09
:1031A00003F1605101F60201890000240A3346F858
:1031B00023402246FFF776F9204670BD01490023DF
:1031C000F3E700BF082000E0D0F88400F8B5C76935
:1031D00021F0604211F0020F22F003023E6C42F037
:1031E00001020CBF4FF080434FF000431A436EB111
:1031F000BB6A13F001031BD03C46002303E0E56AE1
:103200000434ED0705D50133B342F8D14FF0FF3058
:10321000F8BD03F1605404F60204A5000A3341F03E
:10322000010447F823402946FFF73CF90020F8BD88
:10323000004DF3E7082000E02DE9F04FD0F88400BE
:1032400091B0374E05AC8B46019015460FCE0FC49A
:103250000FCE0FC496E80700019BBBF1020FDF6998
:1032600084E8070006DD6B681B780393643BDBB2E0
:10327000012B23D92B4801F0BBFB0DF110092A4883
:1032800001F0B6FB0024012502E001340B2C0ED026
:1032900059F8041F0029F8D005FA04F27B6C1A4291
:1032A000F3D02248013401F0C5FB0B2CF0D12048AB
:1032B00001F09EFB012011B0BDE8F08F00244FEA21
:1032C0008B0BCDF808B026460DF110094FF0010820
:1032D000CB464FF0000A5BF8042F104632B1295953
:1032E00006F028FA10B908FA0AF216430AF1010AA0
:1032F000BAF10B0FEFD1029A04349442E8D1039B48
:10330000652B08D07A6C22EA06027A640198094992
:10331000FFF7C8F8B3E77A6C32437A64F6E700BF88
:10332000BCE40008C8F000081CF1000830F10008F7
:10333000D0E20008FCED00E02DE9F041D0F8847007
:103340008846FE69736A3BB3154D002405E00134DD
:10335000A34205F110051A4611D906EBC402127AF0
:10336000002AF4D038462946FFF772F9C30110D479
:10337000736A0134A34205F110051A46EDD8A24242
:103380000AD006EBC40463680120C8F80030BDE829
:10339000F081726AA242F4D10020BDE8F08100BF42
:1033A000281000E02DE9F84FD0F88460022B074682
:1033B0009046D6F81CB05BD0042B60D0012B03D014
:1033C0004FF0FF30BDE8F88F4FF00009032953D0CC
:1033D000042957D00229F3D14FF0060ADBF8243034
:1033E000002B55D02C4D002405E00134A34205F1FB
:1033F00010051A4612D90BEBC402127A002AF4D136
:1034000030462946FFF724F903073ED0DBF8243085
:103410000134A34205F110051A46ECD8944237D086
:1034200004F1606505F581750BEBC4042D0142467E
:103430002946304684F808A0C4F8048084F809902E
:10344000FFF730F830464A46291DFFF72BF8FB6D91
:10345000304613F0010F0CBF4FF40062002205F15B
:10346000080142EA0A02FFF71DF80020BDE8F88FC4
:1034700003294FF00109ABD14FF0050AAEE74FF039
:103480000309A3E74FF0070AA8E7DBF82420C5E704
:103490006FF00100BDE8F88F281000E02DE9F84337
:1034A000056AD0F88430AD000A3525F00705DE69DD
:1034B00000AFADEB050D836A884669469146044628
:1034C0009847B36C6D465A1F012A07D9012B0BD1BF
:1034D000B8F1FF3F08D008F1010306E0B8F1000F92
:1034E00002DD336DC8EB030843462B602946E36ACF
:1034F00020469847C6F84C90BD46BDE8F88300BF0B
:103500002DE9F04F91B0D0F8844002AF05469449C0
:103510002046D4F81C80FFF79BF810F4003003D14C
:103520003C37BD46BDE8F08F636800221A72204622
:103530008C49FFF78DF80646324620468949FEF74A
:10354000B1FF34070DD4C6F3400388F80130002BD7
:1035500060D116F0060F55D005203C37BD46BDE8BA
:10356000F08FD5F8849080494846FFF771F87F497D
:1035700004464846FFF76CF8224682467A49484698
:10358000FEF790FF484652467849FEF78BFF6000F1
:1035900002D4BAF1000FD6D02B6AE846002BB8BF90
:1035A000033323F003030A3323F00703ADEB030DCA
:1035B00002AC2146AB6A28469847D4F838A0626B23
:1035C00007F11801202328462E69B047F96A3B6BA2
:1035D0007A6B1AF0100FA163E3630CBF20236823FA
:1035E0009105626B48BF04331344484663636049E6
:1035F000604AFEF757FF2146EB6A284698470B20A2
:10360000C5468DE7F307A7D598F80030002BA3D166
:10361000022085E7D5F884400F2220465649FEF760
:1036200041FF20465549FFF713F802230246AC69D3
:103630002846B91CA0477A884BF6AB639A4288D1DA
:103640002B6AE9469B000A3323F00703ADEB030D19
:103650000DF1080AD5F884205146AB6A2846D2F805
:103660001CB09847DAF804201023284607F1080117
:103670002C69A047DAF80020531ECBF84820122B03
:1036800000F2B980DFE803F08E655FB7554BB7B73E
:10369000453DB739B73125B7B71A0A00DBF84C30CA
:1036A0005146CAF800302846EB6A98472846CD466E
:1036B00098F800106B6C9847002031E7B968FA68F9
:1036C000013901322E4801F07BF94FF0FF30CD4631
:1036D00026E7786907F1080101300EC90090013929
:1036E0000132284801F06CF9EFE7B968FA6801394E
:1036F0000132254801F064F9E7E70023CBF84C30AC
:10370000D4E7B96821480139FA68002301F058F973
:10371000DBE7B9681E48013901F052F9D5E73B698A
:10372000B968CBF8503001391A48FA6801F048F905
:10373000CBE73B69B968CBF8503001391648FA68D5
:1037400001F03EF9C1E7DAF80410144801F038F945
:10375000BBE7B9681248013901F032F9B5E700BF9B
:10376000F0ED00E030ED00E02CED00E028ED00E0B1
:103770000CED00E00200FA05F4ED00E0F8ED00E0E9
:10378000ECF10008C4F10008DCF10008ACF100081D
:103790009CF100085CF1000874F100088CF100084D
:1037A00050F100081E4E07F118040FCE0FC496E822
:1037B0000300FB6884E803005B0807F1380404EBAE
:1037C0008306391DAC692846BA68042356F8206C74
:1037D000A047381D134905F0ADFFA8B96EB9CAF866
:1037E0000060DAF8003051460133CAF8003028464C
:1037F000EB6A98475AE7CD46ABE672054CBF01230A
:103800000223CAF80030ECE73A694FF4D273009310
:1038100001323346B968044801F0D2F855E700BFD9
:10382000E8E4000834F1000838F1000810B5D0F8D9
:103830008440012001F0E2FB002001F0DFFB0B4996
:103840002046FEF705FF204609490A4AFEF72AFEF0
:1038500020460649FEF7FCFE8301F9D420460649BE
:103860001F22BDE81040FEF71DBE00BFF0ED00E0D6
:103870000CED00E00400FA0530ED00E02DE9F04326
:10388000D0F8844083B0A269884642F01202002139
:1038900081462046FEF7AEFC2A4B6068009385699E
:1038A000042301210022A8472046D8F8002018212F
:1038B000FEF7A0FC60684FF4803300938569012116
:1038C00000221423204EA84708F14C07454655F81E
:1038D000043F60680093D0F818C00121002218232B
:1038E000E04756F8043F606843F480330093D0F813
:1038F00018C0012100221423E047BD42E7D1D9F8C6
:103900005C3008F150059B0718D5104E08F1D4081B
:1039100055F8043B60680093876901210022182351
:10392000B84756F8043F606843F4803300938769D2
:10393000012100221423B8474545E9D1002003B0F6
:10394000BDE8F083F0ED00E000E500084CE500087C
:103950002DE9F047D0F8844082B0A269884642F051
:103960001202002182462046FEF744FC224B60688A
:1039700000938569042301210022A84720461421D1
:103980000022FEF737FC60681821FEF71FFC1B4D74
:10399000C8F80000464605F14C0955F8043F606838
:1039A00000930121002214238769B8476068182119
:1039B000FEF70CFC4D4546F8040FEED1DAF85C300A
:1039C00008F150059B0713D50D4E08F1D40856F8A1
:1039D000043F606800930121002214238769B847DF
:1039E00060681821FEF7F2FB45F8040B4545EED15F
:1039F000002002B0BDE8F087F0ED00E000E500082F
:103A00004CE500082DE9F84FD0F884800546C368DE
:103A10003F4FD8F81C609847EB6B284698473B7897
:103A20007BB90A2404E0022002F0D6F93B7843B9BE
:103A30002B6C2846984720B9013CF4D12046BDE8BC
:103A4000F88F40463349726CFEF72CFD40463249F0
:103A50001F22FEF727FD0623336440462F49FEF759
:103A6000F7FD336CC0F3031098424FD30423736205
:103A700040462B49FEF7ECFD736A000F9842336C09
:103A800088BF7062B3B1DFF8B0A04FF00009C6EB99
:103A90000A0ACB4634460AEB040140460022FEF7F0
:103AA00001FDC4F828B0336C09F101094B4504F15C
:103AB0000404F0D8736A93B10024DFF88090A24622
:103AC000494640460022FEF7EDFC06EBC40383F8AE
:103AD00008A0736A0134A34209F11009F0D84046E6
:103AE0000E490322FEF7DEFC0E4E0F4C0F48104924
:103AF000104A3B78AE64EC6428656965AA6513B129
:103B0000002001F07BFA0120BDE8F88F3064ADE7BA
:103B10003D120020FCED00E030ED00E0002000E070
:103B2000001000E0C93100086D310008A53300081D
:103B3000D130000839330008082000E0281000E0E8
:103B40002DE9F041D0F884401B4FE5691B4A2B78E2
:103B5000002908BF17468B4280460E4606D02046F5
:103B6000174947F00202FEF79DFC2E706B784BB9A7
:103B70003A4620461249FEF795FC636801221A7204
:103B8000BDE8F081D8F884500F2228460D49FEF791
:103B900089FC28460C49FEF75BFD05462946204670
:103BA000FEF76AFD00F47F40B0F53E4FE0D140469D
:103BB000A91CFFF745FADBE70D005FA001005FA03D
:103BC000F0ED00E0F4ED00E0F8ED00E02DE9F84F55
:103BD000DFF840B1DFF840C1DFF840E1444B454A2F
:103BE000454F464D4649474EDFF834A1DFF8349142
:103BF000DFF83481C0F804B04FF0500BC0F834C087
:103C0000C0F838E0036742670446C763056441644F
:103C1000C0F808A0C0F82890C0F82C80C0F820B0E8
:103C2000466206F5747103F0D7FAD4F88450364929
:103C30002846FEF70DFD40F470073A462846324903
:103C4000FEF730FC28463049FEF702FDB84244D06A
:103C50005421012005F0F8F82C492D4A0346E8616B
:103C6000296220465A6402F09DFD10B10120BDE892
:103C7000F88FE36820469847204603F013F80028A1
:103C8000F4D1E36820469847204603F047F900281E
:103C9000ECD1E36820469847204601F04BFC002811
:103CA000E4D1E36820469847204601F047FF00280A
:103CB000DCD1E36820469847204602F0EDFA002860
:103CC000D4D1E36820469847204601F0E5FA002861
:103CD000CCD1E36820469847C8E7E26D236A06F531
:103CE0007A7642F0020284336662E2652362AFE7CD
:103CF0009D34000800000020253000080135000830
:103D0000413B0008D4E5000888ED00E0F18E000892
:103D100001040001053A0008413000082D38000870
:103D20006D300008513900087D3800082DE9F04158
:103D3000214B14461A68032C42F0010282B0064659
:103D40000D461A6017DDDFF8748005E0019B032C37
:103D50001BBAC8F800300EDD2A46304601A90423FC
:103D60003769B847043C04350028EFD04FF0FF30E6
:103D700002B0BDE8F08104EB0508104B45451C6816
:103D800016D02A460123B769304601A91D44B84719
:103D90000028EBD1019A082384EA0264002CBBBFFF
:103DA0006200074C64005440013BF7D14545E8D11F
:103DB000204602B0BDE8F0810830024000300240E9
:103DC000B71DC10470B5114C23685A1C23442260EE
:103DD000187111B9402A00D070BD03F0F7FA01281C
:103DE00002D00023236070BD03F0F6FA0028F8D05B
:103DF000074E064D30682A1D0121238804F0CDF9B5
:103E00000028F6D000232B60E6E700BF3C09002025
:103E10004012002038B501210B4C0A46054604F03B
:103E2000D4F904F1440228460121402304F0BBF9EF
:103E30000246C4F8840000B138BD28460121BDE81F
:103E4000384004F0C2B900BF3C090020F8B51C4D51
:103E50002F46D5F8CC30D5F8C8201949934225D340
:103E600003F0BAFA48B303F0B1FA01280446FAD1D4
:103E7000D5F88460002EECD012483246A0F14401FF
:103E800005F0DAFA104A0023214610681A46C7F8EE
:103E90008430C7F8CC30C7F8C86004F096F9D5F87C
:103EA000CC30D5F8C82006499342D9D25A1C0B44CD
:103EB000C1F8CC2093F88800F8BD0420F8BD00BFFD
:103EC0003C090020C4090020401200202DE9F843DD
:103ED000274B284D83FB0021D5F8CC20D5F8C830DE
:103EE000C017254FC0EB61109A42386003D2BDE87D
:103EF000F843FFF7ABBFDFF88890A84603F06CFAF1
:103F000098B103F063FA01280446FAD1D5F8846029
:103F100076B93B68D5F8CC2013B3D5F8C8309A42AF
:103F2000E5D303F059FA0028EBD10420BDE8F8836B
:103F300012483246A0F1440105F07EFA00231A46E9
:103F40002146D9F80000C8F88430C8F8CC30C8F849
:103F5000C86004F03AF93B68D5F8CC20002BDCD1DE
:103F6000D5F8C8309A42C2D3FF20BDE8F88300BF1D
:103F70001F85EB513C090020DC110020C409002002
:103F800040120020064B1A68824204BF00221A60C9
:103F90005B68034A834204BF00235360704700BF3D
:103FA0000C0A0020F0B583B000AF04463A4608463C
:103FB0003B1D1D4905F04AFB022806D1204605F0AD
:103FC000D7FC3968884207D827D01848032100F069
:103FD0009FFC0C37BD46F0BD7D686E4605F10903B8
:103FE00023F00703ADEB030D68460C446D22214618
:103FF00000F8012B2A4605F045FD204605F0B8FCE7
:1040000085428ABF0146294678600131684600F042
:104010007FFC0C37B546BD46F0BD0548012100F0D8
:1040200077FC0C37BD46F0BD90F3000854F2000851
:1040300058F200082DE9F043514C83B0064600AF1A
:10404000504904F10800062205F0C2FC054600288C
:1040500030D004F108004C490A2205F0B9FC0028D0
:1040600050D004F108004949172205F0B1FC60B9AD
:104070002068002879D0406E002862D04449FFF7BC
:1040800091FF0C37BD46BDE8F08304F108004149BB
:104090001F2205F09DFC00283DD12068002848D053
:1040A000406A00284DD03C49FFF77CFF0C37BD46E5
:1040B000BDE8F083063E06EBD676761006F10F03D8
:1040C00023F00703ADEB030D6B464FEAD3094FEA2C
:1040D000C908324604F10E01404600F0E1FC06F842
:1040E000395041462068FEF727FF00281CDB07BF38
:1040F0002A4802212A48012100F00AFC0C37BD465B
:10410000BDE8F08327484FF4806100F059FC0C377C
:10411000BD46BDE8F08304F1080023493A463B1D43
:1041200005F094FA022814D02048002100F0F0FB9A
:10413000E4E7606828B11E4903F068F820600028B1
:10414000AED11C48032100F0E3FB0C37BD46BDE8AF
:10415000F08320680028F4D097E80600FFF7E6FD1A
:104160000146154800F02CFCC8E760680028E8D03C
:104170000F4903F04BF8206000287FF47CAFE0E7A4
:104180000C0A00205CF200086CF20008B4F200088F
:104190002B0A0020CCF20008330A002064F2000849
:1041A00068F2000878F20008ECF20008F0E200087B
:1041B000853F000854F2000800F300082DE9F04F95
:1041C000924C8BB0002602AFDFF860A2FE604FF485
:1041D0008069A346BE604FF480618D48CAF8001024
:1041E000451C00F03FFB8B4A94F808E00646A2F815
:1041F000009005F10108AEF10403762B00F2408235
:10420000DFE813F042013E023E023E023E023E0261
:104210003E023E023E023E023E023E023E023E029E
:104220003E023E023E023E023E023E023E023E028E
:104230003E023E023E023E023E023E023E02C900F5
:104240003E023E023E023E023E023E023E023E026E
:104250003E023E023E023E023E023E023E023E025E
:104260003E023E023E023E023E023E023E023E024E
:104270003E023E023E023E023E0285003E023E02F9
:104280003E023E0242013E02190200023E023E028E
:104290003E023E023E0276013E023E023E023E02E7
:1042A0006F013E023E023E023E023E02D9013E0244
:1042B000A9013E023E023E023E023E023E023E0294
:1042C0003E0279003E023E023E0252013E023E02A2
:1042D0003E0216013E02D2003E023E023E02CE00E7
:1042E0006F0177003E023E0226013E023E023E0280
:1042F000A9010126BE602068002800F0EF81B9689E
:10430000436C98474449012300260B70BE60206827
:10431000002800F044829BF80860FE6007E0FFF789
:10432000D5FD0338C0B20128206840F2AE81036C8D
:104330009847051EF3D038494FF000030B70FFF685
:104340004AAF2068836D2BB107F11C019847002804
:1043500040F0AB812946314800F032FB3BE72C4866
:104360002F4907F1140207F1180305F06FF902282D
:1043700040F04482DBF80000002800F0AA819BF89E
:104380000834002B00F05482836E7969BA6998472B
:10439000002840F09E812348022100F0B9FA1AE774
:1043A0003046FFF747FE16E723686E46002B00F005
:1043B00077811D4907F1180207F11C03144805F025
:1043C00045F9FB69BA69D91D21F00701ADEB010D73
:1043D000DBF8000042EA0301890702AD0CBFD0F808
:1043E00010C0D0F818C02946E0472068C368984735
:1043F000002840F0508129460548FA6900F030FB5A
:10440000F969490000F084FAB546E4E60C0A002098
:10441000140A0020140C01403C12002040F3000854
:1044200084F3000864F2000808F30008100C01404F
:10443000206800283FF4CFAE836B9847DBF800007C
:1044400083689847DBF8003000228BE80C00C2E656
:10445000A648A74907F1140205F0F8F8012800F072
:104460008781A248A34905F065F900287FF477AF5A
:10447000DBF80000002800F0A581836B98479E4878
:10448000032100F045FAA6E62068002800F02B8101
:1044900083689847DBF80020002398480221626077
:1044A000236000F035FA96E620686E46002800F09A
:1044B000F780026A836A073222F00702ADEB020D31
:1044C00002AD29469847DBF8003029461A6A87482A
:1044D00000F0C6FADBF80030196A490000F018FA5B
:1044E00092E72068002800F02181836B984772E6EC
:1044F00023686E46002B00F0D38007F11C02009267
:104500007F4907F1140207F11803784805F09EF877
:10451000BA69F969D31D23F00703ADEB030D734BA3
:1045200002AD1944284600F0BBFA7969BB698807D7
:1045300002D19A0700F0388120682A46C569A84749
:104540002068C3689847002840F0A5806B48022186
:1045500000F0DEF958E72368002B00F0BA809BF8E2
:104560000950BEF15A0EDEF100066648A5F130058D
:10457000654907F11C0207F1180356EB0E0605F01A
:1045800065F8012D00F0DF807ADB042D78DCDBF8A4
:104590000000D0F850C0BCF1000F71D0E9B2002E7D
:1045A00000F01D81FA693B7EE04730BB5348022191
:1045B00000F0AEF90FE62368002B00F08A8007F1C7
:1045C0001C06524907F118030096484807F11402E7
:1045D00005F03CF87969BB69880702D19A0700F0B9
:1045E000E9802068FA69414EC5693244A8472068CD
:1045F000C368984700283FF4CEAE4548032100F039
:1046000087F9E8E523686E46002B49D01A6A4149CC
:10461000D31D23F00703ADEB030D02AD284600F0D8
:104620003FFADBF800002946C36A98473348022165
:1046300000F06EF9E8E6607A07F1140236492D2899
:1046400014BF28464046009207F11C0307F11802E8
:1046500004F0FCFF637AB9692D2B8446206804BFFF
:104660004942B961036FFA69C7F804C09847D7F89F
:1046700004C0BCF1030F73D0FB6823729E46BAE5F9
:104680002648002100F044F9A5E5C36B7326FE60BF
:10469000984720684BE61E48032100F039F9B3E63D
:1046A0001F48032100F034F9AEE629461D48FA6997
:1046B00000F086F98FE5FA69DBF80000B31ABB61F8
:1046C00038B10A4EC56E32447969A84700283FF4D4
:1046D00062AE1348032100F01BF97CE51248032168
:1046E00000F016F977E50246D6E600BF140A00206E
:1046F00068F300087CF3000878F3000864F200080F
:1047000018F30008160A0020C0F3000858F3000848
:1047100054F20008150A002048F30008F0E20008EF
:104720008CE000082CF3000888E00008DBF80400A7
:1047300000283FF450AD424902F068FD826BCBF88F
:104740000000904747E5DBF80000836C002B97D012
:1047500006B9C36CF969984700287FF44EAF25E786
:104760003B7D432B88D16146364800F0D1F832E5D5
:1047700035490B6853B17A69012A02D137E090427A
:1047800035D0D3F880300130002BF8D12368002BCE
:104790003FF433AF2D48032100F0BAF81BE52C4855
:1047A000032100F0B5F816E5DBF800002A4645695C
:1047B000A847C5E6DBF80000FA69264E4569324491
:1047C000A84714E7DBF8040000283FF416AF1C49A3
:1047D00002F01CFD826BCBF800009047DAE7456DD4
:1047E000FA693B7EA84700287FF407AFDEE618464B
:1047F000134902F00BFD20600346C8E7154816492F
:1048000007F1140207F11C0304F020FF01283FF414
:1048100052AF1048114904F08DFF054600287FF47F
:104820002FAF0F48022100F073F88BF80854D2E440
:10483000836B984701238BF80834DBF80000A3E56D
:10484000853F000854F30008500F002078F300085B
:1048500028F30008140A00209CF30008B4F30008B1
:1048600064F200082DE9F043054683B00F464FF08F
:10487000000801E004283FD0FFF7E8FA2428287058
:10488000F8D100242646FFF7E1FA23280ED0BC42D7
:104890000CD0242822D07D2823D028550644FFF7A9
:1048A000D5FA232804F10104F6B2F0D1FFF7CEFACD
:1048B0008DF80400FFF7CAFA4FF000098DF80500E3
:1048C000494601A810228DF8068005F0D1F98642EC
:1048D00016D02D200121FFF775FACDE700263446CA
:1048E000D1E7FFF7B3FA7D36F6B2064480F0200038
:1048F0002855F6B20134C6E7012003B0BDE8F083C5
:104900002B200121FFF75EFA05F804902046F4E71A
:104910002DE9F047824682B089464FF004082420F2
:104920000021FFF74FFAB9F1000F44DD55460AEBBD
:104930000907002607E020460021FFF743FA264436
:10494000BD42F6B218D015F8014B7D20A4F1230327
:10495000DBB2012B01D98442EDD184F02004002187
:104960007D36FFF72FFAF6B220460021FFF72AFA2C
:104970003444BD42E6B2E6D123200021FFF722FAFB
:1049800032460E4901A804F03BFE9DF804000021C8
:10499000FFF718FA9DF805000121FFF713FA4FF40D
:1049A000FA60FFF793FA2B2802D0B8F10108B6D1CC
:1049B00002B0BDE8F0870026DEE700BFCCF30008B8
:1049C0000FB400B583B004AB53F8041B01A81A461A
:1049D000009306F0D9FD01460198FFF799FF019871
:1049E00004F086FA03B05DF804EB04B0704700BF32
:1049F0002DE9F04100AF054604F0BAFF410001F196
:104A0000100323F00703ADEB030D6C464F2328463C
:104A100004F8013B01F1010804F0AAFF294602460F
:104A2000204600F01DF868464146FFF771FFBD467D
:104A3000BDE8F0810FB400B583B004AB53F8041B9C
:104A400001A81A46009306F09FFD0198FFF7D0FFDA
:104A5000019804F04DFA03B05DF804EB04B0704720
:104A600070B4C2B15200961C0C4C0644831C0D78E5
:104A700002332D09655D03F8045C11F8015B05F054
:104A80000F05655D03F8035CB342F0D102440023D7
:104A9000137070BC70470246F9E700BFD4F30008FA
:104AA00070B462B30231024411F8024CA4F1300335
:104AB000DBB2092BA4F1370505D9EBB2102B84BF6B
:104AC000A4F15703DBB21B01DDB200F8015B11F862
:104AD000014C0231A4F13003DBB2092BA4F13706FB
:104AE00005D9F3B2102B84BFA4F15703DBB22B43DB
:104AF000904200F8013CD7D1104670BC7047024686
:104B0000FAE700BF2DE9F047B24F82B00025B24E60
:104B1000044602F039FB294678223846356004F015
:104B200001FD00F0D5F900F029FA03200421002C42
:104B300000F0008100F08EFA3368052B37DC03EBC0
:104B4000830307EB83039B78102B30D8237873B350
:104B50000134B8461BE0336814F8010C03EB830200
:104B600007EB8201CD70887007F8223014F8012C11
:104B7000013303EB8301052B08EB810115443360FE
:104B800015DC8B78102B12D814F8013B7BB101A8EF
:104B90000021924A00F084FA019BDB07DBD44FF03E
:104BA000FF3002B0BDE8F087052B00F3BD80012087
:104BB000014600F02FFA0120022100F04BFA0120FB
:104BC000032100F047FA864D002407E09C4200F3E1
:104BD000AB80013B1B1B05F8143C01340020012174
:104BE00000F018FA143533680028EFD09C427A4D53
:104BF00040F09A800120014600F00CFA01200221C9
:104C000000F028FA2C68002C00F0D680631E12D029
:104C100003EB830307EB830304EB84041B797149E3
:104C200007EB840717F8122C143F1344DBB207F884
:104C3000103C8F42F6D100F0A1F90120032100F0D1
:104C400009FA3368002B20DD624F4FF000084FF067
:104C500001090020012100F0DDF978B1C7F80890C2
:104C60001F2402250020012100F0D4F910B1BB68F7
:104C70002B43BB60013C4FEA4505F3D1336808F193
:104C80000108434507F11407E3DC0120014600F069
:104C9000C1F90120022100F0DDF93368002B20DD8D
:104CA000DFF83081DFF84CA14C4D4FF00009D8F807
:104CB000087027F0F02353451FD04B4B002103E031
:104CC00064693C40A24219D01A691C460131103374
:104CD000002AF5D1336809F101094B4508F11408A0
:104CE000E5DC424B1B68002B6ED00020014601F032
:104CF000E1F8306802B0BDE8F087002105EB011152
:104D00004A698B694FF0FF31C8F80C20C8F81010C1
:104D1000002BDFD040469847336809F101094B4525
:104D200008F11408C3DCDCE74FF0FF30306002B05C
:104D3000BDE8F08700F08EF92046012100F06AF905
:104D40000028F1D033680124052BBC70ECDC03EBA8
:104D5000830307EB83039B78102BE5D8B0463D46D1
:104D60001AE090785A1888423FF41EAF02EB820096
:104D700005EB80039970DC70C8F80020134605F835
:104D8000202003EB8302052B07EB820204F10104D0
:104D9000CADC9378102BC7D80121002000F03AF923
:104DA0003368012103EB830207EB82020028D8D18C
:104DB000917801319170E4E70D48012101F07AF812
:104DC000204602B0BDE8F0870948012101F072F8E1
:104DD0008FE700BF601100205C110020E8F300089D
:104DE0006111002074110020F4F30008500F00201E
:104DF000A0E000087704A00B30B5036983B08B42B4
:104E000004460D4601912AD0164B186800280ADD89
:104E1000154B00EB800003EB80004FF0FF321A616E
:104E200014338342FBD103200421256100F012F9E1
:104E300000200E49E27800F075F9207901A9D0F13F
:104E4000010038BF0020A27800F06CF9012007496A
:104E5000227900F067F90120022100F0FBF803B08D
:104E600030BD00BF5C11002060110020E8F3000895
:104E7000F8B504460D460120032116461F4600F0F2
:104E8000E9F822780020114900F04CF9A5B16178C9
:104E90002846D1F1010132463B4638BF002100F0DF
:104EA000FFF862780120094900F03CF9BDE8F840BC
:104EB0000120022100F0CEB860783146D0F1010027
:104EC0003A4638BF002000F02DF9EAE7E8F3000881
:104ED0002DE9F041254803210022102302F01CFE99
:104EE000234E24482449332310254FF00804202260
:104EF0000560013B0C80026037680A80F8D11023FE
:104F000020241D481B491A4F9C4626464EF23C72EF
:104F1000082512F0010F14BFC1F800C0A0F800C0AE
:104F20000D60013B0C60D7F800804FEA520206800A
:104F3000EFD1202410490F4A0D4F264606201F238B
:104F40004FF0100C082513F0010F14BFC2F800C079
:104F5000A1F800C0156001381460D7F800804FEA4E
:104F600053030E80EFD1BDE8F08100BF000801407F
:104F70000808014010080140140801402DE9F00123
:104F8000194A83B00023022111800193019B42F250
:104F90000F72934206DC00BF019B01330193019B1A
:104FA0009342F8DD114B0222202411481149124D81
:104FB0001A60274606221F234FF0100C082613F014
:104FC000010F14BFC1F800C0A0F800C00E60013A84
:104FD0000C60D5F800804FEA53030780EFD103B08F
:104FE000BDE8F001704700BF140C0140100C0140F7
:104FF00014080140100801400808014010B504469B
:1050000000F0DCFE24B142F2107300BF013BFCD182
:1050100010BD00BF78B10C4B10221A6081B90B4B48
:1050200008221A8008492023094A0B6010689381DE
:10503000C0F380107047054B10221A800029EED073
:10504000014B08221A60EDE71008014014080140E6
:10505000080801402DE9F0014B1EC1B120240D4983
:105060000D4ADFF838C027461026082510F0010F3A
:1050700003F1FF3314BF16600E801560B3F1FF3FDC
:105080001460DCF800804FEA50000F80EED1BDE8DC
:10509000F001704714080140100801400808014061
:1050A0002DE9F007DFF878C01B4F1C4E884601241D
:1050B0004FF0100A4FF00809202513F1FF331FD3DA
:1050C0001178214013B3A7F800A0E1B1C6F8009011
:1050D0003560DCF800103D8011F0400F017814BFFE
:1050E0002143A143640014F0FF040170E5D113F1E2
:1050F000FF3302F1010200F101004FF00104DFD2A1
:10510000BDE8F0077047A7F80090E1E7B8F1000F9D
:10511000D9D0C6F800A0D8E7140801401008014013
:105120000808014012F1FF322DE9F0034FF00103AE
:10513000154E4FF01009154D4FF008084FF02004A0
:10514000DFF84CC014D30F781F40BAB1A6F8009016
:105150008FB1C5F800805B0013F0FF032C6004BF23
:105160000131012312F1FF32DCF800703480EAD201
:10517000BDE8F0037047A6F80080ECE70028E5D012
:10518000C5F80090E4E700BF140801401008014092
:10519000080801402DE9F04198469B109C0012340C
:1051A00024F0070400AFADEB040D00910446114656
:1051B00002A84246019304F03FF94FF000510F4A14
:1051C000302366692046B0476A4608F108030C4957
:1051D00065692046A847636B4FF000512046984709
:1051E000636C204600219847236C2046984700288E
:1051F000FAD00020BD46BDE8F08100BF10000020BD
:10520000300000202DE9F043D0F8845083B021F421
:105210007F7822F47F77284600211C4AFCF7EAFFBA
:105220001B4B6868009327F0030784690121002263
:10523000042328F00308A04727B3DFF85890284636
:1052400010214246FCF7D6FF6868CDF800908469CB
:10525000012100220823A04700266868012100964A
:1052600084690A460823A04768680121009608233C
:1052700084690A46A0478307F6D4B7F5806708F526
:105280008068DCD1002003B0BDE8F083520000A2AA
:1052900000D00F40020042A410B50C490446D0F8DB
:1052A0008400FDF7D5F941F24903B3EB104F0AD161
:1052B000074B0849084A03F1180060666367A16656
:1052C000E266012010BD002010BD00BF04E00F40C9
:1052D000FCF6000805520008955100082DE9F04140
:1052E000036A1D4A23F003050A3525F0070500AFC0
:1052F0004FF00008ADEB050D4FF43E4504460B465C
:105300001580A2F8028046694FF08051B047694687
:10531000A36A20469847114E11481249124A134B6E
:10532000019011910F936946E36A00960E92204610
:1053300098474146636C20469847236C204698471F
:105340000028FAD02569204603494FF080522823CF
:10535000A847BD46BDE8F081180E002004000010EB
:1053600018000010E007001001000010F11FFF1FDF
:10537000F8B5124D00242B4643F8044B083343F88C
:10538000044B43F8044B43F8044B43F8044B43F8F5
:10539000044B0A4443F8044B571E0E0B32223F0BBA
:1053A00028211C60EF60AE606A60FFF797FFA86974
:1053B000001B18BF01204042F8BD00BF180E00209E
:1053C0002DE9F04F01EB030808F1FF384FEA112AED
:1053D0004FEA182883B0C9B2C2451F468146164617
:1053E00001913DD8DFF8ECB04FEA0A2554461DE0A4
:1053F000354942F6E0624FF0330C4FF48073CBF83E
:105400000C1048464FF49471CBF81420CBF8085098
:10541000CBF804C0CBF81030FFF760FFDBF81820A2
:10542000CAB90134A04505F5807519D354452748FC
:105430001AD0444518D031464FF48072A7F58077D2
:10544000164403F0F9FF484629464FF48072FFF7EF
:105450008FFF0028CCD04FF0FF3003B0BDE8F08FB5
:10546000002003B0BDE8F08FFF214FF4807204F0FC
:1054700059F8019B3146C3F5807CBC45A8BFBC46AA
:1054800003F1280062465844CCEB0707CDF800C072
:1054900003F0D2FFDDF800C066448DB9BCF1060F01
:1054A000D9DD0B4A294602F11C0052F8043F824222
:1054B0001944FAD149420023CBF844100193C2E7C2
:1054C00000230193BFE700BF28000010400E00201A
:1054D0003C0E0020180E0020F8B5C1F30B030D465A
:1054E0000646144603BBFFF743FFE8B9671E2F4487
:1054F0000F4C42F6E06334223F0B2D0B304628213F
:105500002361E760A5606260FFF7E8FEA3695BB90D
:105510003046352328216360FFF7E0FEA0690030A4
:1055200018BF01204042F8BD4FF0FF30F8BD00BF6A
:10553000180E002010B54F490446D0F88400FDF73E
:1055400087F84D4A904217D020D94C4A904213D048
:105550004ED8A2F5DC1290420ED05DD8A2F56022A2
:10556000904209D002F58042904205D0A2F19762A4
:10557000A2F5DA2290424DD141484249424A434B7A
:1055800060676166A266E366012010BDA2F1102289
:10559000A2F564029042EFD013D8A2F1A562A2F561
:1055A000E0429042E8D043D8A2F5AE129042E3D058
:1055B00002F5E0229042DFD0A2F57022904229D17C
:1055C000DAE7334A9042D7D04BD8A2F12862A2F54D
:1055D00009229042D0D002F5280202F58052904272
:1055E000CAD0A2F54602A2F58052904212D1C3E77A
:1055F000284A9042C0D028D8A2F5F0129042BBD0E1
:1056000002F5AE129042B7D0A2F18662A2F5D8326E
:105610009042B1D0002010BD1F4A9042ACD002F59C
:1056200000429042A8D0A2F55C229042F2D1A3E7BA
:105630001A4A9042A0D002F5804290429CD0A2F536
:105640008012904298D0002010BD154A904293D00D
:1056500002F5821290428FD0A2F5C4129042D9D1A5
:105660008AE7104A904287D002F570229042E6D134
:1056700082E700BFF48304402B90401A2B10402592
:10568000CCF80008ECF70008D9540008C153000812
:105690002B1021142B807A292B1032252B10440437
:1056A0002B4088292B10311410B503494469034A53
:1056B0000423A047012010BD0CED00E0D4F8000841
:1056C0000A4A00F16643934203D900F165439342CD
:1056D00009D8B3F5803F04D3A3F58030000C08301F
:1056E0007047580B70474FF0FF307047FFFF0700BF
:1056F0002DE9F04383B0036A00AF23F003030A33BC
:1057000023F00703ADEB030D88461646391D1C4AEE
:105710000423056904464FF00009A8474FF43E42B0
:105720003346A8F80020666942461649A8F8029058
:105730002046B0476946A36A20469847124E7B68C8
:1057400012481349134A019011910F936946E36A75
:1057500000960E92204698474946636C204698472B
:10576000236C204698470028FAD0414625692046F8
:10577000044A3023A8470C37BD46BDE8F08300BF7C
:105780000001401000C0002004C000201CC0002008
:105790000000012001C0002070B5ADF5815D84B02E
:1057A0003223054608460C4616460193FFF788FF4C
:1057B00002903019FFF784FF0F4B04F166429A42C2
:1057C000039017D904F165449C428CBF4FF0FF331E
:1057D0000123284669460025302204930795FFF7E8
:1057E00087FF0798401B18BF012040420DF5815DDF
:1057F00004B070BD0023ECE7FFFF07002DE9F04F78
:1058000001EB030A0AF1FF3AADF5825D99464FEAD2
:105810001A3A0B0B81B053450193054690464CD87C
:10582000C1F30B01C1F580530393019B02911E0349
:105830001C461CE06F69B847314B4FF0330E4FF4F4
:10584000805742F6E06C284604A941F230020696E1
:105850000793CDF82CB0CDF814E00897CDF824C00C
:10586000FFF746FF0B9B3E4403BBA24525D3019B9C
:1058700041469C424FF4805210A83DD0544522D05E
:1058800003F0DAFDA9F5805908F5805831464FF448
:1058900080522846FFF780FF83460134184910AA3A
:1058A0004FF480532846BBF1000FC3D04FF0FF30B8
:1058B0000DF5825D01B0BDE8F08F00200DF5825D31
:1058C00001B0BDE8F08F4FF480574FF0000BFF217F
:1058D0004FF4805210A803F025FE4F45A8BF4F4655
:1058E00004AB0BF13000414618443A46C7EB0909B6
:1058F00003F0A2FDB844C9E7DDF808B0039FE6E76E
:1059000030C0002030B50E4BADF5815D85B004464A
:1059100000936A4645690B490423A84720460023A3
:1059200031246946302201940793FFF7E1FE07987E
:10593000003018BF012040420DF5815D05B030BD3B
:10594000000800016C00054070B50546ADF5815DAD
:105950004868002184B00A4604F08AF90128044608
:1059600007D91548FFF766F800200DF5815D04B0F2
:1059700070BD2846FFF7C6FF002642F6E0632846C2
:1059800069463C2541F23002039302940195079643
:10599000FFF7AEFE079B3BB90848FFF74BF8012025
:1059A0000DF5815D04B070BD0548FFF743F8304642
:1059B0000DF5815D04B070BDF0FB0008C4FB00086C
:1059C000D8FB0008022908B504D00548FFF732F8D3
:1059D000002008BD1146BDE80840FFF7B5BF00BF75
:1059E0001CFC00082DE9F043ADF5815D85B006464D
:1059F000FFF788FF002425464FF032090E27304676
:105A000069463022CDF804900295039704940795D7
:105A1000FFF76EFE079B4FF0340842F6E06C30460D
:105A200069463022BBB9029305940793CDF80480F0
:105A30000397CDF810C0FFF75BFE079B013453B905
:105A4000022CDCD10748FEF7F5FF01200DF5815D42
:105A500005B0BDE8F08300200DF5815D05B0BDE81F
:105A6000F08300BF3CFC00082DE9F043C1F30C06B5
:105A7000ADF5815D85B00C4617460546002E54D124
:105A8000FFF740FF002850D1284621463A46FFF74D
:105A900083FE002849D1342320460193FFF710FEEE
:105AA0008046E019CDF80880FFF70AFE224B04F18A
:105AB000664742F6E0629F4281460390049224D8F2
:105AC000002328466946302207930596FFF710FE0B
:105AD000079B53BB184A35219742CDF80880CDF873
:105AE0000C90019119D8284600246946302204936D
:105AF0000794FFF7FDFD0798001B18BF01204042E7
:105B00000DF5815D05B0BDE8F08304F165469E4268
:105B10008CBF4FF0FF360126D2E704F16544944272
:105B20008CBF4FF0FF330123DDE74FF0FF300DF561
:105B3000815D05B0BDE8F083FFFF070038B5274958
:105B40000446D0F88400FCF783FD25490546D4F8C7
:105B50008400FCF77DFD234B9D421AD003F1805356
:105B60009D4216D003F160439D4201D0002038BD14
:105B700020F47F031C4A23F00F03934217D04032D6
:105B8000934210D1194B1A4A9842626717D00120EC
:105B900038BD20F47F00144B20F00F00984206D04F
:105BA0004033984207D0134B0120636738BD124B36
:105BB0000120636738BD0E4B0120636738BD0F4B72
:105BC0000F49104A6166A266204601F52F71E3660F
:105BD0000D4A01F001FB012038BD00BF0032044036
:105BE00000ED00E02B00065900C2004141C20F4108
:105BF00048FC000878FC000864FC0008FD57000819
:105C0000D8F80008695A00085CFC000808B500F0E4
:105C100019F830B9064803F0E5FCFEF7CFFA00208A
:105C200008BD04482C21044A044B03F0E7F800BFE8
:105C3000E0110020F0FC0008E8FC0008F8FC000877
:105C40000120704710B502F053F850484FF48051CE
:105C500002F0CDF94E48042102F0C9F94C48082160
:105C600002F0C5F94A48012102F0C1F94748402134
:105C700002F0BDF9474A4FF4807313804648002173
:105C8000012201F049FF002238234348032101F09B
:105C900043FF41484FF4014102F07FF83F484FF481
:105CA000005102F07AF83C4848F2801102F075F891
:105CB0003A4842F2020102F070F83848022100220C
:105CC00040F6044301F028FF3348022100228023DC
:105CD00001F022FF324A042313602F4803210122DE
:105CE00001F01AFF2F4902231A460B602B480021AE
:105CF00001F012FF002003F035F82B4803F02AF8DA
:105D00002A4B2B4C1A7802F00F021A701A7842F0C4
:105D1000E0021A7003F032F803F038F81C484FF430
:105D2000007102F064F900210A4601231B4801F0CA
:105D3000F3FE204801F092FE1E4801F067FE1D4868
:105D400001F087FE1B4801F066FE1A4801F068FE6C
:105D50001848032101F087FE164801F041FE00BFFC
:105D6000013CFCD1134801F060FE124801F067FECF
:105D7000114B4FF400521A6001F034FB01F0E2FCC9
:105D80002046FEF7BFFE204610BD00BF14100240A3
:105D9000181002401408014000080140000C0140A6
:105DA00010080140100C0140A0BB0D0023ED00E0E5
:105DB00000350C000024014008ED00E018B1044B50
:105DC00004221A807047034B04221A60704700BFF8
:105DD0001408014010080140024A10601368002BAB
:105DE000FCD17047DC11002010B52A4B1B78002B2A
:105DF0003ED1294B1A6812B11A68013A1A60274B32
:105E00001A683AB3197931BB19680A7801311960F7
:105E10004AB91A7A002A3AD0214A12681A601A68D6
:105E2000511C12781960413AD2B2192A26D81D485D
:105E300000EB8201897830F82220013902F001005C
:105E4000C9B2DA8070B118484FF400640460520897
:105E5000DA80197110BDDA88013902F00100C9B287
:105E60000028F0D111484FF40064DA880480EEE78E
:105E70000F484FF4806101F08CFFBAE700220B4815
:105E8000DA804FF40064DA8803210480DFE71A60C7
:105E900010BD00BF3C120020DC110020400F00208C
:105EA000D811002010FD0008100C0140140C014016
:105EB000000C014030B4054B054C064A4FF4006518
:105EC000197220601860158030BC7047400F0020A8
:105ED000D8110020140C014010B5082382B00DEB3E
:105EE0000302174802F8013D012101F0D1FD1448D9
:105EF00001F07EFD124801F083FD0028FAD0104821
:105F000001F082FD0F4A00EB400000EB4013A2FBC2
:105F10000312991A02EB51020B49120BA1FB024129
:105F20000A48C908A0FB034301EB81010848A2EB22
:105F300041021B0C303330320370827002B010BD4E
:105F40000024014041000800CDCCCCCC6733D3CC39
:105F50004000002008B500224FF48053044802217D
:105F600001F0DAFD034B4FF480521A8008BD00BFE8
:105F7000000C0140140C014008B50F4B0F48196884
:105F800001F4005189B251B94FF48073012201F03C
:105F9000C3FDBDE808404FF4005002F06BB84FF469
:105FA00080730121002201F0B7FDBDE808404FF4E5
:105FB000005002F05FB800BF080C0140000801402B
:105FC00038B5E021282002F0FFFE282002F0EEFE86
:105FD0000E4D0F4B0F4A4FF400544FF480711C606C
:105FE0002846234611600222002101F095FD20463B
:105FF000294602F045F82046022102F013F8204617
:1060000002F02EF8FFF7B8FF38BD00BF000C0140CA
:10601000100C01401008014070B5D0F8845042EADD
:1060200003220E46044642F0B44228460431FCF7EF
:1060300039FA083602E0E368984770B928463146D5
:10604000FCF706FB10F0010F2046F4D0284631463D
:10605000FCF7FEFA00F0060070BD4FF0FF3070BD97
:1060600070B506460846184915461C4603F062FB03
:1060700080B906F47060B0F5106F11D0B0F5206FE4
:106080001CD0B0F5E06F14D0B4B1A5F500252560A3
:106090000E4870BD84B1A5F5800525600B4870BD24
:1060A0004FF420239D42EFD95CB1ED1A25600848DA
:1060B00070BD4FF41023F5E7044870BD4FF4402342
:1060C000F0E7034870BD00BFCCFF0008000A0E4097
:1060D000000E0E4070B500220446616F1346006E3C
:1060E000D4F88460FFF7BCFF05460D220023294643
:1060F0002046FFF791FF05F10C013046FCF7A8FAA6
:1061000001460248FEF796FC012070BDD8FF00084A
:10611000F8B50446164600220D46006E616F134620
:10612000FFF79EFF032D074604D00D48FEF760FCE5
:106130000020F8BD706802F083FE0546B06802F0EA
:106140007FFE0028ABB239460CBF0C220B22204642
:10615000FFF762FF2046FFF7BDFF0120F8BD00BF3B
:10616000E8FF00082DE9F0410646C2B00F4601AB3A
:106170001546716F3A46006EFFF772FF019CFF21D2
:106180004FF48072804602A803F0CCF9394602AA87
:10619000776930464FF48073240AB8471DB910E080
:1061A000B5F580750DD0A3B2304641460322FFF706
:1061B00033FF01340028F3D04FF0FF3042B0BDE888
:1061C000F081002042B0BDE8F08100BF2DE9F04F22
:1061D0000F46C5B004461E46154603AB3A46006E50
:1061E000616FFFF73DFF039B824603F1FF38B04428
:1061F0004FEA18284FEA1329DAB2C1450392C2EBDD
:10620000070B29D84F46009601E0B84524D34F45E7
:1062100029464FF4807204A822D0474520D003F0CD
:106220000BF9009E05F58075A6F580760096594617
:1062300004AA4FF4807320466669B0470122BBB2BE
:10624000204651461744FFF7E7FE0028DDD04FF007
:10625000FF3045B0BDE8F08F002045B0BDE8F08FBD
:10626000FF214FF4807204A803F05CF90398009EAC
:10627000C0F580739E42B8BF334604AAF61A294679
:1062800010441A460193009603F0D6F8019B1D4472
:1062900000230393CBE700BF38B5D0F88450044601
:1062A00021492846FCF7D4F9204B214903408B4271
:1062B000206629D01F4A934226D0A2F500129342AD
:1062C00022D028461C49FCF7C3F9184B1B4A03404F
:1062D0009342206609D002F58012934205D0A2F5C0
:1062E0000012934201D0002038BD154B15481649C5
:1062F000164A60676166A26620462439E366144A3E
:1063000000F06AFF012038BD0D4B124812490F4AB8
:1063100060676166A266204601F58C71E3660F4AEC
:1063200000F05AFF012038BD40090E40E000F00F98
:10633000600050086000600840070E40600040099F
:10634000CD61000818000108B4FE0008656100086E
:1063500024000108CCFF000878FD000810000108A7
:1063600038B5064C05462146054AFCF79BF82846F9
:106370002146044ABDE83840FCF794B804200240A6
:1063800023016745AB89EFCD38B5D0F8845004467A
:106390000D4928464FF40872FCF784F828460A494C
:1063A0004FF41872FCF77EF802E0E368984748B9AA
:1063B00028460649FCF74CF910F0010F2046F4D1AD
:1063C000012038BD002038BD102002400C200240C2
:1063D00038B5D0F8845004462846FFF7C1FF284658
:1063E00010490422FCF75EF828460E494422FCF7C7
:1063F00059F802E0E368984790B928460A49FCF743
:1064000027F910F0010F2046F4D128460649FCF781
:106410001FF900F03400B0F120035842584138BD54
:10642000002038BD102002400C2002402DE9F04130
:10643000D0F88460C3F1000808EA0205044630463B
:106440001F4608EA0108FFF78BFF25B3ED1B304616
:1064500017490222FCF726F8304642461549FCF758
:1064600021F8304612494222FCF71CF802E0E368AA
:10647000984760B930461049FCF7EAF810F0010F70
:106480002046F4D1B844EB1B2DB11D46DFE74FF099
:10649000FF30BDE8F08130460749FCF7D9F800F03D
:1064A0003400203818BF6FF00000BDE8F08100BF55
:1064B00010200240142002400C2002404FF40063E0
:1064C000FFF7B4BF4FF48063FFF7B0BFF8B54FF6E6
:1064D000FF739A42044616460F46D0F8845016D0F1
:1064E00028460D494FF40472FBF7DCFF2846394675
:1064F0003246FBF7EDFF02E0E368984748B92846CB
:106500000649FCF7A5F810F0010F2046F4D1012050
:10651000F8BD0020F8BD00BF102002400C20024052
:106520002DE9F043036E85B0A3F222431E2B0446EF
:106530000F469046D0F8846041D8012202FA03F356
:10654000594945F6A529194045F2AA53002918BF13
:10655000994656493046FCF77BF800F00205304674
:10656000FFF7FEFE30465249524AFBF79BFF30468A
:106570004F49514AFBF796FF022F23D05DBB032FF3
:1065800033D04E48FEF734FA4D48FEF731FA4D4C01
:106590004D4F21463046FCF75BF8214682B2054656
:1065A0004A48FEF747FAA11C2A0C48480434FEF773
:1065B00041FABC42EDD1012005B0BDE8F08345F6BB
:1065C000A529C6E7D8F80400414903F0B3F800282C
:1065D00061D0002DD5D03F48FEF70AFA3E48FEF7BD
:1065E00007FA012005B0BDE8F083D8F80400294679
:1065F0002A4603F03DFB294607462A46D8F80800FC
:1066000003F036FB07F1604808F500684FEA5808C8
:10661000B8F1070F8146D4F88470B8D805F100515D
:10662000A1F500613846FCF713F86B1004AA043595
:1066300002EB4301102D4FEA104221F8100C21F813
:106640000E2CEBD14FEA480804AB434433F8103C1E
:106650001FFA89F999459AD04FF6FF72934204D0F8
:106660002046FFF791FE002891D004AB9844154DC9
:1066700028F8109CADF102070DF10E0829462046BE
:1066800037F8022FFFF722FF023500283FF47FAFD3
:106690004745F3D17BE72046FFF776FE20464A4682
:1066A0000849FFF713FF72E7010001401C20024078
:1066B0000820024023016745AB89EFCD04030108A0
:1066C0002403010800F8FF1F10F8FF1F4C03010806
:1066D000A4020108AC020108C80201082DE9F04734
:1066E000984608F1030C01F003039C444FEA9C0C0C
:1066F0000CF1020E4FEA8E0E0E460EF10A0121F049
:10670000070100AFAEF1080EADEB010DF61A8DE8F2
:1067100040400DF108094FF0FF3A04460CF1010C1E
:10672000114609EB0300CDF808A04246D4F8849046
:106730004DF82CA002F080FE4FF00051164A2C2399
:1067400020466669B0476A4608F10803134965693F
:106750002046A847636B20464FF000519847E368F6
:1067600020469847A8B90146636C20469847236C99
:10677000204698470028FAD048460949FBF768FFA9
:1067800010F0140F0CBF00206FF00000BD46BDE8F4
:10679000F0875046FAE700BF480000202C00002098
:1067A0000C20024010B543490446D0F88400FBF7A2
:1067B0004FFFC0F30B00A0F582632066222B44D864
:1067C000DFE803F03343334323434343234343434B
:1067D00043434343334312434343434323434343EA
:1067E00043434343434312003349344B344AA1F1FA
:1067F000E00061676066A2662046A1F58E71E366DF
:10680000304A00F0E9FC012010BD2F492B4B2C4AE7
:1068100001F1180061676066A26620462439E366CC
:106820002A4A00F0D9FC012010BD2949234B294AEE
:1068300001F1180061676066A2662046F431E366E4
:10684000254A00F0C9FC012010BDD4F8840023497A
:10685000FBF7FEFEC0F30B03A3F58862082A23664C
:106860001FD8012101FA02F240F211101040C8B104
:1068700040F24442934219D0B3F5896F13D0B3F577
:10688000886F01D1164B63670C4B1649114A61663C
:10689000A2662046DC31E366134A00F09DFC01202D
:1068A00010BD002010BD114B6367EDE7104B63670F
:1068B000EAE700BF002004E074020108DD6600087A
:1068C000BD640008740301087C0101086803010825
:1068D00064000108C56400085C0301080058014019
:1068E0008C0201087C0001087C0301089802010861
:1068F0008002010870B5D0F8845004460E46284640
:106900001D491E4AFBF7CEFD28461B491C4AFBF7D2
:10691000C9FD02E0E368984750BB28461949FBF7D8
:1069200097FE10F4803F2046F4D126F0704626F002
:106930001306324628461449FBF7B4FD284646F0B4
:1069400002021149FBF7AEFD02E0E368984788B9FF
:1069500028460C49FBF77CFE10F4803F2046F4D11A
:10696000284646F001020849FBF79CFD012070BD56
:10697000012070BD002070BD083C02403B2A190870
:106980007F6E5D4C0C3C0240143C0240022970B505
:1069900005461646D0F8844020D0032904D150681B
:1069A000194902F0C7FE20B31848FEF721F818482D
:1069B000FEF71EF820461749FBF74AFE154982B23A
:1069C0001548FEF737F820461449FBF741FE1349F6
:1069D00082B21148FEF72EF8012070BD50681049B0
:1069E00002F0A8FE0028DFD128460E49FFF782FFFB
:1069F000E0E701460A46B06803F0DEF901462846A2
:106A0000FFF778FFD6E700BF3C0701080403010841
:106A10004407010800C0FF1F4C03010808C0FF1F06
:106A2000A4020108EDAAFF0F2DE9F04703F1030CC2
:106A300001F00306B4444FEA9C0C0CF102084FEA43
:106A400088088E4608F10A0121F0070100AFADEB7E
:106A5000010DC6EB0E0E11460DF108091A464FF056
:106A6000FF3AA8F108030446CDF800E00CF1010C50
:106A7000019309EB0600CDF808A0D4F884904DF8F6
:106A80002CA002F0D9FC4FF00051164A30232046CA
:106A90006669B0476A464346134965692046A84778
:106AA000636B20464FF000519847E36820469847B3
:106AB000A8B90146636C20469847236C2046984746
:106AC0000028FAD048460949FBF7C2FD10F0F20F42
:106AD0000CBF00206FF00000BD46BDE8F0875046B7
:106AE000FAE700BF74000020300000200C3C024098
:106AF00010B509490446FBF7ABFD002800DB10BDCB
:106B000020460649064AFBF7CDFC20460349054AC4
:106B1000BDE81040FBF7C6BC103C0240043C0240FC
:106B200023016745AB89EFCD70B5234B82B0D0F818
:106B30008460054693E80300009020488DF8041017
:106B4000FDF756FF3046FFF7D3FF30461C490422BD
:106B5000FBF7A8FC30461A491A4AFBF7A3FC0024AD
:106B600007E013F8081CFDF765FFEB682846984717
:106B7000D8B930461449FBF76BFD04F0030302AAB1
:106B800010F4803F1344114804F10104E9D1104886
:106B9000FDF72EFF30460C49FBF75AFD00F0F300DD
:106BA000431E5842584102B070BD0948FDF720FF0E
:106BB000002002B070BD00BFA00701086C070108EB
:106BC000103C0240040001000C3C02409C070108FC
:106BD000D0E200082DE9F843D0F884502B4E04464B
:106BE000904628460E40FFF783FFB8F1000F24D0EF
:106BF000B6F5803F2DD2F30A254F43F0407242F0A4
:106C000002021F434FF4804928462249FBF74AFC01
:106C100028463A461F49FBF745FC02E0E3689847DF
:106C200050BB28461C49FBF713FD10F4803F20465B
:106C3000F4D1B8EB09084E44DAD128461649FBF7DF
:106C400007FD10F0F20F0CBF00206FF00000BDE850
:106C5000F883B6F5003F13D3B6F5801F0CD2A6F526
:106C600000339B0B28330A4F43F0407242F002027C
:106C70001F434FF40039C7E74FF0FF30BDE8F883FA
:106C8000064F074A4FF48039BEE700BF00C0FF0738
:106C900002000103103C02400C3C024022000103B0
:106CA0002200000338B513490446D0F88400FBF7EE
:106CB000CFFC6FF48263C0F30B00C318122B06D80D
:106CC000012505FA03F30C48184010B938BD00201F
:106CD00038BD0A490A4B0B4A01F10C006167606636
:106CE000A266204601F55D71E366074A00F074FA7A
:106CF000284638BD002004E005010400A403010873
:106D0000296A0008D56B0008A80701082DE9F04F93
:106D1000984611F0030383B004460D469146D0F81F
:106D2000846017D0C3F10407002202A8474528BF9A
:106D3000474640F8042D494618443A4602F07CFB89
:106D400025F003013046019AFBF7ACFBC7EB0808BE
:106D5000B9443D4415F07F0A23D0B8F1030F10DC8D
:106D6000B8F1000F33D130463A49FBF771FC41F6D8
:106D700002730340981E18BF6FF0000003B0BDE817
:106D8000F08FCAF1800AC24588BF28F0030A29465D
:106D90004A46676920465346B847CAEB0808554437
:106DA000D144B8F1800F20DCB8F1030FD8DD28F012
:106DB000030729464A463B46D4F814C0204608F04B
:106DC0000308E0473D44B944B8F1000FCBD000239D
:106DD00002A84946424640F8043D02F02DFB3046E9
:106DE0002946019AFBF75EFBBDE730461A494FF48E
:106DF0008162FBF757FB02E0E368984720BB30460F
:106E00001449FBF725FC10F0010A2046F4D128F0C4
:106E10007F0B29464A465B466769B847304652466B
:106E20000D49FBF73FFB02E0E368984760B9304645
:106E30000849FBF70DFC10F0010F2046F4D1D944AE
:106E40005D4408F07F08AFE74FF0FF3003B0BDE8C6
:106E5000F08F00BF183C0240043C0240F8B5D0F867
:106E6000845004460E46284617462449244AFBF718
:106E700019FB28462149234AFBF714FB28462249DF
:106E8000224AFBF70FFB28461F49214AFBF70AFB62
:106E9000284620494FF40272FBF704FB02E0E36846
:106EA000984740BB28461C49FBF7D2FB10F0010F66
:106EB0002046F4D137F0FF0418BF26F0FF0609D0B2
:106EC000314628460022FBF7EDFAB4F5807406F54A
:106ED0008076F5D1284600220E49FBF7E3FA2846D2
:106EE0000D49FBF7B5FB41F602730340981E18BF2E
:106EF0006FF00000F8BD4FF0FF30F8BD0C3C0240D1
:106F0000EFCDAB8905040302103C0240BFAE9D8C5F
:106F100016151413043C0240183C024010B50E49EB
:106F20000446D0F88400FBF793FB40F21643C0F30D
:106F30000B00984205D040F23643984201D0002021
:106F400010BD064B0649074A03F10C0060666367F3
:106F5000A166E266012010BD002004E0B007010830
:106F60005D6E00080D6D000810B5104B1A78824256
:106F70000ED0187068B90E4C0E49202323600246CB
:106F80000B800D4803211023BDE8104000F0C4BD64
:106F900010BD002101221023074800F0BDFD044967
:106FA000044A20230B60138010BD00BF4C0F00204B
:106FB00010080140140801400008014038B50020C5
:106FC000FFF7D2FF054D2021054A0C463223102041
:106FD000013B106011602C80FAD138BD14080140CB
:106FE00010080140F8B504460120FFF7BDFF631EFD
:106FF000A4B12024DFF830C0094F0A4E25460020F6
:107000000122DCF80010013BC90648BF1043591C9F
:107010003D604FEA42023480F3D1F8BD2046F8BD0E
:107020001008014014080140080801402DE9F04112
:1070300000260C46066005460120FFF795FF631EFB
:1070400044B32021DFF85480DFF854C0124F30469B
:1070500001220E46D8F80040013BE406CCF800605F
:10706000398005D52C6880F001001443C0B22C6033
:107070005C1C4FEA4202EDD1084B094C1A680649E4
:10708000202323600B80D30644BF80F00100C0B2F0
:10709000BDE8F0812046EFE71408014008080140F0
:1070A0001008014070B50D4604460020FFF75CFF54
:1070B0006B1E95B120200949094A0646102514F097
:1070C000010F03F1FF3314BF15600D80B3F1FF3FD3
:1070D00016604FEA54040880F1D170BD14080140D5
:1070E0001008014008B5FFF769FF4EF29E701021AD
:1070F000FFF7D8FFFFF762FF00201021FFF7D2FF54
:10710000002008BDF8B50D4604460020FFF72CFF0F
:107110006B1ED5B12026134D1348B446002110270D
:10712000E2B212F0010F03F1FF3314BF07602F80AA
:10713000B3F1FF3FC0F800C081EA02012E804FEAA0
:107140005404094AECD1CB0708D4064B10221A800C
:107150000549044A20230B601380F8BD10231360F7
:10716000F6E700BF1408014010080140014608B5C9
:10717000012001F069FE034A11681060C0F8801018
:1071800008BD00BF500F0020F8B5124D286800B3AD
:107190002F460368D0F8806003B198472B68D3F876
:1071A0008400A0B1D3F8883098473868836F43B122
:1071B00018469C6801F09CFE286823468467002CD2
:1071C000F6D101F095FE2E601EB13046E1E718467B
:1071D000ECE7F8BD500F0020F8B5846F05460E4669
:1071E00017460CB90CE01C46A368002BFBD10C2001
:1071F00001F076FEA0600022076046608260F8BD64
:107200000C2001F06DFEA867F5E700BF38B50368F4
:1072100004460D4603B198472560636820469847A9
:10722000002814BF2046002038BD00BFF0B5314A09
:10723000314B87B0044600251160009301210222E2
:10724000402300F08BFF204600958121022240233D
:1072500000F084FF2046009582210322102300F0D5
:107260007DFF264B2046009303210222402300F09D
:1072700075FF234B2046009383210222402300F018
:107280006DFF2046009584210322102300F066FF45
:107290001C4B2046009385210222402300F05EFF14
:1072A000204621217F22184B01F02FF802264FF0B3
:1072B000A10C4FF0200E03AA2046032782210A23A7
:1072C0008DF80CC08DF80DE0ADF80E50ADF81050F3
:1072D0008DF81550ADF812608DF8147000F05DFF58
:1072E000204603AA84210A23ADF8106000F055FF60
:1072F00007B0F0BD540F0020153E0008B17800081B
:10730000FD780008817500080D73000838B54878CD
:10731000222827D8DFE800F028262623262626263E
:1073200026262626262626262626262626262626FD
:107330002626262626262626162612008B88DBB130
:10734000012038BD1B88062B0CD98B88002BF7D069
:10735000022B07D1106800F06BFA012038BD898834
:10736000042910D0002038BD8B88042BFAD10E4B95
:10737000049A0120136038BD4A880C4B02F00102C8
:107380001A60012038BD10680021017010680625C0
:10739000417014680120A1701468E17014682171B3
:1073A000126851711D8038BDB1730008A40000201F
:1073B000002108B50A4604484FF4807300F0ACFB86
:1073C000FEF7C8FD01F0EAFC00080140014B186817
:1073D000704700BF540F0020014B1868704700BF72
:1073E000A400002030B5214A2149224B12680868C8
:1073F0001B681044204A184485B0002320FA03F18A
:10740000043301F00F013031202B02F8011DF5D1BA
:107410001A4C234604F1080113F8012B392A84BFC2
:10742000073203F8012C8B42F6D11549154A072083
:107430004FF480730192009001F114020293002531
:10744000114B1248257200F061FE114B1149186072
:1074500001F0ACF92021432001F0B6FC432001F0FB
:10746000A5FC05B0BDE83040FEF7AABDE8F7FF1F58
:10747000ECF7FF1FF0F7FF1F4C1300204413002010
:107480009808010844120020A8000020140B0108ED
:10749000401200202D720008014B186800F058BE01
:1074A0004012002010B51E4C02211E4800F09FFD26
:1074B000204600F075FC20460021012200F0FCFC73
:1074C000012120460A4600F0F7FC002120460A462A
:1074D00000F050FC01210A46204600F04BFC2046FB
:1074E000502100F02BFD2046042100F01FFD00215B
:1074F0001D2001F069FC1D2001F058FC20460221EE
:1075000000F0BAFC2046002100F008FD20460121D1
:1075100000F004FD2046BDE8104000F0C4BC00BFF0
:10752000000400401C1002402DE9F041124F0C46AF
:1075300002468BB206468521386800F02EFEA04236
:107540000ED00E4D2B7803EB0408B8F1400F09DC88
:10755000281D31462246184401F06EFF85F8008050
:10756000BDE8F08138688521012200F022FE002369
:107570002B70BDE8F08100BF40120020580F0020A2
:1075800010B5044C237823B1221D00F006FE002321
:10759000237010BD580F0020644A2DE9F041156892
:1075A00040F20123ADB22B40002B44D1604B614A25
:1075B000614C1F681668B4F84430B6B20BB3B6FB22
:1075C000F3F2013A92B2012A1BD95C484FF0FF3125
:1075D00000F070FC5948012100F052FC94F8591059
:1075E0005748C908FFF7A0FF002384F85930A36467
:1075F000E3642365636584F85830A4F84430BDE83B
:10760000F081002EE1D015F0020504BF012284F8BC
:107610005A20D3B994F85A20DFF81CC1002A63D14C
:10762000053EB6B2BAB2B2FBF6F2023A92B2012A03
:1076300061D9BDE8F081414840F2012100F025FC0C
:1076400015F0060FB2D13C4CBFE7B6FBF3F3012BAC
:107650004ED994F85C20384B002AB6D093F85B10D2
:10766000002281F0010183F85B1083F85C2094F81C
:10767000593003F00702914004EBD30292F848001E
:107680000133014384F8593082F84810002D9CD012
:10769000B4F84430BFB2BE1B96FBF3F6022E264B65
:1076A00093DC3FD193F85C20002A8ED193F85920C7
:1076B00093F85B0002F0070680F0010000FA06F67E
:1076C00003EBD20191F8485001322E43D2B201258A
:1076D00083F85B0083F8592081F8486083F85C5098
:1076E00013063FF572AFA4E78CF85A30BDE8F0817D
:1076F00094F85B10BBE706EB46014FF00108490028
:107700000E48ACF844608CF85C308CF85B8000F07C
:10771000D1FB4146094800F0B8FB4146074800F05C
:10772000ABFBB3E793F85920DAE700BF1004004041
:107730003404004038040040580F0020000400408A
:10774000A00F002008B5FEF77BFA01285AD040F2BE
:107750000E3000F059FC02210A464FF400732C4809
:1077600000F0DAF92B484FF4164100F0EFFB2948FE
:10777000082100F0FFFB2748002100F004FC254809
:107780000C2100F00CFC2348002100F002FC002139
:10779000204800F00AFC1F4800F00DFC1E4B102191
:1077A0001A68252042F020021A6001F00DFB252006
:1077B00001F0FCFA0421194800F019FC184800F007
:1077C000EFFA00210A460B46154800F063FB154A04
:1077D000154B11681248A3FB0121890C490001399E
:1077E00000F066FB0E48C72100F064FB1E2030212C
:1077F00001F0EAFA1E2001F0D9FABDE80840084875
:1078000000F051BB094B1B68DB01A0D508BD00BFD0
:1078100000080140003801400C3801401C100240B3
:1078200000080040C800002083DE1B43FCED00E0A0
:1078300010B5044601681D4800F088FBA1791B487B
:1078400000F098FB2379012B2AD024D3022B0DD0F2
:107850006379012B12D018D3022B06D1BDE810405A
:1078600012484FF4806100F094BB10BD0F484FF4F4
:10787000005100F088FB6379012BECD1BDE810408A
:107880000A484FF4C06100F084BB08480021BDE8FD
:10789000104000F07EBB0548002100F074FBD7E7E4
:1078A00002484FF4405100F06EFBD1E70038014030
:1078B00030B591B0402303216A4600F074FC0B4BB5
:1078C0001B685B0410D50A4B04221A6048B10DF105
:1078D000FF34251814F8011F064800F071FBAC4274
:1078E000F8D1054B04221A8011B030BD18100240A7
:1078F000100C014000380140140C0140704700BFDB
:1079000038B50F4800F06BFB0E4A04210E4B116096
:107910001A785C78511C01F07F05A542C0B20ED0E8
:107920001A44C9B210710A0648BF0022197048BF34
:107930001A7006480121BDE8384000F09DBA38BDF4
:1079400000380140100C0140B80F00200008004032
:1079500030B51F4891B0012100F097FAFFF736FDCE
:1079600001280BD01B4B1A785A701948012100F0DE
:1079700087FA194B04221A8011B030BD154C2578B6
:107980006278954218BF002102D1EEE740291DD050
:10799000531CDBB213F0800F224410790CBF1A463F
:1079A0000022AA4201F101030DF801001946DBB2E1
:1079B000ECD10A486A460321006800F0EEFB6378C8
:1079C000184400F07F03637011B030BD0B46F0E740
:1079D00000080040B80F0020140C014040120020A5
:1079E0008368DB0703D4836843F001038360704737
:1079F0008368DB0703D5836843F001038360704726
:107A00000068C0F340007047C06C7047436823F4BF
:107A1000807343607047836823F4801383607047EA
:107A2000836823F4006383607047836800F1080271
:107A300043F00803836013681B07FCD47047836816
:107A400000F1080243F00403836013685B07FCD471
:107A50007047836823F0020383607047836823F0D4
:107A600001038360704710B50022134601FA02F447
:107A700003321E2A43EA0403F8D10361002201FA0B
:107A800002F40332182A43EA0403F8D1C36010BD9C
:107A900010292DE9F0433DD800236FF03B041D462B
:107AA0001E461F465FFA83FC0CF101085FFA88F856
:107AB000884529D8B8F1060F07D812F8039003EBD0
:107AC000830809FA08F845EA0805ACF106085FFAE8
:107AD00088F8B8F1050F07D812F8039004F11E08D2
