:020000040800F2
:1020000000500020FD910008FB910008F9910008A4
:10201000F9910008F9910008F9910008000000000A
:10202000000000000000000000000000FB9100081C
:10203000FB91000800000000FB9100082D630008E0
:10204000F9910008F9910008F9910008F991000848
:10205000F9910008F9910008F9910008F991000838
:10206000F9910008F9910008F9910008F991000828
:10207000F9910008F9910008F9910008F991000818
:10208000F9910008F9910008F9910008F991000808
:10209000F9910008F9910008F9910008F9910008F8
:1020A000F9910008F9910008F9910008F9910008E8
:1020B000F9910008ED7A0008B57E0008F991000852
:1020C000F9910008F9910008F9910008F9910008C8
:1020D000F9910008657E0008F9910008F99100085F
:1020E000BD640008F9910008F9910008F991000811
:1020F000F9910008F9910008F9910008F991000898
:10210000F9910008F9910008F9910008F991000887
:10211000F9910008F9910008F9910008F991000877
:10212000F9910008F9910008F9910008F991000867
:10213000F9910008F9910008F9910008F991000857
:10214000F9910008F9910008F9910008ED7900086B
:1021500008B5D0F8843058684369984708BD00BF77
:10216000036810B5013B044603606BB9406803681F
:10217000013B03604BB1E06908B1236A98472046F0
:10218000BDE8104007F03EB910BD07F03BF9E0692B
:102190000028F2D1F3E700BF036801330360704702
:1021A00003680133036070470368013B036003B1B8
:1021B000704707F027B900BF10B582B000920B46F8
:1021C000846901210022A04702B010BD70B50B4602
:1021D00082B00025012186690A4600950446B04771
:1021E000009529462046A56901220C23A84702B084
:1021F00070BD00BFF0B50446277A40680D4601F077
:10220000F00183B01646C36841EA07620821984787
:10221000606800962B46846901210022A04703B024
:10222000F0BD00BF2DE9F043D0F884600C46B169E1
:1022300083B09146304641F0100200219846FFF7E6
:10224000D9FF706800948569012100220423274684
:10225000A044C4EB0909A84704F0030344454FEA2E
:10226000C30321D019F80420706802FA03F3009325
:1022700085690134012100220C23A84784EA07055F
:1022800025F47F7525F00305002DE5D070680094D6
:102290000423856901210022A84704F00303444573
:1022A00027464FEAC303DDD1002003B0BDE8F08329
:1022B0002DE9F04FD0F884508946A96983B01646BD
:1022C000284641F0100200219B46FFF793FF686803
:1022D00000968469012100220423A0470024686835
:1022E0000121009487690BF1FF3B0A460C23A046AD
:1022F000B8470BEB060A37463446012154450A46D7
:102300004FF00C03686825D0CDF80080D0F818C0D5
:10231000E04704F00303DB00D840C6EB0902105588
:10232000013484EA070323F47F7323F00303002BB3
:10233000E3D0686800948769012100220423B8472C
:1023400068680121CDF8008087690A460C23B847E8
:102350002746D2E70025009586692946B04704F054
:102360000304E40020FA04F4284609F80B4003B003
:10237000BDE8F08F2DE9F043D0F884700C46B969C0
:1023800083B09146384641F0120200211E46FFF705
:1023900031FF78680094A04601218469002204235B
:1023A000A047B610C8EB0909444600E0013E0121F0
:1023B00000220C23BEB159F8045078680095856955
:1023C0000434A84784EA080525F47F7525F0030541
:1023D000002DEBD078680094856901210022042348
:1023E000A847A046E2E7304603B0BDE8F08300BF4F
:1023F0002DE9F04FD0F884608A46B16983B0174662
:10240000304641F0120200214FEAA30BFFF7F2FE23
:10241000706800978469012100220423A0470024EA
:1024200070680121009485690A460C23A146A847DB
:10243000B8465D463C460121013D0A464FF00C037B
:10244000706823D0CDF80090D0F818C0E047C7EBF3
:102450000A031851043484EA080323F47F7323F039
:102460000303002BE7D070680094D0F818C0012156
:1024700000220423E04770680121CDF80090D0F8D5
:1024800018C00A460C23E047A046D4E700958469AB
:102490002946A0470BF1FF3B4AF82B00284603B022
:1024A000BDE8F08F70B5836904460E4615460021DD
:1024B00043F01202FFF79EFE204632460421FFF74A
:1024C00099FE20462A460C21BDE87040FFF792BED7
:1024D00070B58B07154648BF1504826904460E4641
:1024E00042F011020021FFF785FE2046324604210A
:1024F000FFF780FE20462A460C21BDE87040FFF71A
:1025000079BE00BF38B504460D464068217A05F013
:10251000F002C36842EA01620821984760682946D0
:10252000BDE83840FFF752BE2DE9F04F026803695D
:102530000132026004218BB080469847D8F80C30F5
:1025400040F0A042042140469847D8F81030404659
:102550000421984700F02040B0F1204FF5D1DFF87A
:10256000E8B0DFF8E8A04FF000093BE006F042FFDA
:1025700001AD044606460FCD0FC40FCD0FC4D8F8E9
:1025800000302A680133C8F80030F4212260304658
:10259000FFF7B8FFF82130613046FFF7B3FF394647
:1025A00070613046FFF7AEFF20F037038C20B36137
:1025B00005F086F832681F49013232601E4F1F4A0B
:1025C0001F4D204CC0F88460C0F888B0C0F874A0DB
:1025D000C260076145618461C16101F041FBB9F5E9
:1025E000807F17D0002701A8FC210397CDF8088031
:1025F0008DF80C9001970497059706970797089711
:102600000997FFF77FFF034609F10109242004938E
:10261000002BABD1D8F80030013BC8F8003013B123
:102620000BB0BDE8F08F40460BB0BDE8F04F06F0B0
:10263000E9BE00BF25220008F1230008512100084F
:1026400075230008B12200086121000894E5000804
:1026500038B5826904460D4642F012020021FFF7A8
:10266000C9FD20462A460421FFF7C4FD20460C215F
:10267000BDE83840FFF746BF826938B542F0110225
:1026800004460D460021FFF7B5FD20462A460421E9
:10269000FFF7B0FD20460C21FFF734FFAB074CBF1E
:1026A000000C80B238BD00BF2DE9F04184B00A9E15
:1026B0005B0803F0060300324FEA56754FEAC60482
:1026C000DEB218BF01220027002944EA060444EACA
:1026D00002040CBF0A210B2180463D43C069CDE9AD
:1026E000004502F0D9FB02A96A462323D8F81C0052
:1026F00002F00EFCDDE9022340F2E73402F00701AC
:102700000CE002A96A462323D8F81C0002F000FC62
:10271000DDE90223013C02F0070109D00129F0D0D4
:1027200002290FD1D00840EA437004B0BDE8F0811F
:1027300098F808000028F3D00129F1D1204604B010
:10274000BDE8F0810B4C23787BB10B48032102F0EC
:1027500031F90023237004F0C1FF0848012103F080
:102760004BFE0748012107F0CDF90648032102F08E
:1027700021F9EEE764120020A8E50008B0E50008A2
:1027800008120020ACE5000830B5002483B02146D3
:102790000094012204230546FFF786FF054B2146DE
:1027A0000093284622460423FFF77EFF00F0320004
:1027B00003B030BD320000F030B5002483B00B46CA
:1027C0000546214600940122FFF76EFF009428463B
:1027D000214601220C23FFF767FF03B030BD00BF85
:1027E00000B50B4683B0002100920A46FFF75CFF5C
:1027F00003B05DF804FB00BFF8B5202104460120BA
:1028000006F0ACFD074FA268074E084D0849C461A9
:10281000C7600661456142608161BDE8F840FFF72D
:1028200083BE00BFE1270008B927000889270008F8
:10283000A9260008F0B5064683B01746002934D013
:10284000027F002A3AD1A325002F3AD103F00C03CE
:10285000042B45EA43053CD0082B3AD028460821F2
:1028600004F0CAFE032004F067FE40F2E734C0B271
:1028700009E02846082104F0BFFE032004F05CFEB6
:10288000013CC0B215D00228F3D004283DD0012865
:1028900028D10FBB0898202104F0DEFE002008217B
:1028A00004F0AAFE019803B0F0BD8125002FCDD021
:1028B00007E0327A002AE8D00228E6D1002003B0EF
:1028C000F0BD03F00C0385F02405042B45EA430515
:1028D000C2D185F02005C1E701A8202104F050FEF7
:1028E0000028DBD00D4C23789BB10D48032102F06A
:1028F00061F80023237004F0F1FE0A48012103F07F
:102900007BFD0948012107F0FDF801233377002002
:10291000D5E70648032102F04DF8EAE764120020EB
:10292000A8E50008B0E5000808120020ACE50008A2
:1029300000B50B4683B0002100910122FFF77AFF1A
:1029400003B05DF804FB00BF00B50B4683B0002167
:1029500000920A46FFF76EFF03B05DF804FB00BF6C
:1029600030B5002183B00091042301220446FFF713
:1029700061FF10F0020F14BF10220022C30648BFEF
:1029800042F00202810648BF42F00402030648BF3B
:1029900042F00802002100F0B20500920B460A4600
:1029A0002046FFF747FF00232846237703B030BDBA
:1029B000F8B504F093FE2021012006F0CFFC044678
:1029C00004F03AFE204B1B785BBBA520082104F0E5
:1029D00013FE032004F0B0FDC7B2012F25D1201D46
:1029E000202104F0CDFD0546F8B9184BDFF870E062
:1029F0001749184AA361C4F80CE0216162612046BE
:102A0000154EFFF7ADFF2046FFF78EFD3368B3B1DB
:102A10002846294603F0F0FC3068003018BF01203A
:102A2000F8BD012002F03AFBCFE701210B4803F08B
:102A3000E3FC204606F0E6FC4FF0FF30F8BD3946D7
:102A4000064803F0D9FCE7E76512002035280008A6
:102A50003129000861290008780F0020C0E500082E
:102A600049290008704700BF08B503461A6A90302C
:102A700006F06CFF002008BD08B50346026A084650
:102A800003F1900106F062FF002008BD38B5C36B6A
:102A900004460025984703E00220013D03F03EFC78
:102AA000236C204698470028F6D0281C18BF012028
:102AB00038BD00BF30B583B002AD044605F8011D36
:102AC0000068022102F0E8F92A4620680423002168
:102AD00002F01EFA20680C2102F0DEF903B030BDCE
:102AE0002DE9F043814683B00C468C3001211E460F
:102AF00017460DF10808FFF7DDFF0025D9F88C0017
:102B00006A460021212368E9024502F001FA7EB1FC
:102B10003C682123D9F88C00002569466A46CDE936
:102B2000004502F0F5F9009B013E47F8043BEFD168
:102B300003B0BDE8F08300BF70B582B0002401256A
:102B400002AE66E90245022104468C30FFF7B2FF6F
:102B50006A46D4F88C000021262302F0D9F96A468F
:102B6000D4F88C002623694602F0D2F9DDE900236F
:102B700012F0010007D0204604F19002034910230F
:102B8000FFF7AEFF012002B070BD00BFFFFF80E87D
:102B9000F0B583B0064600F1900210231B4902AF46
:102BA00000242025FFF79CFF67E9024506F18C040D
:102BB00020460221FFF77EFF6A46D6F88C000021EE
:102BC000262302F0A5F90022134630461049FFF7EC
:102BD00087FF204601210E4CFFF76CFF01256A4656
:102BE000D6F88C0000212123CDE9004502F090F9B0
:102BF0000022304613460749FFF772FFD6F88C00D3
:102C0000042102F049F903B0F0BD00BFFFFF90E8D6
:102C10000000A0E1F8FFFFEA70B582B00224202591
:102C200002AE66E90245022104468C30FFF742FFFE
:102C30006A46D4F88C000021262302F069F902B01C
:102C400070BD00BF2DE9F8430446D02004F038FDE4
:102C5000DFF85C900346104ADFF858800F4F104EA3
:102C6000104D114811494FF0400CC3F88C40C3F887
:102C70007490C3F80480C3F820C09F62DE62DD63F5
:102C8000186459649A60DA601A615A619A61DA616B
:102C90005A639A63BDE8F883652A0008792A000818
:102CA000692A0008192C0008392B0008912B00080C
:102CB000CCE500088D2A000808B504F09DFE044804
:102CC00004490522852301F005FF012008BD00BF4E
:102CD00050E600086C13002008B5044B196811B1C8
:102CE000034801F0F7FE012008BD00BF00120020DC
:102CF000CCE7000870B5114C06462568C5B11048F0
:102D000001F0C6FE0F4801F0C3FE246801256CB136
:102D10002946B44214BF20222A22636F0A4801F0D8
:102D2000D9FED4F880400135002CF1D1012070BDCE
:102D3000064801F0ADFE284670BD00BF780F0020A8
:102D40007CE6000890E60008A0E6000860E60008BF
:102D500038B50546114801F09BFE114C1149A26897
:102D6000114801F0B7FE54F80C1F0029F7D19DB1AE
:102D7000AD6F8DB129680D4801F0ACFE6C6821681B
:102D800039B1A268084801F0A5FE54F80C1F0029CB
:102D9000F7D1AD68002DEDD1012038BDB8E60008AF
:102DA000D8E50008B0E60008CCE60008D8E6000840
:102DB00008B5054801F06CFE044801F069FE0448BE
:102DC00001F066FE012008BDF0E6000838E70008C3
:102DD0006CE7000808B503F021FB0146084801F044
:102DE00079FEFFF7E5FD002804DB0020FFF782FFF6
:102DF000012008BD034801F04BFE002008BD00BFC4
:102E0000BCE70008D0E700082DE9F04383B002AF2B
:102E10008946154603F002FB01462C4801F05AFE94
:102E2000B9F1010F42DD09F10E0323F00703ADEB09
:102E3000030D0DF10808A9F1020608F1FF3446441C
:102E400055F8040F06F082FA04F8010FB442F7D1E6
:102E5000C144002309F8013C404601F0A3FE041ED2
:102E60002FDB26D01A4E1B4801F034FE3368002BAE
:102E700011DD194C0025D4F80A10D4F80630227858
:102E800016480091294601F025FE33680135AB4212
:102E900004F11404EFDC124801F0FAFD0020FFF702
:102EA00029FF01200437BD46BDE8F0834FF000083C
:102EB000D2E70C4801F0ECFD20460437BD46BDE8E2
:102EC000F083094801F0E4FD0020EBE7BCE70008CF
:102ED0008411002020E800088A1100204CE8000836
:102EE000FCE7000800E80008E4E70008012910B545
:102EF00010D05468204606F0C3FF0C490246204615
:102F000006F0EEFFD0F1010038BF002003F0F8F921
:102F1000012010BD03F0ECF9054B0649002808BF5D
:102F20001946054801F0D6FD012010BD88E80008CB
:102F300060E8000868E8000874E80008012908B59E
:102F40000BD050680B4906F07DFE0B4BD0F1010011
:102F500038BF00201870012008BD074B074A1978B8
:102F6000074B084800290CBF1146194601F0B2FD75
:102F7000012008BD88E800086512002068E8000804
:102F800060E8000890E800082DE9F84F0B7800AFE2
:102F900006467BB10A46002404E0092B04D012F84F
:102FA000013F33B1202BF8D112F8013F0134002B3F
:102FB000F8D1A3000E3323F00703ADEB030D084651
:102FC000294907F019F8E8460090002849D06C46D6
:102FD00000250020244907F00FF8013544F8040FBC
:102FE0000028F6D1D8F80040204606F049FFDFF867
:102FF00080A081461D4902E05AF80C1F89B1204685
:103000004A4606F06DFF0028F6D1DAF80430304663
:1030100029464246984780F00100C0B2BD46BDE84F
:10302000F88FDEB1D6F878A0BAF1000F16D0DAF832
:103030000430196869B19B4602E05BF80C1F41B18E
:1030400020464A4606F04CFF0028F6D1DBF8043053
:10305000DDE7DAF808A0BAF1000FE8D14FF0FF3051
:10306000DCE704460546BFE7B0E80008B0E6000824
:10307000D8E50008D0F884000022436802491A729B
:10308000024AFFF70FBA00BFF0ED00E003005FA0B7
:1030900010B5D0F884400A4620460549FFF702FAE9
:1030A00020460449044AFFF7FDF9002010BD00BF87
:1030B000F8ED00E0F4ED00E00F000100F8B5D0F805
:1030C0008460F7693B6C63B1114D0024294630469A
:1030D0000022FFF7E7F93B6C0134A34205F1040538
:1030E000F4D87B6A63B10B4D002429463046002298
:1030F000FFF7D8F97B6A0134A34205F11005F4D833
:1031000030460549054ABDE8F840FFF7CBB900BF96
:10311000082000E0281000E0F0ED00E000005FA0D3
:10312000D0F88400022B2DE9F041C6693AD0042B77
:1031300031D0012B03D04FF0FF30BDE8F0814FF0CC
:10314000000803292BD0042933D00229F3D14FF0F2
:10315000060C776A4FB300210B4602E00133BB42F5
:1031600023D07418656808319542F7D1257A6545F2
:10317000F4D1647A4445F1D1BB4216D00E49002403
:1031800006EBC3061B01347219442246FFF78AF985
:103190002046BDE8F08103294FF00308D3D14FF05A
:1031A000050CD6E74FF00108CBE76FF00100BDE852
:1031B000F0814FF0070CCCE7281000E0D0F8840035
:1031C000F8B5C7693E6C8EB1BB6A23F001038B4230
:1031D0001DD03A46002406E0D56A043225F00105E8
:1031E0008D4206D01C46631CB342F5D14FF0FF3030
:1031F000F8BD04F1605404F60304A10000250A336D
:1032000047F823502A46FFF74DF92846F8BD0149F3
:103210000023F3E7082000E0D0F8840021F06042AA
:10322000D0F81CC0F8B511F0020F22F00302DCF850
:10323000407042F001020CBF4FF080434FF000435A
:103240001A437FB1DCF8283013F001031CD0644628
:10325000002504E0E66A0434F60706D51D466B1C1B
:10326000BB42F7D14FF0FF30F8BD05F1605505F6D0
:103270000305AD000A3341F001044CF82340294610
:10328000FFF710F90020F8BD004DF3E7082000E03B
:103290002DE9F04FD0F8840091B0364E05AC8B4646
:1032A000019015460FCE0FC40FCE0FC496E807004D
:1032B000019BBBF1020FDF6984E8070005DD6B6845
:1032C0001B780393643B012B23D92B4801F0E0FBCF
:1032D0000DF11009294801F0DBFB0024012502E073
:1032E00001340B2C0ED059F8041F0029F8D005FA30
:1032F00004F27B6C1A42F3D02148013401F0EAFB5E
:103300000B2CF0D11F4801F0C3FB012011B0BDE828
:10331000F08F00244FEA8B0BCDF808B026460DF154
:1033200010094FF00108CB464FF0000A5BF8042F5C
:10333000104632B1295906F085FC10B908FA0AF294
:1033400016430AF1010ABAF10B0FEFD1029A0434C5
:103350009442E8D1039B652B08D07A6C22EA0602DE
:103360007A6401980849FFF79DF8B3E77A6C324315
:103370007A64F6E734EA000840F6000894F600089C
:10338000A8F60008FCE70008FCED00E02DE9F0419C
:10339000D0F884708846FE69736A3BB3154D0024EB
:1033A00005E00134A34205F110051A4611D906EBD8
:1033B000C402127A002AF4D038462946FFF748F9A9
:1033C000C30110D4736A0134A34205F110051A46F3
:1033D000EDD8A2420AD006EBC40463680120C8F805
:1033E0000030BDE8F081726AA242F4D10020BDE84D
:1033F000F08100BF281000E02DE9F84FD0F884607C
:10340000022B07469046D6F81CB05BD0042B60D048
:10341000012B03D04FF0FF30BDE8F88F4FF00009CB
:10342000032953D0042957D00229F3D14FF0060ABB
:10343000DBF82430002B55D02C4D002405E001345E
:10344000A34205F110051A4612D90BEBC402127AF9
:10345000002AF4D130462946FFF7FAF803073ED098
:10346000DBF824300134A34205F110051A46ECD8EC
:10347000944237D004F1606505F581750BEBC40407
:103480002D0142462946304684F808A0C4F804803D
:1034900084F80990FFF706F830464A46291DFFF7E1
:1034A00001F8FB6D304613F0010F0CBF4FF40062C2
:1034B000002205F1080142EA0A02FEF7F3FF0020AC
:1034C000BDE8F88F03294FF00109ABD14FF0050A91
:1034D000AEE74FF00309A3E74FF0070AA8E7DBF8D0
:1034E0002420C5E76FF00100BDE8F88F281000E048
:1034F0002DE9F843056AD0F88430AD000A3525F08F
:103500000705DE6900AFADEB050D836A88466946A5
:10351000914604469847B36C6D465A1F012A07D955
:10352000012B0BD1B8F1FF3F08D008F1010306E0F1
:10353000B8F1000F02DD336DC8EB030843462B6082
:103540002946E36A20469847C6F84C90BD46BDE838
:10355000F88300BF2DE9F04F91B0D0F8844002AF5E
:103560000546A2492046D4F81C80FFF771F810F4F4
:10357000003003D13C37BD46BDE8F08F63680022C0
:103580001A7220469A49FFF763F8064632462046EB
:103590009749FEF787FF34070DD4C6F3400388F838
:1035A0000130002B7AD116F0060F6ED005203C3783
:1035B000BD46BDE8F08FD5F884908E494846FFF7A8
:1035C00047F88D4904464846FFF742F822468246AE
:1035D00088494846FEF766FF484652468649FEF748
:1035E00061FF600002D4BAF1000FD6D02B6AE84622
:1035F000002BB8BF033323F003030A3323F0070380
:10360000ADEB030D02ACAB6A214628469847A36B8D
:1036100083F0100AC3F3800BCAF3001ABBF1000F4A
:1036200040F08180626C07F11801202328462E6942
:10363000B047BAF1000F07F12C0007C80CBF2023D8
:103640006823E1639105A06348BF0433BBF1000F19
:1036500000F01981E16CA26C41F080611344E164D7
:10366000A3646363BAF1000F03D0E36C43F000730B
:10367000E36448466149624AFEF714FF2146EB6A5B
:10368000284698470B20C54674E7F3078ED598F86F
:103690000030002B0CBF022005206BE7D5F88440DA
:1036A0000F2220465749FEF7FDFE20465649FEF7F9
:1036B000CFFF02230246AC692846B91CA0477A888E
:1036C0004BF6AB639A427FF46EAF2B6AE9469B00E0
:1036D0000A3323F00703ADEB030D0DF1080AD5F80B
:1036E00084205146AB6A2846D2F81CB09847DAF8D5
:1036F00004201023284607F108012C69A047DAF8B6
:103700000020531ECBF84820122B00F2BA80DFE8CD
:1037100003F08F6761B8574DB8B8473FB83BB8332F
:1037200027B8B81C0C00A26C7DE7DBF84C30514682
:10373000CAF800302846EB6A98472846CD4698F8E4
:1037400000106B6C9847002014E7B968FA680139DB
:1037500001322E4801F084F94FF0FF30CD4609E7E1
:10376000786907F1080101300EC900900139013272
:10377000274801F075F9EFE7B968FA6801390132B5
:10378000244801F06DF9E7E70023CBF84C30D4E78B
:10379000B96821480139FA68002301F061F9DBE7D3
:1037A000B9681E48013901F05BF9D5E73B69B96892
:1037B000CBF8503001391A48FA6801F051F9CBE7DB
:1037C0003B69B968CBF8503001391648FA6801F006
:1037D00047F9C1E7DAF80410134801F041F9BBE7F3
:1037E000B9681248013901F03BF9B5E7F0ED00E0A6
:1037F00030ED00E02CED00E028ED00E00CED00E005
:103800000200FA05F4ED00E0F8ED00E064F70008CE
:103810003CF7000854F7000824F7000814F70008E4
:10382000D4F60008ECF6000804F70008C8F6000813
:10383000204E07F118040FCE0FC496E80300FB6872
:1038400084E803005B0807F1380404EB8306391DA4
:10385000AC692846BA68042356F8206CA047381D86
:10386000154906F0EFF9D0B996B9CAF80060DAF850
:10387000003051460133CAF800302846EB6A9847B9
:103880005BE7CD468FE6626C134463646363E9E6ED
:1038900072054CBF01230223CAF80030E7E73A69FA
:1038A0004FF4D273009301323346B968034801F0F4
:1038B000D7F851E760EA0008ACF60008B0F6000857
:1038C00010B5D0F88440012001F0E8FB002001F0A1
:1038D000E5FB0B492046FEF7BBFE204609490A4A94
:1038E000FEF7E0FD20460649FEF7B2FE8301F9D45B
:1038F000204606491F22BDE81040FEF7D3BD00BF99
:10390000F0ED00E00CED00E00400FA0530ED00E021
:103910002DE9F043D0F8844083B0A269884642F094
:103920001202002181462046FEF764FC2A4B6068A3
:1039300000938569042301210022A8472046D8F876
:1039400000201821FEF756FC60684FF48033009386
:103950008569012100221423204EA84708F14C0755
:10396000454655F8043F60680093D0F818C001211F
:1039700000221823E04756F8043F606843F4803380
:103980000093D0F818C0012100221423E047BD4263
:10399000E7D1D9F85C3008F150059B0718D5104ED7
:1039A00008F1D40855F8043B606800938769012149
:1039B00000221823B84756F8043F606843F4803368
:1039C00000938769012100221423B8474545E9D1B6
:1039D000002003B0BDE8F083F0ED00E078EA0008D5
:1039E000C4EA00082DE9F047D0F8844082B0A2690B
:1039F000884642F01202002182462046FEF7FAFB7A
:103A0000224B606800938569042301210022A847A6
:103A1000204614210022FEF7EDFB60681821FEF716
:103A2000D5FB1B4DC8F80000464605F14C0955F87A
:103A3000043F606800930121002214238769B8477E
:103A400060681821FEF7C2FB4D4546F8040FEED121
:103A5000DAF85C3008F150059B0713D50D4E08F1DC
:103A6000D40856F8043F6068009301210022142313
:103A70008769B84760681821FEF7A8FB45F8040B72
:103A80004545EED1002002B0BDE8F087F0ED00E042
:103A900078EA0008C4EA00082DE9F84FD0F88480DD
:103AA0000546C3683F4FD8F81C609847EB6B284623
:103AB00098473B787BB90A2404E0022002F02EFCF0
:103AC0003B7843B92B6C2846984720B9013CF4D188
:103AD0002046BDE8F88F40463349726CFEF7E2FCA1
:103AE000404632491F22FEF7DDFC06233364404680
:103AF0002F49FEF7ADFD336CC0F3031098424FD34E
:103B00000423736240462B49FEF7A2FD736A000F3F
:103B10009842336C88BF7062B3B1DFF8B0A04FF049
:103B20000009C6EB0A0ACB4634460AEB04014046BC
:103B30000022FEF7B7FCC4F828B0336C09F1010984
:103B40004B4504F10404F0D8736A93B10024DFF804
:103B50008090A246494640460022FEF7A3FC06EBB1
:103B6000C40383F808A0736A0134A34209F1100961
:103B7000F0D840460E490322FEF794FC0E4E0F4C3F
:103B80000F481049104A3B78AE64EC6428656965BB
:103B9000AA6513B1002001F081FA0120BDE8F88F79
:103BA0003064ADE765120020FCED00E030ED00E090
:103BB000002000E0001000E019320008BD310008CC
:103BC000F9330008213100088D330008082000E097
:103BD000281000E02DE9F041D0F884401B4FE56942
:103BE0001B4A2B78002908BF17468B4280460E4699
:103BF00006D02046174947F00202FEF753FC2E700C
:103C00006B784BB93A4620461249FEF74BFC636885
:103C100001221A72BDE8F081D8F884500F2228469C
:103C20000D49FEF73FFC28460C49FEF711FD0546FD
:103C300029462046FEF720FD00F47F40B0F53E4FB8
:103C4000E0D14046A91CFFF723FADBE70D005FA097
:103C500001005FA0F0ED00E0F4ED00E0F8ED00E021
:103C60002DE9F84FDFF850B1DFF850C1DFF850E12F
:103C7000484B494A494F4A4D4A494B4EDFF844A107
:103C8000DFF84491DFF84481C0F804B04FF0500BE6
:103C9000C0F834C0C0F838E0036742670446C76321
:103CA00005644164C0F808A0C0F82890C0F82C80D2
:103CB000C0F820B0466206F5747103F037FDD4F801
:103CC00084503A492846FEF7C3FC40F470073A4650
:103CD00028463649FEF7E6FB28463449FEF7B8FC8D
:103CE000B8424CD05421012005F038FB3049314A0C
:103CF0000346E861296220465A6402F0F9FF10B1D8
:103D00000120BDE8F88FE36820469847204603F07D
:103D10006FFA0028F4D1E36820469847204603F064
:103D2000A3FB0028ECD1E36820469847204601F029
:103D300081FC0028E4D1E36820469847204601F042
:103D400095FF0028DCD1E36820469847204602F022
:103D500045FD0028D4D1E36820469847204602F06C
:103D6000A9F90028CCD1E36820469847204601F005
:103D7000E3FA0028C4D1E36820469847C0E7E26D23
:103D8000236A06F57A7642F0020284336662E265BF
:103D90002362A7E7F1340008000000207530000816
:103DA00055350008D53B00084CEB000888ED00E0D5
:103DB0000594000801040001993A000891300008B8
:103DC000C1380008BD300008E53900081139000885
:103DD0002DE9F041214B14461A68032C42F00102F0
:103DE00082B006460D461A6017DDDFF8748005E0E4
:103DF000019B032C1BBAC8F800300EDD2A46304662
:103E000001A904233769B847043C04350028EFD0E2
:103E10004FF0FF3002B0BDE8F08104EB0508104B15
:103E200045451C6816D02A460123B769304601A9CA
:103E30001D44B8470028EBD1019A082384EA0264A4
:103E4000002CBBBF6200074C64005440013BF7D11B
:103E50004545E8D1204602B0BDE8F0810830024077
:103E600000300240B71DC10470B5114C23685A1CC4
:103E700023442260187111B9402A00D070BD03F0AC
:103E80004FFD012802D00023236070BD03F04EFDDA
:103E90000028F8D0074E064D30682A1D01212388DE
:103EA00004F011FC0028F6D000232B60E6E700BFE9
:103EB000640900206812002038B501210B4C0A4625
:103EC000054604F018FC04F1440228460121402371
:103ED00004F0FFFB0246C4F8840000B138BD284658
:103EE0000121BDE8384004F006BC00BF6409002091
:103EF000F8B51C4D2F46D5F8CC30D5F8C820194957
:103F0000934225D303F012FD48B303F009FD0128C5
:103F10000446FAD1D5F88460002EECD0124832461F
:103F2000A0F1440105F012FD104A0023214610685B
:103F30001A46C7F88430C7F8CC30C7F8C86004F018
:103F4000DAFBD5F8CC30D5F8C82006499342D9D24F
:103F50005A1C0B44C1F8CC2093F88800F8BD04200B
:103F6000F8BD00BF64090020EC09002068120020A1
:103F70002DE9F843274B284D83FB0021D5F8CC20B1
:103F8000D5F8C830C017254FC0EB61109A42386091
:103F900003D2BDE8F843FFF7ABBFDFF88890A8462F
:103FA00003F0C4FC98B103F0BBFC01280446FAD12D
:103FB000D5F8846076B93B68D5F8CC2013B3D5F832
:103FC000C8309A42E5D303F0B1FC0028EBD10420BD
:103FD000BDE8F88312483246A0F1440105F0B6FC72
:103FE00000231A462146D9F80000C8F88430C8F8E2
:103FF000CC30C8F8C86004F07EFB3B68D5F8CC2014
:10400000002BDCD1D5F8C8309A42C2D3FF20BDE8DE
:10401000F88300BF1F85EB516409002004120020C3
:10402000EC09002068120020064B1A68824204BF87
:1040300000221A605B68034A834204BF0023536076
:10404000704700BF340A0020F0B583B000AF0446CB
:104050003A4608463B1D1D4905F082FD022806D15F
:10406000204605F00DFF3968884207D827D0184848
:10407000032100F09FFC0C37BD46F0BD7D686E4605
:1040800005F1090323F00703ADEB030D68460C446B
:104090006D22214600F8012B2A4605F07BFF2046C1
:1040A00005F0EEFE85428ABF01462946786001315F
:1040B000684600F07FFC0C37B546BD46F0BD0548AC
:1040C000012100F077FC0C37BD46F0BD08F900086F
:1040D000CCF70008D0F700082DE9F043514C83B02D
:1040E000064600AF504904F10800062205F0F8FE2C
:1040F0000546002830D004F108004C490A2205F09A
:10410000EFFE002850D004F108004949172205F0BD
:10411000E7FE60B92068002879D0406E002862D0A0
:104120004449FFF791FF0C37BD46BDE8F08304F129
:10413000080041491F2205F0D3FE00283DD1206828
:10414000002848D0406A00284DD03C49FFF77CFF4A
:104150000C37BD46BDE8F083063E06EBD6767610FA
:1041600006F10F0323F00703ADEB030D6B464FEA97
:10417000D3094FEAC908324604F10E01404600F067
:10418000DFFC06F8395041462068FEF7FDFE0028A6
:104190001CDB07BF2A4802212A48012100F00AFC43
:1041A0000C37BD46BDE8F08327484FF4806100F02E
:1041B00057FC0C37BD46BDE8F08304F108002349E5
:1041C0003A463B1D05F0CCFC022814D020480021C3
:1041D00000F0F0FBE4E7606828B11E4903F0C0FA84
:1041E00020600028AED11C48032100F0E3FB0C370F
:1041F000BD46BDE8F08320680028F4D097E80600AB
:10420000FFF7E6FD0146154800F02AFCC8E76068A4
:104210000028E8D00F4903F0A3FA206000287FF4BB
:104220007CAFE0E7340A0020D4F70008E4F7000888
:104230002CF80008530A002044F800085B0A00200C
:10424000DCF70008E0F70008F0F7000864F8000861
:104250001CE8000829400008CCF7000878F800089E
:104260002DE9F04F924C8BB0002602AFDFF860A230
:10427000FE604FF48069A346BE604FF480618D48B4
:10428000CAF80010451C00F03FFB8B4A94F808E088
:104290000646A2F8009005F10108AEF10403762B62
:1042A00000F24082DFE813F042013E023E023E028D
:1042B0003E023E023E023E023E023E023E023E02FE
:1042C0003E023E023E023E023E023E023E023E02EE
:1042D0003E023E023E023E023E023E023E023E02DE
:1042E0003E02C9003E023E023E023E023E023E0245
:1042F0003E023E023E023E023E023E023E023E02BE
:104300003E023E023E023E023E023E023E023E02AD
:104310003E023E023E023E023E023E023E02850058
:104320003E023E023E023E0242013E0219020002ED
:104330003E023E023E023E023E0276013E023E0246
:104340003E023E026F013E023E023E023E023E023D
:10435000D9013E02A9013E023E023E023E023E0259
:104360003E023E023E0279003E023E023E02520101
:104370003E023E023E0216013E02D2003E023E02D4
:104380003E02CE006F0177003E023E0226013E0251
:104390003E023E02A9010126BE602068002800F00E
:1043A000EF81B968436C98474449012300260B709C
:1043B000BE602068002800F044829BF80860FE6020
:1043C00007E0FFF7D5FD0338C0B20128206840F2AE
:1043D000AE81036C9847051EF3D038494FF00003B7
:1043E0000B70FFF64AAF2068836D2BB107F11C01FB
:1043F0009847002840F0AB812946314800F030FB57
:104400003BE72C482F4907F1140207F1180305F088
:10441000A7FB022840F04482DBF80000002800F0EF
:10442000AA819BF80834002B00F05482836E7969CE
:10443000BA699847002840F09E812348022100F085
:10444000B9FA1AE73046FFF747FE16E723686E46CB
:10445000002B00F077811D4907F1180207F11C03BA
:10446000144805F07DFBFB69BA69D91D21F00701ED
:10447000ADEB010DDBF8000042EA0301890702AD54
:104480000CBFD0F810C0D0F818C02946E04720680B
:10449000C3689847002840F0508129460548FA69CA
:1044A00000F02EFBF969490000F084FAB546E4E615
:1044B000340A00203C0A0020140C01406412002041
:1044C000B8F80008FCF80008DCF7000880F80008DD
:1044D000100C0140206800283FF4CFAE836B984752
:1044E000DBF8000083689847DBF8003000228BE897
:1044F0000C00C2E6A648A74907F1140205F030FBFC
:10450000012800F08781A248A34905F09BFB002801
:104510007FF477AFDBF80000002800F0A581836B03
:1045200098479E48032100F045FAA6E62068002837
:1045300000F02B8183689847DBF80020002398481F
:1045400002216260236000F035FA96E620686E462C
:10455000002800F0F780026A836A073222F007021F
:10456000ADEB020D02AD29469847DBF80030294635
:104570001A6A874800F0C4FADBF80030196A49006B
:1045800000F018FA92E72068002800F02181836B80
:10459000984772E623686E46002B00F0D38007F13F
:1045A0001C0200927F4907F1140207F118037848B2
:1045B00005F0D6FABA69F969D31D23F00703ADEB0C
:1045C000030D734B02AD1944284600F0B9FA79691E
:1045D000BB69880702D19A0700F0388120682A4613
:1045E000C569A8472068C3689847002840F0A5809F
:1045F0006B48022100F0DEF958E72368002B00F039
:10460000BA809BF80950BEF15A0EDEF100066648EA
:10461000A5F13005654907F11C0207F1180356EBB7
:104620000E0605F09DFA012D00F0DF807ADB042DE7
:1046300078DCDBF80000D0F850C0BCF1000F71D07E
:10464000E9B2002E00F01D81FA693B7EE04730BBE5
:104650005348022100F0AEF90FE62368002B00F06A
:104660008A8007F11C06524907F118030096484852
:1046700007F1140205F074FA7969BB69880702D161
:104680009A0700F0E9802068FA69414EC569324412
:10469000A8472068C368984700283FF4CEAE454835
:1046A000032100F087F9E8E523686E46002B49D026
:1046B0001A6A4149D31D23F00703ADEB030D02AD88
:1046C000284600F03DFADBF800002946C36A984707
:1046D0003348022100F06EF9E8E6607A07F114022F
:1046E00036492D2814BF28464046009207F11C0386
:1046F00007F1180205F034FA637AB9692D2B844664
:10470000206804BF4942B961036FFA69C7F804C061
:104710009847D7F804C0BCF1030F73D0FB6823722D
:104720009E46BAE52648002100F044F9A5E5C36B92
:104730007326FE60984720684BE61E48032100F070
:1047400039F9B3E61F48032100F034F9AEE62946F3
:104750001D48FA6900F084F98FE5FA69DBF800007A
:10476000B31ABB6138B10A4EC56E32447969A847A5
:1047700000283FF462AE1348032100F01BF97CE5EA
:104780001248032100F016F977E50246D6E600BF8D
:104790003C0A0020E0F80008F4F80008F0F80008EF
:1047A000DCF7000890F800083E0A002038F90008FD
:1047B000D0F80008CCF700083D0A0020C0F8000837
:1047C0001CE80008ACE50008A4F80008A8E500080B
:1047D000DBF8040000283FF450AD424902F0C0FF6E
:1047E000826BCBF80000904747E5DBF80000836C54
:1047F000002B97D006B9C36CF969984700287FF45D
:104800004EAF25E73B7D432B88D16146364800F00B
:10481000D1F832E535490B6853B17A69012A02D1E2
:1048200037E0904235D0D3F880300130002BF8D1FA
:104830002368002B3FF433AF2D48032100F0BAF872
:104840001BE52C48032100F0B5F816E5DBF8000065
:104850002A464569A847C5E6DBF80000FA69264EF6
:1048600045693244A84714E7DBF8040000283FF408
:1048700016AF1C4902F074FF826BCBF80000904722
:10488000DAE7456DFA693B7EA84700287FF407AF59
:10489000DEE61846134902F063FF20600346C8E7CE
:1048A0001548164907F1140207F11C0305F058F9E1
:1048B00001283FF452AF1048114905F0C3F90546ED
:1048C00000287FF42FAF0F48022100F073F88BF817
:1048D0000854D2E4836B984701238BF80834DBF843
:1048E0000000A3E529400008CCF80008780F00205C
:1048F000F0F80008A0F800083C0A002014F90008AD
:104900002CF90008DCF700082DE9F043054683B0D8
:104910000F464FF0000801E004283FD0FFF7E8FA07
:1049200024282870F8D100242646FFF7E1FA23282E
:104930000ED0BC420CD0242822D07D2823D028556C
:104940000644FFF7D5FA232804F10104F6B2F0D1AA
:10495000FFF7CEFA8DF80400FFF7CAFA4FF000090E
:104960008DF80500494601A810228DF8068005F053
:1049700007FC864216D02D200121FFF775FACDE7FE
:1049800000263446D1E7FFF7B3FA7D36064480F0BF
:104990002000285506F0FF060134C6E7012003B0C9
:1049A000BDE8F0832B200121FFF75EFA05F80490A3
:1049B0002046F4E72DE9F047824682B089464FF061
:1049C000040824200021FFF74FFAB9F1000F43DD5E
:1049D00055460AEB0907002607E020460021FFF7AD
:1049E00043FA2644BD42F6B217D015F8014B7D209C
:1049F000A4F12303012B01D98442EED184F02004D9
:104A00000021FFF731FA7D3620460021FFF72CFA0E
:104A10003444BD4204F0FF06E7D123200021FFF714
:104A200023FA32460D4901A805F074F89DF80400F8
:104A30000021FFF719FA9DF805000121FFF714FA8C
:104A40004FF4FA60FFF794FA2B2802D0B8F101086E
:104A5000B7D102B0BDE8F0870026DEE744F90008D0
:104A60000FB400B583B004AB53F8041B01A81A4679
:104A7000009307F017F801460198FFF79BFF019894
:104A800004F0C0FC03B05DF804EB04B0704700BF55
:104A90002DE9F04100AF054605F0F2F9410001F1C2
:104AA000100323F00703ADEB030D6C464F2328469C
:104AB00004F8013B01F1010805F0E2F9294602463C
:104AC000204600F01DF868464146FFF773FFBD46DB
:104AD000BDE8F0810FB400B583B004AB53F8041BFC
:104AE00001A81A46009306F0DDFF0198FFF7D0FFFA
:104AF000019804F087FC03B05DF804EB04B0704744
:104B000070B4C2B15200961C0C4C0644831C0D7844
:104B100002332D09655D03F8045C11F8015B05F0B3
:104B20000F05655D03F8035CB342F0D10244002336
:104B3000137070BC70470246F9E700BF4CF90008DB
:104B400070B462B30231024411F8024CA4F1300394
:104B5000DBB2092BA4F1370505D9EBB2102B84BFCA
:104B6000A4F15703DBB21B01DDB200F8015B11F8C1
:104B7000014C0231A4F13003DBB2092BA4F137065A
:104B800005D9F3B2102B84BFA4F15703DBB22B433A
:104B9000904200F8013CD7D1104670BC70470246E5
:104BA000FAE700BF2DE9F047B24F82B00025B24EC0
:104BB000044602F093FD294678223846356004F019
:104BC0003BFF00F0D5F900F029FA03200421002C66
:104BD00000F0008100F08EFA3368052B37DC03EB20
:104BE000830307EB83039B78102B30D8237873B3B0
:104BF0000134B8461BE0336814F8010C03EB830260
:104C000007EB8201CD70887007F8223014F8012C70
:104C1000013303EB8301052B08EB8101154433605D
:104C200015DC8B78102B12D814F8013B7BB101A84E
:104C30000021924A00F084FA019BDB07DBD44FF09D
:104C4000FF3002B0BDE8F087052B00F3BD800120E6
:104C5000014600F02FFA0120022100F04BFA01205A
:104C6000032100F047FA864D002407E09C4200F340
:104C7000AB80013B1B1B05F8143C013400200121D3
:104C800000F018FA143533680028EFD09C427A4DB2
:104C900040F09A800120014600F00CFA0120022128
:104CA00000F028FA2C68002C00F0D680631E12D089
:104CB00003EB830307EB830304EB84041B79714943
:104CC00007EB840717F8122C143F1344DBB207F8E4
:104CD000103C8F42F6D100F0A1F90120032100F031
:104CE00009FA3368002B20DD624F4FF000084FF0C7
:104CF00001090020012100F0DDF978B1C7F8089022
:104D00001F2402250020012100F0D4F910B1BB6856
:104D10002B43BB60013C4FEA4505F3D1336808F1F2
:104D20000108434507F11407E3DC0120014600F0C8
:104D3000C1F90120022100F0DDF93368002B20DDEC
:104D4000DFF83081DFF84CA14C4D4FF00009D8F866
:104D5000087027F0F02353451FD04B4B002103E090
:104D600064693C40A24219D01A691C4601311033D3
:104D7000002AF5D1336809F101094B4508F11408FF
:104D8000E5DC424B1B68002B6ED00020014601F091
:104D900033FB306802B0BDE8F087002105EB01115C
:104DA0004A698B694FF0FF31C8F80C20C8F8101021
:104DB000002BDFD040469847336809F101094B4585
:104DC00008F11408C3DCDCE74FF0FF30306002B0BC
:104DD000BDE8F08700F08EF92046012100F06AF965
:104DE0000028F1D033680124052BBC70ECDC03EB08
:104DF000830307EB83039B78102BE5D8B0463D4631
:104E00001AE090785A1888423FF41EAF02EB8200F5
:104E100005EB80039970DC70C8F80020134605F894
:104E2000202003EB8302052B07EB820204F101042F
:104E3000CADC9378102BC7D80121002000F03AF982
:104E40003368012103EB830207EB82020028D8D1EB
:104E5000917801319170E4E70D48012101F0CCFA1D
:104E6000204602B0BDE8F0870948012101F0C4FAEC
:104E70008FE700BF881100208411002060F900082E
:104E8000891100209C1100206CF90008780F002087
:104E9000C0E500087704A00B30B5036983B08B42EE
:104EA00004460D4601912AD0164B186800280ADDE9
:104EB000154B00EB800003EB80004FF0FF321A61CE
:104EC00014338342FBD103200421256100F012F941
:104ED00000200E49E27800F075F9207901A9D0F19F
:104EE000010038BF0020A27800F06CF901200749CA
:104EF000227900F067F90120022100F0FBF803B0ED
:104F000030BD00BF841100208811002060F9000826
:104F1000F8B504460D460120032116461F4600F051
:104F2000E9F822780020114900F04CF9A5B1617828
:104F30002846D1F1010132463B4638BF002100F03E
:104F4000FFF862780120094900F03CF9BDE8F8401B
:104F50000120022100F0CEB860783146D0F1010086
:104F60003A4638BF002000F02DF9EAE760F9000862
:104F70002DE9F041254803210022102303F07AF89F
:104F8000234E24482449332310254FF008042022BF
:104F90000560013B0C80026037680A80F8D110235D
:104FA00020241D481B491A4F9C4626464EF23C724F
:104FB000082512F0010F14BFC1F800C0A0F800C00E
:104FC0000D60013B0C60D7F800804FEA520206806A
:104FD000EFD1202410490F4A0D4F264606201F23EB
:104FE0004FF0100C082513F0010F14BFC2F800C0D9
:104FF000A1F800C0156001381460D7F800804FEAAE
:1050000053030E80EFD1BDE8F08100BF00080140DE
:105010000808014010080140140801402DE9F04142
:1050200082B001F08DF890B9174B02221A800190DE
:10503000019B42F20F72934206DC00BF019B0133D9
:105040000193019B9342F8DD104B02221A60202449
:105050000F481049104F264606221F234FF0100C10
:10506000082513F0010F14BFC1F800C0A0F800C05C
:105070000D60013A0C60D7F800804FEA53030680B8
:10508000EFD102B0BDE8F081140C0140100C0140DA
:1050900014080140100801400808014010B50446FA
:1050A00001F018F924B142F2107300BF013BFCD1AA
:1050B00010BD00BF78B10C4B10221A6081B90B4BA8
:1050C00008221A8008492023094A0B60106893813E
:1050D000C0F380107047054B10221A800029EED0D3
:1050E000014B08221A60EDE7100801401408014046
:1050F000080801402DE9F0014B1EC1B120240D49E3
:105100000D4ADFF838C027461026082510F0010F99
:1051100003F1FF3314BF16600E801560B3F1FF3F3B
:105120001460DCF800804FEA50000F80EED1BDE83B
:10513000F0017047140801401008014008080140C0
:105140002DE9F007DFF878C01B4F1C4E884601247C
:105150004FF0100A4FF00809202513F1FF331FD339
:105160001178214013B3A7F800A0E1B1C6F8009070
:105170003560DCF800103D8011F0400F017814BF5D
:105180002143A143640014F0FF040170E5D113F141
:10519000FF3302F1010200F101004FF00104DFD200
:1051A000BDE8F0077047A7F80090E1E7B8F1000FFD
:1051B000D9D0C6F800A0D8E7140801401008014073
:1051C0000808014012F1FF322DE9F0034FF001030E
:1051D000154E4FF01009154D4FF008084FF0200400
:1051E000DFF84CC014D30F781F40BAB1A6F8009076
:1051F0008FB1C5F800805B0013F0FF032C6004BF83
:105200000131012312F1FF32DCF800703480EAD260
:10521000BDE8F0037047A6F80080ECE70028E5D071
:10522000C5F80090E4E700BF1408014010080140F1
:10523000080801402DE9F04198469B109C0012346B
:1052400024F0070400AFADEB040D009104461146B5
:1052500002A84246019304F079FB4FF000510F4A37
:10526000302366692046B0476A4608F108030C49B6
:1052700065692046A847636B4FF000512046984768
:10528000636C204600219847236C204698470028ED
:10529000FAD00020BD46BDE8F08100BF100000201C
:1052A000300000202DE9F043D0F8845083B021F481
:1052B0007F7822F47F77284600211C4AFCF79AFF6A
:1052C0001B4B6868009327F00307846901210022C3
:1052D000042328F00308A04727B3DFF85890284696
:1052E00010214246FCF786FF6868CDF8009084697B
:1052F000012100220823A0470026686801210096AA
:1053000084690A460823A04768680121009608239B
:1053100084690A46A0478307F6D4B7F5806708F585
:105320008068DCD1002003B0BDE8F083520000A209
:1053300000D00F40020042A410B50C490446D0F83A
:105340008400FDF785F941F24903B3EB104F0AD110
:10535000074B0849084A03F1180060666367A166B5
:10536000E266012010BD002010BD00BF04E00F4028
:1053700074FC0008A552000835520008F8B5036A0D
:105380001E4A23F003050A3525F0070500AF4FF448
:105390003E4EADEB050D00250446A2F800E00B469D
:1053A00055804FF080514669B0476946A36A204650
:1053B0009847626F124B13489A420CBF124B134B23
:1053C00013491193134A144B8DE803000F93694658
:1053D000E36A0E9220469847636C20460021984766
:1053E000236C204698470028FAD0256920460349B7
:1053F0004FF080522823A847BD46F8BD400E00203C
:1054000064FD000804000010E0030010E007001035
:105410001800001001000010F11FFF1FF8B5164C16
:105420000025234643F8085B1D60144F436F322666
:10543000BB42E56025616561A561E5612562666045
:10544000656211D00A44090B013AA1604FF4805300
:10545000B2FBF3F22821E260FFF790FFA069003071
:1054600018BF01204042F8BD0A44890A013AA160F0
:105470004FF48063ECE700BF400E002064FD00089D
:105480002DE9F04F01EB030808F1FF384FEA112A2C
:105490004FEA182883B0C9B2C2451F468146164656
:1054A00001913ED8DFF8F0B04FEA0A2554461DE0DE
:1054B000364942F6E0624FF0330C4FF48073CBF87C
:1054C0000C1048464FF49471CBF81420CBF80850D8
:1054D000CBF804C0CBF81030FFF750FFDBF81820F2
:1054E000D2B90134A04505F580751AD35445284832
:1054F0001BD0444519D031464FF4807204F026FA8F
:10550000A7F5807706F58076484629464FF48072E5
:10551000FFF784FF0028CBD04FF0FF3003B0BDE889
:10552000F08F002003B0BDE8F08FFF214FF48072B0
:1055300004F082FA019B3146C3F5807CBC45A8BFCC
:10554000BC4603F1280062465844CDF800C004F080
:10555000FDF9DDF800C02CB10023CCEB0707664451
:105560000193D1E7019B002BF6D1BCF11F0FD3DDD6
:10557000084A214602F11C0052F8043F82421944B5
:10558000FAD14942CBF84410E6E700BF28000010EA
:10559000680E0020640E0020400E00202DE9F0412E
:1055A000436F224F0646BB4214BF4FF480534FF463
:1055B0008063B1FBF3F403FB14130D4690464BBB21
:1055C000FFF72CFF30BB736F194C3422BB42626073
:1055D00024D005EB08022D0B013AA5604FF480534F
:1055E000B2FBF3F2304642F6E06328212361E26029
:1055F000FFF7C4FEA3690E4C63B93046352328215A
:105600006360FFF7BBFEA069003018BF0120404275
:10561000BDE8F0814FF0FF30BDE8F08105EB0802F6
:10562000AD0A013AA5604FF48063D9E764FD000834
:10563000400E002010B55A490446D0F88400FDF70A
:1056400007F8584A904239D015D9574A90422FD07E
:1056500053D9564A90422BD067D9554A904227D009
:1056600040F29780534A904222D002F58212904233
:105670001ED0002010BDA2F16B62A2F5B4229042B0
:1056800016D026D94C4A904212D061D8A2F1286295
:10569000A2F5092290420BD002F5280202F58052B1
:1056A000904205D0A2F54602A2F580529042E0D188
:1056B000424B4349434A03F1080004E0424B40494E
:1056C000404A03F1F00060666367A166E26601206C
:1056D00010BDA2F1A562A2F5E0429042E8D043D805
:1056E000A2F5AE129042E3D002F5E0229042DFD064
:1056F000A2F570229042BCD1DAE7A2F5DE12904208
:10570000D6D039D8A2F19762A2F5DA229042CFD052
:1057100002F1976202F5D2229042C9D002F175429D
:1057200002F528129042A4D1C2E7A2F18662A2F546
:10573000D8329042BCD002F1836202F57C329042B2
:10574000B6D0A2F18362A2F58E22904291D1AFE74A
:105750001E4A9042ACD002F570229042A8D0A2F529
:105760008012904285D1A3E7194A9042A0D002F559
:1057700080429042F3D19BE7164A904298D002F5BE
:105780005422904294D0A2F5582290427FF471AFF7
:105790008EE7A2F5B02290427FF46BAF88E700BF9E
:1057A000F48304402B2012182B9032252B407229B1
:1057B0002B0080292B4088292B1021146CFD000818
:1057C0009D5500088154000864FD00082B10311419
:1057D0002B1044042BD0242510B503494469034AF7
:1057E0000423A047012010BD0CED00E030FF0008AD
:1057F0000A4A00F16643934203D900F1654393429C
:1058000008D8B3F5803F31BF580BA3F58030000CAA
:10581000083070474FF0FF30704700BFFFFF0700B0
:105820002DE9F04383B0036A00AF23F003030A338A
:1058300023F00703ADEB030D88461646391D1C4ABD
:105840000423056904464FF00009A8474FF43E427F
:105850003346A8F80020666942461649A8F8029027
:105860002046B0476946A36A20469847124E7B6897
:1058700012481349134A019011910F936946E36A44
:1058800000960E92204698474946636C20469847FA
:10589000236C204698470028FAD0414625692046C7
:1058A000044A3023A8470C37BD46BDE8F08300BF4B
:1058B0000001401000C0002004C000201CC00020D7
:1058C0000000012001C0002070B5ADF5815D84B0FD
:1058D0003223054608460C4616460193FFF788FF1B
:1058E00002903019FFF784FF0F4B04F166429A4291
:1058F000039017D904F165449C428CBF4FF0FF33ED
:105900000123284669460025302204930795FFF7B6
:1059100087FF0798401B18BF012040420DF5815DAD
:1059200004B070BD0023ECE7FFFF07002DE9F04F46
:1059300001EB030A0AF1FF3AADF5825D99464FEAA1
:105940001A3A0B0B81B053450193054690464CD84B
:10595000C1F30B01C1F580530393019B02911E0318
:105960001C461CE06F69B847314B4FF0330E4FF4C3
:10597000805742F6E06C284604A941F230020696B0
:105980000793CDF82CB0CDF814E00897CDF824C0DB
:10599000FFF746FF0B9B3E4403BBA24525D3019B6B
:1059A00041469C424FF4805210A83DD0544522D02D
:1059B00003F0CCFFA9F5805908F5805831464FF423
:1059C00080522846FFF780FF83460134184910AA09
:1059D0004FF480532846BBF1000FC3D04FF0FF3087
:1059E0000DF5825D01B0BDE8F08F00200DF5825D00
:1059F00001B0BDE8F08F4FF480574FF0000BFF214E
:105A00004FF4805210A804F017F84F45A8BF4F4636
:105A100004AB0BF13000414618443A46C7EB090984
:105A200003F094FFB844C9E7DDF808B0039FE6E748
:105A300030C0002030B50E4BADF5815D85B0044619
:105A400000936A4645690B490423A8472046002372
:105A500031246946302201940793FFF7E1FE07984D
:105A6000003018BF012040420DF5815D05B030BD0A
:105A7000000800016C00054070B50546ADF5815D7C
:105A80004868002184B00A4604F07AFB01280446E5
:105A900007D91548FFF71EF800200DF5815D04B009
:105AA00070BD2846FFF7C6FF002642F6E063284691
:105AB00069463C2541F23002039302940195079612
:105AC000FFF7AEFE079B3BB90848FFF703F801203C
:105AD0000DF5815D04B070BD0548FEF7FBFF304653
:105AE0000DF5815D04B070BD20020108640201085B
:105AF0004C020108022908B504D00548FEF7EAFF68
:105B0000002008BD1146BDE80840FFF7B5BF00BF43
:105B1000780201082DE9F043ADF5815D85B00646B8
:105B2000FFF788FF002425464FF032090E27304644
:105B300069463022CDF804900295039704940795A6
:105B4000FFF76EFE079B4FF0340842F6E06C3046DC
:105B500069463022BBB9029305940793CDF80480BF
:105B60000397CDF810C0FFF75BFE079B013453B9D4
:105B7000022CDCD10748FEF7ADFF01200DF5815D59
:105B800005B0BDE8F08300200DF5815D05B0BDE8EE
:105B9000F08300BF980201082DE9F043C1F30C0621
:105BA000ADF5815D85B00C4617460546002E54D1F3
:105BB000FFF740FF002850D1284621463A46FFF71C
:105BC00083FE002849D1342320460193FFF710FEBD
:105BD0008046E019CDF80880FFF70AFE224B04F159
:105BE000664742F6E0629F4281460390049224D8C1
:105BF000002328466946302207930596FFF710FEDA
:105C0000079B53BB184A35219742CDF80880CDF841
:105C10000C90019119D8284600246946302204933B
:105C20000794FFF7FDFD0798001B18BF01204042B5
:105C30000DF5815D05B0BDE8F08304F165469E4237
:105C40008CBF4FF0FF360126D2E704F16544944241
:105C50008CBF4FF0FF330123DDE74FF0FF300DF530
:105C6000815D05B0BDE8F083FFFF070038B5274927
:105C70000446D0F88400FCF7EBFC25490546D4F82F
:105C80008400FCF7E5FC234B9D421AD003F18053BE
:105C90009D4216D003F160439D4201D0002038BDE3
:105CA00020F47F031C4A23F00F03934217D04032A5
:105CB000934210D1194B1A4A9842626717D00120BB
:105CC00038BD20F47F00144B20F00F00984206D01E
:105CD0004033984207D0134B0120636738BD124B05
:105CE0000120636738BD0E4B0120636738BD0F4B41
:105CF0000F49104A6166A266204601F52F71E366DE
:105D00000D4A01F013FD012038BD00BF00320440F0
:105D100000ED00E02B00065900C2004141C20F41D6
:105D2000A4020108D4020108C00201082D5900088C
:105D300034FF0008995B0008B802010808B500F0BC
:105D400001FA30B9064803F0D7FEFEF789FA0020C1
:105D500008BD04482C21044A044B03F0D9FA00BFC3
:105D6000081200204C0301084403010854030108F1
:105D700010B50748FEF78CFE064C0749A268074895
:105D8000FEF7A8FE54F80C1F0029F7D1012010BD22
:105D9000240501086C030108D4E80008CCE60008DB
:105DA0002DE9F8435568804628468946174604F091
:105DB00067F80E4C06460E4902E054F80C1F81B1FC
:105DC0002846324604F08CF80028F6D16368404635
:105DD00009F1FF313A1D984780F00100C0B2BDE8DB
:105DE000F8834046BDE8F843FFF7C2BF6C030108E3
:105DF000D4E8000838B5D0F8845004461348FEF7BC
:105E000047FE284612490222FCF74CFB03E0E368F8
:105E100020469847B8B928460E49FCF719FC0028D7
:105E2000F5D028460C490122FCF73CFB03E0E3686F
:105E30002046984738B928460649FCF709FC00284F
:105E4000F5D0012038BD002038BD00BF3405010861
:105E500004E5014000E401400CE5014070B5D0F8D4
:105E600084400C492046FCF7F3FB0B4906462046CC
:105E7000FCF7EEFB094905462046FCF7E9FBF30772
:105E800081B22A4654BF06480648FEF723FE012089
:105E900070BD00BFA0000010A4000010A8000010FA
:105EA000400501086805010838B5D0F88440084964
:105EB0002046FCF7CDFB074905462046FCF7C8FB0A
:105EC0002A4601460448FEF705FE012038BD00BF02
:105ED00060000010640000109005010808B5054935
:105EE000D0F88400FCF7B4FB010C0348FEF7F2FD88
:105EF000012008BD5C000010A805010808B505498F
:105F0000D0F88400FCF7A4FB81B20348FEF7E2FD61
:105F1000012008BD5C000010C0050108F8B5D0F8EC
:105F2000845004460E461746284624490222FCF7B0
:105F3000B9FA04E0E3682046984700283AD1284699
:105F40001F49FCF785FB0028F4D027F47F7727F062
:105F50000307EFB126F47F7626F00306B6F1102F83
:105F6000284607BF1749012217493246FCF79AFA1B
:105F700003E0E36820469847E0B928461049FCF75B
:105F800067FB0028F5D0B7F5806706F58066E5D198
:105F900028460A490022FCF785FA03E0E368204618
:105FA000984738B928460649FCF752FB0028F5D037
:105FB0000020F8BD4FF0FF30F8BD00BF04E5014000
:105FC00000E4014014E5014008E501402DE9F843F3
:105FD00001F0030503F1030EAE444FEA9E0E99460D
:105FE0000EF102039B000E4603F10A0121F00701A6
:105FF00000AFADEB010D044602A8761B2844D4F88F
:106000008450A3F1080C11464FF0FF330EF1010E3E
:106010004A468DE8401002934DF82E3003F096FC6E
:10602000284620490122E846FCF73CFA04E0E168F2
:106030002046884700282FD128461B49FCF708FB3B
:106040000028F4D066694FF00051184A28232046F2
:10605000B047424609F10803666915492046B04732
:10606000636B4FF0005120469847E36820469847FD
:10607000064688B9636C204631469847236C204613
:1060800098470028FAD0284606490022FCF70AFA69
:106090003046BD46BDE8F8834FF0FF363046BD467A
:1060A000BDE8F88304E5014000E401404000002021
:1060B0002800002010B51C490446D0F88400FCF7E5
:1060C000C7FA80B2A0F11D032066302B1AD8DFE892
:1060D00003F01B19191B19191919191B1919191B67
:1060E000191919191B19191919191919191919191E
:1060F000191B1919191B1919191B19191B19191908
:10610000191B1B00002010BD084B094809490A4A09
:1061100060676166A266204601F5A671E366074ADC
:1061200001F004FB012010BD5C000010CD5F0008F1
:10613000D8050108B40301081D5F0008E80501083F
:106140000120704770B5574C574E02F07FF820463B
:106150004FF4805102F0CDF93046042102F0C9F924
:106160003046082102F0C5F93046012102F0C1F99C
:106170002046402102F0BDF9A4F584344B4A143C7A
:106180004FF48073138020460021012201F072FF3A
:10619000474D002238232046032101F06BFF2046A3
:1061A0004FF4014102F0A7F828464FF4005102F0E5
:1061B000A2F8204648F2801102F09DF8284642F2EB
:1061C000020102F098F828460221002240F604431A
:1061D00001F050FF204602210022802301F04AFFF7
:1061E000344A0423204613600321012201F042FFB8
:1061F000314902231A460B602846002101F03AFF7C
:10620000002003F043F82D4803F038F82C4B04F538
:10621000E0541A7802F00F021A701A7842F0E00285
:106220001A7003F03FF803F045F830464FF4007160
:1062300002F05FF900210A460123284601F01AFF07
:10624000204601F0BDFE204601F0BFFE204601F0D1
:10625000CCFE204601F086FE204601F0BBFE204623
:10626000032101F098FE204601F06CFE154B00BFA3
:10627000013BFCD1144C204601F079FE204601F090
:1062800080FE124B4FF400521A6001F055FB01F0F2
:1062900001FD0F4803F030FC08B9FEF783FC002035
:1062A00070BD00BF141002401810024014080140D5
:1062B000000C014010080140100C0140A0BB0D0073
:1062C00023ED00E000350C000024014008ED00E063
:1062D0000812002018B1044B04221A807047034BA7
:1062E00004221A60704700BF1408014010080140E2
:1062F000024B1868C0F34000704700BF080C014013
:1063000018B1044B02221A807047034B02221A6014
:10631000704700BF140C0140100C0140024A10608D
:106320001368002BFCD170470412002010B52A4BD3
:106330001B78002B3ED1294B1A6812B11A68013A1A
:106340001A60274B1A683AB3197931BB19680A7871
:10635000013119604AB91A7A002A3AD0214A1268E2
:106360001A601A68511C12781960413AD2B2192A7F
:1063700026D81D4800EB8201897830F822200139A7
:1063800002F00100C9B2DA8070B118484FF400641D
:1063900004605208DA80197110BDDA88013902F000
:1063A0000100C9B20028F0D111484FF40064DA8826
:1063B0000480EEE70F484FF4806101F098FFBAE7E0
:1063C00000220B48DA804FF40064DA88032104804D
:1063D000DFE71A6010BD00BF641200200412002025
:1063E000680F002000120020C4060108100C0140B4
:1063F000140C0140000C014030B4054B054C064A1A
:106400004FF40065197220601860158030BC704729
:10641000680F002000120020140C014010B5082362
:1064200082B00DEB0302174802F8013D012101F093
:10643000E1FD144801F08EFD124801F0D0FD002866
:10644000FAD0104801F0CFFD0F4A00EB400000EBFE
:106450004013A2FB0312991A02EB51020B49120BD3
:10646000A1FB02410A48C908A0FB034301EB8101DB
:106470000848A2EB41021B0C3033303203708270AB
:1064800002B010BD0024014041000800CDCCCCCCAE
:106490006733D3CC6800002008B500224FF4805346
:1064A0000448022101F0E6FD034B4FF480521A80AC
:1064B00008BD00BF000C0140140C014008B50F4B93
:1064C0000F48196801F4005189B251B94FF4807333
:1064D000012201F0CFFDBDE808404FF4005002F06A
:1064E00055B84FF480730121002201F0C3FDBDE8CF
:1064F00008404FF4005002F049B800BF080C0140BA
:106500000008014038B5E021282002F0F1FE2820E3
:1065100002F0E0FE0E4D0F4B0F4A4FF400544FF4C3
:1065200080711C602846234611600222002101F080
:10653000A1FD2046294602F02FF82046022101F055
:10654000FDFF204602F018F8FFF7B8FF38BD00BF86
:10655000000C0140100C01401008014070B5D0F84B
:10656000845042EA03220E46044642F0B4422846D2
:106570000431FBF797FF083602E0E368984770B9EB
:1065800028463146FCF764F810F0010F2046F4D09D
:1065900028463146FCF75CF800F0060070BD4FF06D
:1065A000FF3070BD70B506460846184915461C46B2
:1065B00003F048FB80B906F47060B0F5106F11D09D
:1065C000B0F5206F1CD0B0F5E06F14D0B4B1A5F5D4
:1065D000002525600E4870BD84B1A5F580052560B5
:1065E0000B4870BD4FF420239D42EFD95CB1ED1AEA
:1065F0002560084870BD4FF41023F5E7044870BDCE
:106600004FF44023F0E7034870BD00BF8009010844
:10661000000A0E40000E0E4070B500220446616F65
:106620001346006ED4F88460FFF7BCFF05460D22C8
:10663000002329462046FFF791FF05F10C01304663
:10664000FCF706F801460248FEF744FA012070BD47
:106650008C090108F8B50446164600220D46006E66
:10666000616F1346FFF79EFF032D074604D00D48C8
:10667000FEF70EFA0020F8BD706802F06BFE0546CA
:10668000B06802F067FE0028ABB239460CBF0C229E
:106690000B222046FFF762FF2046FFF7BDFF0120D7
:1066A000F8BD00BF9C0901082DE9F0410646C2B0C3
:1066B0000F4601AB1546716F3A46006EFFF772FF49
:1066C000019CFF214FF48072804602A803F0B4F9C8
:1066D000394602AA776930464FF48073240AB847D6
:1066E0001DB910E0B5F580750DD0A3B23046414616
:1066F0000322FFF733FF01340028F3D04FF0FF30BF
:1067000042B0BDE8F081002042B0BDE8F08100BF9A
:106710002DE9F04F0F46C5B004461E46154603ABA3
:106720003A46006E616FFFF73DFF039B824603F11F
:10673000FF38B0444FEA18284FEA1329DAB2C145AE
:106740000392C2EB070B29D84F46009601E0B845EB
:1067500024D34F4529464FF4807204A822D04745E0
:1067600020D003F0F3F8009E05F58075A6F580763D
:106770000096594604AA4FF4807320466669B047D4
:106780000122BBB2204651461744FFF7E7FE00281E
:10679000DDD04FF0FF3045B0BDE8F08F002045B0B0
:1067A000BDE8F08FFF214FF4807204A803F044F994
:1067B0000398009EC0F580739E42B8BF334604AA7A
:1067C000F61A294610441A460193009603F0BEF8C3
:1067D000019B1D4400230393CBE700BF38B5D0F8DD
:1067E0008450044621492846FBF732FF204B2149BB
:1067F00003408B42206629D01F4A934226D0A2F53F
:106800000012934222D028461C49FBF721FF184B67
:106810001B4A03409342206609D002F5801293423E
:1068200005D0A2F50012934201D0002038BD154BCF
:1068300015481649164A60676166A26620462439E3
:10684000E366144A00F072FF012038BD0D4B124878
:1068500012490F4A60676166A266204601F58C7195
:10686000E3660F4A00F062FF012038BD40090E4088
:10687000E000F00F600050086000600840070E4024
:106880006000400911670008CC0901086808010888
:10689000A9660008D8090108800901082C07010829
:1068A000C409010838B5064C05462146054AFBF7E0
:1068B000F9FD28462146044ABDE83840FBF7F2BD01
:1068C0000420024023016745AB89EFCD38B5D0F8ED
:1068D000845004460D4928464FF40872FBF7E2FD48
:1068E00028460A494FF41872FBF7DCFD02E0E36822
:1068F000984748B928460649FBF7AAFE10F0010F51
:106900002046F4D1012038BD002038BD10200240BF
:106910000C20024038B5D0F8845004462846FFF7D2
:10692000C1FF284610490422FBF7BCFD28460E494A
:106930004422FBF7B7FD02E0E368984790B9284688
:106940000A49FBF785FE10F0010F2046F4D12846D6
:106950000649FBF77DFE00F03400B0F120035842F9
:10696000584138BD002038BD102002400C200240A4
:106970002DE9F041013AD0F88460C3F10008D51840
:1069800005EA0805044630461F4608EA0108FFF7F5
:1069900089FF25B3ED1B304617490222FBF782FD24
:1069A000304642461549FBF77DFD304612494222EA
:1069B000FBF778FD02E0E368984760B9304610497C
:1069C000FBF746FE10F0010F2046F4D1B844EB1B54
:1069D0002DB11D46DFE74FF0FF30BDE8F0813046B6
:1069E0000749FBF735FE00F03400203818BF6FF080
:1069F0000000BDE8F08100BF1020024014200240DA
:106A00000C2002404FF40063FFF7B2BF4FF48063E5
:106A1000FFF7AEBFF8B54FF6FF739A42044616462D
:106A20000F46D0F8845016D028460D494FF4047212
:106A3000FBF738FD284639463246FBF749FD02E0B0
:106A4000E368984748B928460649FBF701FE10F06D
:106A5000010F2046F4D10120F8BD0020F8BD00BF91
:106A6000102002400C2002402DE9F043036E85B057
:106A7000A3F222431E2B04460F469046D0F88460B2
:106A800041D8012202FA03F3594945F6A5291940D4
:106A900045F2AA53002918BF994656493046FBF7DC
:106AA000D7FD00F002053046FFF7FCFE30465249A4
:106AB000524AFBF7F7FC30464F49514AFBF7F2FCCC
:106AC000022F23D05DBB032F33D04E48FDF7E0FFEC
:106AD0004D48FDF7DDFF4D4C4D4F21463046FBF74D
:106AE000B7FD214682B205464A48FDF7F3FFA11CD7
:106AF0002A0C48480434FDF7EDFFBC42EDD10120DB
:106B000005B0BDE8F08345F6A529C6E7D8F804002E
:106B1000414903F097F8002861D0002DD5D03F48B7
:106B2000FDF7B6FF3E48FDF7B3FF012005B0BDE815
:106B3000F083D8F8040029462A4603F021FB2946B1
:106B400007462A46D8F8080003F01AFB07F1604808
:106B500008F500684FEA5808B8F1070F8146D4F8E5
:106B60008470B8D805F10051A1F500613846FBF7F3
:106B70006FFD6B1004AA043502EB4301102D4FEAA0
:106B8000104221F8100C21F80E2CEBD14FEA4808E6
:106B900004AB434433F8103C1FFA89F999459AD065
:106BA0004FF6FF72934204D02046FFF78FFE002875
:106BB00091D004AB9844154D28F8109CADF1020714
:106BC0000DF10E082946204637F8022FFFF722FF65
:106BD000023500283FF47FAF4745F3D17BE72046DD
:106BE000FFF774FE20464A460849FFF713FF72E795
:106BF000010001401C20024008200240230167459B
:106C0000AB89EFCDB80C0108D80C010800F8FF1FC4
:106C100010F8FF1F000D0108580C0108600C010856
:106C20007C0C01082DE9F04703F1030C01F0030689
:106C3000B4444FEA9C0CBCF5807F00AF0446D0F80A
:106C400084804AD80CF102094FEA890909F10A0047
:106C500020F00700ADEB000D02A8C6EB010E0CF111
:106C6000010C114630441A46A9F1080A4FF0FF33CF
:106C7000CDF800E00293CDF804A04DF82C3002F0DE
:106C800065FE4FF00051174A2C2366692046B04735
:106C90006A464B46144965692046A847636B2046FF
:106CA0004FF000519847E36820469847A8B901463D
:106CB000636C20469847236C204698470028FAD0FA
:106CC00040460A49FBF7C4FC10F0140F0CBF00202B
:106CD0006FF00000BD46BDE8F0874FF0FF30BD46C5
:106CE000BDE8F087700000202C0000200C2002403E
:106CF00010B543490446D0F88400FBF7A9FCC0F363
:106D00000B00A0F582632066222B44D8DFE803F055
:106D100033433343234343432343434343434343A3
:106D20003343124343434343234343434343434394
:106D3000434312003349344B344AA1F1E000616708
:106D40006066A2662046A1F58E71E366304A00F0C7
:106D5000EDFC012010BD2F492B4B2C4A01F11800EE
:106D600061676066A26620462439E3662A4A00F01D
:106D7000DDFC012010BD2949234B294A01F11800EF
:106D800061676066A2662046F431E366254A00F03A
:106D9000CDFC012010BDD4F884002349FBF758FC3A
:106DA000C0F30B03A3F58862082A23661FD80121CC
:106DB00001FA02F240F211101040C8B140F2444210
:106DC000934219D0B3F5896F13D0B3F5886F01D111
:106DD000164B63670C4B1649114A6166A266204642
:106DE000DC31E366134A00F0A1FC012010BD002055
:106DF00010BD114B6367EDE7104B6367EAE700BF17
:106E0000002004E0280C0108256C0008056A000831
:106E1000280D0108300B01081C0D0108180A010893
:106E20000D6A0008100D010800580140400C0108CF
:106E3000300A0108300D01084C0C0108340C01081F
:106E400070B5D0F8845004460E4628461D491E4AA7
:106E5000FBF728FB28461B491C4AFBF723FB02E0F3
:106E6000E368984750BB28461949FBF7F1FB10F43B
:106E7000803F2046F4D126F0704626F013063246B5
:106E800028461449FBF70EFB284646F0020211493A
:106E9000FBF708FB02E0E368984788B928460C49ED
:106EA000FBF7D6FB10F4803F2046F4D1284646F08D
:106EB00001020849FBF7F6FA012070BD012070BD00
:106EC000002070BD083C02403B2A19087F6E5D4CD3
:106ED0000C3C0240143C0240022970B5054616469F
:106EE000D0F8844020D0032904D15068194902F019
:106EF000A9FE20B31848FDF7CBFD1848FDF7C8FDE3
:106F000020461749FBF7A4FB154982B21548FDF747
:106F1000E1FD20461449FBF79BFB134982B211485F
:106F2000FDF7D8FD012070BD5068104902F08AFEBF
:106F30000028DFD128460E49FFF782FFE0E701462F
:106F40000A46B06803F0C0F901462846FFF778FF0B
:106F5000D6E700BFF0100108B80C0108F8100108CE
:106F600000C0FF1F000D010808C0FF1F580C0108DA
:106F7000EDAAFF0F2DE9F04703F1030C01F0030622
:106F8000B4444FEA9C0C0CF102084FEA88088E4684
:106F900008F10A0121F0070100AFADEB010DC6EBCE
:106FA0000E0E11460DF108091A464FF0FF3AA8F1EE
:106FB00008030446CDF800E00CF1010C019309EB45
:106FC0000600CDF808A0D4F884904DF82CA002F06B
:106FD000BDFC4FF00051164A302320466669B04789
:106FE0006A464346134965692046A847636B2046B5
:106FF0004FF000519847E36820469847A8B90146EA
:10700000636C20469847236C204698470028FAD0A6
:1070100048460949FBF71CFB10F0F20F0CBF00209B
:107020006FF00000BD46BDE8F0875046FAE700BFAC
:107030009C000020300000200C3C024010B50949A3
:107040000446FBF705FB002800DB10BD204606497F
:10705000064AFBF727FA20460349054ABDE81040D7
:10706000FBF720BA103C0240043C02402301674574
:10707000AB89EFCD70B5234B82B0D0F88460054664
:1070800093E80300009020488DF80410FDF700FD00
:107090003046FFF7D3FF30461C490422FBF702FAC3
:1070A00030461A491A4AFBF7FDF9002407E013F8A5
:1070B000081CFDF70FFDEB6828469847D8B9304605
:1070C0001449FBF7C5FA04F0030302AA10F4803F49
:1070D0001344114804F10104E9D11048FDF7D8FC2C
:1070E00030460C49FBF7B4FA00F0F300431E584257
:1070F000584102B070BD0948FDF7CAFC002002B03B
:1071000070BD00BF5411010820110108103C02405D
:10711000040001000C3C024050110108FCE700088B
:107120002DE9F843D0F884502B4E0446904628466B
:107130000E40FFF783FFB8F1000F24D0B6F5803F73
:107140002DD2F30A254F43F0407242F002021F4352
:107150004FF4804928462249FBF7A4F928463A46CD
:107160001F49FBF79FF902E0E368984750BB2846A8
:107170001C49FBF76DFA10F4803F2046F4D1B8EBC0
:1071800009084E44DAD128461649FBF761FA10F097
:10719000F20F0CBF00206FF00000BDE8F883B6F5D9
:1071A000003F13D3B6F5801F0CD2A6F500339B0B1E
:1071B00028330A4F43F0407242F002021F434FF45B
:1071C0000039C7E74FF0FF30BDE8F883064F074AA4
:1071D0004FF48039BEE700BF00C0FF070200010383
:1071E000103C02400C3C024022000103220000033C
:1071F00038B513490446D0F88400FBF729FA6FF438
:107200008263C0F30B00C318122B06D8012505FAC0
:1072100003F30C48184010B938BD002038BD0A49A6
:107220000A4B0B4A01F10C0061676066A2662046BA
:1072300001F55D71E366074A00F078FA284638BD2B
:10724000002004E005010400580D0108756F0008D6
:10725000217100085C1101082DE9F04F984611F0EA
:10726000030383B004460D469146D0F8846017D0DE
:10727000C3F10407002202A8474528BF474640F84B
:10728000042D494618443A4602F060FB25F00301FC
:107290003046019AFBF706F9C7EB0808B9443D44AC
:1072A00015F07F0A23D0B8F1030F10DCB8F1000FFE
:1072B00033D130463A49FBF7CBF941F6027303402C
:1072C000981E18BF6FF0000003B0BDE8F08FCAF140
:1072D000800AC24588BF28F0030A29464A466769E2
:1072E00020465346B847CAEB08085544D144B8F184
:1072F000800F20DCB8F1030FD8DD28F00307294602
:107300004A463B46D4F814C0204608F00308E0473C
:107310003D44B944B8F1000FCBD0002302A8494640
:10732000424640F8043D02F011FB30462946019ADE
:10733000FBF7B8F8BDE730461A494FF48162FBF716
:10734000B1F802E0E368984720BB30461449FBF7E8
:107350007FF910F0010A2046F4D128F07F0B29466E
:107360004A465B466769B847304652460D49FBF7C7
:1073700099F802E0E368984760B930460849FBF79E
:1073800067F910F0010F2046F4D1D9445D4408F0AC
:107390007F08AFE74FF0FF3003B0BDE8F08F00BFCC
:1073A000183C0240043C0240F8B5D0F88450044632
:1073B0000E46284617462449244AFBF773F8284608
:1073C0002149234AFBF76EF828462249224AFBF757
:1073D00069F828461F49214AFBF764F828462049E6
:1073E0004FF40272FBF75EF802E0E368984740BB97
:1073F00028461C49FBF72CF910F0010F2046F4D168
:1074000037F0FF0418BF26F0FF0609D031462846A2
:107410000022FBF747F8B4F5807406F58076F5D1C5
:10742000284600220E49FBF73DF828460D49FBF798
:107430000FF941F602730340981E18BF6FF0000069
:10744000F8BD4FF0FF30F8BD0C3C0240EFCDAB89EA
:1074500005040302103C0240BFAE9D8C16151413A8
:10746000043C0240183C024010B510490446D0F8D4
:107470008400FBF7EDF840F22743C0F30B0098427D
:1074800009D040F23643984205D040F21643984264
:1074900001D0002010BD064B0649074A03F10C003D
:1074A00060666367A166E266012010BD002004E00B
:1074B00064110108A97300085972000810B5104B37
:1074C0001A7882420ED0187068B90E4C0E492023EB
:1074D000236002460B800D4803211023BDE81040B5
:1074E00000F0C8BD10BD002101221023074800F0A4
:1074F000C1FD0449044A20230B60138010BD00BF66
:10750000740F0020100801401408014000080140D9
:1075100038B50020FFF7D2FF054D2021054A0C4663
:1075200032231020013B106011602C80FAD138BD4D
:107530001408014010080140F8B504460120FFF787
:10754000BDFF631EA4B12024DFF830C0094F0A4EEE
:10755000254600200122DCF80010013BC90648BF87
:107560001043591C3D604FEA42023480F3D1F8BD0C
:107570002046F8BD100801401408014008080140E9
:107580002DE9F04100260C46066005460120FFF774
:1075900095FF631E44B32021DFF85480DFF854C008
:1075A000124F304601220E46D8F80040013BE40657
:1075B000CCF80060398005D52C6880F001001443B8
:1075C000C0B22C605C1C4FEA4202EDD1084B094C62
:1075D0001A680649202323600B80D30644BF80F03D
:1075E0000100C0B2BDE8F0812046EFE71408014079
:1075F000080801401008014070B50D4604460020FF
:10760000FFF75CFF6B1E95B120200949094A064629
:10761000102514F0010F03F1FF3314BF15600D8026
:10762000B3F1FF3F16604FEA54040880F1D170BDFA
:10763000140801401008014008B5FFF769FF4EF239
:107640009E701021FFF7D8FFFFF762FF0020102186
:10765000FFF7D2FF002008BDF8B50D460446002014
:10766000FFF72CFF6B1ED5B12026134D1348B446EF
:1076700000211027E2B212F0010F03F1FF3314BF13
:1076800007602F80B3F1FF3FC0F800C081EA02011C
:107690002E804FEA5404094AECD1CB0708D4064B9C
:1076A00010221A800549044A20230B601380F8BD7C
:1076B00010231360F6E700BF1408014010080140D2
:1076C000014608B5012001F049FE034A1168106027
:1076D000C0F8801008BD00BF780F0020F8B5124D2B
:1076E000286800B32F460368D0F8806003B198473C
:1076F0002B68D3F88400A0B1D3F888309847386855
:10770000836F43B118469C6801F07CFE28682346CD
:107710008467002CF6D101F075FE2E601EB1304654
:10772000E1E71846ECE7F8BD780F0020F8B5846F64
:1077300005460E4617460CB90CE01C46A368002B04
:10774000FBD10C2001F056FEA060002207604660CD
:107750008260F8BD0C2001F04DFEA867F5E700BF80
:1077600038B5036804460D4603B198472560636841
:1077700020469847002814BF2046002038BD00BF8F
:10778000F0B5314A314B87B00446002511600093B3
:1077900001210222402300F077FF2046009581213D
:1077A0000222402300F070FF204600958221032230
:1077B000102300F069FF264B20460093032102228C
:1077C000402300F061FF234B2046009383210222D7
:1077D000402300F059FF2046009584210322102306
:1077E00000F052FF1C4B20460093852102224023CB
:1077F00000F04AFF204621217F22184B01F01BF8A0
:1078000002264FF0A10C4FF0200E03AA20460327BA
:1078100082210A238DF80CC08DF80DE0ADF80E50D2
:10782000ADF810508DF81550ADF812608DF8147049
:1078300000F049FF204603AA84210A23ADF8106016
:1078400000F041FF07B0F0BD7C0F0020B93E0008FA
:10785000157E0008617E0008D57A0008617800086E
:1078600038B54878222827D8DFE800F028262623D4
:1078700026262626262626262626262626262626A8
:1078800026262626262626262626262616261200E2
:107890008B88DBB1012038BD1B88062B0CD98B8867
:1078A000002BF7D0022B07D1106800F069FA0120F5
:1078B00038BD8988042910D0002038BD8B88042B5E
:1078C000FAD10E4B049A0120136038BD4A880C4B44
:1078D00002F001021A60012038BD10680021017019
:1078E00010680625417014680120A1701468E170C9
:1078F00014682171126851711D8038BD0579000826
:10790000CC000020002108B50A4604484FF48073DB
:1079100000F0B0FBFEF7C0FD01F0D4FC0008014010
:10792000014B1868704700BF7C0F0020014B18689E
:10793000704700BFCC00002030B5214A2149224BBE
:10794000126808681B681044204A184485B0002358
:1079500020FA03F1043301F00F013031202B02F83B
:10796000011DF5D11A4C234604F1080113F8012B2F
:10797000392A84BF073203F8012C8B42F6D115490E
:10798000154A07204FF480730192009001F1140210
:1079900002930025114B1248257200F04DFE114B49
:1079A0001149186001F096F92021432001F0A0FC54
:1079B000432001F08FFC05B0BDE83040FEF7A2BDCA
:1079C000E8F7FF1FECF7FF1FF0F7FF1F741300200D
:1079D0006C1300204C1201086C120020D000002013
:1079E000C81401086812002081770008014B18684C
:1079F00000F044BE6812002010B51E4C02211E4843
:107A000000F077FD204600F079FC2046002101229D
:107A100000F0D4FC012120460A4600F0CFFC0021F2
:107A200020460A4600F054FC01210A46204600F098
:107A30004FFC2046502100F002FD2046042100F0BA
:107A4000F6FC00211D2001F053FC1D2001F042FC3A
:107A50002046022100F092FC2046002100F0DFFCCD
:107A60002046012100F0DBFC2046BDE8104000F07C
:107A70009CBC00BF000400401C1002402DE9F041F6
:107A8000124F0C4602468BB206468521386800F03C
:107A90001AFEA0420ED00E4D2B7803EB0408B8F16D
:107AA000400F09DC281D31462246184401F04EFFE4
:107AB00085F80080BDE8F08138688521012200F05A
:107AC0000EFE00232B70BDE8F08100BF681200207D
:107AD000800F002010B5044C237823B1221D00F044
