:020000040800F2
:1000000000500020511500084D1500084B15000840
:100010004B1500084B1500084B15000800000000A8
:100020000000000000000000000000004D15000866
:100030004D150008000000004D150008590100088A
:100040004B1500084B1500084B1500084B15000810
:100050004B1500084B1500084B1500084B15000800
:100060004B1500084B1500084B1500084B150008F0
:100070004B1500084B1500084B1500084B150008E0
:100080004B1500084B1500084B1500084B150008D0
:100090004B1500084B1500084B1500084B150008C0
:1000A0004B1500084B1500084B1500084B150008B0
:1000B0004B1500084B1500084B1500084B150008A0
:1000C0004B1500084B1500084B1500084B15000890
:1000D0004B1500084B1500084B1500084B15000880
:1000E0004B1500084B1500084B1500084B15000870
:1000F0004B1500084B1500084B1500084B15000860
:100100004B1500084B1500084B1500084B1500084F
:100110004B1500084B1500084B1500084B1500083F
:100120004B1500084B1500084B1500084B1500082F
:100130004B1500084B1500084B1500084B1500081F
:100140004B1500084B1500084B1500084B1500080F
:1001500008B501F061FA00BF02484FF4006100F0F9
:10016000ACBB00BF000C014008B52848082100F0D6
:10017000ACFB27484FF4805100F09CFB08B100F025
:10018000D5F9002000F0C2F900F050FB002001F08A
:1001900027FA204801F01CFA1C48042100F095FBC6
:1001A0001D484FF4805100F090FB00210A461B4887
:1001B0004FF4807300F054FA01F01EFA01F024FAB3
:1001C0001348022100224FF4406300F049FA012253
:1001D00004230F48002100F043FA1148002100F0E9
:1001E00009F90E484FF4807100F062FB00224FF4D1
:1001F00080730A48022100F033FA08484FF48071F6
:1002000000F056FB00F054F9002008BD1810024021
:10021000000C0140A0BB0D0014100240000801407A
:10022000CC180008F8B5234C2378042B06D0072BF4
:1002300003D1BDE8F840FFF78BBFF8BD1E4D064661
:1002400000F052FBB5F808384BBBEB782F796A7891
:100250001B041A4903EB0763AF7813440A6803EBE6
:100260000727974212D3D5F80C389F420ED22B782D
:10027000212B04D0412B04D1384600F021F9C5F8D8
:10028000047800F043FB05232370F8BD00F03EFB2B
:100290003046BDE8F8400021012200F0C4BBD5F88B
:1002A0000408023B00EBC3202946B5F8002800F003
:1002B00017F9E6E7040000203400002000000020C9
:1002C000087800F07F00212801D0002070472DE938
:1002D000F0414878984601381446052804D8DFE8EC
:1002E00000F00603241D13470020BDE8F081B8F19B
:1002F000000F03D0B8F80020002A5AD13A4B06224A
:100300001A700120BDE8F081374A21681078012277
:1003100008701046A8F80020BDE8F081324B1A782A
:100320000A2A26D00120BDE8F0812F4D16682A78D0
:10033000032A21D0062A52D100210F468E460722D9
:100340002A70002535702068284E80F801E020686A
:10035000069B877027684FF0060EF9702168012010
:100360000A7122685571A8F800E01E60BDE8F081AE
:100370001D4B02221A70D5E71D4A4FF0040CD778A6
:10038000107992F801E03F04917807EB0060704427
:1003900000EB01211078B2F8082885F800C000F0C1
:1003A000B3F82A785FFA80FEC0F30727C0F307414D
:1003B000C7E78A78C9780E4842EA0122A0F80828DF
:1003C000B8F800202168A0F80028B8F8002001F053
:1003D0002BF9054B03221A700120BDE8F0810021A2
:1003E0000F468E46ADE700BF04000020250200083E
:1003F00034000020F0B5234B234C0F462349244AF8
:1004000009681B682568234E12680D449B0285B05D
:100410001544C6F80C3806F61804002125FA01F236
:1004200002F00F0204313032202904F8012DF5D1F9
:10043000194A02F1080312F8011F392984BF073154
:1004400011709A42F7D1154B1549164A03F1100E57
:1004500004254FF40064002F18BF734601920294E4
:1004600001F114020095002486F8184800F082FA81
:100470000D4C0E4B21217F22206005B0BDE8F040DD
:1004800000F070BBE0F7FF1FECF7FF1FE8F7FF1F5E
:10049000F0F7FF1F34000020430800200800002070
:1004A000701700084809002044090020C102000814
:1004B00008B5024C206800F081FAFBE744090020EF
:1004C00038B5064D20F47F742B6824F003049C4259
:1004D00003D0204600F088F82C6038BD28000020AA
:1004E000002A0FDD70B50C46531E23F001030233C2
:1004F000CD18461A301934F8021B00F045F8AC420A
:10050000F8D170BD704700BF64207047012800D04B
:10051000704708B500F0E8F9034B00221A60BDE807
:10052000084000F00DBA00BF1020024009490A4BF4
:100530000A6810680340B3F1005F00D07047074BB2
:10054000C2F314021A600B681A6882F308885B68A9
:10055000184700BF000000200000FE2F08ED00E05B
:10056000064B1868064B1B68B3F5007F82BF054B2E
:100570001B68184300F03500704700BF0C20024094
:10058000E0F7FF1F4C20024038B504460D4600F04E
:10059000C5F9114B1B68B3F5007F04D90F4B9C4282
:1005A00001D90F4A00E00F4A136843F001031360BA
:1005B000258000F0B3F9084B1B68B3F5007F04D920
:1005C000064B9C4201D9064A00E0064A136823F014
:1005D0000103136038BD00BFE0F7FF1FFFFF0708EE
:1005E000502002401020024010B5044600F096F959
:1005F000154B1B68B3F5007F09D9144B9C4206D9F3
:10060000134B1A6842F002021A60124A05E0124BBC
:100610001A6842F002021A60104A14601A6842F026
:1006200040021A6000F07AF9074B1B68B3F5007FAF
:1006300004D9064B9C4201D9054A00E0064A1368DA
:1006400023F00203136010BDE0F7FF1FFFFF070850
:10065000502002405420024010200240142002404A
:100660002DE9F0414FF6E07796469C4602684368D4
:1006700000254CFA05F4E4071BD5072DACB28BBF5F
:100680003C4616461E46A40098BFA4B24FF00F0881
:1006900008FA04F826EA080604F102080EFA08F837
:1006A00001FA04F448EA04043443082D2CBF23461D
:1006B000224601350437102DBFB2DAD10260436003
:1006C000BDE8F081024A136843F0807313607047FD
:1006D00000100240062827D8DFE800F004090E13B6
:1006E000181D2200114B1B689901FBD570470F4B59
:1006F0001B681A01FBD570470C4B1B689B00FBD590
:1007000070470A4B1B689803FBD57047074B1B6863
:100710009907FBD57047064B1B689A07FBD57047B6
:10072000044B1B689B07FBD5704700BF00100240BD
:10073000201002402410024006281FD8DFE800F0F5
:1007400004060B1015171900FFF7BCBF0C4A1368FD
:1007500043F0806311E00A4A136843F080530CE0D1
:10076000074A136843F4803307E0054A02E0054A6C
:1007700000E0054A136843F001031360704700BFAF
:10078000001002402010024024100240034A136867
:1007900023F0030318431060704700BF04100240A9
:1007A000034A136823F4701343EA804010607047D3
:1007B00004100240034A136823F4803343EA0040E4
:1007C0001060704704100240034A136823F400339A
:1007D00043EA40401060704704100240034A136827
:1007E00023F4404343EA8030106070470410024015
:1007F000034A136823F4605343EAC0201060704733
:1008000004100240034A136823F4E06343EA002023
:100810001060704704100240034A136823F0F0038D
:1008200043EA0010106070470410024008B504202D
:10083000FFF782FF0420FFF74DFF0020FFF7A6FF20
:100840000320FFF779FF0320FFF744FF0120FFF7A4
:100850009DFF0020FFF7E0FF0320FFF7BFFF04200C
:10086000FFF7D0FF0020FFF7C3FF022000F032F8AF
:100870000720FFF795FF0120FFF79CFF0020FFF7FF
:10088000A3FFFFF71FFF0020FFF724FF0220FFF761
:100890007DFF034A034B1A60034A044B1A6008BDEC
:1008A000005125022C00002000A24A043000002044
:1008B00001617047806808407047C26821EA0203FE
:1008C000114043EA01410161704703681943016027
:1008D00070470000034A136823F0070318431060B1
:1008E000704700BF00200240054A136843F08003B0
:1008F0001360044B044A1A6002F188321A60704790
:10090000102002400420024023016745024A136878
:1009100043F08003136070471020024008B5FFF7D2
:100920001FFEC307FBD408BD034B044A1A6002F143
:1009300088321A60704700BF0820024023016745D3
:1009400010B50B4CFFF7EAFF23689B0501D4FFF7B6
:10095000EBFF236843F020032360236843F0400348
:100960002360FFF7DBFF236823F02003236010BD23
:10097000102002402DE9F0411E46036805468846D6
:1009800017469847069BC0F8D450C360079BC0F831
:1009900000800361BDF8203047608382044B86608D
:1009A000C366044B8366044B4366BDE8F08100BF19
:1009B0008B0B0008E50B00086B0C0008D0F8D43056
:1009C0005B6A184710B5D0F8D440A468A446BDE8C7
:1009D0001040604737B5054600248475C47521462C
:1009E000224640230094FFF7EDFFD5F8D430284687
:1009F0005B6821469847EB691BB103B0BDE8304006
:100A0000184703B030BD10B5D0F8D440E469A4460F
:100A1000BDE81040604710B5D0F8D440246AA44621
:100A2000BDE810406047D0F8D4301B691847D0F8B3
:100A3000D4309B69184710B5044600210122FFF706
:100A4000F2FF002384F82C3010BD38B50368828F84
:100A5000C58EDB79AD1A9D42A8BF1D46836BADB232
:100A60001A4400212B460446FFF7D5FFA84205D0C3
:100A70002046FFF7E0FF4FF0FF3038BDA38F03445F
:100A8000A38738BD38B503680446DD79838F00211C
:100A90009D42826B0FD22B46FFF7B5FF02232268DF
:100AA00084F82C30D379A16B0B44A363D279A38F44
:100AB0009B1AA38738BDFFF7A6FF032384F82C30C9
:100AC0000023A387A36338BD2DE9F34104460E46F6
:100AD00000F1440500F164082F6857B920463146FB
:100AE00004F1380204F13C0302B0BDE8F04100F02B
:100AF000CBBA697933782A790B409A420BD104F149
:100B0000400300932046314604F1380204F13C03CF
:100B1000B847012803D908354545DDD1DEE702B0E5
:100B2000BDE8F08110B50369044683638B79CA7907
:100B300043EA02238387FFF7C7FF70B1A18F2046E6
:100B400019B1BDE81040FFF79DBF0B460A46FFF7FD
:100B50005AFF042384F82C3010BD2046BDE8104015
:100B6000FFF769BF70B5002600EBC6056C6C2CB1B1
:100B70000136042EF8D14FF0FF3070BD85F84810D3
:100B800085F849206B64204670BD70B500F13006D1
:100B9000002505642946324608230446FFF73BFF3B
:100BA000082804D02046BDE87040FFF744BFE38E1C
:100BB0001BB194F93020002A05DA20463146BDE801
:100BC0007040FFF7AFBFA28A9A42EBD32269A58794
:100BD000A2632268D2799A4234BF0523062384F89F
:100BE0002C3070BD90F82C3010B5062B044610D078
:100BF000072B24D0052B33D1FFF727FF002833DB49
:100C0000A28FE38E9B1A2268D27993422CDC0623B2
:100C100010E0FFF71AFF002826DB204604F1300120
:100C2000FFF752FF48B100210B4620460A46FFF766
:100C3000EAFE042384F82C3010BD204610E0002189
:100C40000B460A46FFF7E7FE002384F82C30236C9E
:100C50001BB1204604F1300198470023236410BDE6
:100C6000BDE81040FFF7E7BE10BD90F82C3010B57E
:100C7000032B044607D0042B07D0022B1CD1BDE860
:100C80001040FFF7FFBE072313E0036C13B100F120
:100C90003001984794F8303053B994F83130052B2F
:100CA00006D1D4F8D430618E5B682046C9B298472B
:100CB000002384F82C3010BDBDE81040FFF7BBBE08
:100CC0001988012984BF012119801368C27D012080
:100CD0001A7070474A8812B91A80012070470020A4
:100CE000704701201880136800221A707047198815
:100CF0000120022984BF02211980116800230B7092
:100D000012685370704719880120022984BF02219C
:100D10001980116800230B7012685370704738B542
:100D200014461A882568022A84BF02221A808988FC
:100D3000C9B2FFF77CFE003018BF0120287023687D
:100D400000225A70012038BD08B589880122C9B235
:100D5000FFF769FE012008BD08B589880022C9B2E5
:100D6000FFF761FE012008BD10B50B786BB94C8808
:100D70007F2C0AD8D0F8D430847593F8302032B163
:100D800049885B68C9B2984701E0002010BD012086
:100D900010BDF8B54B88C27D04469A420E4615D068
:100DA000C375D0F8D43004F1C005DB689847002340
:100DB0006364E3646365E36504F1D00755F8043FB9
:100DC00013B1204671889847BD42F7D10120F8BD84
:100DD0002DE9F04F0546488889B0C7B2000A0228BD
:100DE0001646984611D0032800F0CB80012840F029
:100DF00008812B6813602B68B8F800201B78934299
:100E000028BF1346A8F80030FCE02B69B8F8004072
:100E1000136001930D235F43D5F80490019819F8EE
:100E2000075009EB0703A54228BF254619462A4665
:100E3000029300F0F9FB019B641B19F807905E19FF
:100E4000A4B200230493029B1A79BDF810309A4291
:100E500040F291800C2253430393029B039AD3F8F0
:100E600009301344D3F804A0BAF1000F13D09AF854
:100E700000703046A74228BF274651463A4600F048
:100E8000D3FB9AF80030E41B3D4499443E44A4B29D
:100E9000ADB21FFA89F94FF0000C029B0398D3F80A
:100EA0000920039BD11812581FFA8CF393425FDA82
:100EB0004FF0150B0BFB03FB8B68304613F80B70E0
:100EC00003EB0B0AA74228BF274651463A46CDF806
:100ED00018C03E440593E41B00F0A6FB2F44DAF84B
:100EE0001150A4B2A542A8BF2546059BADB230461D
:100EF0002A46DAF80D1013F80BB000F095FBDAF87B
:100F00001130BFB29B44641B2E44D9443D44DDF8EC
:100F100018C0A4B2ADB21FFA89F900277B1C059353
:100F20009AF80430BFB2BB421FD9CDF81CC0DAF822
:100F30000930C7EBC70713F807B0D919A34528BF75
:100F4000A34630465A46069300F06EFB069BCBEB59
:100F50000404DB5D5D4499445E44A4B2ADB21FFA63
:100F600089F9059FDDF81CC0D8E70CF1010C94E766
:100F7000049B013366E7019BA3F80290A8F8005098
:100F80003DE02C6967B90923A3700423E370237043
:100F9000B8F80030042B28BF0423A8F800302BE059
:100FA000A868013F70B3EB689F422ADA40F2094318
:100FB0008A889A4225D150F8270000F0ABFB013017
:100FC0004000C0B22070B8F800304FEA870998425C
:100FD00028BF18460022A8F80000B8F800305B08C7
:100FE000013B9A4208DAAB6853F80930995C04EB8C
:100FF000420359800132F0E703236370346001201B
:1010000000E0002009B0BDE8F08F000030B54C785A
:10101000092C07D8044D55F824401CB1A446BDE85E
:1010200030406047002030BD7418000830B54C785F
:101030000B2C07D8044D55F824401CB1A446BDE83C
:1010400030406047002030BD9C18000810B54C7837
:10105000012C03D00AD3032C04D00CE04C8854B9E3
:10106000064C04E04C8834B9054C00E0054CA4461D
:10107000BDE810406047002010BD00BF590D0008BA
:10108000490D00081F0D000810B50C7814F0600F12
:1010900012D104F01F04012C0AD005D3022C0BD16D
:1010A000BDE81040FFF7D2BFBDE81040FFF7AEBF6C
:1010B000BDE81040FFF7BABF002010BD1E4B022252
:1010C0001A601E4A136843F080031360D36A43F426
:1010D0001023D3621A4B1A68002AFBDA1A6842F00E
:1010E00001021A601A6812F00102FBD11349154877
:1010F0000B6843F0804343F470530B60D1F8F4372E
:1011000043F00303C1F8F4370F4B1A600F4A8023F2
:101110001360A0F8D83052F81C3C43F0010342F8A9
:101120001C3C0B4B0B4A1A600F22C3F80428012207
:10113000C3F8F827704700BF140000500C0000509F
:101140001000005050080020000E005024000050F5
:101150001800005018280480D0F8D430DA6AD2F889
:10116000003823F4FE6343EA0111C2F80018704707
:101170002DE9F04711F07F06089FD0F8D4E003F086
:101180007F0441D13F2BDEF82C2002D9C2F8006940
:1011900009E01F2B01D9012103E00F2B8CBF022195
:1011A0000321C2F80019DEF82C20A1B2C2F81019F0
:1011B000DEF82C4041F00051D4F8002941F4002120
:1011C00042F00842C4F80029DEF82C20C0F8E010F4
:1011D000C2F8101BDEF82C109B08D1F8002B42F04F
:1011E0000842C1F8002BBEF83210DEF82C2041EA8C
:1011F00003419162B0F8D8100B449BB2A0F8D830EC
:10120000A0F8DA30BDE8F08711F0800F4FEA824590
:101210004FEA46112BD0B0F8D8C0DEF82C204FEAA8
:1012200093094CEA094A06F1400842F828A0DEF882
:101230002C20A4B202F51162CC44A0F8D8C05450BE
:10124000DEF82C4045F0184201F5106142F40042EE
:1012500051F804E01A4342EA86524EEA02020A5169
:101260002FB30C2303FB06004766BDE8F08744F468
:10127000002406F1380240F82240DEF82C2002F566
:1012800031625450DEF82C2001F5306145F01444F1
:1012900051F802E044F4004423434EEA03038B5028
:1012A0002FB10C2303FB06008766BDE8F087BDE87D
:1012B000F087B0F8DA30A0F8D830704710B5D0F821
:1012C000D43051B9DC6AD4F8000912B140F40010EE
:1012D00001E020F40010C4F80009080646BF01F040
:1012E0007F0148315831490122B1DA6A8B5843F401
:1012F000001308E0D86A0A5822F400120A50DA6A89
:101300008B5843F080538B5010BD11F0800FD0F8F4
:10131000D4301ABF01F07F0148315831DB6A4901EE
:10132000C858C0F3405070470B0611D443185831C9
:1013300083F8DC204901D0F8D43022B1DA6A8B5826
:1013400043F0006303E0DA6A8B5843F080638B500C
:10135000704770B5D0F8D45001F07F01E86A4C01B5
:1013600000F51160065936031AD443F400260651DD
:10137000EE6A04F51064A059013140F00440A05118
:10138000E86A00EB013110461C1A14448D1A002C37
:10139000054403DD50F8044B2C60F5E7184670BD9A
:1013A000002070BDF7B50C46B0F8F01017468B4220
:1013B00028BF0B461E46C91AD0F8D430621CDB6A1F
:1013C0000546A0F8F01003EB023338463246D91B2D
:1013D000032A014404DD0968043A40F8041BF6E7D7
:1013E0002AB10B6802A941F8043D00F01DF9D5F8B7
:1013F000D41004F13800CB6A55F82000620103F5DF
:10140000316398502C4494F8DC00C96A02F53062CC
:101410000028535814BF4FF008404FF004400343D6
:101420003046535003B0F0BDD0F8D420F8B5D36A9D
:1014300004465E69B50409D54FF400515961538ED5
:10144000A0F8D830BDE8F840FFF7C4BAF00631D5AF
:101450001B6A03F4B012B2F5802F67D103F4F012C7
:10146000B2F5402F03F00F05C3F30A13A4F8F030D0
:101470000CBF022201224FF47A7300BF013BFCD162
:1014800005EB4503134404EB83035B6E13B1204665
:10149000294698470135B4F8F0202D0300239342E4
:1014A00005DAD4F8D4100433C96A6958F7E7002381
:1014B000A4F8F0300025D4F8D4306F01DB6A03F6CD
:1014C0000813DB59D9070ED50C2303FB05435B6ECC
:1014D00013B12046E9B29847D4F8D4300122DB6A30
:1014E00003F60813DA510135042DE4D1320508D58D
:1014F000236A03B19847D4F8D4304FF40062DB6A12
:101500005A61002E08DA636A03B19847D4F8D430E0
:101510004FF00042DB6A5A61330707D5A36A03B173
:101520009847D4F8D4300822DB6A5A61F8BDD0F865
:10153000D430DA6AD2F8043811B143F0020301E082
:1015400023F00203C2F804387047FEE7704700003A
:101550000022154915485318834204D2144BD3581E
:1015600053500432F5E7134A934203D200221A6023
:101570000433F8E7104C114B9C4203D254F8043B5F
:101580009847F8E70E4C0F4B9C4203D254F8043BAB
:101590009847F8E7FEF7E8FD0B4C0C4B9C4203D252
:1015A00054F8043B9847F8E700000020340000207E
:1015B000001900084811002000190008001900084F
:1015C0000019000800190008001900080019000897
:1015D000024B20F07F401860704700BF14E000E02D
:1015E000044A00F00400136823F00403034313606B
:1015F000704700BF10E000E0024A136843F00203A6
:101600001360704710E000E0024A136843F00103E2
:101610001360704710E000E0014A024B1A60FEE7D9
:101620000400FA050CED00E0844641EA000313F0E3
:10163000030349D1403A23D30B6803604B684360EE
:101640008B688360CB68C3600B6903614B6943613E
:101650008B698361CB69C3610B6A03624B6A436226
:101660008B6A8362CB6AC3620B6B03634B6B43630E
:101670008B6B8363CB6BC36340304031403ADBD22A
:1016800030320BD30B6803604B6843608B68836018
:10169000CB68C36010301031103AF3D20C3205D34E
:1016A00051F8043B40F8043B043AF9D2043208D024
:1016B000D2071CBF11F8013B00F8013B01D30B8896
:1016C00003806046704700BF082A13D38B07B1D050
:1016D00010F00303AED0C3F10403D21ADB071CBF22
:1016E00011F8013B00F8013BA4D331F8023B20F88C
:1016F000023B9FE7043AD9D3013A11F8013B00F8C5
:10170000013BF9D20B7803704B7843708B78837070
:101710006046704720F0030110F00300C0F10000A4
:1017200051F8043B00F1040C4FEACC0C6FF00002BE
:101730001CBF22FA0CF213434FF0010C4CEA0C2CA4
:101740004CEA0C4CA3EB0C0222EA030212EACC1284
:1017500004BF51F8043B0430F4D0C2F1000102EAA6
:101760000102B2FA82F2C2F11F0200EBD20070470E
:101770001201000200000040501D1760000101022C
:101780000301000009020000010100C032941700AB
:10179000080000000100000000000000A017000881
:1017A0000904000000FE01020400000000B8170058
:1017B0000809000000000000092109FF0000081AC4
:1017C00001000000426C61636B20537068657265B4
:1017D00020546563686E6F6C6F6769657300000005
:1017E000426C61636B204D616769632050726F6268
:1017F000652028444655205570677261646529004C
:1018000040496E7465726E616C20466C617368202D
:1018100020202F307830383030303030302F382A98
:101820003030324B67000000426C61636B204D61C9
:101830006769632050726F62652028557067726116
:101840006465290040496E7465726E616C20466C57
:101850006173682020202F307830383030303030BD
:10186000302F382A3030324B612C3132302A303030
:10187000324B6700EF0C0008000000000000000081
:101880000000000000000000690D0008D10D0008F4
:1018900000000000C10C0008930D0008070D0008AF
:1018A0000000000000000000000000000000000038
:1018B0000000000000000000000000000000000028
:1018C00000000000E30C0008D50C0008BD10000863
:1018D0005911000871110008B3120008BD12000868
:1018E000291300080B13000853130008A513000860
:1018F000291400082F150008000000500100800086
:101900000020000802000000C41700082818000882
:101910004408002044180008C4170008E017000815
:101920004408002000180008FFFFFFFF00127A00A3
:0419300000127A0027
:040000050800155189
:00000001FF
