:020000040800F2
:10200000005000209D9700089B97000899970008B2
:102010009997000899970008999700080000000018
:102020000000000000000000000000009B97000876
:102030009B970008000000009B970008756500084A
:1020400099970008999700089997000899970008B0
:1020500099970008999700089997000899970008A0
:102060009997000899970008999700089997000890
:102070009997000899970008999700089997000880
:102080009997000899970008999700089997000870
:102090009997000899970008999700089997000860
:1020A0009997000899970008999700089997000850
:1020B00099970008C57F000849840008999700088F
:1020C0009997000899970008999700089997000830
:1020D00099970008F18300089997000899970008DC
:1020E00035670008999700089997000899970008A4
:1020F0009997000899970008999700089997000800
:1021000099970008999700089997000899970008EF
:1021100099970008999700089997000899970008DF
:1021200099970008999700089997000899970008CF
:1021300099970008999700089997000899970008BF
:10214000999700089997000899970008B57E0008AC
:1021500008B5D0F8843058684369984708BD00BF77
:10216000036810B5013B044603606BB9406803681F
:10217000013B03604BB1E06908B1236A98472046F0
:10218000BDE8104007F016BC10BD07F013FCE06975
:102190000028F2D1F3E700BF036801330360704702
:1021A00003680133036070470368013B036003B1B8
:1021B000704707F0FFBB00BF10B582B000920B461E
:1021C000846901210022A04702B010BD70B50B4602
:1021D00082B00025012186690A4600950446B04771
:1021E000009529462046A56901220C23A84702B084
:1021F00070BD00BFF0B50446277A40680D4601F077
:10220000F00183B01646C36841EA07620821984787
:10221000606800962B46846901210022A04703B024
:10222000F0BD00BF2DE9F043D0F884600C46B169E1
:1022300083B09146304641F0100200219846FFF7E6
:10224000D9FF706800948569012100220423274684
:10225000A044C4EB0909A84704F0030544454FEA2C
:10226000C50521D019F80430706803FA05F500950A
:102270000C230134856901210022A84784EA070361
:1022800023F47F7323F00303002BE5D070680094E0
:102290008569012100220423A84704F00305444571
:1022A00027464FEAC505DDD1002003B0BDE8F08325
:1022B0002DE9F04FD0F884508B46A96983B01446BD
:1022C000284641F0100200219A46FFF793FF686804
:1022D00000948669012100220423B0470027686822
:1022E00001210097D0F818C00A460C23E0470AF1F4
:1022F000FF3A26460AEB0408C4EB0B0901214445CA
:102300000A464FF00C03686822D00097D0F818C036
:10231000E04704F00303DB00D84009F8040001346F
:1023200084EA060323F47F7323F00303002BE5D034
:10233000686800948669012100220423B047686818
:102340000121009786690A460C23B0472646D5E747
:102350000025009586692946B04704F00304E4008F
:1023600020FA04F428460BF80A4003B0BDE8F08FC9
:102370002DE9F043D0F884700C46B96983B09146DA
:10238000384641F0120200211D46FFF733FF7868FE
:102390000094A0460121846900220423A047AD10C7
:1023A000C8EB0909444600E0013D012100220C234D
:1023B000BDB159F804607868009604348669B04766
:1023C00084EA080323F47F7323F00303002BEBD08C
:1023D000786800948669012100220423B047A04652
:1023E000E2E7284603B0BDE8F08300BF2DE9F04FD7
:1023F000D0F884608A46B16983B01746304641F010
:10240000120200214FEAA30BFFF7F4FE7068009759
:102410008469012100220423A0470024706801215F
:10242000009485690A460C23A046A8473C46C7EBA2
:102430000A095D460121013D0A464FF00C03706810
:1024400020D0CDF80080D0F818C0E04749F804004B
:10245000043484EA070323F47F7323F00303002B7F
:10246000E8D0706800948769012100220423B847EE
:1024700070680121CDF8008087690A460C23B847AF
:102480002746D7E7009584692946A0470BF1FF3B13
:102490004AF82B00284603B0BDE8F08F70B5836979
:1024A00004460E461546002143F01202FFF7A2FE35
:1024B000204632460421FFF79DFE20462A460C2185
:1024C000BDE87040FFF796BE70B58B07154648BF54
:1024D0001504826904460E4642F011020021FFF7FE
:1024E00089FE204632460421FFF784FE20462A4614
:1024F0000C21BDE87040FFF77DBE00BF38B5044633
:102500000D464068217A05F0F002C36842EA016294
:102510000821984760682946BDE83840FFF756BE55
:102520002DE9F04F026803690132026004218FB087
:1025300007469847FB6840F0A04204213846984778
:102540003B6938460421984700F02040B0F1204F05
:10255000F6D142F2ED33C0F60003019342F271313D
:1025600042F2B12342F2611B4EF6444A42F2511943
:10257000C0F60001C0F60003C0F6000BC0F6000A6A
:10258000C0F60009029103934FF0000840E007F005
:1025900009FA0DF1140E04460546BEE80F000FC4FB
:1025A000BEE80F000FC43B68DEF8002001333B603B
:1025B000F42122602846FFF7A1FFF8212861284670
:1025C000FFF79CFF314668612846FFF797FF20F030
:1025D00037038C20AB6105F0C1FA296842F225224D
:1025E000013129600199C0F6000201610299C0F829
:1025F000845041610399C0F888B0C0F874A0C0F855
:102600000C908161C26101F0AFFBB8F5807F16D0FC
:10261000002605A8FC21079606978DF81C800596D4
:10262000089609960A960B960C960D96FFF766FF8C
:10263000034608F1010824200893002BA7D13B682A
:10264000013B3B6013B10FB0BDE8F08F38460FB0CF
:10265000BDE8F04F07F0AEB938B5826904460D46C3
:1026600042F012020021FFF7C5FD20462A46042150
:10267000FFF7C0FD20460C21BDE83840FFF73EBF04
:10268000826938B542F0110204460D460021FFF779
:10269000B1FD2A4620460421FFF7ACFD20460C215F
:1026A000FFF72CFFAA074CBF000C80B238BD00BF5B
:1026B0002DE9F04184B0DDF828E05B0803F0060660
:1026C00000324FEACE04F6B218BF01224FEA5E751F
:1026D000002734431443804600290CBF0A210B21F4
:1026E000C0693D43CDE9004502F0EEFC02A96A460F
:1026F0002323D8F81C0002F029FD029A039902F066
:10270000070340F2E7340CE002A96A462323D8F815
:102710001C0002F01BFD029A013C039902F0070322
:102720000AD0012BF0D0022B04BFD20842EA41703C
:102730000CD104B0BDE8F08198F808000028F2D070
:10274000012BF0D1204604B0BDE8F08141F26424B1
:10275000C2F200042378C3B14EF65840C0F6000020
:10276000032102F029FA0023237005F005FA4EF642
:102770006040C0F60000012103F066FF41F208202E
:10278000C2F20000012107F0ADFC4EF65C40C0F63D
:102790000000032102F010FAE5E700BF30B5002485
:1027A00083B021460094012204230546FFF780FFF1
:1027B0003223CFF200030093214628462246042309
:1027C000FFF776FF00F0320003B030BD30B50024D3
:1027D00083B00B460546214600940122FFF768FFAF
:1027E00000942846214601220C23FFF761FF03B025
:1027F00030BD00BF00B50B4683B0002100920A46F1
:10280000FFF756FF03B05DF804FB00BFF8B52021C9
:102810000646012007F076F842F2F575B76842F2F5
:10282000CD7442F29D7142F2B162C0F60005C0F66D
:102830000004C0F60001C0F60002C6614760C56032
:10284000046141618261BDE8F840FFF769BE00BFE5
:10285000F0B5064683B0174600293FD0027FA32576
:10286000002A38D1002F3CD103F00C0345EA430580
:10287000042B18BF082B04BF85F02005EDB22846B5
:10288000082105F0F5F8032005F07EF840F2E73462
:10289000C0B209E02846082105F0EAF8032005F057
:1028A00073F8013CC0B211D00228F3D0042840D004
:1028B00001281FD1C7B90898202105F00BF9002085
:1028C000082105F0D5F8019803B0F0BD327A002A4E
:1028D000ECD00228EAD1002003B0F0BD8125002F02
:1028E000C2D085F02405BFE701A8202105F072F8C9
:1028F0000028E4D041F26424C2F200042378E3B15A
:102900004EF65840C0F60000032102F055F90023AE
:10291000237005F031F94EF66040C0F60000012149
:1029200003F092FE41F20820C2F20000012107F0FC
:10293000D9FB012333770020CEE74EF65C40C0F68A
:102940000000032102F038F9E1E700BF00B50B46B3
:1029500083B0002100910122FFF77AFF03B05DF8F8
:1029600004FB00BF00B50B4683B0002100920A466D
:10297000FFF76EFF03B05DF804FB00BF30B5002128
:1029800083B00091042301220446FFF761FF10F099
:10299000020F14BF10220022C30648BF42F00202F9
:1029A000810648BF42F00402030648BF42F0080215
:1029B000002100F0B20500920B460A462046FFF7C0
:1029C00047FF00232846237703B030BD2DE9F843A5
:1029D00005F0D2F82021012006F094FF044605F00E
:1029E00069F841F26523C2F200031B78002B3BD14A
:1029F000A520082105F03CF8032004F0C5FF5FFA8C
:102A000080F9B9F1010F33D1201D202104F0E2FF3C
:102A1000804668BB42F6651742F64D1642F67D12B7
:102A200042F65103C0F60003C0F60002C0F60007EC
:102A3000C0F60006A3616261204640F67875E76043
:102A40002661FFF79BFFC2F200052046FFF768FDF5
:102A50002B68DBB14046414603F0F6FD28680030A4
:102A600018BF0120BDE8F883012002F053FCBFE746
:102A70004EF670400121C0F6000003F0E5FD20464F
:102A800006F098FF4FF0FF30BDE8F8834EF6704037
:102A90004946C0F6000003F0D7FDDFE7704700BFEE
:102AA00008B503461A6A903007F03EFA002008BDC8
:102AB00008B50346026A084603F1900107F034FAAC
:102AC000002008BD38B5C36B04460025984703E0D5
:102AD0000220013D03F044FD236C20469847002866
:102AE000F6D0281C18BF012038BD00BF30B583B018
:102AF00002AD044605F8011D0068022102F0E4FA67
:102B00002A4620680423002102F020FB20680C21C3
:102B100002F0DAFA03B030BD2DE9F041074682B089
:102B20000D468C30012100261C469046FFF7DEFF43
:102B3000D7F88C0031466A4621238DE8600002F008
:102B400005FB8CB14546B0462E682123D7F88C0092
:102B500069466A46CDF80480009602F0F7FA009BB9
:102B6000013C45F8043BEFD102B0BDE8F08100BF65
:102B700070B582B00024012502AE66E9024502214B
:102B800004468C30FFF7B2FF6A46D4F88C0000216F
:102B9000262302F0DBFAD4F88C0069466A46262325
:102BA00002F0D4FA009810F001000AD04FF6FF713D
:102BB000204604F19002CEF680011023FFF7ACFF0F
:102BC000012002B070BD00BFF0B54FF6FF7183B0B9
:102BD000064600F190021023CEF6900102AF0024C9
:102BE0002025FFF799FF67E9024506F18C0420468E
:102BF0000221FFF77BFF6A46D6F88C0000212623CE
:102C000002F0A4FA00210A4613463046CEF2A01183
:102C1000FFF782FF204601210024FFF767FFCEF275
:102C2000A0146A46D6F88C00012500212123CDE9A5
:102C3000004502F08BFA00224FF6F8713046134639
:102C4000CEF6FF21FFF768FFD6F88C00042102F0D2
:102C50003BFA03B0F0BD00BF70B582B0022420255E
:102C600002AE66E90245022104468C30FFF73EFFC2
:102C70006A46D4F88C000021262302F067FA02B0DD
:102C800070BD00BF2DE9F8438146D02004F066FFF7
:102C90004EF67C4842F6C52C42F6B12742F6A126F4
:102CA00042F6594542F6713442F6C93142F69D2248
:102CB0000346C0F60002C0F60008C0F6000C402033
:102CC000C0F60007C0F60006C0F60005C0F6000416
:102CD000C0F60001C3F88C90C3F87480C3F804C038
:102CE00018629F62DE62DD631C6459649A60DA6078
:102CF0001A615A619A61DA615A639A63BDE8F8838E
:102D000008B505F0DFF84EF6F44041F26C31C0F63C
:102D10000000C2F200010522852301F0E1FF01203D
:102D200008BD00BF08B541F20023C2F200031968D4
:102D300029B14EF67060C0F6000001F0D1FF01200D
:102D400008BD00BF70B540F67874C2F20004256873
:102D500006460DB34EF62050C0F6000001F09EFF6F
:102D60004EF63450C0F6000001F098FF24680125AB
:102D700084B14EF644502946B44214BF20222A2280
:102D8000636FC0F6000001F0ABFFD4F8804001355E
:102D9000002CEED1012070BD4EF60450C0F60000AC
:102DA00001F07CFF284670BD38B505464EF65C50F4
:102DB000C0F6000001F072FF4EF688444EF6545102
:102DC000C0F60004C0F600014EF67050A268C0F6CE
:102DD000000001F085FF54F80C1F0029F4D1CDB19B
:102DE000AD6FBDB14EF67C502968C0F6000001F011
:102DF00077FF6C68216851B14EF67050A268C0F63A
:102E0000000001F06DFF54F80C1F0029F4D1AD68EB
:102E1000002DE7D1012038BD4EF6945008B5C0F61C
:102E2000000001F03BFF4EF6DC50C0F6000001F060
:102E300035FF4EF61060C0F6000001F02FFF0120B4
:102E400008BD00BF08B503F015FC01464EF66060F2
:102E5000C0F6000001F044FFFFF7B8FD002804DBD6
:102E60000020FFF76FFF012008BD4EF67460C0F62A
:102E7000000001F013FF002008BD00BF2DE9F04362
:102E800083B002AF8946154603F0F4FB01464EF6C7
:102E90006060C0F6000001F023FFB9F1010FD8BF58
:102EA0004FF0000818DD09F10E0323F00703ADEB26
:102EB000030D0DF10808A9F1020608F1FF3446449C
:102EC00055F8040F06F016FD04F8010FB442F7D1CF
:102ED000C144002309F8013C404601F069FF041E8B
:102EE0003BDB2FD04EF6C46041F28416C0F60000E2
:102EF000C2F2000601F0F4FE3368002B14DD1B4C17
:102F00000025D4F80A104EF6F060D4F80630227886
:102F1000C0F600000091294601F0E2FE3368013559
:102F2000AB4204F11404ECDC4EF6A060C0F60000E5
:102F300001F0B4FE0020FFF705FF01200437BD4675
:102F4000BDE8F0834EF6A460C0F6000001F0A6FED6
:102F500020460437BD46BDE8F0834EF68860C0F6D3
:102F6000000001F09BFE0020E8E700BF8A1100206E
:102F7000012908B511D04EF638715068C0F600012D
:102F800007F052F941F26523D0F1010038BF00206B
:102F9000C2F200031870012008BD41F26523C2F29D
:102FA000000319784EF60C724EF60473C0F6000258
:102FB000C0F600034EF6187000290CBF11461946E2
:102FC000C0F6000001F08CFE012008BD2DE9F84F8D
:102FD0000B7800AF0D4606465BB10A460024202B55
:102FE00018BF092B12F8013F08BF0134002BF6D19E
:102FF000A3000E3323F007034EF64071ADEB030D33
:103000002846C0F6000107F0EBFAE84600900028D9
:1030100051D06C4600254EF64071C0F600010020EC
:1030200007F0DEFA013544F8040F0028F3D1D8F890
:103030000040204607F016FA4EF6884A4EF65451E4
:103040008146C0F6000AC0F6000102E05AF80C1FE3
:1030500089B120464A4607F035FA0028F6D1DAF859
:103060000430304629464246984780F00100C0B2FD
:10307000BD46BDE8F88FDEB1D6F878A0BAF1000FF2
:1030800016D0DAF80430196869B19B4602E05BF8A3
:103090000C1F41B120464A4607F014FA0028F6D129
:1030A000DBF80430DDE7DAF808A0BAF1000FE8D168
:1030B0004FF0FF30DCE704460546BAE7D0F884005D
:1030C00010B4436800244EF6F05103221C72CEF275
:1030D0000001CAF25F025DF8044BFFF7DFB900BFE1
:1030E00010B5D0F884400A464EF6F8512046CEF28C
:1030F0000001FFF7D3F94EF6F4510F222046CEF22D
:103100000001C0F20102FFF7C9F9002010BD00BFA5
:10311000F8B5D0F8846042F20804F769CEF20004F2
:103120003B6C002553B1214630460022FFF7B6F92B
:103130003B6C0135AB4204F10404F4D87B6A41F2E4
:103140002804CEF20004002553B121463046002267
:10315000FFF7A4F97B6A0135AB4204F11004F4D8FF
:103160004EF6F05100223046CEF20001CAF25F0264
:10317000BDE8F840FFF792B9D0F88400022B2DE9A2
:10318000F041C66941D0042B3CD0012B08BF4FF061
:10319000000808D103290AD0042939D0022908BF20
:1031A0004FF0060C05D04FF0FF30BDE8F0814FF036
:1031B000050C776A17B300210B4602E00133BB42CE
:1031C0001CD07418656808319542F7D1257A654599
:1031D000F4D1647A4445F1D1BB420FD041F22801C9
:1031E000002406EBC306CEF200011B013472194421
:1031F0002246FFF753F92046BDE8F0816FF0010049
:10320000BDE8F0814FF00308C4E74FF00108C1E7C3
:103210004FF0070CCDE700BFD0F8840070B5C66949
:10322000356C85B1B36A23F001038B421CD0324662
:10323000002305E0D46A043224F001048C4205D056
:103240000133AB42F6D14FF0FF3070BD03F1605156
:1032500001F60201890000240A3346F82340224681
:10326000FFF71CF9204670BD42F20801CEF20001C2
:103270000023F0E7D0F88400F8B5C76921F0604278
:1032800011F0020F22F003023E6C42F001020CBF6B
:103290004FF080434FF000431A436EB1BB6A13F006
:1032A00001031BD03C46002303E0E56A0434ED072C
:1032B00005D50133B342F8D14FF0FF30F8BD03F12B
:1032C000605505F60205AD000A3341F0010447F8E8
:1032D00023402946FFF7E2F80020F8BD42F2080536
:1032E000CEF20005F0E700BF2DE9F04FD0F88400E2
:1032F00091B04FF28C04C0F6000405AE8B460190ED
:1033000015460FCC0FC60FCC0FC694E80700019BE3
:10331000BBF1020FDF6986E8070006DD6B681B78EA
:103320000393643BDBB2012B2FD94FF69840C0F6D4
:10333000000001F0B3FC0DF110094FF6EC40C0F6AF
:10334000000001F0ABFC0024012502E001340B2C4D
:1033500011D059F8041F0029F8D005FA04F27B6C4B
:103360001A42F3D04FF60050C0F60000013401F0CD
:10337000B7FC0B2CEDD14EF6A060C0F6000001F0BA
:103380008DFC012011B0BDE8F08F00244FEA8B0BBB
:10339000CDF808B026460DF110094FF00108CB46D4
:1033A0004FF0000A5BF8042F104632B1295906F09D
:1033B0003BFF10B908FA0AF216430AF1010ABAF102
:1033C0000B0FEFD1029A04349442E8D1039B652B92
:1033D0000BD07A6C22EA06027A644EF6FC51019810
:1033E000CEF20001FFF75AF8A7E77A6C32437A640D
:1033F000F3E700BF2DE9F041D0F8847041F22805D1
:10340000FE698846736ACEF20005002433B924E0D1
:103410000134A34205F110051A4611D906EBC40286
:10342000127A002AF4D038462946FFF715F9C3016D
:1034300010D4736A0134A34205F110051A46EDD881
:10344000A2420AD006EBC40463680120C8F8003029
:10345000BDE8F081726AA242F4D10020BDE8F0819B
:103460002DE9F84FD0F88460022B07469046D6F835
:103470001CB061D0042B62D0012B08BF4FF00009B3
:1034800008D103290AD004295CD0022908BF4FF0D3
:10349000060A05D04FF0FF30BDE8F88F4FF0050A5F
:1034A000DBF8243041F22805CEF20005002433B9C0
:1034B0004EE00134A34205F110051A4612D90BEB78
:1034C000C402127A002AF4D130462946FFF7C4F824
:1034D00002073AD0DBF824300134A34205F110058D
:1034E0001A46ECD8944233D004F1606505F5817535
:1034F0000BEBC4042D0142462946304684F808A04F
:10350000C4F8048084F80990FEF7C8FF30464A46A4
:10351000291DFEF7C3FFFB6D304613F0010F0CBFF2
:103520004FF40062002205F1080142EA0A02FEF7A8
:10353000B5FF0020BDE8F88F4FF00109A1E74FF07B
:1035400003099EE74FF0070AAAE7DBF82420C9E742
:103550006FF00100BDE8F88F2DE9F843056AD0F857
:103560008430AD000A3525F00705DE6900AFADEB0C
:10357000050D836A88466946914604469847B36CB0
:103580006D465A1F012A12D9012B05D1B8F1FF3F10
:1035900018BF08F1010300D143462B602946E36AB6
:1035A00020469847C6F84C90BD46BDE8F883B8F170
:1035B000000FF1DD336DC8EB0308EDE72DE9F04FA7
:1035C00091B0D0F884404EF6F05102AF0546CEF2ED
:1035D00000012046D4F81C80FFF73EF810F40030BC
:1035E00003D13C37BD46BDE8F08F636800224EF63C
:1035F00030511A72CEF200012046FFF72DF84EF638
:103600003051064632462046CEF20001FEF746FF14
:1036100033070FD4C6F3400388F80130002B40F085
:103620009C8016F0060F00F08E8005203C37BD46CA
:10363000BDE8F08FD5F884404EF62C51CEF2000153
:103640002046FFF709F84EF628518246CEF20001D7
:103650002046FFF701F84EF62C518146524620468F
:10366000CEF20001FEF71AFF4EF6285120464A46D8
:10367000CEF200010AF0804AFEF710FF5AEA090A6A
:10368000C8D02B6AE946DA1C33EA230328BF134665
:1036900023F003030A3323F00703ADEB030D0DF111
:1036A0000808AB6A414628469847D8F8383083F076
:1036B000100AC3F3800BCAF3001ABBF1000F00F02D
:1036C0004981D8F8482007F1180120232E6928469F
:1036D000B0473B6B7A6BF96AC8F83C30BAF1000F1F
:1036E0000CBF202368239605C8F8381048BF043360
:1036F000BBF1000F00F02681D8F84C10D8F8482014
:1037000041F080611344C8F84C10C8F84830C8F83C
:103710003430BAF1000F05D0D8F84C3043F00073C4
:10372000C8F84C304EF60C5102222046CEF2000171
:10373000C0F2FA52FEF7B2FE4146EB6A28469847BD
:103740000B20CD464DE7F1077FF56FAF98F80030BD
:103750000220002B3FF445AF67E7D5F884404EF6D2
:10376000F45120460F22CEF20001FEF797FE4EF6EE
:10377000F8512046CEF20001FEF76EFF022302460A
:10378000AC692846B91CA0477A884BF6AB639A42CD
:103790007FF447AF2B6AE9469B000A3323F0070307
:1037A000ADEB030D0DF1080AD5F884205146AB6A44
:1037B0002846D2F81CB09847DAF80420102328468F
:1037C00007F108012C69A047DAF80020531ECBF856
:1037D0004820122B00F2B480DFE803F0867D74B23B
:1037E000675AB2B25146B242B23728B2B21A0A0090
:1037F000DBF84C305146CAF800302846EB6A98474F
:103800002846CD4698F800106B6C98470020E8E6F3
:10381000B968FA684FF6BC5001390132C0F60000B1
:1038200001F024FA4FF0FF30CD46DAE6786907F16F
:103830000801441C4FF694500EC9C0F6000001392F
:103840000132009401F012FAECE7B968FA684FF619
:10385000AC5001390132C0F6000001F007FAE1E78F
:103860000023CBF84C30CBE7B9684FF67C500139D8
:10387000C0F60000FA68002301F0F8F9D2E7B96851
:103880004FF66C500139C0F6000001F0EFF9C9E7BE
:103890003B69B9684FF62C50CBF850300139C0F66F
:1038A0000000FA6801F0E2F9BCE73B69B9684FF63D
:1038B0004450CBF850300139C0F60000FA6801F0EE
:1038C000D5F9AFE74FF65C50DAF80410C0F6000007
:1038D00001F0CCF9A6E7B9684FF620500139C0F6DF
:1038E000000001F0C3F99DE7264E07F118040FCE42
:1038F0000FC496E80300FB6884E803005B0807F147
:10390000380404EB8306391DAC692846BA680423E1
:1039100056F8206CA0474FF60451381DC0F6000140
:1039200006F082FC00BBC6B9CAF80060DAF80030C5
:1039300051460133CAF800302846EB6A98475FE7E2
:10394000CD466EE6D8F844201344C8F84430C8F891
:103950003430DEE6D8F84420B5E670054CBF0123CC
:103960000223CAF80030E1E73A694FF4D2730093BA
:103970004FF6085033460132B968C0F6000001F036
:1039800075F94FE7B8F0000810B5D0F88440012071
:1039900001F0C0FC002001F0BDFC4EF6F051CEF26B
:1039A00000012046FEF758FE4EF60C510422204638
:1039B000CEF20001C0F2FA52FEF770FD4EF6F05161
:1039C000CEF200012046FEF747FE8201F6D44EF605
:1039D00030512046CEF200011F22BDE81040FEF714
:1039E0005DBD00BF2DE9F043D0F8844083B0A269EB
:1039F000884642F01202002181462046FEF7FAFB7B
:103A00004EF6F0536068CEF20003009385690423FC
:103A100001210022A8472046D8F800201821FEF7EF
:103A2000E9FB60684FF4803300938569012100222F
:103A30001423204EA84708F14C07454655F8043F8B
:103A400060680093D0F818C0012100221823E047D5
:103A500056F8043F606843F480330093D0F818C0F0
:103A6000012100221423E047BD42E7D1D9F85C30A0
:103A700008F15005990718D50F4E08F1D40855F8EC
:103A8000043B606800938769012100221823B8472E
:103A900056F8043F606843F480330093876901213E
:103AA00000221423B8474545E9D1002003B0BDE802
:103AB000F08300BFD0F000081CF100082DE9F047AA
:103AC000D0F8844082B0A269884642F012020021F8
:103AD00082462046FEF78EFB4EF6F0536068CEF22B
:103AE000000300938569042301210022A847204692
:103AF00014210022FEF77EFB60681821FEF766FBAA
:103B00001A4DC8F80000464605F14C0955F8043F27
:103B1000606800930121002214238769B847606818
:103B20001821FEF753FB4D4546F8040FEED1DAF8A5
:103B30005C3008F15005980713D50D4E08F1D408F4
:103B400056F8043F6068009301210022142387691E
:103B5000B84760681821FEF739FB45F8040B454566
:103B6000EED1002002B0BDE8F08700BFD0F0000821
:103B70001CF100082DE9F84FD0F884800546C36891
:103B800041F26527D8F81C60C2F200079847EB6B3A
:103B9000284698473B787BB90A2404E0022002F0CB
:103BA000DFFC3B7843B92B6C2846984720B9013C91
:103BB000F4D12046BDE8F88F4EF6FC51CEF200015C
:103BC0004046726CFEF76AFC4EF630511F224046AA
:103BD000CEF20001FEF762FC06234FF4005133647D
:103BE000CEF200014046FEF737FD336CC0F3031000
:103BF00098424FF480514FF0040338BF3064736231
:103C0000CEF200014046FEF727FD736A000F98428E
:103C1000336C88BF7062C3B142F2080ACEF2000A68
:103C20004FF00009C6EB0A0ACB4634460AEB040102
:103C300040460022FEF732FCC4F828B0336C09F18C
:103C400001094B4504F10404F0D8736AA3B141F2B1
:103C500028090024CEF20009A24649464046002227
:103C6000FEF71CFC06EBC40383F808A0736A01345A
:103C7000A34209F11009F0D84FF400514046CEF2AA
:103C800000010322FEF70AFC43F2752443F21920D7
:103C900043F2614143F2791243F2F5333E78C0F6C4
:103CA0000004C0F60000C0F60001C0F60002C0F635
:103CB0000003AC64E86429656A65AB6516B1002051
:103CC00001F028FB0120BDE8F88F00BF2DE9F0418D
:103CD000D0F884408046E5690D2201232878CAF295
:103CE0005F02CAF25F03002914BF17461F468842CD
:103CF0000E4609D04EF6F051CEF20001204647F0B4
:103D00000202FEF7CBFB2E706B7863B94EF6F051D2
:103D10003A46CEF200012046FEF7C0FB636801225E
:103D20001A72BDE8F081D8F884504EF6F451284656
:103D30000F22CEF20001FEF7B1FB4EF6F8512846F5
:103D4000CEF20001FEF788FC054629462046FEF724
:103D500097FC00F47F40B0F53E4FD7D14046A91CF8
:103D6000FFF7BEF9D2E700BF2DE9F84F43F6753BE8
:103D7000DFF88081C0F6000B40F2000243F2111A16
:103D800043F6BD2943F6E51C43F2E10E43F68917DD
:103D900043F2BD0643F2BD5543F6CD4143F25953BC
:103DA000C0F6000CC0F6000EC0F60003C2F200021E
:103DB000C0F804B0C0F60006C0F60005C0F6000169
:103DC000C0F6000AC0F60009C0F600074FF0500B1D
:103DD000C0F82CC0C0F834E0036742670446C663ED
:103DE00005644164C0F808A0C0F828908763C0F853
:103DF00020B0C0F8248008F5747103F0E7FED4F811
:103E000084504EF68851CEF200012846FEF724FC7D
:103E10004EF6885140F4700632462846CEF2000134
:103E2000FEF73CFB4EF688512846CEF20001FEF725
:103E300013FCB04252D05421012005F063FD49F635
:103E4000B51340F201410246C0F60003C0F2001172
:103E5000E8612B622046516403F0DAF810B10120CA
:103E6000BDE8F88FE36820469847204603F0B6FB8C
:103E70000028F4D1E36820469847204603F00EFD61
:103E80000028ECD1E36820469847204601F004FD65
:103E90000028E4D1E36820469847204602F052F813
:103EA0000028DCD1E36820469847204602F0DEFD7A
:103EB0000028D4D1E36820469847204602F0ECF968
:103EC0000028CCD1E36820469847204601F08AFBC1
:103ED0000028C4D1E36820469847C0E7E26D236A12
:103EE00008F57A7142F0020284336162E26523626E
:103EF000A1E700BFA4F100082DE9F04143F2080357
:103F0000C4F202031D681446032C45F0010282B07E
:103F100006460D461A6019DD4FF44058C4F20208F7
:103F200005E0019B032C1BBAC8F800300EDD2A46C1
:103F30003769304601A90423B847043C04350028FA
:103F4000EFD04FF0FF3002B0BDE8F08104EB050880
:103F50004FF44053C4F2020345451C681AD02A4668
:103F60000123B769304601A91D44B8470028E8D1AC
:103F7000019A082384EA0264002CBFBF620041F664
:103F8000B754C0F2C1445440A8BF6400013BF3D110
:103F90004545E4D1204602B0BDE8F08170B540F659
:103FA0006414C2F2000423685A1C2344226018716E
:103FB00011B9402A00D070BD03F00CFF012802D0D7
:103FC0000023236070BD03F00BFF0028F8D041F2FE
:103FD0006826C2F2000640F66415C2F200052A1DEA
:103FE00030680121238804F044FE0028F3D0002328
:103FF0002B60E0E738B5012140F664140A46054617
:10400000C2F2000404F04DFE04F1440228460121EE
:10401000402304F034FE0246C4F8840000B138BDE9
:1040200028460121BDE8384004F03BBE2DE9F041AF
:1040300040F6641541F2682782B0C2F20005C2F270
:1040400000074FF00008D5F8CC20D5F8C81040F68E
:1040500064138A42C2F2000324D303F0C1FE50B3BA
:1040600003F0B8FE01280446FAD1D5F8843040F6B2
:104070006416C2F20006002BE5D006F144011A4690
:1040800006F18800019305F04FFF019B2146386837
:104090000022C6F8C830C6F88480C6F8CC8004F088
:1040A00000FED0E7511C1A4492F88800C3F8CC10E7
:1040B00002B0BDE8F081042002B0BDE8F08100BF8D
:1040C00048F21F53C5F2EB132DE9F04783FB0023A1
:1040D00040F66415C2F20005D5F8CC10D5F8C8201A
:1040E000C01741F20427C0EB6313C2F200079142EC
:1040F0003B6003D2BDE8F047FFF798BF41F2682A62
:10410000C2F2000AA8464FF0000903F069FE98B118
:1041100003F060FE01280446FAD1D5F8846076B930
:104120003B68D5F8CC200BB3D5F8C8309A42E1D320
:1041300003F056FE0028EBD10420BDE8F0870F48BD
:104140003246A0F1440105F0EFFE00222146DAF8E4
:104150000000C8F8C860C8F88490C8F8CC9004F093
:10416000A0FD3B68D5F8CC20002BDDD1D5F8C830B8
:104170009A42BFD3FF20BDE8F08700BFEC090020C2
:1041800040F63423C2F200031A68824204BF0022C0
:104190001A605A6840F634238242C2F2000304BF18
:1041A00000225A60704700BFF0B583B0044600AFEC
:1041B00008464FF66071C0F600013A463B1D05F017
:1041C000C1FF022806D1204606F04CF93968884222
:1041D0000AD82AD04FF62460C0F60000032100F070
:1041E000EBFC0C37BD46F0BD7D686E4605F109035A
:1041F00023F00703ADEB030D68460C446D22214606
:1042000000F8012B2A4606F0B7F9204606F02AF9F5
:1042100085428ABF0146294678600131684600F030
:10422000CBFC0C37B546BD46F0BD4FF62860C0F656
:104230000000012100F0C0FC0C37BD46F0BD00BFFE
:104240002DE9F04340F6342483B0C2F200044FF667
:104250002C61064600AFC0F6000104F108000622FA
:1042600006F030F9054600283AD04FF63C61C0F61A
:10427000000104F108000A2206F024F900285ED0AB
:104280004FF68461C0F6000104F10800172206F021
:1042900019F968B92068002800F09680406E00285F
:1042A00078D05049FFF780FF0C37BD46BDE8F0835A
:1042B0004FF69C61C0F6000104F108001F2206F0D1
:1042C00001F9002847D12068002858D0406A00280A
:1042D00060D04549FFF768FF0C37BD46BDE8F08365
:1042E000063E06EBD676761006F10F0323F00703A1
:1042F000ADEB030D6B464FEAD3094FEAC9083246CE
:1043000004F10E01404600F021FD06F83950414607
:104310002068FEF75BFE002829DB09BF4FF63460FA
:104320004FF63860C0F6000002211CBFC0F6000046
:10433000012100F041FC0C37BD46BDE8F0834FF68B
:104340004860C0F600004FF4806100F08FFC0C372D
:10435000BD46BDE8F0834FF6BC61C0F6000104F134
:1043600008003A463B1D05F0EDFE02281DD04EF632
:10437000C060C0F60000002100F01EFCDBE76068B2
:1043800040B144F28111C0F6000103F039FC206015
:1043900000289BD14FF62460C0F60000032100F0F6
:1043A0000BFC0C37BD46BDE8F08320680028F1D037
:1043B00097E80600FFF7A0FD01464FF6D060C0F673
:1043C000000000F053FCB6E760680028E2D044F239
:1043D0008111C0F6000103F013FC206000287FF477
:1043E0005DAFD7E7530A00205B0A00202DE9F04FAC
:1043F0008DB0002602AF7E6100263E6141F2642648
:10440000C2F2000640F63424FE6040F67876C2F22E
:1044100000044FF4416A40F61449C2F20006A34674
:10442000BE60C4F2010AC4F201094FF48061CAF807
:1044300000109A4800F06AFB4FF48062A9F800204F
:10444000974D94F808E0064605F10108AEF1040323
:10445000762B00F26682DFE813F04A016402640200
:10446000640264026402640264026402640264021C
:10447000640264026402640264026402640264020C
:1044800064026402640264026402640264026402FC
:1044900064026402CF006402640264026402640283
:1044A00064026402640264026402640264026402DC
:1044B00064026402640264026402640264026402CC
:1044C00064026402640264026402640264026402BC
:1044D000850064026402640264024A0164023B02D1
:1044E0001F0264026402640264026402E70164025F
:1044F000640264026402E001640264026402640211
:104500006402B30164027901640264026402640219
:104510006402640264026402790064026402640258
:104520005C0164026402640210016402DB00640244
:1045300064026402D700E00177006402640225018E
:10454000640264026402790101263E612068002849
:1045500000F02A82436C39699847FE680123337062
:1045600000263E612068002800F069829BF8086000
:104570007E6107E0FFF7A4FD0338C0B20128206880
:1045800040F2D781036C9847051EF3D0FE684FF0C8
:1045900000033370FFF649AF2068836D2BB107F13C
:1045A00024019847002840F0DA814FF61070294620
:1045B000C0F6000000F05AFB37E74FF65471C0F622
:1045C0000001364807F11C0207F1200305F0BAFD8F
:1045D000022840F06D82DBF80000002800F0DC814A
:1045E0009BF80834002B00F08682836EF9693A6AE2
:1045F0009847002840F0D0814FF63460C0F60000A4
:10460000022100F0D9FA10E73046FFF719FE0CE757
:1046100023686E46002B00F09A814FF6D861C0F6F1
:10462000000107F1200207F124031C4805F08AFD70
:104630007B6A3A6AD91D21F00701ADEB010DDBF869
:10464000000042EA0301890702AD0CBFD0F810C098
:10465000D0F818C02946E0472068C368984700286A
:1046600040F06D8129460D487A6A00F04FFB796A67
:10467000490000F0A1FAB546D7E6206800283FF4CB
:10468000D4AE836B9847DBF8000083689847DBF86B
:10469000003000228BE80C00C7E600BF3C0A002077
:1046A0003D0A00204FF63871C0F60001B04807F10E
:1046B0001C0205F047FD012800F09B814FF64C716C
:1046C000C0F60001AA4805F0AFFD00287FF475AFE1
:1046D000DBF80000002800F0C881836B98474FF694
:1046E0004870C0F60000032100F066FA9DE62068DD
:1046F000024618B183689847DBF800204FF6346013
:104700000023C0F6000002216260236000F054FA2A
:104710008BE620686E46002800F01981036A826AE1
:10472000073323F00703ADEB030D02AD2946904795
:10473000DBF8003029461A6A8D4800F0E7FADBF80A
:104740000030196A490000F037FA94E72368002B1B
:1047500000F022819BF80950BEF15A0E4FF690717D
:10476000DEF10006A5F13005C0F60001814807F131
:10477000240207F1200356EB0E0605F0E3FC012DA1
:1047800000F02A81C0F2CD80042D00F3CA80DBF84E
:104790000000D0F850C0BCF1000F00F0C280E9B2B8
:1047A000002E00F07C817A6A97F82030E04760BBE9
:1047B0004FF63460C0F60000022100F0FDF934E647
:1047C0002368002B00F0E8804FF6287107F12406DB
:1047D000C0F6000107F120030096654807F11C02AE
:1047E00005F0B0FCF9693B6A880702D19A0700F02E
:1047F000348120687A6A5E4EC5693244A8472068D1
:10480000C368984700283FF4F7AE4FF62460C0F61F
:104810000000032100F0D0F907E62068002800F02E
:10482000CB80836B984700E623686E46002B00F030
:104830008E8007F124024FF6E8610092C0F6000175
:1048400007F11C0207F12003494805F07BFC3A6A96
:10485000796AD31D23F00703ADEB030D444B02AD82
:104860001944284600F072FAF9693B6A880702D1B8
:104870009A0700F0EC8020682A46C569A84720689E
:10488000C368984700285AD14FF63460C0F600003C
:10489000022100F091F9EEE623686E46002B56D017
:1048A0001A6A3549D31D23F00703ADEB030D02ADA2
:1048B000284600F04BFADBF800002946C36A984707
:1048C0004FF63460C0F60000022100F075F9D2E620
:1048D000607A07F11C024FF618712D2814BF284684
:1048E00040460092C0F6000107F1200207F12403C0
:1048F00005F028FC637A396A2D2B8446206804BFB2
:1049000049423962036F7A6AC7F804C09847D7F8FA
:1049100004C0BCF1030F00F086807B6923729E46C1
:1049200094E54EF6C060C0F60000002100F044F9A6
:104930007BE5C36B73267E619847206822E64FF6BD
:104940002460C0F60000032100F036F993E64EF62D
:104950005C40C0F60000032100F02EF98BE64FF614
:10496000FC602946C0F600007A6A00F07FF95CE539
:104970003C0A00203E0A00203D0A00207A6ADBF84B
:104980000000B31A3B6238B15F49C56E0A44F96949
:10499000A84700283FF430AE4EF65C40C0F6000059
:1049A000032100F009F940E54EF65840C0F600003A
:1049B000032100F001F938E5DBF8040000283FF49A
:1049C00034AD44F28111C0F6000103F019F9826B95
:1049D000CBF80000904728E5DBF80000836C002B43
:1049E0009FD006B9C36C796A984700287FF40DAF51
:1049F000DEE6BE68336853B1FA69012A02D144E0A9
:104A0000904242D0D3F880300130002BF8D1236897
:104A1000002B3FF4FAAE4FF64870C0F600000321B9
:104A200000F0CAF801E53B7F432B7FF476AF4FF6E9
:104A300024706146C0F6000000F0BEF8F5E44FF6C1
:104A4000F860C0F60000032100F0B6F8EDE4DBF8F2
:104A500000002A464569A84711E7DBF800007A6A9A
:104A6000294E45693244A847C9E6DBF8040000280E
:104A70003FF4CBAE44F28111C0F6000103F0C0F860
:104A8000826BCBF800009047C5E744F281111846CD
:104A9000C0F6000103F0B4F820600346B8E7456DA6
:104AA0007A6A97F82030A84700287FF4AEAE7FE6F8
:104AB0004FF66C71C0F60001134807F11C0207F1B4
:104AC000240305F03FFB01283FF458AF4FF68471F3
:104AD000C0F600010C4805F0A7FB054600287FF44E
:104AE00020AF4FF63460C0F60000022100F064F8F9
:104AF0008BF8085499E4836B984701238BF80834AA
:104B0000DBF8000071E500BF3C0A00202DE9F0430E
:104B1000054683B00F464FF0000801E004283FD05F
:104B2000FFF784FA24282870F8D100242646FFF7DE
:104B30007DFA232811D0BC420FD0242804BF0026C0
:104B40003446F4D07D2820D028550644FFF76EFA6D
:104B5000232804F10104F6B2EDD1FFF767FA8DF8CE
:104B60000400FFF763FA4FF000098DF8050049468D
:104B700001A810228DF8068005F000FE864213D0B1
:104B80002D200121FFF70AFACAE7FFF74FFA7D3619
:104B9000F6B2064480F020002855F6B20134C6E78C
:104BA000012003B0BDE8F0832B200121FFF7F6F9C7
:104BB00005F804902046F4E72DE9F047824682B0DC
:104BC00089460F184FF0040824200021FFF7E6F96A
:104BD000B9F1000F47DD554600260EE084F02004B1
:104BE00000217D36FFF7DAF9F6B220460021FFF703
:104BF000D5F93444BD42E6B213D015F8014B7D20FF
:104C0000A4F12303DBB2844218BF012B8CBF002127
:104C10000121E3D92046FFF7C1F92644BD42F6B28F
:104C2000EBD123200021FFF7B9F94FF69C713246F2
:104C3000C0F6000101A805F05DFA9DF8040000210E
:104C4000FFF7ACF99DF805000121FFF7A7F94FF434
:104C5000FA60FFF735FA2B2802D0B8F10108B3D17A
:104C600002B0BDE8F0870026DBE700BF0FB400B557
:104C700083B004AB53F8041B01A81A46009307F055
:104C80000FFA01460198FFF797FF019804F092FE92
:104C900003B05DF804EB04B0704700BF2DE9F041AC
:104CA00000AF054605F0DEFB410001F1100323F0E3
:104CB0000703ADEB030D6C464F23284604F8013B78
:104CC00001F1010805F0CEFB29460246204600F01E
:104CD0001DF868464146FFF76FFFBD46BDE8F0810D
:104CE0000FB400B583B004AB53F8041B01A81A46F7
:104CF000009307F0D5F90198FFF7D0FF019804F071
:104D000059FE03B05DF804EB04B0704770B4DAB13B
:104D10005200961C4FF6A4740644C0F60004831C8F
:104D20000D7802332D09655D03F8045C11F8015B11
:104D300005F00F05655D03F8035CB342F0D1024452
:104D40000023137070BC70470246F9E770B462B379
:104D50000231024411F8024CA4F13003DBB2092BFA
:104D6000A4F1370505D9EBB2102B84BFA4F157038A
:104D7000DBB21B01DDB200F8015B11F8014C02311E
:104D8000A4F13003DBB2092BA4F1370605D9F3B245
:104D9000102B84BFA4F15703DBB22B43904200F8E1
:104DA000013CD7D1104670BC70470246FAE700BFFD
:104DB0002DE9F04741F2881582B00027C2F20005C4
:104DC00041F284160446C2F2000602F0D5FE3946CE
:104DD00078222846376005F01DF900F0EBF900F065
:104DE00055FA03200421002C00F0118100F0CEFAC6
:104DF0003368052B3ADC03EB830305EB83039B78D5
:104E0000102B33D823788BB30134A8461BE03368CA
:104E100014F8010C03EB830205EB8201CF7088705C
:104E200005F8223014F8012C013303EB8301052B24
:104E300008EB81011744336018DC8B78102B15D8F0
:104E400014F8013B93B14FF6B872C0F6000201A806
:104E5000002100F0C5FA019BDB07D8D44FF0FF30EA
:104E600002B0BDE8F087052B00F3CB80012001469E
:104E700000F05CFA0120022100F088FA01200321F1
:104E800000F084FA8D4F002407E09C4200F3B980C3
:104E9000013B1B1B07F8143C01340020012100F0EA
:104EA00045FA143733680028EFD041F284179C424A
:104EB000C2F2000740F0A5800120014600F036FA5A
:104EC0000120022100F062FA3C68002C00F0E28030
:104ED000631E12D003EB830305EB830304EB84040E
:104EE0001B79774905EB840515F8122C143D134402
:104EF000DBB205F8103C8D42F6D100F0C7F9012075
:104F0000032100F043FA3368002BC1BF41F2881738
:104F1000C2F200074FF000084FF001091BDD00202E
:104F2000012100F003FA78B1C7F808901F24022588
:104F30000020012100F0FAF910B1BB682B43BB60DF
:104F4000013C4FEA4505F3D1336808F101084345B8
:104F500007F11407E3DC0120014600F0E7F9012026
:104F6000022100F013FA3368002B28DD41F2881784
:104F700040F277494FF6B87AC2F20007C0F6A0397E
:104F8000C0F6000A4FF000084FF0FF35B86820F077
:104F9000F0234B4522D04B4B002103E064690440D1
:104FA000A2421CD01A691C4601311033002AF5D1E7
:104FB000336808F10108434507F11407E6DC40F6C1
:104FC0007873C2F200031B68002B6ED000200146EC
:104FD00001F03AFB306802B0BDE8F08700210AEB2F
:104FE00001114B698A693D61FB60002AE0D03846B7
:104FF0009047336808F10108434507F11407C5DC01
:10500000DDE74FF0FF30306002B0BDE8F08700F020
:10501000BDF92046012100F089F90028F1D033685C
:105020000124052BAC70ECDC03EB830305EB83035D
:105030009B78102BE5D8A146B0462F461BE00129EE
:1050400003F101023FF40FAF02EB820107EB810392
:1050500083F80290DC70C8F80020134607F821207E
:1050600003EB8302052B05EB820204F10104C8DC8B
:105070009378102BC5D80121002000F057F9336830
:1050800003EB830205EB820291780028D7D101312E
:105090009170E5E74EF67040C0F60000012101F086
:1050A000D3FA204602B0BDE8F0874EF67040C0F655
:1050B0000000012101F0C8FA8CE700BF891100202F
:1050C0009C110020C4FF000830B5036983B08B42F7
:1050D00004460D46019136D041F28413C2F200031A
:1050E000186800280DDD41F2881300EB8000C2F241
:1050F000000303EB80004FF0FF321A611433834248
:10510000FBD103200421256100F040F94FF6B8716E
:10511000C0F600010020E27800F0A6F9207901A98C
:10512000D0F1010038BF0020A27800F09DF94FF6C1
:10513000B871C0F600010120227900F095F9012034
:10514000022100F023F903B030BD00BFF8B50446DA
:105150000D460120032116461F4600F017F94FF6B1
:10516000B8712278C0F60001002000F07DF9BDB1D1
:1051700061782846D1F1010132463B4638BF002113
:1051800000F02EF94FF6B8716278C0F600010120E8
:1051900000F06AF9BDE8F8400120022100F0F6B8FD
:1051A00060783146D0F101003A4638BF002000F067
:1051B0005BF9E7E74FF400602DE9F041C4F201002C
:1051C00003210022102303F02BFA40F608044FF4C9
:1051D000016140F61402C4F20101C4F20102C4F2FA
:1051E0000104332310264FF0080520200E60013BF8
:1051F0001580086027681080F8D1102340F614004D
:105200004FF40161202540F608049C46C4F20100D9
:10521000C4F201012F46C4F201044EF23C7208268A
:1052200012F0010F14BFC1F800C0A0F800C00E605A
:10523000013B0D60D4F800804FEA52020780EFD1A5
:1052400040F614014FF40162202540F60804C4F230
:105250000101C4F201022F46C4F2010406201F23FB
:105260004FF0100C082613F0010F14BFC2F800C055
:10527000A1F800C0166001381560D4F800804FEA2C
:1052800053030F80EFD1BDE8F08100BF2DE9F0019D
:1052900040F6144383B0C4F20103002202211980B6
:1052A0000192019B42F20F72934206DC00BF019B08
:1052B00001330193019B9342F8DD4FF44163C4F243
:1052C0000103022240F614004FF40161202540F64C
:1052D00008041A60C4F20100C4F201012F46C4F2AE
:1052E000010406221F234FF0100C082613F0010FB3
:1052F00014BFC1F800C0A0F800C00E60013A0D60F4
:10530000D4F800804FEA53030780EFD103B0BDE823
:10531000F001704710B5044601F012F924B142F2D1
:10532000107300BF013BFCD110BD00BFF8B14FF4BA
:105330000163C4F2010310221A6001BB40F614039A
:10534000C4F2010308221A804FF401612022C4F242
:10535000010140F608030A60C4F20103186840F630
:105360001403C4F20103C0F380101A80704740F6A2
:105370001403C4F2010310221A800029DED04FF476
:105380000163C4F2010308221A60DDE72DE9F00190
:105390004B1E09B340F614014FF40162202540F67C
:1053A0000804C4F20101C4F20102AC46C4F20104D3
:1053B0001027082610F0010F03F1FF3314BF176008
:1053C0000F801660B3F1FF3F1560D4F800804FEAFC
:1053D0005000A1F800C0EDD1BDE8F001704700BF5A
:1053E0002DE9F00740F6080C40F614064FF401656D
:1053F00013F1FF338846C4F20106C4F20105C4F27A
:10540000010C4FF001044FF0100A4FF008094FF063
:1054100020071CD311782140FBB1A6F800A0C9B128
:10542000C5F800902F60DCF80010378011F0400FB5
:10543000017814BF2143A143640014F0FF040170FC
:1054400002BF01320130012413F1FF33E2D2BDE883
:10545000F0077047A6F80090E4E7B8F1000FDCD041
:10546000C5F800A0DBE700BF2DE9F00340F6080C0B
:1054700040F614054FF4016412F1FF32C4F2010545
:10548000C4F20104C4F2010C4FF001034FF0100903
:105490004FF008084FF0200614D30F781F40BAB120
:1054A000A5F800908FB1C4F800805B0013F0FF03F3
:1054B000266004BF0131012312F1FF32DCF80070D5
:1054C0002E80EAD2BDE8F0037047A5F80080ECE733
:1054D0000028E5D0C4F80090E4E700BF2DE9F041D2
:1054E00098469B109C00123424F0070400AFADEBEB
:1054F000040D00910446114602A84246019304F0AF
:1055000013FD40F21002C2F200024FF000513023AE
:1055100066692046B04730216A4608F10803C2F2A6
:10552000000165692046A847636B4FF00051204693
:105530009847636C204600219847236C2046984783
:105540000028FAD00020BD46BDE8F0812DE9F043E7
:10555000D0F8845022F47F77522283B021F47F78F0
:105560002846CAF200220021FCF744FE4FF45043C3
:105570006868C4F20F03009327F0030784690121D0
:105580000022042328F00308A04737B34FF0020994
:10559000CAF242490026284610214246FCF72AFE5C
:1055A0006868CDF800908469012100220823A04793
:1055B00068680121009684690A460823A047686844
:1055C00001210096082384690A46A0478307F6D480
:1055D000B7F5806708F58068DDD1002003B0BDE82D
:1055E000F08300BF4EF2040110B5C4F20F0104466F
:1055F000D0F88400FDF730F841F24903B3EB104FC7
:1056000013D140F2CC23C0F6010345F24D5145F2CF
:10561000DD4203F11800C0F60001C0F6000260662A
:105620006367A166E266012010BD002010BD00BFC7
:105630002DE9F041036A40F6406223F003050A3584
:1056400025F00705C2F2000200AF4FF00008ADEBF5
:10565000050D4FF43E4504460B461580A2F8028026
:1056600046694FF08051B0476946A36A2046984783
:10567000042618204FF4FC61012241F6F173C1F2B7
:105680000000C1F20001C1F20002C1F6FF73C1F2D5
:105690000006019011910F936946E36A00960E92FD
:1056A000204698474146636C20469847236C204625
:1056B00098470028FAD040F64061C2F200012569FF
:1056C00020464FF080522823A847BD46BDE8F08110
:1056D000F8B540F64065C2F2000500242B4643F8B9
:1056E000044B083343F8044B43F8044B43F8044B92
:1056F00043F8044B43F8044B0A4443F8044B571E49
:105700000E0B32223F0B28211C60EF60AE606A60F6
:10571000FFF78EFFA869001B18BF6FF00000F8BDEF
:105720002DE9F04F01EB030808F1FF384FEA112A89
:105730004FEA182885B0C9B2C2451F4681461646B1
:10574000039171D8282340F6406BC1F20003C2F2E6
:10575000000B02934FEA0A2554462DE031464FF4E0
:105760008072A7F58077164404F0DEFB4846294690
:105770004FF48072FFF7ACFF002850D133204FF474
:105780008071029B42F6E062CBF80400CBF8101067
:1057900048464FF49471CBF81420CBF80850CBF85E
:1057A0000C30FFF745FFDBF81820002A37D1013411
:1057B000A04505F5807537D3544518BF44451C48AE
:1057C000CCD1FF214FF4807204F024FC039B3146BE
:1057D000C3F5807CBC45A8BFBC4603F128006246E7
:1057E0005844CCEB0707CDF804C004F09DFBDDF86E
:1057F00004C0664485B9BCF1060F10DD0D4A294688
:1058000052F8043F19440C4B9A42F9D14942002303
:10581000CBF844100393A9E700230393A6E74FF0C6
:10582000FF3005B0BDE8F08F002005B0BDE8F08F77
:10583000680E0020640E0020800E0020F8B5C1F331
:105840000B030D46064614461BBBFFF741FF00BB8A
:10585000671E2F4440F64064C2F2000442F6E06343
:1058600034223F0B2D0B304628212361E760A560D1
:105870006260FFF7DDFEA3695BB93046352328215E
:105880006360FFF7D5FEA069003818BF6FF0000015
:10589000F8BD4FF0FF30F8BD48F2F43110B5C4F256
:1058A00004010446D0F88400FCF7D6FE49F22B022E
:1058B000C1F6402290421FD034D941F22B02C2F2ED
:1058C0004052904218D066D849F22B02C2F22452BC
:1058D000904211D07AD849F22B02C2F2165290426D
:1058E0000AD04DF22B02C2F21652904204D02B2263
:1058F000C2F25802904267D140F29C4040F2BC3163
:1059000045F63D0245F22173C0F60100C0F60101E3
:10591000C0F60002C0F6000360676166A266E36637
:10592000012010BD48F22B02C0F65C129042E3D079
:1059300041F22B0217D8C0F234429042DCD058D842
:1059400045F22B02C0F21E429042D5D045F22B0206
:10595000C0F225429042CFD045F22B02C0F216424F
:10596000904231D1C8E7C1F221429042C4D069D8F7
:1059700048F22B02C0F698129042BDD049F22B0299
:10598000C0F640229042B7D048F22B02C0F67A12FD
:10599000904219D1B0E748F22B02C2F67A12904237
:1059A000AAD03BD848F22B02C2F65C129042A3D098
:1059B00044F22B02C2F6721290429DD049F22B02A1
:1059C000C2F24052904297D0002010BD41F22B020B
:1059D000C2F2325290428FD049F22B02C2F23252BE
:1059E000904289D04DF22B02C2F224529042EBD168
:1059F00082E741F22B02C0F2444290423FF47CAF76
:105A000045F22B02C0F2444290423FF475AF45F29A
:105A10002B02C0F234429042D6D16DE744F22B0201
:105A2000C2F6881290423FF467AF48F22B02C2F6EA
:105A3000981290423FF460AF2B22C2F6801290423F
:105A4000C2D159E741F22B02C1F2314290423FF4F8
:105A500053AF41F22B02C1F2404290423FF44CAFAF
:105A600041F22B02C1F230429042ADD144E700BF77
:105A700010B54EF60C5140F2A442CEF20001C0F631
:105A8000010244690423A047012010BD4FF6FF72B4
:105A900000F16643C0F20702934203D900F1654367
:105AA000934209D8B3F5803F04D3A3F58030000CAE
:105AB00008307047580B70474FF0FF30704700BFF9
:105AC0002DE9F04383B0056A00AF25F003050A35E0
:105AD000164625F007054FF48072ADEB050D88469C
:105AE000C1F24002391D0423056904464FF0000944
:105AF000A8474FF43E424FF440413346A8F80020F7
:105B000066694246C2F20001A8F802902046B047FA
:105B10006946A36A204698474CF2040678684CF21E
:105B20001C014A464CF20103C2F20001C2F201021A
:105B3000C2F20003C2F2000601910E930F90694673
:105B4000E36A00961192204698474946636C2046C6
:105B50009847236C204698470028FAD04FF44042DB
:105B60004146C2F20002256920463023A8470C377F
:105B7000BD46BDE8F08300BF70B5ADF5815D84B072
:105B80003223054608460C4616460193FFF77EFF72
:105B900002903019FFF77AFF4FF6FF73C0F2070348
:105BA00004F166429A42039098BF002306D904F19B
:105BB00065449C428CBF4FF0FF3301232846694661
:105BC0000025302204930795FFF77AFF0798401BC2
:105BD00018BF6FF000000DF5815D04B070BD00BF0F
:105BE0002DE9F04F01EB030B0BF1FF3B0F0BADF574
:105BF000825D4FEA1B3B83B05F459A46029706469B
:105C0000914670D8C1F30B01C1F5805705974CF24E
:105C10003007C2F200070397029F049106AC4FEAD7
:105C200007383D4636E004F07FF9AAF5805A09F5B9
:105C3000805941464FF480523046FFF79DFF009057
:105C4000009F4CF230010135C2F2000112AA4FF45C
:105C500080533046002F3FD17769B847039F4FF4F8
:105C6000805CE760009F42F6E0634FF0330E304601
:105C7000214641F23002C4F808806361E044E761E4
:105C8000C4F804E0C4F810C0FFF71AFFE3691BBBB7
:105C9000AB4528D3029F4946BD424FF4805212A81B
:105CA00027D0AB45BFD14FF480570023FF214FF4DD
:105CB000805212A8019304F0ADF9019B5745A8BF8B
:105CC000574603F13000494620443A46C7EB0A0ADA
:105CD00004F02AF9B944ACE74FF0FF300DF5825DCE
:105CE00003B0BDE8F08F00200DF5825D03B0BDE884
:105CF000F08F049B059FD9E730B54FF40063ADF5F5
:105D0000815D85B0C0F200136C21044600936A46A1
:105D10004569C4F205010423A84720460023312425
:105D20006946302201940793FFF7CAFE07980038AE
:105D300018BF6FF000000DF5815D05B030BD00BFEC
:105D400070B50546ADF5815D4868002184B00A460E
:105D500004F014FD012804460AD940F2C070C0F6D0
:105D60000100FEF7BDFF00200DF5815D04B070BDA0
:105D70002846FFF7C1FF3C2642F6E0632846694605
:105D8000002541F230020393029401960795FFF734
:105D900097FE079B53B940F29470C0F60100FEF7DE
:105DA0009FFF01200DF5815D04B070BD40F2A87029
:105DB000C0F60100FEF794FF28460DF5815D04B0A2
:105DC00070BD00BF022908B507D040F2EC70C0F6E4
:105DD0000100FEF785FF002008BD1146BDE8084020
:105DE000AEE700BF2DE9F047ADF5815D84B0064612
:105DF000FFF782FF002425464FF032080E274FF0B0
:105E0000340A42F6E069304669463022CDF8048013
:105E10000295039704940795FFF752FE079B3046BF
:105E200069463022D3B9029305940793CDF804A0B4
:105E30000397CDF81090FFF743FE079B01346BB931
:105E4000022CE0D140F60C00C0F60100FEF748FF3E
:105E500001200DF5815D04B0BDE8F08700200DF54F
:105E6000815D04B0BDE8F0872DE9F043C1F30C0675
:105E7000ADF5815D85B00C4617460546002E5AD11A
:105E8000FFF73AFF002856D1284621463A46FFF749
:105E900073FE00284FD1342320460193FFF7F6FD0F
:105EA0008046E019CDF80880FFF7F0FD4FF6FF734C
:105EB000C0F2070304F1664742F6E0629F42814662
:105EC0000390049227D8002328466946302207937E
:105ED0000596FFF7F5FD079B6BBB4FF6FF72C0F20F
:105EE000070235219742CDF80880CDF80C9001913A
:105EF00019D8284600246946302204930794FFF7F6
:105F0000DFFD0798001B18BF6FF000000DF5815DE5
:105F100005B0BDE8F08304F165469E428CBF4FF0AA
:105F2000FF360126CFE704F1654494428CBF4FF061
:105F3000FF330123DDE74FF0FF300DF5815D05B044
:105F4000BDE8F0834FF4485138B5C4F2040104466B
:105F5000D0F88400FCF780FB4FF46D410546CEF28B
:105F60000001D4F88400FCF777FB2B23C5F6061359
:105F70009D4228D02B23C6F606139D4223D02B2307
:105F8000C4F606139D4201D0002038BD20F47F02E4
:105F90004FF4424322F00F02C4F200139A4229D078
:105FA0004CF24023C4F200139A421CD14CF241221D
:105FB00040F61803C4F20F12C0F601039042636763
:105FC00026D0012038BD20F47F004FF4424320F05A
:105FD0000F00C4F2001398420CD04CF24023C4F2DC
:105FE000001398420DD040F64803C0F601036367E2
:105FF000012038BD40F63403C0F601036367012079
:1060000038BD40F61803C0F601036367012038BDB0
:106010000B4945F6696045F6E133C0F60003C0F66A
:10602000000040F62C02A06661662046E36601F59A
:106030002F71C0F6010201F0C9FD012038BD00BF7B
:10604000A804010808B500F073F948B941F2082026
:10605000C2F2000004F040F8FEF7C8F9002008BDC5
:1060600040F6C00040F6B80240F6C803C0F6010092
:10607000C0F60102C0F601032C2103F019FC00BF99
:1060800038B5D0F884504EF204510446C4F20101F0
:1060900028460222FCF702FA03E0E368204698470C
:1060A00000BB4FF46441C4F201012846FCF7D4FA66
:1060B0000028F2D04EF20C51C4F201012846012210
:1060C000FCF7ECF903E0E3682046984750B94FF439
:1060D0006441C4F201012846FCF7BEFA0028F2D060
:1060E000012038BD002038BDF8B5D0F884500E46E8
:1060F0004EF20451044617462846C4F2010102221A
:10610000FCF7CCF904E0E36820469847002845D125
:106110004FF46441C4F201012846FCF79DFA0028BF
:10612000F1D027F47F7737F003071CBF26F47F7682
:1061300026F003061AD04EF20851C4F20101284697
:106140003246FCF7ABF903E0E3682046984728BBEA
:106150004FF46441C4F201012846FCF77DFA00289F
:10616000F2D0B7F5806706F58066E4D14EF20451AF
:10617000C4F2010128460022FCF790F903E0E3682D
:106180002046984750B94FF46441C4F201012846B3
:10619000FCF762FA0028F2D00020F8BD4FF0FF3083
:1061A000F8BD00BF2DE9F84301F0030503F1030E2C
:1061B000AE444FEA9E0E99460EF102039B000E4636
:1061C00003F10A0121F0070100AFADEB010D044618
:1061D00002A8A3F1080C11464FF0FF33761B0EF115
:1061E000010E4A462844D4F884508DE840100293AA
:1061F0004DF82E3003F098FE4EF204512846C4F2BA
:1062000001010122E846FCF749F904E0E168204673
:10621000884700283AD14FF46441C4F2010128466E
:10622000FCF71AFA0028F1D040F24002C2F2000254
:1062300066694FF0005128232046B0472821424686
:1062400009F10803C2F2000166692046B047636B9A
:106250004FF0005120469847E3682046984706468D
:10626000A0B9636C204631469847236C2046984776
:106270000028FAD04EF204512846C4F2010100224F
:10628000FCF70CF93046BD46BDE8F8834FF0FF3609
:106290003046BD46BDE8F8835C2138B5C1F2000147
:1062A0000446D0F88400FCF7D7F980B2A0F11D03B2
:1062B0002066302B1AD8DFE803F01B19191B1919B7
:1062C0001919191B1919191B191919191B19191938
:1062D0001919191919191919191B1919191B19192A
:1062E000191B19191B191919191B1B00002038BD7E
:1062F00040F6D01540F6E00146F2E90046F2A5135B
:10630000C0F60003C0F60105C0F60101C0F60000AA
:1063100040F6E0126166A06665672046D831E36604
:10632000C0F6010201F052FC012038BD0120704787
:1063300010B502F061FA41F21400C4F202004FF409
:10634000805102F0ACFB41F21800C4F202000421BB
:1063500002F0A5FB41F21800C4F20200082102F08D
:106360009EFB41F21800C4F20200012102F097FBEB
:1063700041F21400C4F20200402102F090FB40F60A
:1063800014024FF48073C4F201024FF400601380D2
:10639000C4F201000021012202F042F94FF4006032
:1063A00000223823C4F20100032102F039F94FF42E
:1063B0000060C4F201004FF4014102F072FA4FF4A0
:1063C0004060C4F201004FF4005102F06AFA4FF449
:1063D0000060C4F2010048F2801102F062FA4FF44A
:1063E0004060C4F2010042F2020102F05AFA4FF496
:1063F0004060C4F201000221002240F6044302F092
:106400000FF94FF40060C4F2010002210022802342
:1064100002F006F94FF401620423C4F201024FF4C2
:1064200000601360C4F201000321012202F0F8F8B9
:106430004FF441630221C4F201034FF440600A4665
:106440001960C4F201000B46002102F0E9F80020B7
:1064500003F0ECF94BF6A030C0F20D0003F0DEF9CA
:106460004EF62353CEF200031A784FF4545402F040
:106470000F021A701A78C0F20C0442F0E0021A708F
:1064800003F0E0F903F0E6F941F21800C4F202006B
:106490004FF4007102F003FB00214FF440600A4604
:1064A0000123C4F2010002F0BBF84FF41050C4F213
:1064B000010002F059F84FF41050C4F2010002F04C
:1064C00058F84FF41050C4F2010002F062F84FF493
:1064D0001050C4F2010002F019F84FF41050C4F249
:1064E000010002F04BF84FF41050C4F201000321F8
:1064F00002F025F84FF41050C4F2010001F0F6FF4D
:1065000000BF013CFCD14FF41050C4F2010002F076
:1065100002F84FF41050C4F2010002F006F84EF6F3
:106520000853CEF200034FF400521A6001F05EFCF3
:1065300001F03EFE2046FEF73BFC204610BD00BFAA
:1065400030B140F61403C4F2010304221A807047EC
:106550004FF40163C4F2010304221A60704700BFC4
:1065600041F20422C2F2000210601368002BFCD139
:10657000704700BF10B541F26423C2F200031B78DC
:10658000002B52D141F20423C2F200031A6812B167
:106590001A68013A1A6040F66873C2F200031A687A
:1065A000002A31D0197900292FD119680A780131D0
:1065B000196062B91A7A002A44D041F20022C2F26C
:1065C000000212681A601A68511C12781960413A68
:1065D000D2B2192A32D840F6E810C0F6010000EB1A
:1065E0008201897830F82220013902F00100C9B215
:1065F000DA8088B14FF44160C4F201004FF40064C6
:1066000004605208DA80197110BDDA88013902F08D
:106610000100C9B20028EDD140F61442C4F20102D3
:106620004FF400601080DA88EBE74FF44060C4F26A
:1066300001004FF4806102F030F9A3E70022DA8014
:106640000321E9E71A6010BD30B440F66873C2F266
:10665000000341F2002240F61444C4F201044FF456
:1066600000651972C2F2000210601860258030BC0B
:10667000704700BF10B5082382B00DEB03024FF442
:106680001050C4F2010002F8013D012101F086FF23
:106690004FF41050C4F2010001F030FF4FF41050DD
:1066A000C4F2010001F06FFF0028F7D04FF4105042
:1066B000C4F2010001F06BFF412200EB400000EB4F
:1066C0004013C0F20802A2FB0312991A02EB510216
:1066D0004CF6CD41120BCCF6CC41A1FB024143F26A
:1066E0006730CCF6D340A0FB0343C90801EB81011E
:1066F000A2EB41021B0C40F26800C2F200003033F2
:1067000030320370827002B010BD00BF08B54FF484
:10671000406000224FF48053C4F20100022101F0D6
:106720007FFF40F61443C4F201034FF480521A80F5
:1067300008BD00BF08B540F60843C4F2010319685C
:106740004FF4006001F4005189B2C4F2010051B964
:106750004FF48073012201F063FFBDE808404FF45D
:10676000005002F0E9B94FF480730121002201F0DA
:1067700057FFBDE808404FF4005002F0DDB900BFFC
:1067800038B5E021282003F083F8282003F072F8C0
:106790004FF440654FF441624FF401634FF40054ED
:1067A000C4F20105C4F20102C4F201034FF4807186
:1067B00014602846022219602346002101F030FFB0
:1067C0002046294602F0BEF92046022102F08CF94B
:1067D000204602F0A7F9FFF7ADFF38BD70B5D0F83D
:1067E000845042EA03220E46044642F0B442284650
:1067F0000431FBF753FE083602E0E368984770B9AE
:1068000028463146FBF728FF10F0010F2046F4D050
:1068100028463146FBF720FF00F0060070BD4FF020
:10682000FF3070BD70B50646084640F6A441C0F67C
:10683000010115461C4603F0F7FCB0B906F4706080
:10684000B0F5106F1AD0B0F5206F28D0B0F5E06F1A
:1068500008BF4FF4102313D0E4B1A5F500254FF481
:1068600020602560C4F20E0070BD9CB1A5F58005C6
:106870004FF420602560C4F20E0070BD4FF4202359
:106880009D42E9D974B1ED1A4FF460602560C4F2FD
:106890000E0070BD4FF42060C4F20E0070BD4FF4C6
:1068A0004023EDE74FF46060C4F20E0070BD00BFFE
:1068B00070B500220446616F1346006ED4F8846000
:1068C000FFF7B0FF05460D22002329462046FFF7BB
:1068D00085FF05F10C013046FBF7BEFE014640F690
:1068E000B040C0F60100FEF7FBF9012070BD00BF0B
:1068F000F8B50446164600220D46006E616F134639
:10690000FFF790FF032D074607D040F6C040C0F6C2
:106910000100FEF7C3F90020F8BD706802F0EEFF39
:106920000546B06802F0EAFFABB200280CBF0C22AB
:106930000B2239462046FFF751FF2046FFF7B8FFEC
:106940000120F8BD2DE9F0410646C2B00F4601AB6B
:106950001546716F3A46006EFFF764FF019CFF21F8
:106960004FF48072804602A803F054FB394602AA15
:10697000776930464FF48073240AB8471DB910E098
:10698000B5F580750DD0A3B2304641460322FFF71E
:1069900025FF01340028F3D04FF0FF3042B0BDE8AE
:1069A000F081002042B0BDE8F08100BF2DE9F04F3A
:1069B0000F46C5B005461E46144603AB3A46006E68
:1069C000696FFFF72FFF039B019003F1FF38B0447D
:1069D0004FEA13294FEA1828C14598BFCA46DAB2D0
:1069E00098BF53460392C2EB070B98BF994618D93C
:1069F00033E003F099FAA6F5807604F580745946E1
:106A000004AA4FF480736F692846B84701221FFA21
:106A100089F3284601999144FFF7E0FE08BBC84579
:106A20001BD3D14518BFC14521464FF4807204A83D
:106A3000DFD1FF2103F0EEFA039804ABC0F58077B5
:106A4000BE42B8BF3746214618443A4603F06CFAB6
:106A50000023F61B3C440393D1E7002045B0BDE87A
:106A6000F08F4FF0FF3045B0BDE8F08F38B5D0F86B
:106A700084504FF414610446C4F20E012846FBF71B
:106A8000EBFDE023C0F6F07360220340C0F6500235
:106A90009342206641D06022C0F6600293423CD00F
:106AA0006022C0F64002934237D04FF4E861284696
:106AB000C4F20E01FBF7D0FDE023C0F6F0736022B4
:106AC0000340C0F64012934220660BD06022C0F60D
:106AD0005012934206D06022C0F63012934201D089
:106AE000002038BD1C4940F6F04546F6451046F6F4
:106AF000AD13C0F60003C0F60105C0F6000040F675
:106B0000FC42A066616620466567E3662439C0F6EC
:106B1000010201F05BF8012038BD40F6A44540F6C3
:106B2000502146F6451046F6AD13C0F60003C0F6F8
:106B30000105C0F60101C0F6000040F6E8426166BA
:106B4000A0666567204601F58C71E366C0F6010218
:106B500001F03CF8012038BD8C0B010838B542F239
:106B60000404C4F2020440F223122146C4F2675224
:106B70000546FBF793FC48F6AB1228462146CCF6B7
:106B8000EF52BDE83840FBF789BC00BF38B5D0F8FC
:106B9000845042F210010446C4F2020128464FF428
:106BA0000872FBF77BFC42F210012846C4F2020196
:106BB0004FF41872FBF772FC02E0E368984760B983
:106BC00042F20C01C4F202012846FBF745FD10F029
:106BD000010F2046F1D1012038BD002038BD00BF93
:106BE00038B5D0F8845004462846FFF7B7FF42F284
:106BF00010012846C4F202010422FBF74FFC42F2C6
:106C000010012846C4F202014422FBF747FC02E0CF
:106C1000E3689847C0B942F20C01C4F20201284669
:106C2000FBF71AFD10F0010F2046F1D142F20C01E2
:106C30002846C4F20201FBF70FFD00F03400B0F16A
:106C400020035842584138BD002038BD2DE9F84393
:106C5000D0F88460C3F1000909EA0207044630460F
:106C6000984609EA0109FFF779FF57B342F210018C
:106C70003046C4F202010222FBF710FC42F214017A
:106C800030464A46C4F20201FBF708FC42F210010A
:106C90003046C4F202014222FBF700FC02E0E56844
:106CA000A847E8B942F20C01C4F202013046FBF7F2
:106CB000D3FC10F0010F2046F1D1B7EB0807C14417
:106CC000D4D142F20C013046C4F20201FBF7C4FCFD
:106CD00000F03400203818BF6FF00000BDE8F883E2
:106CE0004FF0FF30BDE8F8834FF40063AEE700BF1C
:106CF0004FF48063AAE700BFF8B54FF6FF739A42DE
:106D0000044616460F46D0F884501CD042F21001BB
:106D10002846C4F202014FF40472FBF7BFFB284679
:106D200039463246FBF7D0FB02E0E368984760B98A
:106D300042F20C01C4F202012846FBF78DFC10F070
:106D4000010F2046F1D10120F8BD0020F8BD00BFA1
:106D50002DE9F047036E84B0A3F222431E2B0446B4
:106D60000F469046D0F8846088BF45F6A5290DD817
:106D7000012202FA03F31146C4F20101194045F65B
:106D8000A52945F2AA53002918BF994642F21C01D1
:106D9000C4F202013046FBF75FFC00F0020530460A
:106DA000FFF7DCFE42F2080140F223123046C4F243
:106DB0000201C4F26752FBF771FB42F2080148F688
:106DC000AB123046C4F20201CCF6EF52FBF766FB81
:106DD000022F33D0002D3DD1032F4BD040F6DC7075
:106DE000C0F60100FDF75AFF40F6FC70C0F6010046
:106DF000FDF754FF4FF478444FF61007C1F6FF74C7
:106E0000C1F6FF7721463046FBF726FC054641F2E6
:106E100024002146AAB2C0F60100FDF761FF41F24D
:106E20002400A11C2A0CC0F601000434FDF758FF11
:106E3000BC42E7D1012004B0BDE8F08740F67C7188
:106E4000D8F80400C0F6010103F0EEF900286DD077
:106E5000002DC3D040F68470C0F60100FDF71EFF80
:106E600040F6A070C0F60100FDF718FF012004B045
:106E7000BDE8F087D8F8040029462A4603F07EFCD6
:106E8000294607462A46D8F8080003F077FC07F1A0
:106E9000604808F500684FEA5808B8F1070F8146C6
:106EA000D4F88470A6D805F10051A1F500613846E8
:106EB000FBF7D2FB6B1004AA043502EB4301102D43
:106EC0004FEA104221F8100C21F80E2CEBD14FEABA
:106ED000480804AB434433F8103C1FFA89F999453C
:106EE00088D04FF6FF72934205D02046FFF74EFE42
:106EF00000283FF47FAF04AB98444FF478454FF639
:106F0000100A28F8109CC1F6FF75C1F6FF7AADF1A2
:106F100002072946204637F8022F0235FFF7ECFE1C
:106F200000283FF467AF5545F3D163E72046FFF7EC
:106F30002DFE4FF4784120464A46C1F6FF71FFF717
:106F4000DBFE57E72DE9F047984608F1030C01F006
:106F500003039C444FEA9C0C0CF1020E4FEA8E0E88
:106F60000E460EF10A0121F0070100AFAEF1080E46
:106F7000ADEB010DF61A8DE840400DF108094FF018
:106F8000FF3A04460CF1010C114609EB0300CDF861
:106F900008A04246D4F884904DF82CA002F0C4FF1B
:106FA00040F27002C2F200024FF000512C23204642
:106FB0006669B0472C216A4608F10803C2F2000155
:106FC00065692046A847636B20464FF000519847FB
:106FD000E36820469847C0B90146636C204698474D
:106FE000236C204698470028FAD042F20C0148460C
:106FF000C4F20201FBF730FB10F0140F0CBF0020AD
:107000006FF00000BD46BDE8F0875046FAE700BFCC
:107010004FF4005138B5CEF204010446D0F8840094
:10702000FBF71AFBC0F30B00A0F582632066222B4E
:1070300062D8DFE803F0456145612C6161612C6134
:1070400061616161616145611261616161612C61D0
:1070500061616161616161611200474946F6E94021
:1070600046F64573A1F1E005C0F60003C0F6000046
:1070700041F24C026167A06665662046A1F58E71FB
:10708000E366C0F6010200F0A1FD012038BD3B49D6
:1070900046F6E94046F6457301F11805C0F60003CF
:1070A000C0F6000041F240026167A06665662046B6
:1070B0002439E366C0F6010200F088FD012038BDE6
:1070C00040F63C51C0F6010146F6F14046F64573E4
:1070D00001F11805C0F60003C0F6000041F23402C9
:1070E0006167A06665662046F431E366C0F601027A
:1070F00000F06CFD012038BD4FF4B041C4F2010135
:10710000D4F88400FBF7A8FAC0F30B03A3F5886258
:10711000082A236628D8012101FA02F240F2111050
:10712000104010B340F24442934222D0B3F5896F2D
:107130001CD0B3F5886F01D1114B6367114946F636
:10714000F14046F64573C0F60003C0F6000041F278
:107150005402A06661662046E366DC31C0F6010297
:1071600000F034FD012038BD002038BD064B6367B8
:10717000E4E7064B6367E1E74C0F0108540E010892
:10718000640F0108540D0108700F0108580F010821
:1071900070B5D0F884500E4642F63B2243F60841C3
:1071A0000446C4F202012846C0F61902FBF776F93C
:1071B00043F6084146F67F622846C4F20201C4F64F
:1071C0005D42FBF76BF903E0E3689847002839D18B
:1071D00043F60C41C4F202012846FBF73DFA10F4D5
:1071E000803F2046F0D126F0704626F0130643F685
:1071F000144132462846C4F20201FBF74FF943F628
:107200001441284646F00202C4F20201FBF746F997
:1072100002E0E3689847B8B943F60C41C4F20201B2
:107220002846FBF719FA10F4803F2046F1D143F6C7
:107230001441284646F00102C4F20201FBF72EF980
:10724000012070BD012070BD002070BD022970B505
:1072500005461646D0F884403CD0032908D141F2B7
:107260001441C0F60101506802F0DEFF002842D050
:1072700040F6DC70C0F60100FDF710FD41F21C4045
:10728000C0F60100FDF70AFD4FF44041C1F6FF7161
:107290002046FBF7E1F94FF4404182B241F224006D
:1072A000C0F60100C1F6FF71FDF71AFD4CF20801AE
:1072B0002046C1F6FF71FBF7CFF94CF2080182B20C
:1072C00041F22400C0F60100C1F6FF71FDF708FD90
:1072D000012070BD40F67C715068C0F6010102F0DB
:1072E000A3FF0028C4D14AF6ED212846C0F6FF715D
:1072F000FFF74EFFC8E701460A46B06803F0E8FA18
:1073000001462846FFF744FFBEE700BF2DE9F047DE
:1073100003F1030C01F00306B4444FEA9C0C0CF19A
:1073200002084FEA88088E4608F10A0121F0070199
:1073300000AFADEB010DC6EB0E0E11460DF10809C5
:107340001A464FF0FF3AA8F108030446CDF800E0D2
:107350000CF1010C019309EB0600CDF808A0D4F85C
:1073600084904DF82CA002F0DFFD40F29C02C2F2A6
:1073700000024FF00051302320466669B0473021AB
:107380006A464346C2F2000165692046A847636B1E
:1073900020464FF000519847E36820469847C0B90F
:1073A0000146636C20469847236C20469847002886
:1073B000FAD043F60C414846C4F20201FBF74CF9FF
:1073C00010F0F20F0CBF00206FF00000BD46BDE8CA
:1073D000F0875046FAE700BF43F6104110B5C4F2FB
:1073E00002010446FBF738F9002800DB10BD43F624
:1073F000044140F223122046C4F20201C4F2675253
:10740000FBF74CF843F6044148F6AB122046C4F2B1
:107410000201CCF6EF52BDE81040FBF73FB800BFC9
:1074200070B541F2784382B0C0F601030546D5F845
:10743000846093E80300009041F24440C0F60100EC
:107440008DF80410FDF72AFC3046FFF7C5FF43F620
:1074500010413046C4F202010422FBF71FF843F644
:10746000104104223046C4F20201C0F20102FBF7CF
:1074700015F8002407E013F8081CFDF731FCEB6851
:107480002846984738BB43F60C41C4F20201304607
:10749000FBF7E2F804F0030302AA10F4803F41F284
:1074A00074401344C0F6010004F10104E3D14EF628
:1074B000A060C0F60000FDF7F1FB43F60C4130463A
:1074C000C4F20201FBF7C8F800F0F300431E584273
:1074D000584102B070BD4EF6A060C0F60000FDF746
:1074E000DDFB002002B070BD2DE9F84FD0F88450CC
:1074F0004FF6FF794FF44046CA46044617462846E1
:10750000C0F2FF760E40C0F20109FFF765FFC0F23E
:107510000F0A8FB3B6F5803F3DD2F30A4FF0020B4E
:1075200043F04072C0F2013B42F0020243EA0B0B0F
:107530004FF4804843F610412846C4F20201FAF79E
:10754000ADFF43F6104128465A46C4F20201FAF74D
:10755000A5FF02E0E368984790BB43F60C41C4F2F4
:1075600002012846FBF778F810F4803F2046F1D15D
:10757000B7EB08074644CDD143F60C412846C4F288
:107580000201FBF769F810F0F20F0CBF00206FF05A
:107590000000BDE8F88F4E4516D9564510D8A6F51F
:1075A00000339B0B28334FF0020B43F04072C0F2C4
:1075B000013B42F0020243EA0B0B4FF40038B9E7FB
:1075C0004FF0FF30BDE8F88F4FF0220B5A46C0F263
:1075D0000032C0F2013B4FF48038ABE74FF400516A
:1075E00070B5CEF204010446D0F88400FBF734F8FD
:1075F0006FF48262C0F30B008218122A08D80125AA
:1076000005FA02F240F20513C0F2040313400BB96D
:10761000002070BD41F27C01C0F6010147F2E94053
:1076200047F20D3301F10C06C0F60003C0F600006E
:1076300041F280426167A0666666204601F55D7191
:10764000E366C0F6010200F0C1FA284670BD00BF33
:107650002DE9F04F984611F0030383B004460D4620
:107660009146D0F8846017D0C3F10407002202A825
:10767000474528BF474640F8042D494618443A4636
:1076800002F052FC25F003013046019AFAF706FF9A
:10769000C7EB0808B9443D4415F07F0A26D0B8F17D
:1076A000030F13DCB8F1000F36D143F61841304612
:1076B000C4F20201FAF7D0FF41F602730340981EAC
:1076C00018BF6FF0000003B0BDE8F08FCAF1800A68
:1076D000C24588BF28F0030A29464A466769204602
:1076E0005346B847CAEB08085544D144B8F1800F57
:1076F00020DCB8F1030FD5DD28F0030729464A4600
:107700003B46D4F814C0204608F00308E0473D4447
:10771000B944B8F1000FC8D0002302A84946424638
:1077200040F8043D02F000FC30462946019AFAF781
:10773000B5FEBAE743F60441C4F2020130464FF405
:107740008162FAF7ABFE02E0E368984768BB43F654
:107750001841C4F202013046FAF77EFF10F0010A28
:107760002046F1D128F07F0B29464A465B466769DF
:10777000B84743F6044130465246C4F20201FAF7D4
:107780008DFE02E0E368984778B943F61841C4F2E9
:1077900002013046FAF760FF10F0010F2046F1D1E8
:1077A000D9445D4408F07F08A3E74FF0FF3003B0F1
:1077B000BDE8F08FF8B5D0F884500E46174643F672
:1077C0000C414CF6EF520446C4F202012846C8F6BA
:1077D000AB12FAF763FE43F60C4140F2054228462D
:1077E000C4F20201C0F20322FAF758FE43F6104138
:1077F0004AF6BF622846C4F20201C8F69D42FAF773
:107800004DFE43F6104141F216522846C4F20201E1
:10781000C1F21432FAF742FE43F604412846C4F29C
:1078200002014FF40272FAF739FE02E0E36898476A
:1078300088BB43F61841C4F202012846FAF70CFF50
:1078400010F0010F2046F1D137F0FF0418BF26F0E9
:10785000FF0609D0314628460022FAF71FFEB4F58C
:10786000807406F58076F5D143F60441284600225F
:10787000C4F20201FAF712FE43F618412846C4F298
:107880000201FAF7E9FE41F602730340981E18BFA1
:107890006FF00000F8BD4FF0FF30F8BD4FF400511D
:1078A00010B5CEF204010446D0F88400FAF7D4FEF5
:1078B00040F21643C0F30B00984204D020339842A4
:1078C00001D0002010BD41F28843C0F6010347F209
:1078D000B57147F2516203F10C00C0F60001C0F629
:1078E000000260666367A166E266012010BD00BF0A
:1078F00010B540F67473C2F2000319780246814253
:1079000016D01870A8B94FF4016440F61403202172
:10791000C4F20104C4F201034FF400602160C4F218
:1079200001001980BDE810400321102300F078BE4B
:1079300010BD4FF40060002101221023C4F20100A9
:1079400000F06EFE4FF4016140F614032022C4F2F1
:107950000101C4F201030A601A8010BD38B500208D
:10796000FFF7C6FF4FF40162202040F61401C4F275
:1079700001020546C4F2010132231024013B1460C8
:1079800010600D80FAD138BDF8B504460120FFF72C
:10799000AFFF631EE4B140F608074FF401662025EF
:1079A00040F61404C4F20107C4F20106AC46C4F266
:1079B0000104002001223968013BC90648BF104379
:1079C000591CC6F800C04FEA42022580F3D1F8BD29
:1079D0002046F8BD2DE9F0414FF000080C46C0F8F4
:1079E000008005460120FFF783FF631E002C3CD07A
:1079F00040F6080C4FF40167202640F6140140467B
:107A0000C4F2010CC4F20107B046C4F20101012224
:107A1000DCF80040C7F80080E40642BF2C6880F024
:107A20000100144303F1FF330E8044BFC0B22C6049
:107A30005C1C4FEA4202EBD140F60803C4F201039A
:107A40001C684FF40161E40640F614034FF0200275
:107A5000C4F20101C4F2010348BF80F001000A60D2
:107A600048BFC0B21A80BDE8F0812046E4E700BFFD
:107A700070B50D4604460020FFF73AFF6B1EC5B1F6
:107A800040F614014FF401622020C4F20101C4F257
:107A900001020646102514F0010F03F1FF3314BF55
:107AA00015600D80B3F1FF3F16604FEA5404088063
:107AB000F1D170BD08B5FFF751FF4EF29E70102155
:107AC000FFF7D6FFFFF74AFF00201021FFF7D0FF96
:107AD000002008BD2DE9F0410D4604460020FFF7C7
