:020000040800F2
:1000000000500020A11500089F1500089D1500084C
:100010009D1500089D1500089D15000800000000B2
:100020000000000000000000000000009F15000814
:100030009F150008000000009F15000859010008E6
:100040009D1500089D1500089D1500089D150008C8
:100050009D1500089D1500089D1500089D150008B8
:100060009D1500089D1500089D1500089D150008A8
:100070009D1500089D1500089D1500089D15000898
:100080009D1500089D1500089D1500089D15000888
:100090009D1500089D1500089D1500089D15000878
:1000A0009D1500089D1500089D1500089D15000868
:1000B0009D1500089D1500089D1500089D15000858
:1000C0009D1500089D1500089D1500089D15000848
:1000D0009D1500089D1500089D1500089D15000838
:1000E0009D1500089D1500089D1500089D15000828
:1000F0009D1500089D1500089D1500089D15000818
:100100009D1500089D1500089D1500089D15000807
:100110009D1500089D1500089D1500089D150008F7
:100120009D1500089D1500089D1500089D150008E7
:100130009D1500089D1500089D1500089D150008D7
:100140009D1500089D1500089D1500089D150008C7
:1001500008B501F089FA00BF4FF44060C4F2010015
:100160004FF4006100F0EFBB41F2180008B5C4F293
:100170000200082100F0EBFB4FF44060C4F20100E4
:100180004FF4805100F0DCFB08B100F00BFA0020C6
:1001900000F0F8F900F090FB002001F049FA4BF66E
:1001A000A030C0F20D0001F03BFA41F21800C4F299
:1001B0000200042100F0CBFB41F21400C4F2020063
:1001C0004FF4805100F0C3FB00214FF400600A4659
:1001D000C4F201004FF4807300F082FA01F034FAA7
:1001E00001F03AFA4FF44060C4F20100022100220B
:1001F0004FF4406300F074FA4FF44060012204238E
:10020000C4F20100002100F06BFA41F62010C0F6A4
:100210000000002100F01CF94FF40060C4F201005E
:100220004FF4807100F08AFB4FF4006000224FF41D
:100230008073C4F20100022100F052FA4FF4006012
:10024000C4F201004FF4807100F078FB00F06AF90D
:10025000002008BDF8B540F20404C2F2000423787F
:100260000646042B06D0072B03D1BDE8F840FFF764
:100270006FBFF8BD40F23405C2F2000500F076FB16
:10028000B5F8083863BBEF782A793F04697840F203
:10029000000307EB0267C2F20003AA780F441B6851
:1002A00007EB02279F4212D3D5F80C389F420ED29B
:1002B0002B78212B04D0412B04D1384600F03CF997
:1002C000C5F8047800F064FB05232370F8BD00F046
:1002D0005FFB304600210122BDE8F84000F0DFBBA3
:1002E000D5F80408023B294600EBC320B5F80028E6
:1002F00000F034F9E6E700BF2DE9F041087882B05C
:1003000000F07F002128144603D0002002B0BDE891
:10031000F0814A78013A052AF7D801A050F822F076
:10032000B30300080B030008650300084F0300082F
:1003300039030008C903000840F20402C2F20002B7
:10034000107821680122087010461A80DEE740F21A
:100350000403C2F200031A780A2A39D0012002B03D
:10036000BDE8F08140F20405C2F200052A78266853
:10037000032A30D0062A66D1002107272F708C4629
:100380008846002535702068062680F801802068A0
:1003900040F2552280F802C02068C0F60002C17009
:1003A000216801200F7121684D711E80089B1A6021
:1003B000ACE70BB11A886ABB40F20403C2F2000337
:1003C00006221A700120A1E740F20403C2F20003E2
:1003D00002221A70C2E740F23402C2F20002D1785F
:1003E00010795778090401EB00619078394401EBEA
:1003F000002104271078B2F808282F70019300F02C
:10040000BFF82F785FFA80F8C0F3072CC0F30741DC
:10041000019BB6E78A78C97840F2340042EA0122AB
:10042000C2F20000A0F808281A882168A0F8002865
:100430001A8801F021F940F20403C2F200030322FA
:100440001A70012062E7002117468C46884698E71B
:10045000F0B54FF2E0724FF2E8754FF2EC74C1F66E
:10046000FF74C1F6FF72C1F6FF754FF2F0732D688D
:10047000C1F6FF732668146840F234071A68C2F2A6
:100480000007A3022E44164485B08E46C7F80C38E8
:1004900007F61804002226FA02F5043205F00F05CB
:1004A0003035202A04F8015DF5D11C4A02F1080517
:1004B00012F8014B392C84BF073402F8014CAA42D0
:1004C000F6D1174B4FF4006440F63C1241F2C47170
:1004D0000294C0F60001A3F11006C2F20002042546
:1004E00000240192BEF1000F08BF334601F114024F
:1004F000009587F8184800F07FFA40F6381440F26B
:10050000F923C2F20004C0F6000321217F222060FB
:1005100005B0BDE8F04000F068BB00BF4408002013
:100520001800002010B540F63814C2F2000420680C
:1005300000F084FAFBE700BF38B540F22804C2F2AD
:10054000000420F47F70236820F003059D4203D04F
:10055000284600F089F8256038BD00BF002A70B534
:100560000DDD013A22F00102861C044616440D1AE4
:100570002046295B023400F047F8B442F8D170BD40
:1005800064207047012808B500D008BD00F0EEF9DE
:1005900042F21003C4F2020300221A60BDE80840D0
:1005A00000F010BA40F20002C2F20002116808B571
:1005B00008680023C2F6FE730340B3F1005F00D069
:1005C00008BD4EF60853C1F31401CEF200031960C2
:1005D00013681A6882F308885B68984708BD00BFF3
:1005E000064B1868064B1B68B3F5007F82BF054BAE
:1005F0001B68184300F03500704700BF0C20024014
:10060000E0F7FF1F4C20024038B504460D4600F0CD
:10061000C7F9114B1B68B3F5007F04D90F4B9C42FF
:1006200001D90F4B00E00F4B1A6842F001021A602B
:10063000258000F0B5F9084B1B68B3F5007F04D99D
:10064000064B9C4201D9064B00E0064B1A6822F08B
:1006500001021A6038BD00BFE0F7FF1FFFFF070867
:10066000502002401020024010B5044600F098F9D6
:10067000154B1B68B3F5007F09D9144B9C4206D972
:10068000134B1A6842F002021A60124A05E0124B3C
:100690001A6842F002021A60104A14601A6842F0A6
:1006A00040021A6000F07CF9074B1B68B3F5007F2D
:1006B00004D9064B9C4201D9054B00E0064B1A6851
:1006C00022F002021A6010BDE0F7FF1FFFFF0708CB
:1006D00050200240542002401020024014200240CA
:1006E0002DE9F047066845684FF6E07C002443FAA0
:1006F00004F7FF0721D51FFA84F8B8F1070F04D8D3
:100700004FEA8807BFB2B14601E06746A9464FF0FD
:100710000F0A0AFA07FA29EA0A0907F1020A02FA95
:100720000AFA01FA07F74AEA070747EA0907B8F1A0
:10073000070F98BF3E4688BF3D4601340CF1040CBC
:10074000102C1FFA8CFCD2D106604560BDE8F08702
:10075000024B1A6842F080721A6070470010024023
:10076000062827D8DFE800F004090E13181D220020
:10077000114B1B689901FBD570470F4B1B681A0181
:10078000FBD570470C4B1B689B00FBD570470A4B91
:100790001B689803FBD57047074B1B689907FBD56F
:1007A0007047064B1B689A07FBD57047044B1B68C4
:1007B0009B07FBD5704700BF00100240201002408D
:1007C0002410024006281FD8DFE800F004060B10B2
:1007D00015171900FFF7BCBF0C4B1A6842F0806276
:1007E00011E00A4B1A6842F080520CE0074B1A687D
:1007F00042F4803207E0054B02E0054B00E0054B78
:100800001A6842F001021A60704700BF00100240EF
:100810002010024024100240034B1A6822F0030209
:1008200010431860704700BF04100240034B1A6861
:1008300022F4701242EA80401860704704100240AF
:10084000034B1A6822F4803242EA00401860704775
:1008500004100240034B1A6822F4003242EA40407E
:100860001860704704100240034B1A6822F440429B
:1008700042EA80301860704704100240034B1A6847
:1008800022F4605242EAC02018607047041002400F
:10089000034B1A6822F4E06242EA002018607047B5
:1008A00004100240034B1A6822F0F00242EA0010E2
:1008B000186070470410024008B50420FFF782FF5B
:1008C0000420FFF74DFF0020FFF7A6FF0320FFF7EE
:1008D00079FF0320FFF744FF0120FFF79DFF002071
:1008E000FFF7E0FF0320FFF7BFFF0420FFF7D0FF73
:1008F0000020FFF7C3FF022000F02EF80720FFF7CB
:1009000095FF0120FFF79CFF0020FFF7A3FFFFF7F3
:100910001FFF0020FFF724FF0220FFF77DFF034A9F
:10092000034B1A60034A044B1A6008BD00512502AC
:100930002C00002000A24A04300000200161704712
:10094000806808407047C3685940C16070470368B9
:100950001943016070470000034B1A6822F0070238
:1009600010431860704700BF00200240064B1A6811
:1009700042F080021A60054A43F80C2C02F18832DA
:1009800043F80C2C704700BF10200240230167453C
:10099000024B1A6842F080021A6070471020024031
:1009A00008B5FFF71DFEC307FBD408BD034B044A7F
:1009B0001A6002F188321A60704700BF08200240B6
:1009C0002301674510B50B4CFFF7EAFF23689A0532
:1009D00001D4FFF7EBFF236843F020032360236873
:1009E00043F040032360FFF7DBFF236823F020037D
:1009F000236010BD102002402DE9F041054600683B
:100A000098460E4617468047069BC0F8C850C360FC
:100A1000079B80E8C0010361BDF820308382044B4E
:100A2000C366044B8366044B4366BDE8F08100BF98
:100A3000110C00086B0C0008F10C000808B5D0F888
:100A4000C8305B6A984708BD37B5069CD0F8C850D7
:100A50000094AC68A04703B030BD37B5002405460C
:100A60008475C4752146224640230094FFF7ECFFAD
:100A7000D5F8C83028465B6821469847EB6903B132
:100A8000984703B030BD10B5D0F8C840E469A0471E
:100A900010BD10B5D0F8C840246AA04710BD08B5F5
:100AA000D0F8C8301B69984708BD08B5D0F8C830E1
:100AB0009B69984708BD10B5002101220446FFF745
:100AC000EEFF002384F82C3010BD38B50268838F08
:100AD000C58ED279ED1A9542A8BF1546826BADB28C
:100AE0001A4400212B460446FFF7D3FFA84205D045
:100AF0002046FFF7E0FF4FF0FF3038BDA38F0344DF
:100B0000A38738BD38B503680446DD79838F00219B
:100B10009D42826B0FD22B46FFF7B5FF022384F86C
:100B20002C302368A26BD9790A44A263DB79A28FA7
:100B3000D31AA38738BDFFF7A6FF032384F82C3010
:100B40000023A387A36338BD2DE9F34104460E4675
:100B500000F14408002558F8057057B92046314681
:100B600004F1380204F13C0302B0BDE8F04100F0AA
:100B7000C1BA08EB0503587931781A7900EA010304
:100B80009A4203D00835202DE5D1E7E704F1400370
:100B900000932046314604F1380204F13C03B84783
:100BA0000128EFD802B0BDE8F08110B50269044613
:100BB00082638A79CB7942EA03238387FFF7C4FFF4
:100BC00070B1A18F204619B1BDE81040FFF79ABF60
:100BD0000B460A46FFF757FF042384F82C3010BD5C
:100BE0002046BDE81040FFF766BF70B5002500EB5A
:100BF000C504666C2EB10135042DF8D14FF0FF30DD
:100C000070BD84F8481084F849206364304670BD94
:100C100070B500F1300600250564294632460823E8
:100C20000446FFF736FF082804D02046BDE8704090
:100C3000FFF741BFE38E1BB194F93020002A05DA9B
:100C400020463146BDE87040FFF7AFBFA28A9A4206
:100C5000EBD32269A587A2632268D2799A4234BF76
:100C60000523062384F82C3070BD90F82C3010B585
:100C7000062B044610D0072B24D0052B33D1FFF7C9
:100C800024FF002833DBA38FE28ED21A2368DB799E
:100C90009A422CDC062310E0FFF717FF002826DB22
:100CA000204604F13001FFF74FFF48B100210B4609
:100CB00020460A46FFF7E7FE042384F82C3010BDD7
:100CC000204610E000210B460A46FFF7E2FE002313
:100CD00084F82C30236C1BB1204604F13001984776
:100CE0000023236410BDBDE81040FFF7E4BE10BD33
:100CF00090F82C3010B5032B044607D0042B07D0F6
:100D0000022B1CD1BDE81040FFF7FCBE072313E007
:100D1000036C13B100F13001984794F8303053B9A7
:100D200094F83130052B06D1D4F8C830618E5B6859
:100D30002046C9B29847002384F82C3010BDBDE886
:100D40001040FFF7B8BE38B54B88C27D04469A42C2
:100D50000D460FD0C375D0F8C830DB689847D4F87B
:100D6000C4203AB100236364E3646365E36520460D
:100D700069889047012038BD1988012984BF012165
:100D800019801368C27D01201A7070474A8812B911
:100D90001A800120704700207047012018801368D6
:100DA00000221A70704719880120022984BF02218D
:100DB0001980116800230B701268537070471988EE
:100DC0000120022984BF02211980116800230B70C1
:100DD00012685370704738B514461A882568022A7D
:100DE00084BF02221A808988C9B2FFF75EFE0030F4
:100DF00018BF01202870236800225A70012038BDD6
:100E000008B589880122C9B2FFF749FE012008BD53
:100E100008B589880022C9B2FFF741FE012008BD4C
:100E200010B50A7872B94C887F2C0BD8D0F8C8302E
:100E3000847593F830201AB149885B68C9B2984725
:100E4000012010BD002010BD2DE9F04F0446488858
:100E50001D46C3B2000A022887B017460FD00328E8
:100E600000F0CC80012840F00481236813602368DF
:100E70002A881B789A4238BF13462B80FAE02069F3
:100E80000D275F431060D4F804802E8818F80740BF
:100E900008EB0703A64238BF3446194622460293A0
:100EA000019000F0E9FB019B361B002018F8077049
:100EB0002344B6B203900298039902798A4240F221
:100EC000998003990C224A43029805920599D0F81B
:100ED00009200A44D2F80480B8F1000F14D098F821
:100EE000009018464E4538BFB1464A46414600F08C
:100EF000C3FB98F800200346C9EB06064C44174490
:100F00004B44B6B2A4B2BFB2002202980492059933
:100F1000D0F809200598114412580498904264DAD8
:100F200004984FF0150A0AFB00FAD1F808B01846E9
:100F30001BF80A900BEB0A084E4538BFB1464A46EB
:100F4000414600F099FB03464B44C9EB0606A14419
:100F5000D8F81140B6B2A642B8BF3446A4B2224671
:100F60001846D8F80D101BF80AA000F085FBD8F839
:100F700011201FFA89F9924403461FFA8AFA361B98
:100F8000234457444C44B6B2A4B2BFB24FF0000958
:100F900098F804204A4524D94FF0070B0BFB09FBB6
:100FA000D8F809C018461CF80BA00CEB0B015645ED
:100FB00038BFB2465246CDF800C000F05DFBDDF808
:100FC00000C003461CF80B20CAEB06065444174425
:100FD00009F101095344B6B2A4B2BFB21FFA89F9AC
:100FE000D6E704994A1C92B28FE703994A1C92B241
:100FF000039260E7019B5F802C8038E0266953B93B
:101000000923B3700423F37033702B88042B28BF9B
:1010100004232B8028E0A068013B58B3E268934288
:1010200027DA898840F20942914222D150F8230000
:101030004FEA830800F096FB01304300DBB23370C7
:101040002A88934228BF13462B8000232A885208FF
:10105000013A934208DAA26852F80820D15C06EB04
:10106000430251800133F1E7032373703E60012096
:1010700000E0002007B0BDE8F08F000038B54C78E4
:10108000092C05D8044D55F824401CB1A04738BDA3
:10109000002038BD204638BDC818000838B54C7847
:1010A0000B2C05D8044D55F824401CB1A04738BD81
:1010B000002038BD204638BDF018000810B54C7827
:1010C000012C03D009D3032C03D004E04C8834B1A5
:1010D00001E04C882CB1002010BD034C02E0034C11
:1010E00000E0034CA04710BDD70D0008110E00080A
:1010F000010E000810B50C7814F0600F12D104F046
:101100001F04012C0AD005D3022C0BD1BDE81040DE
:10111000FFF7D4BFBDE81040FFF7B0BFBDE81040F7
:10112000FFF7BCBF002010BD1D4B02221A6053F810
:10113000082C42F0800243F8082C5A6A42F410222C
:101140005A62184B1A68002AFBDA1A6842F0010248
:101150001A601A6812F00102FBD1134B1348196888
:1011600041F0804141F470511960114B196841F010
:1011700003011960C3F800260E4A80231360A0F80B
:10118000CC300D4B1A6842F001021A600B4A1A610A
:101190000B4B0F221A60012243F80C2C704700BF42
:1011A00014000050100000500C00005050080020A7
:1011B0000008005024000050080000501828048047
:1011C0001C080050D0F8C830DB6AD3F8002822F49D
:1011D000FE6242EA0111C3F8001870472DE9F0479A
:1011E00011F07F05089ED0F8C84003F07F073AD180
:1011F0003F2BE26A02D9C2F8005909E01F2B01D93E
:10120000012103E00F2B8CBF02210321C2F800193A
:10121000E26ABFB2C2F81079E26A47F00057D2F82A
:10122000001947F4002741F00841C2F80019E26AAA
:10123000C0F8D470C2F8107BE26A9B08D2F8001B99
:1012400041F00841C2F8001B618EE26A41EA0341A5
:101250009162B0F8CC2013449BB2A0F8CC30A0F837
:10126000CE30BDE8F08711F0800F4FEA82422AD0DD
:10127000B0F8CCC0E16A4FEA93084CEA084A05F19D
:10128000400941F829A0E16AC444A0F8CCC04FEA63
:10129000451801F511611FFA87FC41F808C0E16AA1
:1012A00042F0184208F5106742F400427C5813439C
:1012B00043EA855323437B5026B30C2303FB0500ED
:1012C0004666BDE8F08747F4002100EB8507C7F8C4
:1012D000D410E76A4FEA451807F5316C4CF808104E
:1012E000E16A08F5306742F014427C5842F400424B
:1012F000134323437B502EB10C2303FB050086666A
:10130000BDE8F087BDE8F087B0F8CE30A0F8CC306B
:10131000704710B5D0F8C83051B9D86AD0F8004934
:1013200012B144F4001401E024F40014C0F80049A0
:10133000080646BF01F07F0148315831490122B10A
:10134000DB6ACA5842F4001208E0DA6A885820F4CE
:1013500000108850DB6ACA5842F08052CA5010BD53
:1013600011F0800FD0F8C8301ABF01F07F0148316A
:101370005831DB6A4901C858C0F3405070470B062A
:1013800010D4431883F8D020D0F8C8305831490120
:10139000DB6A1AB1CA5842F0006202E0CA5842F051
:1013A0008062CA50704770B5D0F8C85001F07F0114
:1013B000E86A4C0100F511600659360319D443F46C
:1013C00000260651E86A04F51064265846F00446E3
:1013D0002650EC6A481C04EB00300146C418641A1D
:1013E000002C04DD141A645841F8044BF6E7184643
:1013F00070BD002070BDF7B50D461146B0F8E42071
:101400006F1C934234BF1E461646D0F8C830921B5C
:10141000DB6AA0F8E420044603EB073732460846AF
:101420007B1A032A034404DD1B68043A40F8043B9A
:10143000F6E72AB11B6802A941F8043D00F01CF947
:10144000D4F8C83004EB8500D96AD0F8D4006A011A
:1014500001F531618850DB6A2C4402F5306294F862
:10146000D010D05800290CBF4FF004414FF0084174
:1014700001433046D15003B0F0BDD0F8C820F8B5D4
:10148000D36A04465E69B50409D54FF40051596129
:10149000538EA0F8CC30BDE8F840FFF7DEBAF10675
:1014A00031D51B6A03F4B012B2F5802F67D103F473
:1014B000F01203F00F05C3F30A13A0F8E430B2F5FD
:1014C000402F14BF012202224FF47A7300BF013B68
:1014D000FCD1032303FB052304EB83035B6E13B1F1
:1014E0002046294698470135B4F8E4102D0300231F
:1014F0008B4205DAD4F8C8200433D26AAA58F7E739
:101500000023A4F8E4300025D4F8C8306F01DB6A6A
:1015100003F60813DB59DA070ED50C2303FB05434A
:101520005B6E13B12046E9B29847D4F8C830012267
:10153000DB6A03F60813DA510135042DE4D13305D3
:1015400008D5236A03B19847D4F8C8304FF4006235
:10155000DB6A5A61002E08DA636A03B19847D4F84F
:10156000C8304FF00042DB6A5A61370707D5A36ADB
:1015700003B19847D4F8C8300822DB6A5A61F8BD35
:10158000D0F8C830DB6AD3F8042811B142F0020267
:1015900001E022F00202C3F804287047FEE770471A
:1015A0000022154915485318834204D2144BD358CE
:1015B00053500432F5E7134A934203D200221A60D3
:1015C0000433F8E7104C114B9C4203D254F8043B0F
:1015D0009847F8E70E4C0F4B9C4203D254F8043B5B
:1015E0009847F8E7FEF7C0FD0B4C0C4B9C4203D22A
:1015F00054F8043B9847F8E700000020340000202E
:10160000541900083C11002054190008541900080E
:1016100054190008541900085419000854190008F6
:10162000024B20F07F401860704700BF14E000E0DC
:10163000044B00F004001A6822F0040202431A600E
:10164000704700BF10E000E0024B1A6842F002024F
:101650001A60704710E000E0024B1A6842F0010285
:101660001A60704710E000E0014A024B1A60FEE782
:101670000400FA050CED00E0844641EA000313F093
:10168000030349D1403A23D30B6803604B6843609E
:101690008B688360CB68C3600B6903614B694361EE
:1016A0008B698361CB69C3610B6A03624B6A4362D6
:1016B0008B6A8362CB6AC3620B6B03634B6B4363BE
:1016C0008B6B8363CB6BC36340304031403ADBD2DA
:1016D00030320BD30B6803604B6843608B688360C8
:1016E000CB68C36010301031103AF3D20C3205D3FE
:1016F00051F8043B40F8043B043AF9D2043208D0D4
:10170000D2071CBF11F8013B00F8013B01D30B8845
:1017100003806046704700BF082A13D38B07B1D0FF
:1017200010F00303AED0C3F10403D21ADB071CBFD1
:1017300011F8013B00F8013BA4D331F8023B20F83B
:10174000023B9FE7043AD9D3013A11F8013B00F874
:10175000013BF9D20B7803704B7843708B78837020
:101760006046704720F0030110F00300C0F1000054
:1017700051F8043B00F1040C4FEACC0C6FF000026E
:101780001CBF22FA0CF213434FF0010C4CEA0C2C54
:101790004CEA0C4CA3EB0C0222EA030212EACC1234
:1017A00004BF51F8043B0430F4D013F0FF0F1FBF07
:1017B000013013F47F4F013013F47F0F18BF013055
:1017C000704700BF1201000200000040501D17606A
:1017D000000101020301000009020000010100C034
:1017E00032E81700080000000100000000000000BF
:1017F000F41700080904000000FE010204000000C4
:10180000000C18000809000000000000092109FF71
:101810000000081A01000000426C61636B205370E5
:101820006865726520546563686E6F6C6F67696583
:1018300073000000426C61636B204D616769632037
:1018400050726F626520284446552055706772615A
:101850006465290040496E7465726E616C20466C47
:101860006173682020202F307830383030303030AD
:10187000302F382A3030324B67000000426C6163F1
:101880006B204D616769632050726F626520285537
:10189000706772616465290040496E7465726E619B
:1018A0006C20466C6173682020202F3078303830EF
:1018B00030303030302F382A3030324B612C3132DA
:1018C000302A3030324B6700A70D000800000000BE
:1018D000000000000000000000000000210E0008D1
:1018E000490E000800000000790D0008470D0008AF
:1018F000BF0D000800000000000000000000000014
:1019000000000000000000000000000000000000D7
:1019100000000000000000009B0D00088D0D000875
:1019200029110008C5110008DD110008091300087D
:10193000131300087F13000861130008A7130008A1
:10194000F71300087B140008811500080000005000
:041950000100800012
:101954000020000802000000181800087C18000885
:1019640044080020981800081818000834180008C3
:101974004408002054180008FFFFFFFF00127A00FB
:0419840000127A00D3
:04000005080015A139
:00000001FF
