:020000040800F2
:1020000000500020719D00086D9D00086B9D000828
:102010006B9D00086B9D00086B9D00080000000090
:102020000000000000000000000000006D9D00089E
:102030006D9D0008000000006D9D0008D16600083D
:102040006B9D00086B9D00086B9D00086B9D000850
:102050006B9D00086B9D00086B9D00086B9D000840
:102060006B9D00086B9D00086B9D00086B9D000830
:102070006B9D00086B9D00086B9D00086B9D000820
:102080006B9D00086B9D00086B9D00086B9D000810
:102090006B9D00086B9D00086B9D00086B9D000800
:1020A0006B9D00086B9D00086B9D00086B9D0008F0
:1020B0006B9D000831860008058A00086B9D0008AA
:1020C0006B9D00086B9D00086B9D00086B9D0008D0
:1020D0006B9D0008B58900086B9D00086B9D00088A
:1020E000616800086B9D00086B9D00086B9D0008EF
:1020F0006B9D00086B9D00086B9D00086B9D0008A0
:102100006B9D00086B9D00086B9D00086B9D00088F
:102110006B9D00086B9D00086B9D00086B9D00087F
:102120006B9D00086B9D00086B9D00086B9D00086F
:102130006B9D00086B9D00086B9D00086B9D00085F
:102140006B9D00086B9D00086B9D000831850008A1
:10215000D0F88C3058684369184700BF0368013BCA
:1021600003607BB910B5044640680368013B0AD0A0
:102170000360E06908B1236A98472046BDE8104033
:1021800007F0F8BE704707F0F5FEF2E70368013389
:102190000360704703680133036070470368013BC5
:1021A00001D00360704707F0E5BE00BF10B582B0F4
:1021B00000920B46846901210022A04702B010BDA5
:1021C00070B5044682B000250B46012186690A4697
:1021D0000095B047009529462046A56901220C23A9
:1021E000A84702B070BD00BF70B504460D46164644
:1021F000217A406805F0F00282B0C36842EA0162C9
:1022000008219847606800962B46846901210022C6
:10221000A04702B070BD00BF2DE9F0430C46D0F8D6
:102220008C601546B26983B0304642F0100200213E
:102230001F46FFF7D9FF70680094D0F818C001213D
:1022400000220423E047A046274404F00302BC42D6
:102250004FEAC20E04F101094FF001014FF00002F4
:102260004FF00C031BD015F8014B706804FA0EF404
:1022700000948469A04789EA080222F47F7222F060
:1022800003020AB94C46E0E77068CDF80090846913
:10229000012100220423A047C8464C46D5E710463A
:1022A00003B0BDE8F08300BF2DE9F04F1446894626
:1022B000D0F88C5083B0AA690021284642F0100261
:1022C0009846FFF791FF6868009486690121002213
:1022D0000423B047002768680121009786690A46F1
:1022E0000C23B047A2464E4608F1FF3808EB040B1A
:1022F0005C454FF001014FF00C0368682BD000974C
:102300000A46D0F818C0E04704F00302013484EA1A
:102310000A03D20023F47F73D04023F0030306F8AE
:10232000010B002BE4D068680094D0F818C001219C
:1023300000220423E0476868012100970A460C2325
:10234000D0F818C0E0475C45A2464FF001014FF0BD
:102350000C036868D3D100250095866929460122BF
:10236000B04704F00304E400E04009F80800284600
:1023700003B0BDE8F08F00BF2DE9F0430C4699464D
:10238000D0F88C701646BA6983B0384642F0110214
:102390000021FFF729FF7868009401218569002258
:1023A000042349FA01F9A046A84701E009F1FF39E1
:1023B00004F00202D5000234012100220C23B9F1FD
:1023C000000F18D036F802EB78680EFA05F5009584
:1023D0008569A84784EA080222F47F7222F003028A
:1023E000002AE3D078680094856901210022042343
:1023F000A847A046DAE7484603B0BDE8F08300BF2F
:102400002DE9F04F92465B101F468B46D0F88C604A
:1024100085B0B2690021304642F011020393FFF704
:10242000E3FE7068CDF800A0846901210022042336
:10243000A047002470680121009485690A460C2396
:10244000A046A847D1463D4654465F46013D4FF061
:1024500001014FF00C0370682DD0CDF800800A46C2
:10246000D0F818C0E04704F00202023484EA0903FD
:10247000D20023F47F73D04023F0030327F8020B2C
:10248000002BE3D070680094D0F818C0012100221E
:102490000423E04770680121CDF800800A460C2330
:1024A000D0F818C0E047013DA1464FF001014FF0C0
:1024B0000C037068D1D10095846929460122A04798
:1024C000039B013B0AEB430A0AF0020A4FEACA0ADD
:1024D00020FA0AF02BF81300284605B0BDE8F08F6B
:1024E0002DE9F0410C461D46D0F88C701646BA69AD
:1024F00082B0384642F012020021FFF775FE78687C
:102500000094D0F818C0012100220423AD10E04748
:10251000A04600E0013D0434012100220C23CDB18E
:1025200056F804EB7868CDF800E0D0F818C0E04722
:1025300088EA040222F47F7222F00302002AE9D022
:1025400078680094D0F818C0012100220423E047E5
:10255000A046DFE7284602B0BDE8F0812DE9F04F44
:1025600093469B101E468A46D0F88C7085B0BA6997
:102570000021384642F012020393FFF735FE7868D7
:10258000CDF800B08469012100220423A0477868B7
:1025900000240121009485690A460C23A847A0461F
:1025A0003546D9465646013D4FF001014FF00C0328
:1025B00078682AD0CDF8008084690A46A047CAEB23
:1025C0000B0446F8040B344489EA040323F47F73B4
:1025D00023F00303002BE6D078680094D0F818C0ED
:1025E000012100220423E04778680121CDF8008012
:1025F0000A460C23D0F818C0E047013DA1464FF031
:1026000001014FF00C037868D4D100958469294604
:102610000122A047039B013B4AF82300284605B04E
:10262000BDE8F08F70B504460E461546826900215C
:1026300042F01202FFF7D8FD204632460421FFF790
:10264000D3FD20462A46BDE870400C21FFF7CCBDE3
:1026500070B504460E4615468B0748BF15048269BF
:10266000002142F01102FFF7BFFD2046324604214F
:10267000FFF7BAFD20462A46BDE870400C21FFF75F
:10268000B3BD00BF70B50C460546164682690021F1
:1026900042F01002FFF7A8FD224604F0030428468A
:1026A0000421E400FFF7A0FD06FA04F22846BDE885
:1026B00070400C21FFF798BD38B504460D464068C0
:1026C000217A05F0F002C36842EA016208219847C6
:1026D00060682946BDE83840FFF772BD2DE9F04F2C
:1026E000036802690133036004218BB007469047F9
:1026F000FB6840F0A0420421384698473B693846C1
:102700000421984700F02040B0F1204FF6D1DFF8C7
:1027100000A1DFF800914FF0000B41E007F022FC30
:102720000446064601AD0FCD0FC40FCD0FC43B6864
:102730002A68013322603B603046F421FFF7BCFF7A
:10274000F82130613046FFF7B7FF414670613046EF
:10275000FFF7B2FF20F03703B361942005F04EFD80
:102760003268DFF8B4C001323260DFF8B0E02349EC
:10277000234AC0F88C60234D234C244EC0F890A00F
:10278000C0F87C90C660C0F810C0C0F814E0856145
:10279000C4610162426201F065FBBBF5807F1FD01E
:1027A0004FF0000801A8FC21CDF80C8002978DF8AD
:1027B0000CB0CDF80480CDF81080CDF81480CDF8A1
:1027C0001880CDF81C80CDF82080CDF82480FFF74C
:1027D00073FF03460BF1010B24200493002B9DD1C2
:1027E0003B68013B03D03B600BB0BDE8F08F38463F
:1027F0000BB0BDE8F04F07F0BDBB00BFA922000839
:10280000192200080124000879230008512100083A
:102810005D2100081CF000085D250008E124000887
:1028200038B504460D468269002142F01202FFF7D6
:10283000DBFC20462A460421FFF7D6FC2046BDE8F3
:1028400038400C21FFF738BF38B504460D46826981
:10285000002142F01102FFF7C7FC20462A4604215E
:10286000FFF7C2FC20460C21FFF726FFAB074CBF49
:10287000000C80B238BD00BF38B505460C468269F1
:10288000002142F01002FFF7AFFC22462846042147
:10289000FFF7AAFC28460C21FFF70EFF04F0030403
:1028A000E400E040C0B238BDF0B585B00A9E5B08D8
:1028B000750F2F460546003203F006034FEAC604A3
:1028C00018BF012244EA0306002946EA020614BFA3
:1028D0000B210A21C069CDE9006702F0CFFBE8694E
:1028E0006A46232302A902F005FC029B039803F029
:1028F000070240F2E7340BE0E8696A46232302A9A5
:1029000002F0F8FB029B013C039803F0070208D099
:10291000012AF1D0022A0CD1DB0843EA407005B04D
:10292000F0BD297A0029F5D0012AF3D1204605B05F
:10293000F0BD0C4C23787BB10B48032102F020F949
:102940000023237005F068FC0848012103F026FFEE
:102950000748012107F078FE0648032102F010F92C
:10296000EEE700BF7411002030F0000838F00008D6
:102970001811002034F0000830B5054683B000245B
:102980002146009401220423FFF78EFF054B2846C1
:102990000093214622460423FFF786FF00F0320011
:1029A00003B030BD320000F030B5054683B00024DE
:1029B0000B46009421460122FFF776FF009428463B
:1029C000214601220C23FFF76FFF03B030BD00BF8B
:1029D00000B50B4683B0002100920A46FFF764FF62
:1029E00003B05DF804FB00BFF8B5202104460120C8
:1029F00007F06CFA074EA768074D0849084AC461FA
:102A00004760C660056141618261BDE8F840FFF73B
:102A100065BE00BFD1290008A9290008792900084E
:102A2000A9280008F0B583B0A9B3017F00295BD1C4
:102A3000A3259ABB03F00C03042B45EA430535D0CC
:102A4000082B33D0082107462846164605F072FBAE
:102A5000032005F00FFB40F2E734C0B209E028463E
:102A6000082105F067FB032005F004FB013CC0B220
:102A70003DD00228F3D0042834D001281FD1C6B994
:102A80000898202105F086FB0020082105F052FB64
:102A9000019803B0F0BD8125002ACBD003F00C03D0
:102AA00085F02405042B45EA4305C9D185F02005AE
:102AB000C8E701A8202105F001FB0028E4D0114C53
:102AC0002378D3B11048032102F05AF80023237071
:102AD00005F0A2FB0D48012103F060FE0C48012126
:102AE00007F0B2FD01233B77002003B0F0BD3B7A35
:102AF000002BC0D00228BED1F6E70648032102F021
:102B00003FF8E3E77411002030F0000838F00008C7
:102B10001811002034F0000800B50B4683B00021E6
:102B200000910122FFF77EFF03B05DF804FB00BFB8
:102B300000B50B4683B0002100920A46FFF772FFF2
:102B400003B05DF804FB00BF30B5002183B004235F
:102B5000009101220446FFF765FF10F0020F0CBF41
:102B600000231023C20648BF43F00203810648BF7A
:102B700043F00403020648BF43F00803002100F0BD
:102B8000B20500930A460B462046FFF74BFF284646
:102B90000023237703B030BDF8B505F03DFB2021BD
:102BA000012007F093F9044605F0E4FA204B1B7866
:102BB0005BBBA520082105F0BDFA032005F05AFAF9
:102BC000C7B2012F25D1201D202105F077FA054637
:102BD000F8B9184BDFF870E01749184AA361C4F838
:102BE0000CE0216162612046154EFFF7ADFF2046E3
:102BF000FFF774FD3368B3B12846294603F0CEFDD4
:102C00003068003018BF0120F8BD012002F032FB0F
:102C1000CFE701210B4803F0C1FD204607F0AAF9D8
:102C20004FF0FF30F8BD3946064803F0B7FDE7E73F
:102C300096110020252A0008192B0008492B0008AE
:102C40007C0E002048F00008312B0008704700BFC0
:102C500008B5034698309A6A07F016FC002008BDB4
:102C600008B5034608469A6A03F1980107F00CFC80
:102C7000002008BD38B5436C04460025984703E0A2
:102C80000220013D03F01CFDA36C2046984700285C
:102C9000F6D0281C18BF012038BD00BF30B504464F
:102CA00083B002AD05F8011D0068022102F0E6F9CB
:102CB0002A4620680423002102F01CFA20680C2117
:102CC00002F0DCF903B030BD2DE9F04180461C462E
:102CD0000E4682B09430012100271546FFF7DEFF33
:102CE000D8F8940039466A4621238DE8C00002F0E6
:102CF00001FA74B12E682123D8F8940069466A4617
:102D00008DE8C00002F0F6F9009B013C45F8043B59
:102D1000F0D102B0BDE8F08130B5054683B002AC19
:102D20000022012364E9022394300221FFF7B6FF59
:102D30002246D5F894000021262302F0DBF9D5F8CD
:102D4000940021462246262302F0D4F9009810F080
:102D5000010007D0284605F1980203491023FFF728
:102D6000B3FF012003B030BDFFFF80E8F0B504469B
:102D700083B000F198021C491023FFF7A5FF02ADB4
:102D80000022202365E9022304F194063046022143
:102D9000FFF784FF2A46D4F894000021262302F08E
:102DA000A9F90022134620461049FFF78DFF30464F
:102DB00001210E4EFFF772FF01272A46D4F8940036
:102DC00000212123CDE9006702F094F9002220467A
:102DD00013460749FFF778FFD4F89400042102F066
:102DE0004DF903B0F0BD00BFFFFF90E80000A0E187
:102DF000F8FFFFEA30B5054683B00222202302AC7B
:102E000064E9022394300221FFF748FF2246D5F8F7
:102E100094000021262302F06DF903B030BD00BFFD
:102E20002DE9F0418046D82005F0E8F9114E124B0B
:102E3000DFF858C0DFF858E0104D114C1149124A24
:102E40004027C0F89480C0F87CC0C0F804E08762D6
:102E50000663456344648164C2648360C360036144
:102E600043618361C36103624362C3630364BDE87A
:102E7000F08100BF612C00084D2C0008512C000887
:102E8000F52D0008192D00086D2D000854F00008DC
:102E9000752C000808B505F051FB044804490522CB
:102EA000852301F0F5FE012008BD00BFD8F0000821
:102EB0009C12002008B5044B196811B1034801F0B9
:102EC000E7FE012008BD00BF1011002050F20008ED
:102ED00070B5114D2C68CCB10646104801F0BCFE0F
:102EE0000F4801F0B9FE2C6801256CB12946B442A7
:102EF0000CBF2A222022E36F0A4801F0C9FED4F851
:102F000088400135002CF1D1012070BD064801F048
:102F1000A3FE204670BD00BF7C0E002004F1000817
:102F200018F1000828F10008E8F0000838B5054657
:102F3000124801F091FE124C1249A268124801F0A9
:102F4000A7FE54F80C1F0029F7D1A5B1D5F8805081
:102F50008DB129680D4801F09BFE6C68216839B17C
:102F6000A268094801F094FE54F80C1F0029F7D11B
:102F7000AD68002DEDD1012038BD00BF40F1000843
:102F800060F0000838F1000854F1000860F1000812
:102F900008B5054801F060FE044801F05DFE0448F4
:102FA00001F05AFE012008BD78F10008BCF10008CC
:102FB000F0F1000808B503F003FC0146084801F0F1
:102FC00067FEFFF7E9FD002804DB0020FFF780FF24
:102FD000012008BD034801F03FFE002008BD00BFEE
:102FE00040F2000854F200082DE9F04383B002AF2C
:102FF0008846154603F0E4FB01462B4801F048FEE5
:10300000B8F1010F40DD08F10E0323F00703ADEB2B
:10301000030D0DF10809A8F1020609F1FF344E4431
:1030200055F8040F06F04AFF04F8010FB442F7D137
:10303000C844002308F8013C484601F08DFE041EF8
:103040002DDB24D0194E1A4801F022FE3368002BE4
:103050000FDD184C0025E168A368A278164800919E
:10306000294601F015FE33680135AB4204F1140422
:10307000F1DC124801F0F0FD0020FFF729FF0120EC
:103080000437BD46BDE8F0834FF00009D4E70C4893
:1030900001F0E2FD20460437BD46BDE8F083094853
:1030A00001F0DAFD0020EBE740F200089410002068
:1030B000A4F2000898100020D0F2000880F2000866
:1030C00084F2000868F20008012910B50FD0546896
:1030D000204607F035FC0C490246204607F05EFC0E
:1030E000B0FA80F0400903F0DDFA012010BD03F0D2
:1030F000D1FA064B0649002808BF1946054801F0D9
:10310000C7FD012010BD00BF0CF30008E4F2000869
:10311000ECF20008F8F20008012908B50AD050685E
:103120000B4907F02FFBB0FA80F00A4B40091870EA
:10313000012008BD074B084A1978084B08480029A8
:1031400014BF1146194601F0A3FD012008BD00BFC0
:103150000CF3000896110020E4F20008ECF20008DD
:1031600014F300082DE9F84F0B7800AF06467BB149
:103170000A46002004E0092B04D012F8013F33B1C5
:10318000202BF8D112F8013F0130002BF8D1830039
:103190000E3323F00703ADEB030D0846294907F072
:1031A0007BFCE8460090002849D06C4600250020B2
:1031B000244907F071FC013544F8040F0028F6D1CA
:1031C000D8F80040204607F0BBFBDFF880A081461E
:1031D0001D4902E05AF80C1F89B120464A4607F003
:1031E000DDFB0028F6D1DAF80430304629464246A5
:1031F000984780F00100C0B2BD46BDE8F88FDEB14F
:10320000D6F880A0BAF1000F16D0DAF804301968A9
:1032100069B19B4602E05BF80C1F41B120464A466B
:1032200007F0BCFB0028F6D1DBF80430DDE7DAF864
:1032300008A0BAF1000FE8D14FF0FF30DCE70446F8
:103240000546BFE734F3000838F1000860F00008D5
:10325000D0F88C000022436802491A72024AFFF734
:10326000E1B900BFF0ED00E003005FA010B5D0F8B9
:103270008C400A4620460549FFF7D4F92046044908
:10328000044AFFF7CFF9002010BD00BFF8ED00E0C1
:10329000F4ED00E00F000100D0F88C00022BF8B52F
:1032A000C66936D0042B2ED0012B02D04FF0FF3050
:1032B000F8BD4FF0000E032929D004292FD0022990
:1032C000F4D10627756A3DB33346002404E0013487
:1032D000AC4203F108031FD059689142F7D1197A23
:1032E000B942F4D1597A7145F1D1AC4214D00D49AB
:1032F000002506EBC4062401357221442A46FFF757
:1033000091F92846F8BD03294FF0030ED5D10527C2
:10331000D8E74FF0010ECEE76FF00100F8BD0727A8
:10332000D0E700BF281000E0D0F88C0070B5C66967
:10333000356C8DB1B36A23F001038B421DD006F1C9
:103340002804002205E054F8043F23F001038B42D7
:1033500005D00132AA42F6D14FF0FF3070BD02F124
:10336000605101F60201890000240A3246F8224029
:103370002246FFF757F9204670BD01490022F3E7C6
:10338000082000E0D0F88C00F8B5C76921F0604350
:1033900011F0020F23F003033E6C14BF4FF0004204
:1033A0004FF0804243F001031A4376B1BB6A13F039
:1033B00001031CD007F12804002303E054F8045F44
:1033C000ED0705D50133B342F8D14FF0FF30F8BD1A
:1033D00003F1605404F60204A5000A3341F001042D
:1033E00047F823402946FFF71DF90020F8BD014D9D
:1033F000F3E700BF082000E0F8B5D0F88C60F7696B
:103400003B6C63B1114D0024294630460022FFF782
:1034100009F93B6C0134A34205F10405F4D87B6A39
:1034200063B10B4D0024294630460022FFF7FAF81D
:103430007B6A0134A34205F11005F4D83046BDE89B
:10344000F8400449044AFFF7EDB800BF082000E047
:10345000281000E0F0ED00E000005FA02DE9F04F43
:1034600089468FB02E4E03ACD0F88CA015460FCEF7
:103470000FC40FCE0FC496E80700B9F1020FDAF8B7
:103480001C7084E8070005DD6B681B780193643BC2
:10349000012B21D9234801F0DFFB234803AD01F0C4
:1034A000DBFB0024012601E00B2C0ED055F8041B99
:1034B00006FA04F301340029F6D07A6C1342F3D0F3
:1034C0001A4801F0E5FB0B2CF0D1194801F0C4FBC0
:1034D00001200FB0BDE8F08F002605EB89094FF001
:1034E00001080DF10C0B00245BF8040B30B12968C6
:1034F00007F048F910B908FA04F2164301340B2C0E
:10350000F2D104354D45ECD1019B7A6C652B0CBF93
:103510003243B2437A6450460649FFF783F8BCE76A
:10352000B8F40008C4000108180101082C010108C2
:1035300080F20008FCED00E02DE9F843D0F88C8023
:10354000D8F81C60736A5BB30F46174D012407E07F
:10355000A34205F11005194604F1010213D91446DE
:1035600016F8342004F1FF39002AF1D040462946EC
:10357000FFF756F9C3010FD4736A1035A3421946F9
:1035800004F10102EBD8A1420AD006EBC40463683F
:1035900001203B60BDE8F8834C46716AA142F4D13A
:1035A0000020BDE8F88300BF281000E02DE9F04FAF
:1035B000D0F88C60022B83B0D6F81CB062D0042BFC
:1035C00067D0012B04D04FF0FF3003B0BDE8F08F7F
:1035D0004FF00009032959D004295DD00229F2D106
:1035E0004FF0060ADBF82430002B5CD090460190A7
:1035F0002E4D012407E0A34205F11005194604F100
:10360000010213D914461BF83420671E002AF2D198
:1036100030462946FFF704F9030740D0DBF8243091
:103620001035A342194604F10102EBD88C423AD07E
:1036300004F1606505F581750BEBC4042D0142466C
:103640002946304684F808A0C4F8048084F809901C
:10365000FEF7E8FF4A463046291DFEF7E3FF019BCF
:1036600030465B6E05F1080113F0010F14BF002214
:103670004FF4006242EA0A02FEF7D4FF002003B0D2
:10368000BDE8F08F03294FF00109A5D14FF0050ADD
:10369000A8E74FF003099DE74FF0070AA2E73C4671
:1036A000DBF82410C2E76FF001008EE7281000E07D
:1036B0002DE9F843836AD0F88C409B000A3323F04D
:1036C0000703D4F81C8000AFADEB030D0C46036B71
:1036D0006946914605469847D8F848306E465A1FC5
:1036E000012A0ED9012B02D1631C18BF01343460AA
:1036F00031466B6B28469847C8F84C90BD46BDE8EC
:10370000F883002CF3DDD8F850301C1BEFE700BF26
:103710002DE9F04F93B0D0F88C6002AF0446AD496C
:103720003046D6F81C80FFF77BF810F4003003D148
:103730004437BD46BDE8F08F736800221A723046E8
:10374000A549FFF76DF80546A34930462A46FEF71E
:1037500069FF2E070ED4C5F3400388F80130002B13
:1037600040F08D8015F0060F7FD005204437BD4610
:10377000BDE8F08FD4F88CA098495046FFF750F878
:10378000974906465046FFF74BF881463246504669
:103790009249FEF747FF50464A469149FEF742FFDD
:1037A000700002D4B9F1000FD5D0A36AC7F804D0D5
:1037B000002BB8BF033323F003030A3323F00703BE
:1037C000ADEB030D0DF10809236B494620469847E0
:1037D000D9F838B0CBF380033B60002B40F09580E4
:1037E000D9F844202023204607F120012669B0475C
:1037F000E36820469847002840F03B818BF0100B8F
:10380000CBF30013002B07F1340007C814BF682561
:103810002025C9F83C1091053A68C9F8380048BF1E
:103820000435002A00F02881D9F84C10D9F8482036
:1038300041F080611544C9F84C10C9F84850C9F8E6
:1038400034502BB1D9F84C3043F00073C9F84C30E8
:1038500050466449644AFEF7E5FE4946636B2046DC
:1038600098470B20D7F804D062E7EB077FF57DAFD0
:1038700098F80030002B14BF0520022058E7D4F838
:103880008C600F2230465949FEF7CCFE304658492D
:10389000FEF7C6FF02230246266A204607F10A0108
:1038A000B0474BF6AB637A899A427FF45BAFA36A69
:1038B000E9469B000A3323F00703ADEB030D0DF13E
:1038C000080AD4F88C205146236B2046D2F81CB04D
:1038D0009847DAF804201023204607F110012669E2
:1038E000B047DAF80020531ECBF84820122B00F224
:1038F000BE80DFE803F0916862BC584EBCBC484013
:10390000BC3CBC3428BCBC1D0D00D9F8482069E77C
:10391000DBF84C305146CAF800302046636B9847BC
:103920002046CD4698F80010E36C98470020FFE64B
:1039300039697A69013901322E4801F075F94FF081
:10394000FF30CD46F4E6F86907F1100101300EC9E9
:10395000009001390132284801F066F9EFE7396932
:103960007A6901390132254801F05EF9E7E7002361
:10397000CBF84C30D4E73969214801397A69002302
:1039800001F052F9DBE739691E48013901F04CF9C1
:10399000D5E7BB693969CBF8503001391A487A69E3
:1039A00001F042F9CBE7BB693969CBF850300139F6
:1039B00016487A6901F038F9C1E7DAF804101448BA
:1039C00001F032F9BBE739691248013901F02CF9ED
:1039D000B5E700BFF0ED00E030ED00E02CED00E0D9
:1039E00028ED00E00CED00E00200FA05F4ED00E047
:1039F000F8ED00E0E8010108C0010108D801010864
:103A0000A801010898010108580101087001010886
:103A1000880101084C010108244E07F120050FCE52
:103A20000FC596E803007B6985E803005B0807F192
:103A3000400202EB830607F10C01256A20463A6931
:103A4000042356F8206CA84707F10C00184906F02B
:103A500099FE00BBC6B9CAF80060DAF800305146DA
:103A60000133CAF800302046636B984758E7CD46CB
:103A700078E6D7F804D06EE6D9F844201544C9F8A2
:103A80004450C9F83450DCE672054CBF01230223D0
:103A9000CAF80030E1E7BA694FF4D27300930132FB
:103AA00033463969034801F0BFF848E7E4F40008F9
:103AB000300101083401010810B5D0F88C40012014
:103AC00001F0D8FB002001F0D5FB0B492046FEF7A2
:103AD000A7FE204609490A4AFEF7A4FD20460649EA
:103AE000FEF79EFE8301F9D42046BDE8104005494B
:103AF0001F22FEF797BD00BFF0ED00E00CED00E0E7
:103B00000400FA0530ED00E02DE9F04788468A46CA
:103B1000D0F88C5082B0AA69002142F0120281468E
:103B20002846FEF761FB294B6868009384690423EB
:103B300001210022A047284658F8502B1821FEF7F3
:103B400053FB68684FF4803300938469012100229D
:103B500014231F4EA0470AF1040454F8043B68687C
:103B600000938769012100221823B84756F8043FC3
:103B7000686843F48033009387690121002214238D
:103B8000B8474445E9D1D9F864309B071AD5114E9E
:103B90000AF1D40754F8043B68680093D0F818C0C1
:103BA000012100221823E04756F8043F686843F4D7
:103BB00080330093D0F818C0012100221423E0477D
:103BC000BC42E7D1002002B0BDE8F087F0ED00E094
:103BD000FCF4000848F500082DE9F0478846D0F8C5
:103BE0008C5082B0AA69002142F012028246284617
:103BF000FEF7FAFA214B68680093846904230121D7
:103C00000022A047284614210022FEF7EDFA68683A
:103C10001821FEF7D5FAC146194E49F8500B08F1A4
:103C2000040456F8043F686800930121002214231D
:103C30008769B84768681821FEF7C2FA44F8040B90
:103C40004C45EED1DAF864309B0713D50D4E08F1E0
:103C5000D40856F8043F6868009301210022142319
:103C60008769B84768681821FEF7AAFA44F8040B78
:103C70004445EED1002002B0BDE8F087F0ED00E051
:103C8000FCF4000848F500082DE9F84F0446D0F888
:103C90008C80C368454FD8F81C609847636C2046F9
:103CA000984797F80090B9F1000F10D10A2503E06A
:103CB00002F006FD3B7853B9A36C2046984730B913
:103CC000013D4FF00200F3D14846BDE8F88F404671
:103CD0003749726CFEF7A6FC404636491F22FEF7B4
:103CE000A1FC0623336440463349FEF799FD336C4B
:103CF000C0F30310984250D30423736240462F4907
:103D0000FEF78EFD736A000F9842336C88BF7062B5
:103D10009BB10025AB46C6F1604A0AF5FF5A06F191
:103D200028090AEB090140460022FEF77BFC336CB0
:103D30000135AB4249F804BBF3D8736AA3B1DFF88D
:103D4000949001254FF0000A494600224046FEF7B4
:103D500069FC06F835A0736A09F11009AB4205F158
:103D6000010201D91546EFE7404613490322FEF749
:103D700059FC134D13481449144A154B97F80090F9
:103D800025656065A165E2652366B9F1000F06D17E
:103D90004FF001094846BDE8F88F3064ACE70020D9
:103DA00001F068FA4846BDE8F88F00BF9611002080
:103DB000FCED00E030ED00E0002000E0001000E04D
:103DC0008533000829330008AD3500089932000812
:103DD00039350008281000E02DE9F041D0F88C407A
:103DE0001B4BE6691B4D3278002908BF1D468A42ED
:103DF00080460F4606D02046174945F00202FEF7DE
:103E000011FC377073784BB92A4620461249FEF7E9
:103E100009FC636801221A72BDE8F081D8F88C6051
:103E20000F2230460D49FEF7FDFB30460C49FEF7E8
:103E3000F7FC064620463146FEF706FD00F47F40BB
:103E4000B0F53E4FE0D14046B11CFFF70FFADBE77B
:103E500001005FA00D005FA0F0ED00E0F4ED00E0D8
:103E6000F8ED00E02DE9F84F04465249DFF868C14B
:103E7000DFF868E1504B514A514F524D524EDFF836
:103E800060B1DFF860A1DFF86091DFF86081416028
:103E90005021C0F840C0C0F844E08367C26787641F
:103EA000C5648162C0F808B0C0F830A0C0F8349092
:103EB000C0F83C80C66206F5747104F0D7F9D4F8F6
:103EC0008C5042492846FEF7ABFC40F470073A4656
:103ED00028463E49FEF7A6FB28463C49FEF7A0FCD3
:103EE000B8425CD05421012005F0F0FF0346384968
:103EF000384AE861296220465A6403F07FFC10B119
:103F00000120BDE8F88FE36820469847204603F07B
:103F1000F5FE0028F4D1E36820469847204604F0D7
:103F200035F80028ECD1E36820469847204601F098
:103F300075FC0028E4D1E36820469847204601F04C
:103F4000D1FF0028DCD1E36820469847204602F0E4
:103F50006BFE0028D4D1E36820469847204602F043
:103F60007BFA0028CCD1E36820469847204603F02E
:103F70009DF90028C4D1E36820469847204601F007
:103F8000C3FA0028BCD1E36820469847204602F0D7
:103F900087F80028B4D1E36820469847B0E7626EFE
:103FA000A36A06F57A7642F002028433E66262661C
:103FB000A36297E7893C0008B136000800000020A2
:103FC00011370008D93D0008D0F5000888ED00E061
:103FD000759F000801040001B93A00085132000839
:103FE000F9330008D93B0008093B00086D3200088E
:103FF0002DE9F0411446214A032C136882B043F0A6
:10400000010380460D46136016DD1D4F04E0019B41
:10401000032C1BBA3B600FDD2A46D8F810604046DF
:1040200001A90423B047043C04350028EFD04FF029
:10403000FF3002B0BDE8F0816619114BB5421C6833
:1040400017D02A460123D8F82070404601A91D4404
:10405000B8470028EBD1019A082384EA0264002CB7
:10406000BBBF6200074C64005440013BF7D1B5422E
:10407000E7D1204602B0BDE8F08100BF0830024021
:1040800000300240B71DC10410B504F0E9F9012861
:10409000FBD1064C064B014622461868402305F02A
:1040A000B8F800232064636410BD00BFAC08002092
:1040B00098110020F8B5184CA36C5A1C2344A26434
:1040C00083F84C0011B9402A00D0F8BD0D4604F029
:1040D000C7F9012802D00023A364F8BD04F0C6F993
:1040E0000028F8D00D4F0C4E386806F14C02012123
:1040F000B4F8483005F085F80028F4D0002DEAD057
:10410000B36C402BE7D101210B463868044A05F017
:1041100078F80028F7D0DEE7AC08002098110020DE
:104120005002010810B50B4C636C226C934206D20E
:104130000BE0FFF7A9FF636C226C934205D304F0F8
:1041400095F90028F5D1042010BD5A1C6264E05C8A
:1041500010BD00BFAC08002038B5124B124C83FBD9
:104160000023616C226CC017104DC0EB63109142AC
:1041700028600BD2BDE83840FFF7D4BFFFF784FFBB
:104180002B68626C43B1236C9A42F3D304F06EF94E
:104190000028F3D1042038BD236C9A42EAD3FF20D3
:1041A00038BD00BF1F85EB51AC0800201411002062
:1041B000064B1A68824204BF00221A605B68034AF9
:1041C000834204BF00235360704700BF38090020BA
:1041D000F0B583B000AF04463A4608463B1D1E4981
:1041E00006F060FA022806D1204606F0A9FB3B68DB
:1041F000984207D829D01948032100F0C1FC0C3798
:10420000BD46F0BD7D686E4605F1090222F0070249
:10421000ADEB020D68461C446D22214600F8012BCF
:104220002A4606F005FC204606F08AFB03469D421E
:1042300088BF1D46684605F1010188BF7B6000F01C
:104240009FFCB5460C37BD46F0BD0548012100F086
:1042500097FC0C37BD46F0BD9003010854020108DD
:10426000580201082DE9F043514C83B0054600AFD8
:10427000504904F10800062206F090FB064600288B
:1042800030D004F108004C490A2206F087FB0028D0
:1042900050D004F108004949172206F07FFB60B9AD
:1042A0002068002879D0C06E002862D04449FFF70A
:1042B0008FFF0C37BD46BDE8F08304F1080041498B
:1042C0001F2206F06BFB00283DD12068002848D053
:1042D000C06A00284DD03C49FFF77AFF0C37BD4635
:1042E000BDE8F083063D05EBD5756D1005F10F03B4
:1042F00023F00703ADEB030D6B464FEAD3094FEAFA
:10430000C9082A4604F10E01404600F0F7FC05F802
:10431000396041462068FEF725FF00281CDB07BFF7
:104320002A4802212A48012100F02AFC0C37BD4608
:10433000BDE8F08327484FF4806100F075FC0C372E
:10434000BD46BDE8F08304F1080023493A463B1D11
:1043500006F0A8F9022814D02048002100F010FC33
:10436000E4E7606828B11E4903F09CFF2060002844
:10437000AED11C48032100F003FC0C37BD46BDE85C
:10438000F08320680028F4D097E80600FFF730FE9D
:104390000146154800F048FCC8E760680028E8D0EE
:1043A0000F4903F07FFF206000287FF47CAFE0E737
:1043B000380900205C0201086C020108B4020108FF
:1043C00057090020CC0201085F090020640201089F
:1043D0006802010878020108EC020108A0F2000856
:1043E000B141000854020108000301082DE9F04F13
:1043F000864C8BB0A346002302AFDFF830A2FB60EF
:104400004FF48069BB60824B4FF480621A60814830
:10441000114600F05FFB06467F4D94F808E005F179
:10442000FF38AAF80090AEF10403762B00F24E821A
:10443000DFE813F0BF014C024C024C024C024C026C
:104440004C024C024C024C024C024C024C024C02FC
:104450004C024C024C024C024C024C024C024C02EC
:104460004C024C024C024C024C024C024C02C90061
:104470004C024C024C024C024C024C024C024C02CC
:104480004C024C024C024C024C024C024C024C02BC
:104490004C024C024C024C024C024C024C024C02AC
:1044A0004C024C024C024C024C0285004C024C0265
:1044B0004C024C02BF014C0227020D024C024C027E
:1044C0004C024C024C02D5014C024C024C024C02F4
:1044D000CE014C024C024C024C024C0230014C0208
:1044E000FE004C024C024C024C024C024C024C02AC
:1044F0004C0279004C024C024C02CE004C024C02A1
:104500004C0291014C025B014C024C024C025701DF
:10451000CE0177004C024C02A3014C024C024C022B
:10452000FE000123BB602068002800F02082C36CDD
:10453000B9689847394A012313700023BB6020688B
:10454000002800F055829BF80830FB6007E0FFF779
:1045500003FE0338C0B20128206840F2BC81836C9E
:104560009847051EF3D02D4A4FF000031370FFF655
:104570004AAF2068036E2BB107F11C019847002851
:1045800040F0BB812946264800F04EFB3BE721481E
:10459000244907F1140207F1180306F083F80228F2
:1045A00040F05F82DBF80000002800F0DB819BF820
:1045B0000834002B00F06F82036F7969BA6998475D
:1045C000002840F0CF811848022100F0D9FA1AE7FC
:1045D00020686D46002800F08A81836A026B0733E9
:1045E00023F00703ADEB030D02AE31469047DBF835
:1045F000003031469A6A074800F060FBDBF8003073
:10460000996A490000F0BCFAAD46FCE63809002082
:10461000100C0140400900204209002074110020C4
:10462000400301088403010864020108140C0140DE
:104630002368002B00F09681AEF15A06B6FA86F692
:104640009BF80950B048303DB04907F11C0207F112
:10465000180306F027F8012D4FEA561600F099814D
:10466000C0F23481042D00F33181DBF80000D0F872
:1046700058C0BCF1000F00F02981E9B2002E00F013
:10468000D781FA693B7EE04730BBA148022100F0A8
:1046900077FAB8E62368002B00F0648107F11C0369
:1046A00000939C4907F118039B4807F1140205F099
:1046B000F9FF7969BB69880702D19A0700F09D81EB
:1046C0002068FA69944E456A3244A8472068C36856
:1046D000984700283FF477AF9048032100F050FA44
:1046E00091E63046FFF7BEFD8DE623686D46002B50
:1046F00000F0FD808A4907F1180207F11C03864883
:1047000005F0D0FFFB69BA69D91D21F00701ADEBB7
:10471000010D42EA030111F0030F02AEDBF80000C5
:1047200000F09A81C90754BFD0F818C0D0F820C053
:104730003146E0472068C3689847002840F0D180A0
:104740003146FA69744800F0B9FAF969490000F095
:1047500017FAAD4657E6206800283FF454AE036CC4
:104760009847DBF8000083689847DBF800200023B7
:10477000CBF80420CBF8003045E66748694907F1DB
:10478000140205F08FFF012800F01081624866498D
:1047900005F0F8FF00287FF4FAAEDBF800000028EF
:1047A00000F03381036C98476048032100F0E8F97A
:1047B00029E6236823B19A6818469047DBF8003051
:1047C0000022534802216360226000F0D9F91AE602
:1047D0002068002800F0D080036C984713E6236817
:1047E0006D46002B00F0838007F11C0300935049B5
:1047F00007F1140207F11803474805F053FFBA699F
:10480000F969D31D23F00703ADEB030D424B02AE54
:104810001944304600F072FA7969BB69880702D101
:104820009A0700F013813246CE07206802D4DE07D3
:1048300040F1FB80466AB0472068C368984700286B
:104840004FD13348022100F09BF9AD46DBE52368E8
:104850006D46002B4BD09A6A3649D31D23F00703CF
:10486000ADEB030D02AE304600F048FADBF8000075
:104870003146436B98472648022100F081F9AD4646
:10488000C1E5607A07F114032B492D280CBF284697
:104890004046009307F1180207F11C0305F002FFE0
:1048A000637AB9692D2B7860206804BF4942B961E9
:1048B000836FFA699847D7F804C0BCF1030F00F082
:1048C0008E80D7F80CE084F808E0ACE51B480021A6
:1048D00000F056F997E57323FB60436C9847206816
:1048E0003DE60E48032100F04BF9AD468BE5144838
:1048F000032100F045F9AD4685E529461148FA69DE
:1049000000F092F97FE500BF42090020C0030108D2
:1049100064020108580301084009002054020108FC
:1049200008030108680301087C03010878030108F3
:10493000180301084109002048030108A0F20008FB
:1049400034F000082C030108FA69DBF80000B31A00
:10495000BB6138B15449456F0A447969A8470028BA
:104960003FF431AE5148032100F00AF94BE55048BD
:10497000032100F005F946E5DBF8040000283FF4C8
:1049800042AD4C4903F08EFC026CCBF8000090471E
:1049900039E5DBF80000036D002B97D006B9436DB5
:1049A000F969984700287FF497AE6EE6424B1A6883
:1049B00062B17969012918BF034602D140E08B42F8
:1049C0003ED0D2F888200133002AF8D12068002890
:1049D0003FF482AE3948032100F0D2F813E53B7D65
:1049E000432B7FF46EAF6146354800F0C9F80AE505
:1049F0003448032100F0C4F805E5DBF80000FA694B
:104A0000294E45693244A84760E6DBF804000028D7
:104A10003FF462AE274903F045FCCBF800000028C4
:104A20003FF45AAE036C9847D4E7C669B04703E732
:104A3000C56DFA693B7EA84700287FF44DAE24E699
:104A400010461C4903F02EFC2060C0E7DBF8000094
:104A500032464669B047EFE6D0F810C03146E0472D
:104A600068E61148184907F1140207F11C0305F024
:104A700019FE01283FF468AF0B48144905F082FE87
:104A8000054600287FF422AF1148022100F078F893
:104A90008BF80854B7E4036C98470123DBF8000057
:104AA0008BF8083488E500BF4009002034F0000886
:104AB00030F00008B14100087C0E002078030108A6
:104AC00054030108280301089C030108B4030108EA
:104AD000640201082DE9F043054683B00F464FF00C
:104AE000000801E004283FD0FFF71CFB24282870B1
:104AF000F8D100242646FFF715FB232800EB060318
:104B00000FD0BC420DD02428F3D07D2821D02855C9
:104B1000DEB2FFF707FB232804F1010400EB0603D4
:104B2000EFD1FFF7FFFA8DF80400FFF7FBFA4FF023
:104B300000098DF80500494601A810228DF806806D
:104B400006F072F8864213D02D200121FFF7B2FA49
:104B5000CAE7FFF7E7FA7D36064480F020002855C3
:104B600006F0FF060134C6E7012003B0BDE8F0837C
:104B70002B200121FFF79EFA05F804902046F4E768
:104B80002DE9F04F80460F4683B0042624200021F3
:104B9000FFF790FA002F43DDC34608EB0709002515
:104BA00007E020460021FFF785FA2544CB45EDB20A
:104BB00018D01BF8014B7D20A4F12303012B4FF0EB
:104BC000000184F0200A01D98442EAD1FFF772FA89
:104BD0007D3550460021FFF76DFA5544CB4505F071
:104BE000FF05E6D123200021FFF764FA2A460D498C
:104BF00001A805F031FD9DF804000021FFF75AFAE5
:104C00009DF805000121FFF755FA4FF4FA60FFF710
:104C1000A3FA2B2801D0013EB8D103B0BDE8F08F34
:104C20000025DFE7CC0301080FB400B583B004AB67
:104C300053F8041B01A81A46009307F04DFC0146E7
:104C40000198FFF79DFF019805F094F903B05DF816
:104C500004EB04B0704700BFF8B500AF064605F09E
:104C60006FFE430003F1100424F00704ADEB040DC4
:104C7000024668464F215C1C00F8011B314600F0DB
:104C80001DF868462146FFF77BFFBD46F8BD00BF13
:104C90000FB400B583B004AB53F8041B01A81A4647
:104CA000009307F019FC0198FFF7D6FF019805F073
:104CB00061F903B05DF804EB04B07047C2B170B4A1
:104CC0000D4D831C8E180C78023324092C5D03F8DB
:104CD000044C11F8014B04F00F042C5DB14203F8B1
:104CE000034CF0D100EB42020023137070BC7047FC
:104CF00000230370704700BFD403010870B4064658
:104D000042B30231104411F8024CA4F13003DBB27B
:104D1000092BA4F1370205D9D3B2102B84BFA4F11B
:104D20005703DBB21B01DBB2337011F8015C0231B7
:104D3000A5F13004E4B2092CA5F1370205D9D4B2AB
:104D4000102C84BFA5F15704E4B2234306F8013BBD
:104D50008642D8D170BC70472DE9F04383B0044639
:104D6000BD4E03F059FA002319467822BB48336040
:104D700005F000FC00F0ECF9B94B1B78002B40F07B
:104D8000008100F039FA03200421002C00F0038197
:104D900000F09CFA3368052B38DCDFF8C08203EBA7
:104DA000830308EB83039B78102B2FD823786BB3F6
:104DB0004746002519E03368207803EB830208EBAF
:104DC000820108F82230CD708870013314F8011B7D
:104DD00003EB8302052B07EB82020D44336015DCE5
:104DE0009378102B12D8237883B101A800219D4A13
:104DF00000F090FA019BDB07DDD44FF0FF34204632
:104E000003B0BDE8F083052900F3118101200146BC
:104E100000F03CFA0120022100F058FA01200321A1
:104E200000F054FA904D002407E09C4200F3FF800C
:104E3000013B1B1B05F8143C01340020012100F04C
:104E400025FA143533680028EFD0A342824D40F094
:104E5000EE800120014600F019FA0120022100F045
:104E600035FA2C68002C00F0E980631E13D07B48D3
:104E700003EB830300EB830304EB84041A7900EB58
:104E80008403143013F8121C143B0A44D2B203F802
:104E9000102C8342F6D100F0AFF90120032100F07D
:104EA00015FA3368002B20DD6C4F4FF000084FF0EF
:104EB00001090020012100F0E9F978B1C7F8089054
:104EC0001F2402250020012100F0E0F910B1BB6889
:104ED0002B43BB60013C4FEA4505F3D1336808F131
:104EE0000108434507F11407E3DC0120014600F007
:104EF000CDF90120022100F0E9F93368002B1EDD15
:104F0000564DDFF87481574C0027D5F808E02EF095
:104F1000F023434521D0554B002004E052690EEAAE
:104F2000020291421AD019691A4601301033002941
:104F3000F4D133680137BB4205F11405E5DC4C4B75
:104F40001B68002B00F082800020014601F026FC47
:104F50003468204603B0BDE8F083002004EB001065
:104F6000426983694FF0FF31EA602961002BE0D08C
:104F70002846984733680137BB4205F11405C4DC65
:104F8000DDE7012000F076F900F036F90320042176
:104F9000002C7FF4FDAE00F099F92046012100F0CD
:104FA00075F9002843D03368DFF8B0800127052B5E
:104FB00088F802703BDC03EB830308EB83039B78E8
:104FC000102B34D84446244D20E0316801EB810396
:104FD00008EB830393F802C001EB0E0293009818CC
:104FE000F44504EB800C3FF40EAF2A608CF802E02D
:104FF0008CF8037004F820201344052A08EB83037F
:1050000007F1010713DC9B78102B10D80020012139
:1050100000F03CF94FF0010E0028D6D13268930021
:10502000991808EB8101887801308870E4E74FF027
:10503000FF342046346003B0BDE8F0830D48012101
:1050400001F0ACFB204603B0BDE8F0830948012124
:1050500001F0A4FB7CE700BF941000209810002012
:1050600096110020E803010899100020F4030108BC
:105070007C0E002048F000087704A00B10B50369EF
:1050800082B08B420C4601912BD0174B1A68002A34
:105090000ADD164B02EB820203EB82024FF0FF3176
:1050A000196114339342FBD1234604460361042162
:1050B000032000F00BF900200D49E27800F06CF9B4
:1050C000207901A9B0FA80F0A278400900F064F9D3
:1050D00001200749227900F05FF90120022100F048
:1050E000F5F802B010BD00BF941000209810002009
:1050F000E8030108F8B504460D46012003211746D0
:105100001E4600F0E3F822780020104900F044F930
:105110009DB161782846B1FA81F13A463346490992
:1051200000F0F8F862780120084900F035F9BDE890
:10513000F8400120022100F0C9B860783946B0FA81
:1051400080F03246400900F027F9EBE7E803010858
:10515000F8B54FF00806244803210022102303F07D
:105160002FFD224D2248234933231024202204609E
:10517000013B0E8002602F680A80F8D110232024A2
:105180009E4627464EF23C721A481949174E08258A
:1051900012F0010F14BFC1F800E0A0F800E00D60AC
:1051A000013B0C60D6F800C04FEA52020780EFD1F5
:1051B000202427460F490E4A0C4E06201F234FF08D
:1051C000100E082513F0010F14BFC2F800E0A1F87B
:1051D00000E0156001381460D6F800C04FEA5303B0
:1051E0000F80EFD1F8BD00BF000801400808014062
:1051F0001008014014080140F0B583B001F072F9C5
:1052000090B942F20F72164B022119800190019B56
:10521000934206DC00BF019B01330193019B934243
:10522000F8DD104B02221A60202427460E480F4951
:105230000F4E06221F234FF0100E082513F0010F0A
:1052400014BFC1F800E0A0F800E00D60013A0C6066
:10525000D6F800C04FEA53030780EFD103B0F0BD8A
:10526000140C0140100C01401408014010080140CA
:105270000808014010B5044601F0FEF924B142F2DD
:10528000107300BF013BFCD110BD00BF78B10C4BC7
:1052900010221A6081B90B4B08221A80084920237A
:1052A000094A0B6010689381C0F380107047054B6A
:1052B00010221A800029EED0014B08221A60EDE777
:1052C0001008014014080140080801404B1ED1B1EC
:1052D000F0B52024A6460C490C4A0D4F102608258F
:1052E00010F0010F03F1FF3314BF16600E8015603C
:1052F000B3F1FF3F1460D7F800C04FEA5000A1F8A7
:1053000000E0EDD1F0BD70471408014010080140E5
:10531000080801402DE9F043DFF874C0DFF874E0BD
:105320001A4F01244FF010094FF00808202613F1FE
:10533000FF3320D31578254013B3AEF80090E5B1C4
:10534000C7F800803E60DCF80050AEF8006015F051
:10535000400F057814BF2543A543640014F0FF04F3
:105360000570E4D113F1FF3302F1010200F10100F5
:105370004FF00104DED2BDE8F083AEF80080E1E733
:105380000029DAD0C7F80090D9E700BF1008014023
:10539000080801401408014012F1FF322DE9F041E4
:1053A0004FF00103144F4FF01008144E4FF0080C4B
:1053B0004FF02005DFF848E014D30C781C40B2B160
:1053C000A7F8008084B1C6F800C05B0013F0FF03AB
:1053D000356004BF0131012312F1FF32DEF80040D5
:1053E0003D80EAD2BDE8F081A7F800C0EDE70028D3
:1053F000E6D0C6F80080E5E7140801401008014037
:10540000080801402DE9F041984604469E10B3007B
:10541000123323F0070300AFADEB030D009102A898
:1054200011464246019605F02FF84FF000510F4A01
:10543000302366692046B0476A4608F108030C49E4
:1054400065692046A847E36B4FF000512046984716
:10545000E36C204600219847A36C2046984700281B
:10546000FAD00020BD46BDE8F08100BFFC0601086F
:10547000300000202DE9F043D0F88C6083B021F497
:105480007F7822F47F77304600211C4AFCF7ACFE7F
:105490001B4B7068009327F00307846901210022E9
:1054A000042328F00308A04727B3DFF858903046BC
:1054B00010214246FCF798FE7068CDF80090846990
:1054C000012100220823A0470025706801210095D2
:1054D00084690A460823A0477068012100950823C3
:1054E00084690A46A0478307F6D4B7F5806708F5B4
:1054F0008068DCD1002003B0BDE8F083520000A238
:1055000000D00F40020042A410B511490446D0F863
:105510008C00FDF785F941F24903000C984210D048
:1055200041F2A10398420AD10A4B0B490B4A03F1FD
:10553000EC00E066E36721676267012010BD002090
:1055400010BD044B0449054A03F11400F1E700BF04
:1055500004E00F402C0701087554000805540008AA
:10556000F8B50446826A00AF22F003020A3222F044
:105570000702ADEB020D1B4A4FF43E4C4FF0000EFC
:10558000A2F800C0A2F802E00B4646694FF0805135
:10559000B0476946236B20469847134BE26F134888
:1055A0009A420CBF124B134B13491193134A144BDD
:1055B0008DE803000F936946636B0E92204698476F
:1055C000E36C204600219847A36C204698470028AA
:1055D000FAD02569204603494FF080522823A84776
:1055E000BD46F8BD440D0020EC0801080400001081
:1055F000E0030010E0070010180000100100001088
:10560000F11FFF1FF8B5154C0025234643F8085B32
:105610001D60134FC36F3226BB42E5602561656193
:10562000A561E5612562666065620A4410D0090BD8
:10563000013AA1604FF48053B2FBF3F22821E260FB
:10564000FFF78EFFA069003018BF01204042F8BD6F
:10565000890A013AA1604FF48063EDE7440D002010
:10566000EC0801082DE9F04FCF18013F3F0A4FEA3F
:10567000112A83B09846BA45CBB2009340D88146F0
:1056800016465446DFF8E8B04FEA0A251DE042F618
:10569000E061DFF8E0C04FF480723323CBF81410E0
:1056A00048464FF49471CBF81020CBF80850CBF853
:1056B0000CC0CBF80430FFF753FFDBF81820D2B949
:1056C0000134A74205F580751AD3544526481BD0EE
:1056D000BC4219D031464FF4807204F0D5FEA8F5D3
:1056E000807806F58076484629464FF48072FFF7A9
:1056F00089FF0028CBD04FF0FF3003B0BDE8F08F1A
:10570000002003B0BDE8F08FFF214FF4807204F059
:1057100031FF009A3146C2F5807CC445A8BFC4461B
:1057200002F1280058446246CDF804C004F0ACFEF3
:10573000DDF804C02CB10023CCEB080866440093CC
:10574000D1E7009B002BF6D1BCF11F0FD3DD224621
:10575000064901F11C0051F8043F81421A44FAD174
:105760005242CBF84420E6E76C0D0020680D002083
:10577000440D0020280000102DE9F041254FC46F92
:105780000646BC420CBF4FF480644FF48054B1FB1A
:10579000F4F504FB151484BB15460C46FFF732FFE5
:1057A00058BBF36FDFF870803422BB42C8F8042086
:1057B00027D0230B6219C8F80830013A4FF4805300
:1057C000B2FBF3F242F6E06330462821C8F810300D
:1057D000C8F80C20FFF7C4FED8F818300E4C63B997
:1057E0003046352328216360FFF7BAFEA0690030F8
:1057F00018BF01204042BDE8F0814FF0FF30BDE806
:10580000F081A30A6219C8F80830013A4FF48063A6
:10581000D6E700BFEC080108440D002010B55A4936
:105820000446D0F88C00FCF7FBFF584B984239D067
:1058300015D9574B98422FD053D9564B98422BD05D
:1058400067D9554B984227D040F29780534B9842E6
:1058500022D003F5821398421ED0002010BDA3F180
:105860006B63A3F5B423984216D026D94C4B9842CB
:1058700012D061D8A3F12863A3F5092398420BD075
:1058800003F5280303F58053984205D0A3F546039A
:10589000A3F580539842E0D1424B4349434A03F178
:1058A000080004E0424B4049404A03F1F000E06642
:1058B000E36721676267012010BDA3F1A563A3F52B
:1058C000E0439842E8D043D8A3F5AE139842E3D022
:1058D00003F5E0239842DFD0A3F570239842BCD1B2
:1058E000DAE7A3F5DE139842D6D039D8A3F197634F
:1058F000A3F5DA239842CFD003F1976303F5D223BF
:105900009842C9D003F1754303F528139842A4D1F6
:10591000C2E7A3F18663A3F5D8339842BCD003F164
:10592000836303F57C339842B6D0A3F18363A3F578
:105930008E23984291D1AFE71E4B9842ACD003F52D
:1059400070239842A8D0A3F58013984285D1A3E78D
:10595000194B9842A0D003F580439842F3D19BE7BE
:10596000164B984298D003F55423984294D0A3F54F
:10597000582398427FF471AF8EE7A3F5B023984285
:105980007FF46BAF88E700BFF48304402B2012182C
:105990002B9032252B4072292B0080292B408829FF
:1059A0002B102114F40801087957000865560008E7
:1059B000EC0801082B1031142B1044042BD02425A3
:1059C00010B503494469034A0423A047012010BDD0
:1059D0000CED00E0B80A01080A4A00F16643934260
:1059E00003D900F16543934209D8B3F5803F25BF41
:1059F000A3F580331B0C580B03F1080070474FF0E0
:105A0000FF307047FFFF07002DE9F04784B0836A3D
:105A100000AF23F0030307F1100500260A3345F811
:105A20000C6D23F00703ADEB030D884604232946D4
:105A3000914605692A4A0446A8477B686D46002BB3
:105A40003AD107F10C0A51462669264A042320461A
:105A5000B0474FF0000A4FF43E424B46A8F80020F2
:105A6000666942462049A8F802A02046B047236B49
:105A70002946204698471D4EFB681D481D491E4A71
:105A800068606964EB632946636B2E60AA632046F5
:105A900098475146E36C20469847A36C20469847A8
:105AA0000028FAD04146256920460F4A3023A847EE
:105AB0001037BD46BDE8F087AA225523BA60FB60C7
:105AC000666907F1080220460C49042307F10C0A15
:105AD000B04752466669204608490423B047B2E7FA
:105AE000000008400001401000C0002004C0002059
:105AF0001CC000200000012001C000200800084058
:105B000070B5ADF5815D84B03223054608460C467C
:105B100016460193FFF760FF02903019FFF75CFF14
:105B20000F4904F166438B42039017D904F1654491
:105B30008C4294BF01244FF0FF342846002369466D
:105B4000302204940793FFF75FFF0798003018BFD7
:105B5000012040420DF5815D04B070BD0024ECE7EA
:105B6000FFFF07002DE9F04F01EB030909F1FF39B1
:105B7000ADF5825D9A464FEA19390B0B81B04B4562
:105B800001934DD8C1F30B039046019A0293C3F5DC
:105B9000805305461446039316031DE06F6928469B
:105BA000B84742F6E06E304B4FF4805C332728460E
:105BB00004A941F2300206960793CDF82CB0CDF837
:105BC00024E00597CDF820C0FFF71EFF0B9B06F5DC
:105BD0008056F3B9A14523D3019B4FF480529C42D8
:105BE00010A83CD04C4521D0414604F04DFCAAF50C
:105BF000805A08F580584FF4805231462846FFF706
:105C00007FFF01348346184910AA4FF480530028BF
:105C1000C4D04FF0FF300DF5825D01B0BDE8F08FCC
:105C200000200DF5825D01B0BDE8F08F4FF4805784
:105C30004FF0000B5745A8BF5746FF214FF4805245
:105C400010A804F097FC04AB0BF130004146184457
:105C50003A46C7EB0A0A04F017FCB844CBE7DDF874
:105C600008B0039FE6E700BF30C0002070B5ADF577
:105C7000815D86B0002301930469042301A9164ABB
:105C80000546A047019B0BB1DB061AD502AC134BAE
:105C90006E6902932246284611490423B0472846DC
:105CA00000233125214630226560E361FFF7ACFE19
:105CB000E069003018BF012040420DF5815D06B05B
:105CC00070BD02AC6FF07F43029322466E69284696
:105CD00004490423B047DAE7000008400008000147
:105CE0006C0005400400084070B50446ADF5815DC8
:105CF0004868002184B00A4604F096FF0128054652
:105D000007D91548FEF7C4FF00200DF5815D04B0EA
:105D100070BD42F6E0662046FFF7A8FF3C23204610
:105D20006946002441F230020193039602950794DC
:105D3000FFF76AFE079B3BB90848FEF7A9FF012061
:105D40000DF5815D04B070BD0548FEF7A1FF20464A
:105D50000DF5815D04B070BDA80D0108EC0D0108C2
:105D6000D40D0108022905D008B50348FEF790FFBD
:105D7000002008BD1146B7E7000E01082DE9F041EB
:105D8000ADF5815D84B0002407462546FFF76EFF20
:105D90004FF032080E26302238466946CDF804808E
:105DA0000295039604940795FFF72EFE079B4FF08C
:105DB000340E3022DBB942F6E06C38466946029375
:105DC0000793CDF804E003960594CDF810C0FFF7D3
:105DD0001BFE079B5BB944B10848FEF759FF2046FC
:105DE0000DF5815D04B0BDE8F0810124D3E700200A
:105DF0000DF5815D04B0BDE8F08100BF200E010803
:105E0000C1F30C03002B67D12DE9F041ADF5815DA5
:105E100084B0064615460C46FFF728FF002854D1EB
:105E2000304621462A46FFF76BFE074600284CD134
:105E3000342320460193FFF7CFFD80466019CDF84B
:105E40000880FFF7C9FD42F6E061254B04F1664288
:105E50009A420546039004911FD830466946302285
:105E600005970797FFF7D0FD079B73BB3522CDF849
:105E7000088003950192304600246946302204933D
:105E80000794FFF7C1FD0798001B18BF012040428F
:105E90000DF5815D04B0BDE8F08104F165449C42DC
:105EA00011D94FF0FF3430466946302207970594E8
:105EB000FFF7AAFD079B43B93522CDF8088003956B
:105EC00023460192D7E70124EDE74FF0FF300DF5AF
:105ED000815D04B0BDE8F0814FF0FF30704700BF36
:105EE000FFFF070038B527490446D0F88C00FCF7BF
:105EF00097FC05462449D4F88C00FCF791FC234B11
:105F00009D421AD003F180539D4216D003F16043A5
:105F10009D4201D0002038BD20F47F031C4A23F0AD
:105F20000F03934217D04032934210D1194B1A4AB3
:105F30009842E26717D0012038BD20F47F00144B4F
:105F400020F00F00984206D04033984207D0134B00
:105F50000120E36738BD124B0120E36738BD0E4BCB
:105F60000120E36738BD0F4B0F49104AE1662267F5
:105F7000204601F52F7163670D4A02F077F9012081
:105F800038BD00BF0032044000ED00E02B00065990
:105F900000C2004141C20F412C0E01085C0E0108F5
:105FA000480E0108655B0008BC0A0108015E000894
:105FB000400E0108F8B50F4615461E46D0F88C4035
:105FC00001E0020608D420461649FCF755FC10F003
:105FD000300FF6D00020F8BD25F07F4242EA07627C
:105FE00020461149FCF71EFB4EB120460F4932688E
:105FF000FCF718FB204672680D49FCF713FB20469E
:1060000008498022FCF73EFB01E0030607D4204646
:106010000449FCF731FC10F0300FF6D0DAE701202C
:10602000F8BD00BF00000240070002400B00024024
:106030000F0002402DE9F0418C0714D113F0030842
:106040001D4610D163B1074614468E1AA219234685
:1060500038460621FFF7AEFF043D04F10404F5D1F4
:106060004046BDE8F0814FF0FF38F9E702F2FF3219
:1060700070B522F47F7421F47F7524F0030425F0B9
:106080000305064654B12A46304609210023FFF78E
:1060900091FFB4F5806405F58065F4D1002070BDF2
:1060A00010B50B490446D0F88C00FCF7B9FB40F260
:1060B0005123B3EB105F09D106480749074A084B43
:1060C000E067E16622676367012010BD002010BD14
:1060D00024800440DC0F0108CC0E01086D6000082C
:1060E0003560000808B500F0FFF930B9064804F043
:1060F000A5FAFEF77BF9002008BD04482C21044ACC
:10610000044B03F0BDFE00BF18110020EC0F010886
:10611000E40F0108F40F010810B50748FEF79CFDD5
:10612000064C0749A2680748FEF7B2FD54F80C1F59
:106130000029F7D1012010BDEC1101080C10010855
:1061400058F3000854F100082DE9F84355688046DB
:1061500028468946174604F0F3FB0E4C06460E49C6
:1061600002E054F80C1F81B12846324604F016FCB8
:106170000028F6D16368404609F1FF313A1D98477F
:1061800080F00100C0B2BDE8F8834046BDE8F843A6
:10619000C2E700BF0C10010858F3000838B50446E8
:1061A000D4F88C501348FEF757FD284612490222B6
:1061B000FCF738FA03E0E36820469847B8B9284668
:1061C0000E49FCF72DFB0028F5D028460C4901228A
:1061D000FCF728FA03E0E3682046984738B92846D8
:1061E0000649FCF71DFB0028F5D0012038BD002032
:1061F00038BD00BFFC11010804E5014000E4014086
:106200000CE5014070B5D0F88C400C492046FCF7F5
:1062100007FB0B4906462046FCF702FB09490546E9
:106220002046FCF7FDFAF30781B22A4654BF064820
:106230000648FEF72DFD012070BD00BFA000001034
:10624000A4000010A8000010081201083012010874
:1062500038B5D0F88C4008492046FCF7E1FA0749E8
:1062600005462046FCF7DCFA2A4601460448FEF7BC
:106270000FFD012038BD00BF600000106400001059
:106280005812010808B50549D0F88C00FCF7C8FA87
:10629000010C0348FEF7FCFC012008BD5C00001067
:1062A0007012010808B50549D0F88C00FCF7B8FA5F
:1062B00081B20348FEF7ECFC012008BD5C00001031
:1062C00088120108F8B5D0F88C5004460E461746DF
:1062D000284624490222FCF7A5F904E0E368204699
:1062E000984700283AD128461F49FCF799FA002818
:1062F000F4D027F47F7727F00307EFB126F47F76F9
:1063000026F00306B6F1102F284607BF17490122D1
:1063100017493246FCF786F903E0E36820469847C0
:10632000E0B928461049FCF77BFA0028F5D0B7F50C
:10633000806706F58066E5D128460A490022FCF709
:1063400071F903E0E3682046984738B928460649C2
:10635000FCF766FA0028F5D00020F8BD4FF0FF30BA
:10636000F8BD00BF04E5014000E4014014E5014030
:1063700008E501402DE9F0470D460446994601F035
:10638000030E033373449B089E1CB60006F10A01FA
:1063900021F0070100AFADEB010DCEEB050C02A81B
:1063A000D4F88C50114603F1010A4A464FF0FF33EE
:1063B000083E7044CDF800C0019602934DF82A3093
:1063C00004F062F8284620490122E846FCF72AF941
:1063D00004E0E3682046984700282FD128461B494F
:1063E000FCF71EFA0028F4D066694FF00051184AF5
:1063F00028232046B047424609F10803666915493B
:106400002046B047E36B4FF0005120469847E368C1
:1064100020469847064688B9E36C2046314698479F
:10642000A36C204698470028FAD028460649002247
:10643000FCF7F8F83046BD46BDE8F0874FF0FF3670
:106440003046BD46BDE8F08704E5014000E4014068
:10645000541001082800002010B51C490446D0F84B
:106460008C00FCF7DDF980B2A0F11D03A066302B93
:106470001AD8DFE803F01B19191B19191919191B70
:106480001919191B191919191B1919191919191978
:1064900019191919191B1919191B1919191B191966
:1064A0001B191919191B1B00002010BD084B0948A6
:1064B00009490A4AE067E1662267204601F5A671AC
:1064C0006367074A01F0D2FE012010BD5C00001096
:1064D00075630008A01201087C100108C56200085D
:1064E000B01201080120704770B5574C574E02F0AA
:1064F0004DFC20464FF4805102F09BFD30460421B4
:1065000002F097FD3046082102F093FD304601214C
:1065100002F08FFD2046402102F08BFDA4F584346B
:106520004B4A143C4FF48073138020460021012213
:1065300002F046FB474D002238232046032102F09B
:106540003FFB20464FF4014102F077FC28464FF410
:10655000005102F072FC204648F2801102F06DFCFE
:10656000284642F2020102F068FC2846022100227D
:1065700040F6044302F024FB20460221002280233F
:1065800002F01EFB344A042320461360032101223B
:1065900002F016FB314B022200211A6028461346F6
:1065A00002F00EFB002003F02BFC2D4803F020FC32
:1065B0002C4B04F5E0541A7802F00F021A701A7886
:1065C00042F0E0021A7003F027FC03F02DFC304685
:1065D0004FF4007102F02DFD00210A4601232846E8
:1065E00002F0EEFA204602F095FA204602F097FA01
:1065F000204602F0A4FA204602F05EFA204602F09D
:1066000093FA2046032102F070FA204602F044FA81
:10661000154B00BF013BFCD1144C204602F051FA4F
:10662000204602F058FA124B4FF400521A6001F063
:1066300023FF02F0D5F80F4804F000F808B9FEF780
:106640008BFB002070BD00BF1410024018100240E8
:1066500014080140000C014010080140100C0140DA
:10666000A0BB0D0023ED00E000350C00002401402C
:1066700008ED00E01811002018B1044B04221A8024
:106680007047034B04221A60704700BF1408014092
:1066900010080140024B1868C0F34000704700BF6B
:1066A000080C014018B1044B02221A807047034BBA
:1066B00002221A60704700BF140C0140100C014008
:1066C000024A10601368002BFCD17047141100209F
:1066D00010B52A4B1B78002B3ED1294B1A6812B1FA
:1066E0001A68013A1A60274B1A683AB31A7932BB12
:1066F00019680A78013119604AB91A7A002A3AD021
:10670000214A12681A601A68511C12781960413ABD
:10671000D1B2192926D81D4800EB8102927830F8B1
:106720002110013A01F00100D2B2D98070B11848AD
:106730004FF4006404604908D9801A7110BDD988EB
:10674000013A01F00100D2B20028F0D111484FF413
:106750000064D9880480EEE70F484FF4806102F0AE
:1067600064FBBAE700220B48DA804FF40064D98852
:1067700003220480DFE71A6010BD00BF74110020FF
:10678000141100206C0E0020101100208C13010841
:10679000100C0140140C0140000C014030B4054BBA
:1067A000054D064A4FF40064197228601860148081
:1067B00030BC70476C0E002010110020140C0140FA
:1067C00000B583B002AA0823174802F8013D012151
:1067D00002F0BAF9144802F067F9134802F0A9F977
:1067E0000028FAD0104802F0A8F9104B00EB400046
:1067F00000EB4010A3FB0023C21A03EB52030C4929
:106800001B0BA1FB03E10B4AC908A2FB000201EB31
:1068100081010948A3EB4103120C3032303302707E
:10682000837003B05DF804FB0024014041000800C0
:10683000CDCCCCCC6733D3CC1000002008B50022DF
:106840004FF480530448022102F0BAF9034B4FF48D
:1068500080521A8008BD00BF000C0140140C01409A
:1068600008B50F4B0F48196801F4005189B251B9AE
:106870004FF48073012202F0A3F9BDE808404FF401
:10688000005002F021BC4FF480730121002202F07D
:1068900097F9BDE808404FF4005002F015BC00BF66
:1068A000080C01400008014038B5E021282003F021
:1068B000D7FA282003F0C8FA0E4D0F4B0F4A4FF4B9
:1068C00000544FF480711C60284623461160022258
:1068D000002102F075F92046294602F0FBFB204614
:1068E000022102F0C9FB204602F0E4FBFFF7B8FFEB
:1068F00038BD00BF000C0140100C014010080140E1
:1069000070B50D46D0F88C6042EA0322044642F08E
:10691000B44230460431FBF785FE083503E0E368F6
:106920002046984760B930462946FBF779FFC307F0
:10693000F5D530462946FBF773FF00F0060070BD21
:106940004FF0FF3070BD00BFF8B50F4604462C492C
:10695000384615461E4603F015FF80B904F47064EE
:10696000B4F5106F33D0B4F5206F3FD0B4F5E06FBD
:1069700036D056B3A5F5002535602248F8BD384617
:10698000214903F0FFFED0B904F47064B4F5206F20
:1069900015D00ED9B4F5406F2BD0B4F5606F22D16D
:1069A0004FF4A0039D420AD346B3ED1A3560174851
:1069B000F8BDB4F5E06F02D0B4F5106F13D126B175
:1069C000A5F5800535600F48F8BD0E48F8BD4FF4B9
:1069D00020239D42CDD97EB1ED1A35600C48F8BD1B
:1069E0004FF41023F5E74FF0FF33DBE74FF440237C
:1069F000EFE74FF49003D5E70548F8BD0348F8BD2D
:106A000060170108000A0E406C170108000C0E40C8
:106A1000000E0E4070B504460022E16F1346806EF2
:106A2000D4F88C60FFF790FF05460D22002329461D
:106A30002046FFF765FF05F10C013046FBF7F0FE3D
:106A400001460248FEF724F9012070BD78170108BD
:106A5000F8B504460D4616460022806EE16F1346D7
:106A6000FFF772FF032D04D00D48FEF7F5F8002064
:106A7000F8BD0746706803F025FA0546B06803F0D4
:106A800021FA0028ABB2394614BF0B220C22204653
:106A9000FFF736FF2046FFF7BDFF0120F8BD00BF1E
:106AA000881701082DE9F04F89B0D0F87C9000AF2D
:106AB0000C460546354948469A46904603F062FE24
:106AC00049460028224607F11C03A86E0CBF4FF46C
:106AD00000764FF48076FFF737FFFB69F860B3FB71
:106AE000F6F203F1FF39D144B9FBF6F906FB123394
:106AF0004A45FB61A4EB0303ADEB060D3A61BB60B5
:106B000028D8EB463C697E6101E0A14522D33B6970
:106B100058469C4223D04C4521D07E69414632469E
:106B200003F0B2FCC6EB0A0AB044B9685A467B6966
:106B300028466E69B047A3B22846F9680122FFF7DC
:106B4000DFFE01340028E0D04FF0FF302437BD468F
:106B5000BDE8F08F00202437BD46BDE8F08F7E6988
:106B6000FF21324603F006FDF8694146331A5345CA
:106B7000A8BF534658441A46C3EB0A0A7B6003F089
:106B800083FC7B6898440023FB61CEE76C17010807
:106B90002DE9F04F83B0C46F00AF80468B4620468E
:106BA0002049154603F0EEFDB8B34FF48076B146A8
:106BB00021463B1D5A46D8F86800FFF7C5FEADEBED
:106BC000090D7C68FF214A468246684603F0D2FCE4
:106BD000334659466A46D8F814604046B4FBF9F487
:106BE000B047ADB1C9EB050504E00134C9EB0503BD
:106BF00075B11D46404651460322A3B2FFF780FE01
:106C00000028F2D04FF0FF300C37BD46BDE8F08FC2
:106C100000200C37BD46BDE8F08F4FF40076B1463A
:106C2000C6E700BF6C17010838B5D0F88C50044691
:106C300033492846FBF7F4FD324B334A0340934275
:106C4000A0663CD002F58012934238D0A2F5001223
:106C5000934234D028462D49FBF7E2FD294B2C4ABC
:106C600003409342A0661BD002F58012934217D0D6
:106C7000A2F50012934213D028462449FBF7D0FD19
:106C8000204B244A03409342A06628D002F580128C
:106C9000934224D0A2F50012934220D0002038BDA8
:106CA0001D4B1E481E491F4AE067E16622672046C9
:106CB000243963671C4A01F0D9FA012038BD164B0C
:106CC0001A481B49174AE067E1662267204601F52A
:106CD0008C716367174A01F0C9FA012038BD0E4B69
:106CE000154816490F4AE067E16622672046A1F57C
:106CF0009E716367124A01F0B9FA012038BD00BFE6
:106D000040090E40E000F00F6000500840070E40C0
:106D100060004009E0009008A56A0008B817010863
:106D200030150108916B0008C417010860170108AD
:106D3000F4130108B01701086C1701084816010880
:106D4000CC1701082DE9F041D0F88C500446884654
:106D500028461A49FBF764FD194906462846FBF701
:106D60005FFD18490746184A2846FBF75BFC284692
:106D700016494AF20552FBF755FC03E0E36820464A
:106D80009847C0B928461249FBF74AFDC307F5D515
:106D9000B6B23A4628460A4946EA0846FBF742FC9C
:106DA000284632460549FBF73DFC284607494AF28A
:106DB0000652FBF737FC0120BDE8F081044080005B
:106DC000004080001C400041002040000040004185
:106DD000144000414FF6FF71B4E700BF0021B1E756
:106DE00070B5D0F88C6004460A4930461022FBF793
:106DF00019FC03E0E3682046984740B9304605494E
:106E0000FBF70EFD10F48075F4D0012070BD28460C
:106E100070BD00BF00210041F8B532F0FF07044605
:106E200021F0FF06D0F88C5028D028467208164969
:106E3000FBF7F8FBD4F88C0014494AF24152FBF7F7
:106E4000F1FB284611494AF20252FBF7EBFB03E043
:106E5000E3682046984798B928460D49FBF7E0FCBF
:106E6000C307F5D5D4F88C0008494AF24052FBF725
:106E7000D9FBB7F5807706F58076D6D10020F8BD2E
:106E80004FF0FF30F8BD00BF1C4000410040004102
:106E90001440004170B5D0F88C4013490546204697
:106EA000FBF7BEFC114A20461149FBF7BBFB20460D
:106EB0001049FBF7B5FC82050FD420460A49FBF7C1
:106EC000AFFC8301F9D420460B491F22FBF7AAFB34
:106ED000EB682846BDE870401847204605494FF446
:106EE0000072FBF79FFBE8E7F0ED00E00400FA0515
:106EF0000CED00E00021004130ED00E070B50446EB
:106F0000D0F88C50002228462449FBF78BFBD4F89C
:106F10008C002349FBF784FC224B00F00F00A3FBFD
:106F200000239B0803EB8303C31ADBB24FF48022D8
:106F30001A4128461C49FBF775FB28461B494FF4AC
:106F40000062FBF76FFB284618490822FBF76AFB33
:106F500003E0E3682046984778B928461349FBF7D1
:106F60005FFC10F4C856F4D0C20408D403050BD457
:106F70000F48FDF78DFE012070BD304670BD0D48F5
:106F8000FDF786FE012070BD28460449FBF748FC4A
:106F900001460948FDF77CFE012070BD0421004137
:106FA00018210041CDCCCCCC08210041002100416A
:106FB0007C1901083C1901086419010838B5D0F89A
:106FC0008C500E48FDF764FE032404F50013A1085D
:106FD00003F5205301EB410103EB810189002846B1
:106FE000FBF71EFC013401460548FDF751FE072C56
:106FF000EBD10448FDF74CFE012038BD8C19010887
:10700000A019010880F2000838B5D0F88C40084972
:107010002046FBF705FC074905462046FBF700FC28
:10702000294602460448FDF733FE012038BD00BF63
:107030000440800000408000A81901082DE9F04FAD
:1070400085B00C4698460646924601F00309033384
:107050004B4423F0030303F10A0121F0070100AFC1
:10706000ADEB010D1A46FF216846C7F80CD0D6F8E3
:107070008C5003F07FFA4246A04408F1FF38514695
:107080000DEB090003F000FA24F03F0A28F03F035B
:1070900028F003029A45BB607A6024F0030498BF8D
:1070A0004FF0000858D854450AF13C095FD8BB6836
:1070B0009A4559D0FB68214653F828202846FBF70B
:1070C000B1FAD6F88C0045494AF24152FBF7AAFAC8
:1070D000AA69043442F0120228460021FBF784F822
:1070E000284622460421FBF77FF868682A7AC3689D
:1070F000120608210AF1400998474C4508F101029F
:1071000069D2FB6803EB880B9046043468680C2155
:107110005BF8042FFBF74AF84C4508F10108F4D35B
:1071200028462F49FBF77CFBC30709D4F368304698
:10713000984798B928462A49FBF772FBC307F5D54B
:10714000D6F88C0025494AF24052FBF76BFABB682F
:107150000AF1400A5345A6D2002001E04FF0FF306B
:107160001437BD46BDE8F08F7B684B45A2D27B68E3
:10717000AA69994528BF9946284642F01202002183
:10718000FBF732F8284604212246FBF72DF8686801
:107190002A7AC368120608219847A1450DD3FB68D7
:1071A00003EB880B043468680C215BF8042BFAF7B6
:1071B000FDFF4C4508F10108F4D9D6F88C000749C9
:1071C0004AF24152FBF72EFA284604494AF2045289
:1071D000FBF728FAAEE79046ACE700BF004000415D
:1071E0001440004110B5D0F88C40FCF7F5FD204666
:1071F0000649FBF715FB830500D410BD2046BDE80A
:10720000104002494FF40072FBF70CBA0021004114
:1072100010B5D0F88C40FCF7EFF820460649FBF794
:10722000FFFA830500D410BD2046BDE81040024996
:107230004FF40072FBF7F6B900210041F8B5D0F821
:107240008C50002600270024E1B201F0030303F173
:10725000825303F6F87301F0FC01591A890028469D
:10726000FBF7DEFAE300C0B201349840052C46EA91
:107270000006E9D130463946F8BD00BFF8B5D0F870
:107280008C50002600270024074928462144FBF79C
:10729000C7FA6300C0B204349840102C46EA0006D6
:1072A000F2D13046F8BD00BFF03F0041F0B583B0E9
:1072B0000446D0F88C60FFF7E1FF05462046FFF753
:1072C000BDFF304B9D4202D0002003B0F0BD20F046
:1072D0007F402D4B20F400209842F5D130462B49B9
:1072E000FBF79EFA2A4B0340B3F1805FECD1294BA8
:1072F00000F00F01A3FB01239B08032B18BF264AB4
:10730000C0F3032018BFD25C224B244FA3FB0153D0
:107310004FEA930303EB8303A1EB030300F1410561
:10732000C3F1120308BF7522DBB2009538461C4931
:1073300003F092F91B4B422DE76723641CD01A4BD4
:107340001A491B4AE16622676367D8312046194A09
:1073500000F08CFF184B1B780BB10120B5E73046CD
:107360001649FBF75DFA8305F7D5304613494FF40C
:107370000072FBF757F9F0E7114A124BA260E36481
:10738000DDE700BF0D1005B1D0FC01001821004160
:107390000000BFFFCDCCCCCC0C1801087811002028
:1073A000C0190108956E00083D700008101801080A
:1073B000196E0008DC190108961100200021004117
:1073C00011720008E571000838B50546054C064AFB
:1073D0002146FBF727F928462146BDE83840034AF5
:1073E000FBF720B90420024023016745AB89EFCDAC
:1073F00038B5D0F88C5004460D4928464FF4087231
:10740000FBF710F928460A494FF41872FBF70AF9FE
:1074100003E0E3682046984738B928460549FBF75A
:10742000FFF9C307F5D4012038BD002038BD00BFE7
:10743000102002400C20024038B5D0F88C50044691
:107440002846FFF7C1FF284610490422FBF7EAF857
:1074500028460E494422FBF7E5F803E0E36820469E
:10746000984788B928460A49FBF7DAF9C307F5D4E3
:1074700028460749FBF7D4F900F03400A0F12000BA
:10748000B0FA80F0400938BD002038BD102002401D
:107490000C2002402DE9F041013AD0F88C50C3F1A4
:1074A0000008D61806EA0806044628461F4608EAD9
:1074B0000108FFF789FF1EB3F61B28461649022272
:1074C000FBF7B0F8284642461449FBF7ABF82846CC
:1074D00011494222FBF7A6F803E0E36820469847EB
:1074E00050B928460E49FBF79BF9C307F5D4B844B9
:1074F000F31B2EB11E46E0E74FF0FF30BDE8F081F0
:1075000028460749FBF78CF900F03400203818BFF3
:107510004FF0FF30BDE8F0811020024014200240FF
:107520000C2002404FF40063B4E700BF4FF48063C7
:10753000B0E700BFF8B54FF6FF739A42D0F88C5011
:1075400018D00F46164604460C4928464FF40472DC
:10755000FBF768F8284639463246FBF779F803E02E
:10756000E3682046984738B928460549FBF758F99B
:10757000C307F5D40120F8BD0020F8BD102002405B
:107580000C2002402DE9F043836E85B0A3F2224324
:107590001E2B07460D469146D0F88C6041D845F227
:1075A000AA5245F6A5280120564900FA03F31940CE
:1075B000002918BF904654493046FBF731F900F0D6
:1075C00002043046FFF700FF30465049504AFBF7AF
:1075D00029F830464D494F4AFBF724F8022D23D0B5
:1075E0005CBB032D33D04C48FDF736FB4B48FDF711
:1075F00033FB4B4C4B4F21463046FBF711F9054608
:10760000214682B24848FDF743FBA11C2A0C46489C
:107610000434FDF73DFBBC42EDD1012005B0BDE8CF
:10762000F08345F6A528C6E7D9F804003F4903F0E2
:10763000A9F800285DD0002CD5D03D48FDF70CFB03
:107640003C48FDF709FB012005B0BDE8F083D9F8FF
:1076500004002146224603F0E7FA05462146D9F800
:107660000800224603F0E0FA05F1604505F50065E3
:107670006D08072D8146D7F88C80BAD804F10051E7
:10768000A1F500614046FBF7CBF8631004AA04346F
:1076900002EB4301102C4FEA104221F8100C21F8A4
:1076A0000E2CEBD16D0004AB2B4433F8103C1FFAC9
:1076B00089F999459DD04FF6FF72934204D0384620
:1076C000FFF796FE002894D004AB1D44144CDFF85D
:1076D000548025F8109CADF102052146384635F856
:1076E000022FFFF727FF0234002882D04445F4D14F
:1076F0007FE73846FFF77CFE384642460849FFF7E9
:1077000019FF76E7010001401C20024008200240DA
:1077100023016745AB89EFCD8C1D0108AC1D010825
:1077200000F8FF1F10F8FF1FD41D01082C1D0108D1
:10773000341D0108501D01082DE9F04701F0030E2A
:10774000DD1C7544AD08B5F5807F00AF0E46D0F85E
:107750008C8048D8044605F1020A4FEA8A0A11468D
:107760001A460AF10A0323F00703ADEB030D02A842
:10777000CEEB0606AAF1080C4FF0FF33704401353A
:107780008DE8401002934DF8253002F07DFE6569CA
:107790004FF00051164A2C232046A8476A4653460C
:1077A000144965692046A847E36B20464FF0005115
:1077B0009847E36820469847A8B90146E36C2046FD
:1077C0009847A36C204698470028FAD040460A49BB
:1077D000FBF726F810F0140F14BF4FF0FF30002015
:1077E000BD46BDE8F0874FF0FF30BD46BDE8F087ED
:1077F000A81A01082C0000200C20024010B54549B1
:107800000446D0F88C00FBF70BF8C0F30B00A0F592
:107810008263A066222B44D8DFE803F0334333436E
:1078200023434343234343434343434333431243A9
:1078300043434343234343434343434343431200AC
:107840003549364B364AA1F1E000E167E066226730
:107850002046A1F58E716367324A00F007FD0120D2
:1078600010BD31492D4B2E4A01F11800E167E06649
:1078700022672046243963672C4A00F0F7FC012078
:1078800010BD2B49254B2B4A01F11800E167E0663A
:1078900022672046F4316367274A00F0E7FC0120A5
:1078A00010BDD4F88C002549FAF7BAFFC0F30B00DD
:1078B000A0F58863082BA0660ED840F2351001228F
:1078C0009A40104048B1082B0AD8DFE803F01F099E
:1078D00007091C1909091600002010BD184BE367A1
:1078E0000E4B1849134AE16622672046DC31636774
:1078F000154A00F0BBFC012010BD144BE367EFE715
:10790000134BE367ECE7134BE367E9E7124BE367DD
:10791000E6E700BF002004E0E41C01083977000816
:1079200025750008FC1D0108EC1B0108F01D01086D
:10793000D41A01082D750008E41D01080058014003
:10794000201D0108EC1A0108041E0108141D01087D
:10795000FC1C0108F01C0108081D010870B5D0F8D6
:107960008C5004460E4628461C491D4AFAF75AFE1A
:1079700028461A491B4AFAF755FE03E0E3682046F9
:10798000984738BB28461849FAF74AFFC203F5D48E
:1079900026F0704626F01306324628461349FAF7B9
:1079A00041FE284646F002021049FAF73BFE03E08A
:1079B000E3682046984778B928460B49FAF730FF24
:1079C000C303F5D4284646F001020849FAF72AFE17
:1079D000012070BD012070BD002070BD083C024038
:1079E0003B2A19087F6E5D4C0C3C0240143C02405F
:1079F000022970B505461646D0F88C4021D00329DF
:107A000005D11A49506802F0BDFE014620B318485E
:107A1000FDF722F91748FDF71FF920461649FAF736
:107A2000FFFE154982B21548FDF732F92046144988
:107A3000FAF7F6FE124982B21048FDF729F9012043
:107A400070BD50680F4902F09DFE0028DFD1284626
:107A50000D49FFF783FFE0E70A46B06803F08AF9B3
:107A600001462846FFF77AFFD7E700BFF421010857
:107A70008C1D0108FC21010800C0FF1FD41D010856
:107A800008C0FF1F2C1D0108EDAAFF0F8C462DE931
:107A9000F047044601F0030EDD1C7544AD0805F106
:107AA00002084FEA880808F10A0121F0070100AF37
:107AB000ADEB010D02A8CEEB0C0C70441146013564
:107AC0001A464FF0FF3AA8F10803CDF800C0019321
:107AD000CDF808A0D4F88C904DF825A002F0D4FC85
